{
  "contractName": "AdminManager",
  "abi": [
    {
      "inputs": [
        {
          "internalType": "address[]",
          "name": "_contractAdmins",
          "type": "address[]"
        },
        {
          "internalType": "uint256",
          "name": "_minApprovals",
          "type": "uint256"
        },
        {
          "internalType": "address",
          "name": "_verifierContract",
          "type": "address"
        },
        {
          "internalType": "string",
          "name": "_contactP2P",
          "type": "string"
        }
      ],
      "stateMutability": "nonpayable",
      "type": "constructor"
    },
    {
      "anonymous": false,
      "inputs": [
        {
          "indexed": false,
          "internalType": "uint256",
          "name": "_disputeIndex",
          "type": "uint256"
        }
      ],
      "name": "NewDispute",
      "type": "event"
    },
    {
      "inputs": [],
      "name": "ContactP2P",
      "outputs": [
        {
          "internalType": "string",
          "name": "",
          "type": "string"
        }
      ],
      "stateMutability": "view",
      "type": "function",
      "constant": true
    },
    {
      "inputs": [
        {
          "internalType": "uint256",
          "name": "",
          "type": "uint256"
        }
      ],
      "name": "DisputeProposals",
      "outputs": [
        {
          "internalType": "uint256",
          "name": "gardenIndex",
          "type": "uint256"
        },
        {
          "internalType": "uint256",
          "name": "ownerAmount",
          "type": "uint256"
        },
        {
          "internalType": "uint256",
          "name": "tenantAmount",
          "type": "uint256"
        },
        {
          "internalType": "uint256",
          "name": "balance",
          "type": "uint256"
        },
        {
          "internalType": "bool",
          "name": "isOpen",
          "type": "bool"
        },
        {
          "internalType": "bool",
          "name": "isReady",
          "type": "bool"
        }
      ],
      "stateMutability": "view",
      "type": "function",
      "constant": true
    },
    {
      "inputs": [],
      "name": "GManager",
      "outputs": [
        {
          "internalType": "contract GardenManager",
          "name": "",
          "type": "address"
        }
      ],
      "stateMutability": "view",
      "type": "function",
      "constant": true
    },
    {
      "inputs": [
        {
          "internalType": "uint256",
          "name": "",
          "type": "uint256"
        }
      ],
      "name": "GardenProposals",
      "outputs": [
        {
          "internalType": "uint256",
          "name": "gardenIndex",
          "type": "uint256"
        },
        {
          "internalType": "bool",
          "name": "isOpen",
          "type": "bool"
        }
      ],
      "stateMutability": "view",
      "type": "function",
      "constant": true
    },
    {
      "inputs": [],
      "name": "MinApprovals",
      "outputs": [
        {
          "internalType": "uint256",
          "name": "",
          "type": "uint256"
        }
      ],
      "stateMutability": "view",
      "type": "function",
      "constant": true
    },
    {
      "inputs": [],
      "name": "VerifierContract",
      "outputs": [
        {
          "internalType": "contract Verifier",
          "name": "",
          "type": "address"
        }
      ],
      "stateMutability": "view",
      "type": "function",
      "constant": true
    },
    {
      "inputs": [],
      "name": "disputeProposalsCount",
      "outputs": [
        {
          "internalType": "uint256",
          "name": "",
          "type": "uint256"
        }
      ],
      "stateMutability": "view",
      "type": "function",
      "constant": true
    },
    {
      "inputs": [
        {
          "internalType": "uint256",
          "name": "_gardenIndex",
          "type": "uint256"
        }
      ],
      "name": "getGardenProposalById",
      "outputs": [
        {
          "internalType": "uint256",
          "name": "gardenIndex",
          "type": "uint256"
        },
        {
          "internalType": "uint256[2]",
          "name": "secretHash",
          "type": "uint256[2]"
        },
        {
          "internalType": "address[]",
          "name": "acceptProposal",
          "type": "address[]"
        },
        {
          "internalType": "address[]",
          "name": "rejectProposal",
          "type": "address[]"
        },
        {
          "internalType": "bool",
          "name": "isOpen",
          "type": "bool"
        }
      ],
      "stateMutability": "view",
      "type": "function",
      "constant": true
    },
    {
      "inputs": [
        {
          "internalType": "uint256",
          "name": "_disputeId",
          "type": "uint256"
        }
      ],
      "name": "getDisputeProposalById",
      "outputs": [
        {
          "internalType": "uint256",
          "name": "gardenIndex",
          "type": "uint256"
        },
        {
          "internalType": "uint256",
          "name": "ownerAmount",
          "type": "uint256"
        },
        {
          "internalType": "uint256",
          "name": "tenantAmount",
          "type": "uint256"
        },
        {
          "internalType": "uint256",
          "name": "balance",
          "type": "uint256"
        },
        {
          "internalType": "address[]",
          "name": "acceptProposal",
          "type": "address[]"
        },
        {
          "internalType": "bool",
          "name": "isOpen",
          "type": "bool"
        },
        {
          "internalType": "bool",
          "name": "isReady",
          "type": "bool"
        }
      ],
      "stateMutability": "view",
      "type": "function",
      "constant": true
    },
    {
      "inputs": [
        {
          "internalType": "address",
          "name": "_address",
          "type": "address"
        }
      ],
      "name": "addGardenManagerAddress",
      "outputs": [
        {
          "internalType": "address",
          "name": "",
          "type": "address"
        }
      ],
      "stateMutability": "nonpayable",
      "type": "function"
    },
    {
      "inputs": [
        {
          "internalType": "address",
          "name": "_verifierContract",
          "type": "address"
        }
      ],
      "name": "modifyVerifierContractAddress",
      "outputs": [],
      "stateMutability": "nonpayable",
      "type": "function"
    },
    {
      "inputs": [
        {
          "internalType": "uint256",
          "name": "_gardenIndex",
          "type": "uint256"
        },
        {
          "internalType": "uint256[2]",
          "name": "_secret",
          "type": "uint256[2]"
        }
      ],
      "name": "addGarden",
      "outputs": [],
      "stateMutability": "nonpayable",
      "type": "function"
    },
    {
      "inputs": [
        {
          "internalType": "uint256",
          "name": "_gardenIndex",
          "type": "uint256"
        },
        {
          "internalType": "uint256[2]",
          "name": "_proofA",
          "type": "uint256[2]"
        },
        {
          "internalType": "uint256[2][2]",
          "name": "_proofB",
          "type": "uint256[2][2]"
        },
        {
          "internalType": "uint256[2]",
          "name": "_proofC",
          "type": "uint256[2]"
        }
      ],
      "name": "acceptGarden",
      "outputs": [],
      "stateMutability": "nonpayable",
      "type": "function"
    },
    {
      "inputs": [
        {
          "internalType": "uint256",
          "name": "_gardenIndex",
          "type": "uint256"
        }
      ],
      "name": "rejectGarden",
      "outputs": [],
      "stateMutability": "nonpayable",
      "type": "function"
    },
    {
      "inputs": [
        {
          "internalType": "uint256",
          "name": "_gardenIndex",
          "type": "uint256"
        },
        {
          "internalType": "uint256",
          "name": "_gardenBalance",
          "type": "uint256"
        }
      ],
      "name": "addDispute",
      "outputs": [],
      "stateMutability": "nonpayable",
      "type": "function"
    },
    {
      "inputs": [
        {
          "internalType": "uint256",
          "name": "_disputeIndex",
          "type": "uint256"
        },
        {
          "internalType": "uint256",
          "name": "_ownerAmount",
          "type": "uint256"
        },
        {
          "internalType": "uint256",
          "name": "_tenantAmount",
          "type": "uint256"
        }
      ],
      "name": "setAmountForDispute",
      "outputs": [],
      "stateMutability": "nonpayable",
      "type": "function"
    },
    {
      "inputs": [
        {
          "internalType": "uint256",
          "name": "_disputeIndex",
          "type": "uint256"
        }
      ],
      "name": "acceptDispute",
      "outputs": [],
      "stateMutability": "nonpayable",
      "type": "function"
    }
  ],
  "bytecode": "0x60806040523480156200001157600080fd5b50604051620028b9380380620028b9833981810160405260808110156200003757600080fd5b81019080805160405193929190846401000000008211156200005857600080fd5b838201915060208201858111156200006f57600080fd5b82518660208202830111640100000000821117156200008d57600080fd5b8083526020830192505050908051906020019060200280838360005b83811015620000c6578082015181840152602081019050620000a9565b505050509050016040526020018051906020019092919080519060200190929190805160405193929190846401000000008211156200010457600080fd5b838201915060208201858111156200011b57600080fd5b82518660018202830111640100000000821117156200013957600080fd5b8083526020830192505050908051906020019080838360005b838110156200016f57808201518184015260208101905062000152565b50505050905090810190601f1680156200019d5780820380516001836020036101000a031916815260200191505b5060405250505060008090505b84518110156200022e57600160026000878481518110620001c757fe5b602002602001015173ffffffffffffffffffffffffffffffffffffffff1673ffffffffffffffffffffffffffffffffffffffff16815260200190815260200160002060006101000a81548160ff0219169083151502179055508080600101915050620001aa565b508260078190555033600560006101000a81548173ffffffffffffffffffffffffffffffffffffffff021916908373ffffffffffffffffffffffffffffffffffffffff160217905550816000806101000a81548173ffffffffffffffffffffffffffffffffffffffff021916908373ffffffffffffffffffffffffffffffffffffffff1602179055508060069080519060200190620002cf929190620002da565b505050505062000389565b828054600181600116156101000203166002900490600052602060002090601f016020900481019282601f106200031d57805160ff19168380011785556200034e565b828001600101855582156200034e579182015b828111156200034d57825182559160200191906001019062000330565b5b5090506200035d919062000361565b5090565b6200038691905b808211156200038257600081600090555060010162000368565b5090565b90565b61252080620003996000396000f3fe608060405234801561001057600080fd5b506004361061010b5760003560e01c80635e8b2aae116100a2578063b0191b8f11610071578063b0191b8f1461052d578063b6f2a3d61461055b578063bf81926014610579578063c7f652dd146105bd578063e825bf91146106c95761010b565b80635e8b2aae1461041c57806387ad7c55146104695780638b86bf30146104ab5780638f205f4d146104e35761010b565b80632cb6b57d116100de5780632cb6b57d14610213578063306976981461029657806356e061dc1461031a5780635af6a819146103cf5761010b565b806312d901061461011057806319ab65c71461012e5780631a7009841461019b57806322d03761146101e5575b600080fd5b610118610738565b6040518082815260200191505060405180910390f35b61015a6004803603602081101561014457600080fd5b810190808035906020019092919050505061073e565b604051808781526020018681526020018581526020018481526020018315151515815260200182151515158152602001965050505050505060405180910390f35b6101a3610794565b604051808273ffffffffffffffffffffffffffffffffffffffff1673ffffffffffffffffffffffffffffffffffffffff16815260200191505060405180910390f35b610211600480360360208110156101fb57600080fd5b81019080803590602001909291905050506107ba565b005b61021b610b60565b6040518080602001828103825283818151815260200191508051906020019080838360005b8381101561025b578082015181840152602081019050610240565b50505050905090810190601f1680156102885780820380516001836020036101000a031916815260200191505b509250505060405180910390f35b6102d8600480360360208110156102ac57600080fd5b81019080803573ffffffffffffffffffffffffffffffffffffffff169060200190929190505050610bfe565b604051808273ffffffffffffffffffffffffffffffffffffffff1673ffffffffffffffffffffffffffffffffffffffff16815260200191505060405180910390f35b6103466004803603602081101561033057600080fd5b8101908080359060200190929190505050610d0c565b60405180888152602001878152602001868152602001858152602001806020018415151515815260200183151515158152602001828103825285818151815260200191508051906020019060200280838360005b838110156103b557808201518184015260208101905061039a565b505050509050019850505050505050505060405180910390f35b61041a60048036036101208110156103e657600080fd5b8101908080359060200190929190806040019091929192908060800190919291929080604001909192919290505050610e6b565b005b6104486004803603602081101561043257600080fd5b81019080803590602001909291905050506113bf565b60405180838152602001821515151581526020019250505060405180910390f35b6104a96004803603606081101561047f57600080fd5b810190808035906020019092919080359060200190929190803590602001909291905050506113f0565b005b6104e1600480360360408110156104c157600080fd5b810190808035906020019092919080359060200190929190505050611697565b005b6104eb6118b1565b604051808273ffffffffffffffffffffffffffffffffffffffff1673ffffffffffffffffffffffffffffffffffffffff16815260200191505060405180910390f35b6105596004803603602081101561054357600080fd5b81019080803590602001909291905050506118d6565b005b610563611d1c565b6040518082815260200191505060405180910390f35b6105bb6004803603602081101561058f57600080fd5b81019080803573ffffffffffffffffffffffffffffffffffffffff169060200190929190505050611d22565b005b6105e9600480360360208110156105d357600080fd5b8101908080359060200190929190505050611f05565b6040518086815260200185600260200280838360005b8381101561061a5780820151818401526020810190506105ff565b50505050905001806020018060200184151515158152602001838103835286818151815260200191508051906020019060200280838360005b8381101561066e578082015181840152602081019050610653565b50505050905001838103825285818151815260200191508051906020019060200280838360005b838110156106b0578082015181840152602081019050610695565b5050505090500197505050505050505060405180910390f35b610736600480360360608110156106df57600080fd5b810190808035906020019092919080604001906002806020026040519081016040528092919082600260200280828437600081840152601f19601f82011690508083019250505050505091929192905050506120f8565b005b60075481565b60046020528060005260406000206000915090508060000154908060010154908060020154908060030154908060050160009054906101000a900460ff16908060050160019054906101000a900460ff16905086565b600160009054906101000a900473ffffffffffffffffffffffffffffffffffffffff1681565b600260003373ffffffffffffffffffffffffffffffffffffffff1673ffffffffffffffffffffffffffffffffffffffff16815260200190815260200160002060009054906101000a900460ff16610879576040517f08c379a000000000000000000000000000000000000000000000000000000000815260040180806020018281038252601f8152602001807f4f6e6c792061646d696e6973747261746f72732073686f756c642063616c6c0081525060200191505060405180910390fd5b806003600082815260200190815260200160002060050160009054906101000a900460ff16610910576040517f08c379a000000000000000000000000000000000000000000000000000000000815260040180806020018281038252601e8152602001807f47617264656e50726f706f73616c2073686f756c64206265206f70656e2e000081525060200191505060405180910390fd5b6000600360008481526020019081526020016000209050600080905060008090505b82600401805490508110156109c4573373ffffffffffffffffffffffffffffffffffffffff1683600401828154811061096757fe5b9060005260206000200160009054906101000a900473ffffffffffffffffffffffffffffffffffffffff1673ffffffffffffffffffffffffffffffffffffffff1614156109b757600191506109c4565b8080600101915050610932565b508015610a39576040517f08c379a00000000000000000000000000000000000000000000000000000000081526004018080602001828103825260198152602001807f596f752073686f756c64206f6e6c7920766f7465206f6e63650000000000000081525060200191505060405180910390fd5b81600401339080600181540180825580915050600190039060005260206000200160009091909190916101000a81548173ffffffffffffffffffffffffffffffffffffffff021916908373ffffffffffffffffffffffffffffffffffffffff16021790555060075482600401805490501415610b5a57600160009054906101000a900473ffffffffffffffffffffffffffffffffffffffff1673ffffffffffffffffffffffffffffffffffffffff166322d03761856040518263ffffffff1660e01b815260040180828152602001915050600060405180830381600087803b158015610b2457600080fd5b505af1158015610b38573d6000803e3d6000fd5b5050505060008260050160006101000a81548160ff0219169083151502179055505b50505050565b60068054600181600116156101000203166002900480601f016020809104026020016040519081016040528092919081815260200182805460018160011615610100020316600290048015610bf65780601f10610bcb57610100808354040283529160200191610bf6565b820191906000526020600020905b815481529060010190602001808311610bd957829003601f168201915b505050505081565b6000600560009054906101000a900473ffffffffffffffffffffffffffffffffffffffff1673ffffffffffffffffffffffffffffffffffffffff163373ffffffffffffffffffffffffffffffffffffffff1614610cc3576040517f08c379a00000000000000000000000000000000000000000000000000000000081526004018080602001828103825260148152602001807f4d75737420626520746865206465706c6f79657200000000000000000000000081525060200191505060405180910390fd5b81600160006101000a81548173ffffffffffffffffffffffffffffffffffffffff021916908373ffffffffffffffffffffffffffffffffffffffff160217905550819050919050565b6000806000806060600080610d1f6122db565b600460008a81526020019081526020016000206040518060e00160405290816000820154815260200160018201548152602001600282015481526020016003820154815260200160048201805480602002602001604051908101604052809291908181526020018280548015610dea57602002820191906000526020600020905b8160009054906101000a900473ffffffffffffffffffffffffffffffffffffffff1673ffffffffffffffffffffffffffffffffffffffff1681526020019060010190808311610da0575b505050505081526020016005820160009054906101000a900460ff161515151581526020016005820160019054906101000a900460ff1615151515815250509050806000015181602001518260400151836060015184608001518560a001518660c00151829250975097509750975097509750975050919395979092949650565b600260003373ffffffffffffffffffffffffffffffffffffffff1673ffffffffffffffffffffffffffffffffffffffff16815260200190815260200160002060009054906101000a900460ff16610f2a576040517f08c379a000000000000000000000000000000000000000000000000000000000815260040180806020018281038252601f8152602001807f4f6e6c792061646d696e6973747261746f72732073686f756c642063616c6c0081525060200191505060405180910390fd5b836003600082815260200190815260200160002060050160009054906101000a900460ff16610fc1576040517f08c379a000000000000000000000000000000000000000000000000000000000815260040180806020018281038252601e8152602001807f47617264656e50726f706f73616c2073686f756c64206265206f70656e2e000081525060200191505060405180910390fd5b6000600360008781526020019081526020016000209050600080905060008090505b8260030180549050811015611075573373ffffffffffffffffffffffffffffffffffffffff1683600301828154811061101857fe5b9060005260206000200160009054906101000a900473ffffffffffffffffffffffffffffffffffffffff1673ffffffffffffffffffffffffffffffffffffffff1614156110685760019150611075565b8080600101915050610fe3565b5080156110ea576040517f08c379a00000000000000000000000000000000000000000000000000000000081526004018080602001828103825260198152602001807f596f752073686f756c64206f6e6c7920766f7465206f6e63650000000000000081525060200191505060405180910390fd5b6000809054906101000a900473ffffffffffffffffffffffffffffffffffffffff1673ffffffffffffffffffffffffffffffffffffffff1663621e9ec0878787866001016040518563ffffffff1660e01b81526004018085600260200280828437600081840152601f19601f82011690508083019250505084600260400280828437600081840152601f19601f82011690508083019250505083600260200280828437600081840152601f19601f82011690508083019250505082600280156111c8576020028201915b8154815260200190600101908083116111b4575b505094505050505060206040518083038186803b1580156111e857600080fd5b505afa1580156111fc573d6000803e3d6000fd5b505050506040513d602081101561121257600080fd5b8101908080519060200190929190505050611295576040517f08c379a00000000000000000000000000000000000000000000000000000000081526004018080602001828103825260178152602001807f50726f6f66206f662073656372657420696e76616c696400000000000000000081525060200191505060405180910390fd5b81600301339080600181540180825580915050600190039060005260206000200160009091909190916101000a81548173ffffffffffffffffffffffffffffffffffffffff021916908373ffffffffffffffffffffffffffffffffffffffff160217905550600754826003018054905014156113b657600160009054906101000a900473ffffffffffffffffffffffffffffffffffffffff1673ffffffffffffffffffffffffffffffffffffffff1663c5ca958f886040518263ffffffff1660e01b815260040180828152602001915050600060405180830381600087803b15801561138057600080fd5b505af1158015611394573d6000803e3d6000fd5b5050505060008260050160006101000a81548160ff0219169083151502179055505b50505050505050565b60036020528060005260406000206000915090508060000154908060050160009054906101000a900460ff16905082565b600560009054906101000a900473ffffffffffffffffffffffffffffffffffffffff1673ffffffffffffffffffffffffffffffffffffffff163373ffffffffffffffffffffffffffffffffffffffff16146114b3576040517f08c379a00000000000000000000000000000000000000000000000000000000081526004018080602001828103825260148152602001807f4d75737420626520746865206465706c6f79657200000000000000000000000081525060200191505060405180910390fd5b826004600082815260200190815260200160002060050160009054906101000a900460ff1661154a576040517f08c379a000000000000000000000000000000000000000000000000000000000815260040180806020018281038252601f8152602001807f4469737075746550726f706f73616c2073686f756c64206265206f70656e2e0081525060200191505060405180910390fd5b60006004600086815260200190815260200160002090508060030154838501146115dc576040517f08c379a00000000000000000000000000000000000000000000000000000000081526004018080602001828103825260118152602001807f496e636f727265637420616d6f756e747300000000000000000000000000000081525060200191505060405180910390fd5b60008160040180549050146115fc578060040160006115fb919061231c565b5b83816001018190555082816002018190555060018160050160016101000a81548160ff02191690831515021790555080600401339080600181540180825580915050600190039060005260206000200160009091909190916101000a81548173ffffffffffffffffffffffffffffffffffffffff021916908373ffffffffffffffffffffffffffffffffffffffff1602179055505050505050565b600160009054906101000a900473ffffffffffffffffffffffffffffffffffffffff1673ffffffffffffffffffffffffffffffffffffffff163373ffffffffffffffffffffffffffffffffffffffff161461175a576040517f08c379a000000000000000000000000000000000000000000000000000000000815260040180806020018281038252601f8152602001807f4d7573742062652067617264656e206d616e6167657220636f6e74726163740081525060200191505060405180910390fd5b6008600081548092919060010191905055506040518060e00160405280838152602001600081526020016000815260200182815260200160006040519080825280602002602001820160405280156117c15781602001602082028038833980820191505090505b5081526020016001151581526020016000151581525060046000600854815260200190815260200160002060008201518160000155602082015181600101556040820151816002015560608201518160030155608082015181600401908051906020019061183092919061233d565b5060a08201518160050160006101000a81548160ff02191690831515021790555060c08201518160050160016101000a81548160ff0219169083151502179055509050507f3429da6e53962749e10291ad809c54178f777ecbaad1ce7cec0e23120d9954816008546040518082815260200191505060405180910390a15050565b6000809054906101000a900473ffffffffffffffffffffffffffffffffffffffff1681565b600260003373ffffffffffffffffffffffffffffffffffffffff1673ffffffffffffffffffffffffffffffffffffffff16815260200190815260200160002060009054906101000a900460ff16611995576040517f08c379a000000000000000000000000000000000000000000000000000000000815260040180806020018281038252601f8152602001807f4f6e6c792061646d696e6973747261746f72732073686f756c642063616c6c0081525060200191505060405180910390fd5b806004600082815260200190815260200160002060050160009054906101000a900460ff16611a2c576040517f08c379a000000000000000000000000000000000000000000000000000000000815260040180806020018281038252601f8152602001807f4469737075746550726f706f73616c2073686f756c64206265206f70656e2e0081525060200191505060405180910390fd5b60006004600084815260200190815260200160002090508060050160019054906101000a900460ff16611ac7576040517f08c379a000000000000000000000000000000000000000000000000000000000815260040180806020018281038252600f8152602001807f416d6f756e7473206e6f7420736574000000000000000000000000000000000081525060200191505060405180910390fd5b600080905060008090505b8260040180549050811015611b64573373ffffffffffffffffffffffffffffffffffffffff16836004018281548110611b0757fe5b9060005260206000200160009054906101000a900473ffffffffffffffffffffffffffffffffffffffff1673ffffffffffffffffffffffffffffffffffffffff161415611b575760019150611b64565b8080600101915050611ad2565b508015611bd9576040517f08c379a00000000000000000000000000000000000000000000000000000000081526004018080602001828103825260198152602001807f596f752073686f756c64206f6e6c7920766f7465206f6e63650000000000000081525060200191505060405180910390fd5b81600401339080600181540180825580915050600190039060005260206000200160009091909190916101000a81548173ffffffffffffffffffffffffffffffffffffffff021916908373ffffffffffffffffffffffffffffffffffffffff16021790555060075482600401805490501415611d1657600160009054906101000a900473ffffffffffffffffffffffffffffffffffffffff1673ffffffffffffffffffffffffffffffffffffffff166369ba8bee8360000154846001015485600201546040518463ffffffff1660e01b8152600401808481526020018381526020018281526020019350505050600060405180830381600087803b158015611ce057600080fd5b505af1158015611cf4573d6000803e3d6000fd5b5050505060008260050160006101000a81548160ff0219169083151502179055505b50505050565b60085481565b600560009054906101000a900473ffffffffffffffffffffffffffffffffffffffff1673ffffffffffffffffffffffffffffffffffffffff163373ffffffffffffffffffffffffffffffffffffffff1614611de5576040517f08c379a00000000000000000000000000000000000000000000000000000000081526004018080602001828103825260148152602001807f4d75737420626520746865206465706c6f79657200000000000000000000000081525060200191505060405180910390fd5b806000806101000a81548173ffffffffffffffffffffffffffffffffffffffff021916908373ffffffffffffffffffffffffffffffffffffffff160217905550600160009054906101000a900473ffffffffffffffffffffffffffffffffffffffff1673ffffffffffffffffffffffffffffffffffffffff166366d280a5826040518263ffffffff1660e01b8152600401808273ffffffffffffffffffffffffffffffffffffffff1673ffffffffffffffffffffffffffffffffffffffff168152602001915050602060405180830381600087803b158015611ec657600080fd5b505af1158015611eda573d6000803e3d6000fd5b505050506040513d6020811015611ef057600080fd5b81019080805190602001909291905050505050565b6000611f0f6123c7565b6060806000611f1c6123e9565b600360008881526020019081526020016000206040518060a00160405290816000820154815260200160018201600280602002604051908101604052809291908260028015611f80576020028201915b815481526020019060010190808311611f6c575b505050505081526020016003820180548060200260200160405190810160405280929190818152602001828054801561200e57602002820191906000526020600020905b8160009054906101000a900473ffffffffffffffffffffffffffffffffffffffff1673ffffffffffffffffffffffffffffffffffffffff1681526020019060010190808311611fc4575b505050505081526020016004820180548060200260200160405190810160405280929190818152602001828054801561209c57602002820191906000526020600020905b8160009054906101000a900473ffffffffffffffffffffffffffffffffffffffff1673ffffffffffffffffffffffffffffffffffffffff1681526020019060010190808311612052575b505050505081526020016005820160009054906101000a900460ff161515151581525050905080600001518160200151826040015183606001518460800151839350829250819150955095509550955095505091939590929450565b600160009054906101000a900473ffffffffffffffffffffffffffffffffffffffff1673ffffffffffffffffffffffffffffffffffffffff163373ffffffffffffffffffffffffffffffffffffffff16146121bb576040517f08c379a000000000000000000000000000000000000000000000000000000000815260040180806020018281038252601f8152602001807f4d7573742062652067617264656e206d616e6167657220636f6e74726163740081525060200191505060405180910390fd5b6040518060a0016040528083815260200182815260200160006040519080825280602002602001820160405280156122025781602001602082028038833980820191505090505b50815260200160006040519080825280602002602001820160405280156122385781602001602082028038833980820191505090505b508152602001600115158152506003600084815260200190815260200160002060008201518160000155602082015181600101906002612279929190612420565b50604082015181600301908051906020019061229692919061233d565b5060608201518160040190805190602001906122b392919061233d565b5060808201518160050160006101000a81548160ff0219169083151502179055509050505050565b6040518060e0016040528060008152602001600081526020016000815260200160008152602001606081526020016000151581526020016000151581525090565b508054600082559060005260206000209081019061233a9190612460565b50565b8280548282559060005260206000209081019282156123b6579160200282015b828111156123b55782518260006101000a81548173ffffffffffffffffffffffffffffffffffffffff021916908373ffffffffffffffffffffffffffffffffffffffff1602179055509160200191906001019061235d565b5b5090506123c39190612485565b5090565b6040518060400160405280600290602082028038833980820191505090505090565b6040518060a00160405280600081526020016124036124c8565b815260200160608152602001606081526020016000151581525090565b826002810192821561244f579160200282015b8281111561244e578251825591602001919060010190612433565b5b50905061245c9190612460565b5090565b61248291905b8082111561247e576000816000905550600101612466565b5090565b90565b6124c591905b808211156124c157600081816101000a81549073ffffffffffffffffffffffffffffffffffffffff02191690555060010161248b565b5090565b90565b604051806040016040528060029060208202803883398082019150509050509056fea2646970667358221220be78d39ff6d0d9da63888a1b1e6c81fbd681514fbba35f439c87ce04c083965c64736f6c63430006010033",
  "source": "// SPDX-License-Identifier: MIT\r\npragma solidity ^0.6.1;\r\nimport \"./GardenManager.sol\";\r\nimport \"./Verifier.sol\";\r\n\r\n/// @title AdminManager contract\r\n/// @author Aymeric NOEL <aymeric.noel@octo.com>\r\n/// @notice Use this contract as a multisignature contract to validate garden and resolve dispute on @GardenManager contract\r\ncontract AdminManager{   \r\n    struct GardenProposal{\r\n        uint gardenIndex;\r\n        uint[2] secretHash;\r\n        address[] acceptProposal;\r\n        address[] rejectProposal;\r\n        bool isOpen;\r\n    }\r\n   \r\n    struct DisputeProposal{\r\n        uint gardenIndex;\r\n        uint ownerAmount;\r\n        uint tenantAmount;\r\n        uint balance;\r\n        address[] acceptProposal;\r\n        bool isOpen;\r\n        bool isReady;\r\n    }\r\n\r\n    //import area\r\n    Verifier public VerifierContract;\r\n    GardenManager public GManager;  \r\n\r\n    //administrators of this contract\r\n    mapping (address=>bool) private ContractAdmins; \r\n\r\n    mapping (uint=>GardenProposal) public GardenProposals;\r\n    mapping (uint=>DisputeProposal) public DisputeProposals;\r\n\r\n    address private deployer;\r\n    string public ContactP2P;\r\n\r\n    //minimum approvals to valid a proposal\r\n    uint public MinApprovals;\r\n\r\n    //number of disputeProposal in the contract\r\n    uint public disputeProposalsCount;\r\n\r\n    /// @dev Emited when a new disputeProposal is created\r\n    /// @param _disputeIndex The id of the given disputeProposal\r\n    event NewDispute(uint _disputeIndex);\r\n\r\n    constructor (address[] memory _contractAdmins,uint _minApprovals, address _verifierContract, string memory _contactP2P) public {\r\n        for (uint i = 0; i < _contractAdmins.length; i++) {\r\n            ContractAdmins[_contractAdmins[i]]=true;\r\n        }\r\n        MinApprovals=_minApprovals;\r\n        deployer= msg.sender;\r\n        VerifierContract = Verifier(_verifierContract);\r\n        ContactP2P = _contactP2P;\r\n    }\r\n\r\n    modifier OnlyAdmin{\r\n        require(ContractAdmins[msg.sender], \"Only administrators should call\");\r\n        _;\r\n    }\r\n    modifier OnlyValidGardenProposal(uint _gardenIndex){\r\n        require(GardenProposals[_gardenIndex].isOpen, \"GardenProposal should be open.\");   \r\n        _;   \r\n    }\r\n    modifier OnlyOpenDisputeProposal(uint _disputeIndex){\r\n        require(DisputeProposals[_disputeIndex].isOpen, \"DisputeProposal should be open.\"); \r\n        _;   \r\n    }\r\n    modifier OnlyDeployer{\r\n        require(msg.sender==deployer,\"Must be the deployer\");\r\n        _;\r\n    }\r\n    modifier OnlyGardenManager{\r\n        require(msg.sender== address(GManager),\"Must be garden manager contract\");\r\n        _;\r\n    }\r\n\r\n    function getGardenProposalById(uint _gardenIndex) external view returns(uint gardenIndex,\r\n        uint[2] memory secretHash, address[] memory acceptProposal, address[] memory rejectProposal, bool isOpen){\r\n        GardenProposal memory garden=GardenProposals[_gardenIndex];\r\n        return(garden.gardenIndex,garden.secretHash,garden.acceptProposal,garden.rejectProposal,garden.isOpen);\r\n    }\r\n\r\n    function getDisputeProposalById(uint _disputeId)external view returns(uint gardenIndex,\r\n        uint ownerAmount,\r\n        uint tenantAmount,\r\n        uint balance,\r\n        address[] memory acceptProposal,\r\n        bool isOpen,\r\n        bool isReady){\r\n        DisputeProposal memory dispute = DisputeProposals[_disputeId];\r\n        return (dispute.gardenIndex,dispute.ownerAmount,dispute.tenantAmount,dispute.balance,dispute.acceptProposal,\r\n        dispute.isOpen,dispute.isReady);\r\n    }\r\n\r\n    function addGardenManagerAddress(address _address) external OnlyDeployer returns(address){\r\n        GManager = GardenManager(_address);\r\n        return _address;\r\n    }\r\n\r\n    function modifyVerifierContractAddress(address _verifierContract) external OnlyDeployer{\r\n        VerifierContract = Verifier(_verifierContract);\r\n        GManager.modifyVerifierContract(_verifierContract);\r\n    }\r\n\r\n    function addGarden(uint _gardenIndex, uint[2] memory _secret)public OnlyGardenManager {\r\n        GardenProposals[_gardenIndex] = GardenProposal(_gardenIndex,_secret,new address[](0),new address[](0),true);\r\n    }\r\n\r\n    function acceptGarden(uint _gardenIndex,uint[2] calldata _proofA, uint[2][2] calldata _proofB,\r\n            uint[2] calldata _proofC) external OnlyAdmin OnlyValidGardenProposal(_gardenIndex){\r\n        GardenProposal storage proposal = GardenProposals[_gardenIndex];\r\n        bool alreadyVoted =false;\r\n        for (uint i = 0; i < proposal.acceptProposal.length; i++) {\r\n            if(proposal.acceptProposal[i]==msg.sender){\r\n                alreadyVoted=true;\r\n                break;\r\n            }\r\n        }\r\n        require(!alreadyVoted, \"You should only vote once\");\r\n        require(VerifierContract.verifyTx(_proofA,_proofB,_proofC,proposal.secretHash), \"Proof of secret invalid\");\r\n        proposal.acceptProposal.push(msg.sender);\r\n        if(proposal.acceptProposal.length==MinApprovals){\r\n            GManager.acceptGarden(_gardenIndex);\r\n            proposal.isOpen=false;\r\n        }\r\n    }\r\n\r\n    function rejectGarden(uint _gardenIndex) external OnlyAdmin OnlyValidGardenProposal(_gardenIndex){\r\n        GardenProposal storage proposal = GardenProposals[_gardenIndex];\r\n        bool alreadyVoted =false;\r\n        for (uint i = 0; i < proposal.rejectProposal.length; i++) {\r\n            if(proposal.rejectProposal[i]==msg.sender){\r\n                alreadyVoted=true;\r\n                break;\r\n            }\r\n        }\r\n        require(!alreadyVoted, \"You should only vote once\");\r\n        proposal.rejectProposal.push(msg.sender);\r\n        if(proposal.rejectProposal.length==MinApprovals){\r\n            GManager.rejectGarden(_gardenIndex);\r\n            proposal.isOpen=false;\r\n        }\r\n    }\r\n\r\n    function addDispute(uint _gardenIndex,uint _gardenBalance) public OnlyGardenManager {\r\n        disputeProposalsCount++;\r\n        DisputeProposals[disputeProposalsCount] = DisputeProposal(_gardenIndex,0,0,_gardenBalance,new address[](0),true,false);\r\n        emit NewDispute(disputeProposalsCount);        \r\n    }\r\n\r\n    /// @dev use this function to set amount for the owner and the tenant in order to resolve the dispute.\r\n    /// Only the deployer should call this.\r\n    /// @param _disputeIndex the id of the disputeProposal\r\n    /// @param _ownerAmount the amount that should be given to the owner after dispute\r\n    /// @param _tenantAmount the amount that should be given to the tenant after dispute\r\n    function setAmountForDispute(uint _disputeIndex,uint _ownerAmount, uint _tenantAmount) public OnlyDeployer OnlyOpenDisputeProposal(_disputeIndex){\r\n        DisputeProposal storage proposal = DisputeProposals[_disputeIndex];\r\n        require(_ownerAmount+_tenantAmount==proposal.balance,\"Incorrect amounts\");\r\n        if(proposal.acceptProposal.length !=0){\r\n            delete proposal.acceptProposal;\r\n        }\r\n        proposal.ownerAmount=_ownerAmount;\r\n        proposal.tenantAmount=_tenantAmount;\r\n        proposal.isReady=true;\r\n        proposal.acceptProposal.push(msg.sender);\r\n    }\r\n\r\n    function acceptDispute(uint _disputeIndex) external OnlyAdmin OnlyOpenDisputeProposal(_disputeIndex){\r\n        DisputeProposal storage proposal = DisputeProposals[_disputeIndex]; \r\n        require(proposal.isReady,\"Amounts not set\"); \r\n        bool alreadyVoted =false; \r\n        for (uint i = 0; i < proposal.acceptProposal.length; i++) {\r\n            if(proposal.acceptProposal[i]==msg.sender){\r\n                alreadyVoted=true;\r\n                break;\r\n            }\r\n        }\r\n        require(!alreadyVoted, \"You should only vote once\");        \r\n        proposal.acceptProposal.push(msg.sender);\r\n        if(proposal.acceptProposal.length==MinApprovals){\r\n            GManager.closeDispute(proposal.gardenIndex, proposal.ownerAmount,proposal.tenantAmount);\r\n            proposal.isOpen=false;\r\n        }\r\n    }\r\n}",
  "sourcePath": "C:\\Users\\aymeric.noel\\Desktop\\ZKP\\POC_ZKP\\contracts\\AdminManager.sol",
  "compiler": {
    "name": "solc",
    "version": "0.6.1+commit.e6f7d5a4.Emscripten.clang"
  },
  "schemaVersion": "3.3.4",
  "updatedAt": "2021-04-12T06:50:48.361Z",
  "networkType": "ethereum",
  "devdoc": {
    "author": "Aymeric NOEL <aymeric.noel@octo.com>",
    "methods": {
      "setAmountForDispute(uint256,uint256,uint256)": {
        "details": "use this function to set amount for the owner and the tenant in order to resolve the dispute. Only the deployer should call this.",
        "params": {
          "_disputeIndex": "the id of the disputeProposal",
          "_ownerAmount": "the amount that should be given to the owner after dispute",
          "_tenantAmount": "the amount that should be given to the tenant after dispute"
        }
      }
    },
    "title": "AdminManager contract"
  },
  "userdoc": {
    "methods": {},
    "notice": "Use this contract as a multisignature contract to validate garden and resolve dispute on @GardenManager contract"
  }
}