{
  "contractName": "AdminManager",
  "abi": [
    {
      "inputs": [
        {
          "internalType": "address[]",
          "name": "_contractAdmins",
          "type": "address[]"
        },
        {
          "internalType": "uint256",
          "name": "_minApprovals",
          "type": "uint256"
        },
        {
          "internalType": "address",
          "name": "_verifierContract",
          "type": "address"
        },
        {
          "internalType": "string",
          "name": "_contactP2P",
          "type": "string"
        }
      ],
      "stateMutability": "nonpayable",
      "type": "constructor"
    },
    {
      "anonymous": false,
      "inputs": [
        {
          "indexed": false,
          "internalType": "uint256",
          "name": "_disputeIndex",
          "type": "uint256"
        }
      ],
      "name": "newDispute",
      "type": "event"
    },
    {
      "inputs": [],
      "name": "ContactP2P",
      "outputs": [
        {
          "internalType": "string",
          "name": "",
          "type": "string"
        }
      ],
      "stateMutability": "view",
      "type": "function",
      "constant": true
    },
    {
      "inputs": [
        {
          "internalType": "uint256",
          "name": "",
          "type": "uint256"
        }
      ],
      "name": "DisputeProposals",
      "outputs": [
        {
          "internalType": "uint256",
          "name": "gardenIndex",
          "type": "uint256"
        },
        {
          "internalType": "uint256",
          "name": "ownerAmount",
          "type": "uint256"
        },
        {
          "internalType": "uint256",
          "name": "tenantAmount",
          "type": "uint256"
        },
        {
          "internalType": "uint256",
          "name": "balance",
          "type": "uint256"
        },
        {
          "internalType": "bool",
          "name": "isOpen",
          "type": "bool"
        },
        {
          "internalType": "bool",
          "name": "isReady",
          "type": "bool"
        }
      ],
      "stateMutability": "view",
      "type": "function",
      "constant": true
    },
    {
      "inputs": [],
      "name": "GManager",
      "outputs": [
        {
          "internalType": "contract GardenManager",
          "name": "",
          "type": "address"
        }
      ],
      "stateMutability": "view",
      "type": "function",
      "constant": true
    },
    {
      "inputs": [
        {
          "internalType": "uint256",
          "name": "",
          "type": "uint256"
        }
      ],
      "name": "GardenProposals",
      "outputs": [
        {
          "internalType": "uint256",
          "name": "gardenIndex",
          "type": "uint256"
        },
        {
          "internalType": "bool",
          "name": "isOpen",
          "type": "bool"
        }
      ],
      "stateMutability": "view",
      "type": "function",
      "constant": true
    },
    {
      "inputs": [],
      "name": "MinApprovals",
      "outputs": [
        {
          "internalType": "uint256",
          "name": "",
          "type": "uint256"
        }
      ],
      "stateMutability": "view",
      "type": "function",
      "constant": true
    },
    {
      "inputs": [],
      "name": "VerifierContract",
      "outputs": [
        {
          "internalType": "contract Verifier",
          "name": "",
          "type": "address"
        }
      ],
      "stateMutability": "view",
      "type": "function",
      "constant": true
    },
    {
      "inputs": [],
      "name": "disputeProposalsCount",
      "outputs": [
        {
          "internalType": "uint256",
          "name": "",
          "type": "uint256"
        }
      ],
      "stateMutability": "view",
      "type": "function",
      "constant": true
    },
    {
      "inputs": [
        {
          "internalType": "uint256",
          "name": "_gardenIndex",
          "type": "uint256"
        }
      ],
      "name": "GetGardenProposalById",
      "outputs": [
        {
          "components": [
            {
              "internalType": "uint256",
              "name": "gardenIndex",
              "type": "uint256"
            },
            {
              "internalType": "uint256[2]",
              "name": "secretHash",
              "type": "uint256[2]"
            },
            {
              "internalType": "address[]",
              "name": "acceptProposal",
              "type": "address[]"
            },
            {
              "internalType": "address[]",
              "name": "rejectProposal",
              "type": "address[]"
            },
            {
              "internalType": "bool",
              "name": "isOpen",
              "type": "bool"
            }
          ],
          "internalType": "struct AdminManager.GardenProposal",
          "name": "",
          "type": "tuple"
        }
      ],
      "stateMutability": "view",
      "type": "function",
      "constant": true
    },
    {
      "inputs": [
        {
          "internalType": "uint256",
          "name": "_disputeId",
          "type": "uint256"
        }
      ],
      "name": "GetDisputeProposalById",
      "outputs": [
        {
          "components": [
            {
              "internalType": "uint256",
              "name": "gardenIndex",
              "type": "uint256"
            },
            {
              "internalType": "uint256",
              "name": "ownerAmount",
              "type": "uint256"
            },
            {
              "internalType": "uint256",
              "name": "tenantAmount",
              "type": "uint256"
            },
            {
              "internalType": "uint256",
              "name": "balance",
              "type": "uint256"
            },
            {
              "internalType": "address[]",
              "name": "acceptProposal",
              "type": "address[]"
            },
            {
              "internalType": "bool",
              "name": "isOpen",
              "type": "bool"
            },
            {
              "internalType": "bool",
              "name": "isReady",
              "type": "bool"
            }
          ],
          "internalType": "struct AdminManager.DisputeProposal",
          "name": "",
          "type": "tuple"
        }
      ],
      "stateMutability": "view",
      "type": "function",
      "constant": true
    },
    {
      "inputs": [
        {
          "internalType": "address",
          "name": "_address",
          "type": "address"
        }
      ],
      "name": "AddGardenManagerAddress",
      "outputs": [
        {
          "internalType": "address",
          "name": "",
          "type": "address"
        }
      ],
      "stateMutability": "nonpayable",
      "type": "function"
    },
    {
      "inputs": [
        {
          "internalType": "address",
          "name": "_verifierContract",
          "type": "address"
        }
      ],
      "name": "ModifyVerifierContractAddress",
      "outputs": [],
      "stateMutability": "nonpayable",
      "type": "function"
    },
    {
      "inputs": [
        {
          "internalType": "uint256",
          "name": "_gardenIndex",
          "type": "uint256"
        },
        {
          "internalType": "uint256[2]",
          "name": "_secret",
          "type": "uint256[2]"
        }
      ],
      "name": "AddGarden",
      "outputs": [],
      "stateMutability": "nonpayable",
      "type": "function"
    },
    {
      "inputs": [
        {
          "internalType": "uint256",
          "name": "_gardenIndex",
          "type": "uint256"
        },
        {
          "internalType": "uint256[2]",
          "name": "_proofA",
          "type": "uint256[2]"
        },
        {
          "internalType": "uint256[2][2]",
          "name": "_proofB",
          "type": "uint256[2][2]"
        },
        {
          "internalType": "uint256[2]",
          "name": "_proofC",
          "type": "uint256[2]"
        }
      ],
      "name": "AcceptGarden",
      "outputs": [],
      "stateMutability": "nonpayable",
      "type": "function"
    },
    {
      "inputs": [
        {
          "internalType": "uint256",
          "name": "_gardenIndex",
          "type": "uint256"
        }
      ],
      "name": "RejectGarden",
      "outputs": [],
      "stateMutability": "nonpayable",
      "type": "function"
    },
    {
      "inputs": [
        {
          "internalType": "uint256",
          "name": "_gardenIndex",
          "type": "uint256"
        },
        {
          "internalType": "uint256",
          "name": "_gardenBalance",
          "type": "uint256"
        }
      ],
      "name": "AddDispute",
      "outputs": [],
      "stateMutability": "nonpayable",
      "type": "function"
    },
    {
      "inputs": [
        {
          "internalType": "uint256",
          "name": "_disputeIndex",
          "type": "uint256"
        },
        {
          "internalType": "uint256",
          "name": "_ownerAmount",
          "type": "uint256"
        },
        {
          "internalType": "uint256",
          "name": "_tenantAmount",
          "type": "uint256"
        }
      ],
      "name": "SetAmountForDispute",
      "outputs": [],
      "stateMutability": "nonpayable",
      "type": "function"
    },
    {
      "inputs": [
        {
          "internalType": "uint256",
          "name": "_disputeIndex",
          "type": "uint256"
        }
      ],
      "name": "AcceptDispute",
      "outputs": [],
      "stateMutability": "nonpayable",
      "type": "function"
    }
  ],
  "bytecode": "0x60806040523480156200001157600080fd5b5060405162002ddb38038062002ddb833981810160405262000037919081019062000333565b60008090505b8451811015620000c1576001600260008784815181106200005a57fe5b602002602001015173ffffffffffffffffffffffffffffffffffffffff1673ffffffffffffffffffffffffffffffffffffffff16815260200190815260200160002060006101000a81548160ff02191690831515021790555080806001019150506200003d565b508260058190555033600360006101000a81548173ffffffffffffffffffffffffffffffffffffffff021916908373ffffffffffffffffffffffffffffffffffffffff160217905550816000806101000a81548173ffffffffffffffffffffffffffffffffffffffff021916908373ffffffffffffffffffffffffffffffffffffffff1602179055508060049080519060200190620001629291906200016d565b5050505050620004fd565b828054600181600116156101000203166002900490600052602060002090601f016020900481019282601f10620001b057805160ff1916838001178555620001e1565b82800160010185558215620001e1579182015b82811115620001e0578251825591602001919060010190620001c3565b5b509050620001f09190620001f4565b5090565b6200021991905b8082111562000215576000816000905550600101620001fb565b5090565b90565b6000815190506200022d81620004c9565b92915050565b600082601f8301126200024557600080fd5b81516200025c6200025682620003ff565b620003d1565b915081818352602084019350602081019050838560208402820111156200028257600080fd5b60005b83811015620002b657816200029b88826200021c565b84526020840193506020830192505060018101905062000285565b5050505092915050565b600082601f830112620002d257600080fd5b8151620002e9620002e38262000428565b620003d1565b915080825260208301602083018583830111156200030657600080fd5b6200031383828462000493565b50505092915050565b6000815190506200032d81620004e3565b92915050565b600080600080608085870312156200034a57600080fd5b600085015167ffffffffffffffff8111156200036557600080fd5b620003738782880162000233565b945050602062000386878288016200031c565b935050604062000399878288016200021c565b925050606085015167ffffffffffffffff811115620003b757600080fd5b620003c587828801620002c0565b91505092959194509250565b6000604051905081810181811067ffffffffffffffff82111715620003f557600080fd5b8060405250919050565b600067ffffffffffffffff8211156200041757600080fd5b602082029050602081019050919050565b600067ffffffffffffffff8211156200044057600080fd5b601f19601f8301169050602081019050919050565b6000620004628262000469565b9050919050565b600073ffffffffffffffffffffffffffffffffffffffff82169050919050565b6000819050919050565b60005b83811015620004b357808201518184015260208101905062000496565b83811115620004c3576000848401525b50505050565b620004d48162000455565b8114620004e057600080fd5b50565b620004ee8162000489565b8114620004fa57600080fd5b50565b6128ce806200050d6000396000f3fe608060405234801561001057600080fd5b506004361061010b5760003560e01c806382760dce116100a2578063a26b66a211610071578063a26b66a2146102d2578063a83887a7146102ee578063b6f2a3d61461030a578063c69fad6314610328578063de07de97146103445761010b565b806382760dce1461024c5780638a7d38a0146102685780638f205f4d1461028457806393033932146102a25761010b565b80634c3024f2116100de5780634c3024f21461019f5780635e8b2aae146101bb5780636036efa3146101ec5780636a812a9d1461021c5761010b565b806312d901061461011057806319ab65c71461012e5780631a700984146101635780632cb6b57d14610181575b600080fd5b610118610360565b604051610125919061251a565b60405180910390f35b61014860048036036101439190810190611c84565b610366565b60405161015a96959493929190612595565b60405180910390f35b61016b6103bc565b604051610178919061239e565b60405180910390f35b6101896103e2565b60405161019691906123d4565b60405180910390f35b6101b960048036036101b49190810190611d89565b610480565b005b6101d560048036036101d09190810190611c84565b610658565b6040516101e3929190612535565b60405180910390f35b61020660048036036102019190810190611c09565b610689565b604051610213919061233c565b60405180910390f35b61023660048036036102319190810190611c84565b61072e565b60405161024391906124f8565b60405180910390f35b61026660048036036102619190810190611d11565b6108e1565b005b610282600480360361027d9190810190611cad565b610a5b565b005b61028c610e5d565b60405161029991906123b9565b60405180910390f35b6102bc60048036036102b79190810190611c84565b610e82565b6040516102c991906124d6565b60405180910390f35b6102ec60048036036102e79190810190611d4d565b610f9b565b005b61030860048036036103039190810190611c09565b61114c565b005b610312611297565b60405161031f919061251a565b60405180910390f35b610342600480360361033d9190810190611c84565b61129d565b005b61035e60048036036103599190810190611c84565b6115aa565b005b60055481565b60086020528060005260406000206000915090508060000154908060010154908060020154908060030154908060050160009054906101000a900460ff16908060050160019054906101000a900460ff16905086565b600160009054906101000a900473ffffffffffffffffffffffffffffffffffffffff1681565b60048054600181600116156101000203166002900480601f0160208091040260200160405190810160405280929190818152602001828054600181600116156101000203166002900480156104785780601f1061044d57610100808354040283529160200191610478565b820191906000526020600020905b81548152906001019060200180831161045b57829003601f168201915b505050505081565b600360009054906101000a900473ffffffffffffffffffffffffffffffffffffffff1673ffffffffffffffffffffffffffffffffffffffff163373ffffffffffffffffffffffffffffffffffffffff16146104da57600080fd5b826008600082815260200190815260200160002060050160009054906101000a900460ff1661053e576040517f08c379a000000000000000000000000000000000000000000000000000000000815260040161053590612496565b60405180910390fd5b600060086000868152602001908152602001600020905080600301548385011461059d576040517f08c379a000000000000000000000000000000000000000000000000000000000815260040161059490612436565b60405180910390fd5b60008160040180549050146105bd578060040160006105bc9190611918565b5b83816001018190555082816002018190555060018160050160016101000a81548160ff02191690831515021790555080600401339080600181540180825580915050600190039060005260206000200160009091909190916101000a81548173ffffffffffffffffffffffffffffffffffffffff021916908373ffffffffffffffffffffffffffffffffffffffff1602179055505050505050565b60076020528060005260406000206000915090508060000154908060050160009054906101000a900460ff16905082565b6000600360009054906101000a900473ffffffffffffffffffffffffffffffffffffffff1673ffffffffffffffffffffffffffffffffffffffff163373ffffffffffffffffffffffffffffffffffffffff16146106e557600080fd5b81600160006101000a81548173ffffffffffffffffffffffffffffffffffffffff021916908373ffffffffffffffffffffffffffffffffffffffff160217905550819050919050565b610736611939565b600760008381526020019081526020016000206040518060a0016040529081600082015481526020016001820160028060200260405190810160405280929190826002801561079a576020028201915b815481526020019060010190808311610786575b505050505081526020016003820180548060200260200160405190810160405280929190818152602001828054801561082857602002820191906000526020600020905b8160009054906101000a900473ffffffffffffffffffffffffffffffffffffffff1673ffffffffffffffffffffffffffffffffffffffff16815260200190600101908083116107de575b50505050508152602001600482018054806020026020016040519081016040528092919081815260200182805480156108b657602002820191906000526020600020905b8160009054906101000a900473ffffffffffffffffffffffffffffffffffffffff1673ffffffffffffffffffffffffffffffffffffffff168152602001906001019080831161086c575b505050505081526020016005820160009054906101000a900460ff1615151515815250509050919050565b600160009054906101000a900473ffffffffffffffffffffffffffffffffffffffff1673ffffffffffffffffffffffffffffffffffffffff163373ffffffffffffffffffffffffffffffffffffffff161461093b57600080fd5b6040518060a0016040528083815260200182815260200160006040519080825280602002602001820160405280156109825781602001602082028038833980820191505090505b50815260200160006040519080825280602002602001820160405280156109b85781602001602082028038833980820191505090505b5081526020016001151581525060076000848152602001908152602001600020600082015181600001556020820151816001019060026109f9929190611970565b506040820151816003019080519060200190610a169291906119b0565b506060820151816004019080519060200190610a339291906119b0565b5060808201518160050160006101000a81548160ff0219169083151502179055509050505050565b600260003373ffffffffffffffffffffffffffffffffffffffff1673ffffffffffffffffffffffffffffffffffffffff16815260200190815260200160002060009054906101000a900460ff16610ae7576040517f08c379a0000000000000000000000000000000000000000000000000000000008152600401610ade906123f6565b60405180910390fd5b836007600082815260200190815260200160002060050160009054906101000a900460ff16610b4b576040517f08c379a0000000000000000000000000000000000000000000000000000000008152600401610b4290612456565b60405180910390fd5b6000600760008781526020019081526020016000209050600080905060008090505b8260030180549050811015610bff573373ffffffffffffffffffffffffffffffffffffffff16836003018281548110610ba257fe5b9060005260206000200160009054906101000a900473ffffffffffffffffffffffffffffffffffffffff1673ffffffffffffffffffffffffffffffffffffffff161415610bf25760019150610bff565b8080600101915050610b6d565b508015610c41576040517f08c379a0000000000000000000000000000000000000000000000000000000008152600401610c3890612416565b60405180910390fd5b6000809054906101000a900473ffffffffffffffffffffffffffffffffffffffff1673ffffffffffffffffffffffffffffffffffffffff1663621e9ec0878787866001016040518563ffffffff1660e01b8152600401610ca49493929190612357565b60206040518083038186803b158015610cbc57600080fd5b505afa158015610cd0573d6000803e3d6000fd5b505050506040513d601f19601f82011682018060405250610cf49190810190611c5b565b610d33576040517f08c379a0000000000000000000000000000000000000000000000000000000008152600401610d2a906124b6565b60405180910390fd5b81600301339080600181540180825580915050600190039060005260206000200160009091909190916101000a81548173ffffffffffffffffffffffffffffffffffffffff021916908373ffffffffffffffffffffffffffffffffffffffff16021790555060055482600301805490501415610e5457600160009054906101000a900473ffffffffffffffffffffffffffffffffffffffff1673ffffffffffffffffffffffffffffffffffffffff166385740631886040518263ffffffff1660e01b8152600401610e04919061251a565b600060405180830381600087803b158015610e1e57600080fd5b505af1158015610e32573d6000803e3d6000fd5b5050505060008260050160006101000a81548160ff0219169083151502179055505b50505050505050565b6000809054906101000a900473ffffffffffffffffffffffffffffffffffffffff1681565b610e8a611a3a565b600860008381526020019081526020016000206040518060e00160405290816000820154815260200160018201548152602001600282015481526020016003820154815260200160048201805480602002602001604051908101604052809291908181526020018280548015610f5557602002820191906000526020600020905b8160009054906101000a900473ffffffffffffffffffffffffffffffffffffffff1673ffffffffffffffffffffffffffffffffffffffff1681526020019060010190808311610f0b575b505050505081526020016005820160009054906101000a900460ff161515151581526020016005820160019054906101000a900460ff1615151515815250509050919050565b600160009054906101000a900473ffffffffffffffffffffffffffffffffffffffff1673ffffffffffffffffffffffffffffffffffffffff163373ffffffffffffffffffffffffffffffffffffffff1614610ff557600080fd5b6040518060e001604052808381526020016000815260200160008152602001828152602001600060405190808252806020026020018201604052801561104a5781602001602082028038833980820191505090505b508152602001600115158152602001600015158152506008600060065481526020019081526020016000206000820151816000015560208201518160010155604082015181600201556060820151816003015560808201518160040190805190602001906110b99291906119b0565b5060a08201518160050160006101000a81548160ff02191690831515021790555060c08201518160050160016101000a81548160ff0219169083151502179055509050507fbf3d5df24328f5a4fa009a9ac409735b0be658b17c5968c6124c0e24dce59d3b60065460405161112e919061251a565b60405180910390a16006600081548092919060010191905055505050565b600360009054906101000a900473ffffffffffffffffffffffffffffffffffffffff1673ffffffffffffffffffffffffffffffffffffffff163373ffffffffffffffffffffffffffffffffffffffff16146111a657600080fd5b806000806101000a81548173ffffffffffffffffffffffffffffffffffffffff021916908373ffffffffffffffffffffffffffffffffffffffff160217905550600160009054906101000a900473ffffffffffffffffffffffffffffffffffffffff1673ffffffffffffffffffffffffffffffffffffffff1663ac6bbf5a826040518263ffffffff1660e01b8152600401611241919061233c565b602060405180830381600087803b15801561125b57600080fd5b505af115801561126f573d6000803e3d6000fd5b505050506040513d601f19601f820116820180604052506112939190810190611c32565b5050565b60065481565b600260003373ffffffffffffffffffffffffffffffffffffffff1673ffffffffffffffffffffffffffffffffffffffff16815260200190815260200160002060009054906101000a900460ff16611329576040517f08c379a0000000000000000000000000000000000000000000000000000000008152600401611320906123f6565b60405180910390fd5b806007600082815260200190815260200160002060050160009054906101000a900460ff1661138d576040517f08c379a000000000000000000000000000000000000000000000000000000000815260040161138490612456565b60405180910390fd5b6000600760008481526020019081526020016000209050600080905060008090505b8260040180549050811015611441573373ffffffffffffffffffffffffffffffffffffffff168360040182815481106113e457fe5b9060005260206000200160009054906101000a900473ffffffffffffffffffffffffffffffffffffffff1673ffffffffffffffffffffffffffffffffffffffff1614156114345760019150611441565b80806001019150506113af565b508015611483576040517f08c379a000000000000000000000000000000000000000000000000000000000815260040161147a90612416565b60405180910390fd5b81600401339080600181540180825580915050600190039060005260206000200160009091909190916101000a81548173ffffffffffffffffffffffffffffffffffffffff021916908373ffffffffffffffffffffffffffffffffffffffff160217905550600554826004018054905014156115a457600160009054906101000a900473ffffffffffffffffffffffffffffffffffffffff1673ffffffffffffffffffffffffffffffffffffffff1663c69fad63856040518263ffffffff1660e01b8152600401611554919061251a565b600060405180830381600087803b15801561156e57600080fd5b505af1158015611582573d6000803e3d6000fd5b5050505060008260050160006101000a81548160ff0219169083151502179055505b50505050565b600260003373ffffffffffffffffffffffffffffffffffffffff1673ffffffffffffffffffffffffffffffffffffffff16815260200190815260200160002060009054906101000a900460ff16611636576040517f08c379a000000000000000000000000000000000000000000000000000000000815260040161162d906123f6565b60405180910390fd5b806008600082815260200190815260200160002060050160009054906101000a900460ff1661169a576040517f08c379a000000000000000000000000000000000000000000000000000000000815260040161169190612496565b60405180910390fd5b60006008600084815260200190815260200160002090508060050160019054906101000a900460ff16611702576040517f08c379a00000000000000000000000000000000000000000000000000000000081526004016116f990612476565b60405180910390fd5b600080905060008090505b826004018054905081101561179f573373ffffffffffffffffffffffffffffffffffffffff1683600401828154811061174257fe5b9060005260206000200160009054906101000a900473ffffffffffffffffffffffffffffffffffffffff1673ffffffffffffffffffffffffffffffffffffffff161415611792576001915061179f565b808060010191505061170d565b5080156117e1576040517f08c379a00000000000000000000000000000000000000000000000000000000081526004016117d890612416565b60405180910390fd5b81600401339080600181540180825580915050600190039060005260206000200160009091909190916101000a81548173ffffffffffffffffffffffffffffffffffffffff021916908373ffffffffffffffffffffffffffffffffffffffff1602179055506005548260040180549050141561191257600160009054906101000a900473ffffffffffffffffffffffffffffffffffffffff1673ffffffffffffffffffffffffffffffffffffffff16633efb0c4e8360000154846001015485600201546040518463ffffffff1660e01b81526004016118c29392919061255e565b600060405180830381600087803b1580156118dc57600080fd5b505af11580156118f0573d6000803e3d6000fd5b5050505060008260050160006101000a81548160ff0219169083151502179055505b50505050565b50805460008255906000526020600020908101906119369190611a7b565b50565b6040518060a0016040528060008152602001611953611aa0565b815260200160608152602001606081526020016000151581525090565b826002810192821561199f579160200282015b8281111561199e578251825591602001919060010190611983565b5b5090506119ac9190611a7b565b5090565b828054828255906000526020600020908101928215611a29579160200282015b82811115611a285782518260006101000a81548173ffffffffffffffffffffffffffffffffffffffff021916908373ffffffffffffffffffffffffffffffffffffffff160217905550916020019190600101906119d0565b5b509050611a369190611ac2565b5090565b6040518060e0016040528060008152602001600081526020016000815260200160008152602001606081526020016000151581526020016000151581525090565b611a9d91905b80821115611a99576000816000905550600101611a81565b5090565b90565b6040518060400160405280600290602082028038833980820191505090505090565b611b0291905b80821115611afe57600081816101000a81549073ffffffffffffffffffffffffffffffffffffffff021916905550600101611ac8565b5090565b90565b600081359050611b1481612853565b92915050565b600081519050611b2981612853565b92915050565b600081905082604060020282011115611b4757600080fd5b92915050565b600081905082602060020282011115611b6557600080fd5b92915050565b600082601f830112611b7c57600080fd5b6002611b8f611b8a82612623565b6125f6565b91508183856020840282011115611ba557600080fd5b60005b83811015611bd55781611bbb8882611bf4565b845260208401935060208301925050600181019050611ba8565b5050505092915050565b600081519050611bee8161286a565b92915050565b600081359050611c0381612881565b92915050565b600060208284031215611c1b57600080fd5b6000611c2984828501611b05565b91505092915050565b600060208284031215611c4457600080fd5b6000611c5284828501611b1a565b91505092915050565b600060208284031215611c6d57600080fd5b6000611c7b84828501611bdf565b91505092915050565b600060208284031215611c9657600080fd5b6000611ca484828501611bf4565b91505092915050565b6000806000806101208587031215611cc457600080fd5b6000611cd287828801611bf4565b9450506020611ce387828801611b4d565b9350506060611cf487828801611b2f565b92505060e0611d0587828801611b4d565b91505092959194509250565b60008060608385031215611d2457600080fd5b6000611d3285828601611bf4565b9250506020611d4385828601611b6b565b9150509250929050565b60008060408385031215611d6057600080fd5b6000611d6e85828601611bf4565b9250506020611d7f85828601611bf4565b9150509250929050565b600080600060608486031215611d9e57600080fd5b6000611dac86828701611bf4565b9350506020611dbd86828701611bf4565b9250506040611dce86828701611bf4565b9150509250925092565b6000611de48383611e20565b60208301905092915050565b6000611dfc8383611f0b565b60408301905092915050565b6000611e14838361231e565b60208301905092915050565b611e2981612736565b82525050565b611e3881612736565b82525050565b6000611e4982612673565b611e5381856126de565b9350611e5e83612645565b8060005b83811015611e8f578151611e768882611dd8565b9750611e81836126aa565b925050600181019050611e62565b5085935050505092915050565b611ea58161267e565b611eaf81846126ef565b9250611eba82612655565b8060005b83811015611ef357611ed08284612721565b611eda8782611df0565b9650611ee5836126b7565b925050600181019050611ebe565b505050505050565b611f07604083836127c6565b5050565b611f17604083836127c6565b5050565b611f2481612689565b611f2e81846126fa565b9250611f398261265f565b8060005b83811015611f6a578151611f518782611e08565b9650611f5c836126c4565b925050600181019050611f3d565b505050505050565b611f7b81612694565b611f858184612705565b9250611f9082612669565b8060005b83811015611fc857611fa582612822565b611faf8782611e08565b9650611fba836126d1565b925050600181019050611f94565b505050505050565b611fd981612748565b82525050565b611fe881612748565b82525050565b611ff78161277e565b82525050565b612006816127a2565b82525050565b60006120178261269f565b6120218185612710565b93506120318185602086016127d5565b61203a81612835565b840191505092915050565b6000612052601f83612710565b91507f4f6e6c792061646d696e6973747261746f72732073686f756c642063616c6c006000830152602082019050919050565b6000612092601983612710565b91507f596f752073686f756c64206f6e6c7920766f7465206f6e6365000000000000006000830152602082019050919050565b60006120d2601183612710565b91507f496e636f727265637420616d6f756e74730000000000000000000000000000006000830152602082019050919050565b6000612112601e83612710565b91507f47617264656e50726f706f73616c2073686f756c64206265206f70656e2e00006000830152602082019050919050565b6000612152600f83612710565b91507f416d6f756e7473206e6f742073657400000000000000000000000000000000006000830152602082019050919050565b6000612192601f83612710565b91507f4469737075746550726f706f73616c2073686f756c64206265206f70656e2e006000830152602082019050919050565b60006121d2601783612710565b91507f50726f6f66206f662073656372657420696e76616c69640000000000000000006000830152602082019050919050565b600060e08301600083015161221d600086018261231e565b506020830151612230602086018261231e565b506040830151612243604086018261231e565b506060830151612256606086018261231e565b506080830151848203608086015261226e8282611e3e565b91505060a083015161228360a0860182611fd0565b5060c083015161229660c0860182611fd0565b508091505092915050565b600060c0830160008301516122b9600086018261231e565b5060208301516122cc6020860182611f1b565b50604083015184820360608601526122e48282611e3e565b915050606083015184820360808601526122fe8282611e3e565b915050608083015161231360a0860182611fd0565b508091505092915050565b61232781612774565b82525050565b61233681612774565b82525050565b60006020820190506123516000830184611e2f565b92915050565b60006101408201905061236d6000830187611efb565b61237a6040830186611e9c565b61238760c0830185611efb565b612395610100830184611f72565b95945050505050565b60006020820190506123b36000830184611fee565b92915050565b60006020820190506123ce6000830184611ffd565b92915050565b600060208201905081810360008301526123ee818461200c565b905092915050565b6000602082019050818103600083015261240f81612045565b9050919050565b6000602082019050818103600083015261242f81612085565b9050919050565b6000602082019050818103600083015261244f816120c5565b9050919050565b6000602082019050818103600083015261246f81612105565b9050919050565b6000602082019050818103600083015261248f81612145565b9050919050565b600060208201905081810360008301526124af81612185565b9050919050565b600060208201905081810360008301526124cf816121c5565b9050919050565b600060208201905081810360008301526124f08184612205565b905092915050565b6000602082019050818103600083015261251281846122a1565b905092915050565b600060208201905061252f600083018461232d565b92915050565b600060408201905061254a600083018561232d565b6125576020830184611fdf565b9392505050565b6000606082019050612573600083018661232d565b612580602083018561232d565b61258d604083018461232d565b949350505050565b600060c0820190506125aa600083018961232d565b6125b7602083018861232d565b6125c4604083018761232d565b6125d1606083018661232d565b6125de6080830185611fdf565b6125eb60a0830184611fdf565b979650505050505050565b6000604051905081810181811067ffffffffffffffff8211171561261957600080fd5b8060405250919050565b600067ffffffffffffffff82111561263a57600080fd5b602082029050919050565b6000819050602082019050919050565b6000819050919050565b6000819050919050565b6000819050919050565b600081519050919050565b600060029050919050565b600060029050919050565b600060029050919050565b600081519050919050565b6000602082019050919050565b6000604082019050919050565b6000602082019050919050565b6000600182019050919050565b600082825260208201905092915050565b600081905092915050565b600081905092915050565b600081905092915050565b600082825260208201905092915050565b600082905092915050565b6000819050919050565b600061274182612754565b9050919050565b60008115159050919050565b600073ffffffffffffffffffffffffffffffffffffffff82169050919050565b6000819050919050565b600061278982612790565b9050919050565b600061279b82612754565b9050919050565b60006127ad826127b4565b9050919050565b60006127bf82612754565b9050919050565b82818337600083830152505050565b60005b838110156127f35780820151818401526020810190506127d8565b83811115612802576000848401525b50505050565b600061281b61281683612846565b61272c565b9050919050565b600061282e8254612808565b9050919050565b6000601f19601f8301169050919050565b60008160001c9050919050565b61285c81612736565b811461286757600080fd5b50565b61287381612748565b811461287e57600080fd5b50565b61288a81612774565b811461289557600080fd5b5056fea264697066735822122046827d11ede8a1ec70dce6d6cd9552ca1996786b0c96196f2d56bec3d7d46eda64736f6c63430006010033",
  "source": "// SPDX-License-Identifier: MIT\r\npragma experimental ABIEncoderV2;\r\npragma solidity ^0.6.1;\r\nimport \"./GardenManager.sol\";\r\nimport \"./Verifier.sol\";\r\n\r\ncontract AdminManager{\r\n    //import area\r\n    Verifier public VerifierContract;\r\n    GardenManager public GManager;\r\n    event newDispute( uint _disputeIndex);\r\n\r\n    //admin area\r\n    mapping (address=>bool) ContractAdmins; \r\n    address private deployer;\r\n    string public ContactP2P;\r\n    uint public MinApprovals;\r\n    uint public disputeProposalsCount;\r\n\r\n    //garden proposal area\r\n    struct GardenProposal{\r\n        uint gardenIndex;\r\n        uint[2] secretHash;\r\n        address[] acceptProposal;\r\n        address[] rejectProposal;\r\n        bool isOpen;\r\n    }\r\n    mapping (uint=>GardenProposal) public GardenProposals;\r\n    \r\n    //dispute proposal area\r\n    struct DisputeProposal{\r\n        uint gardenIndex;\r\n        uint ownerAmount;\r\n        uint tenantAmount;\r\n        uint balance;\r\n        address[] acceptProposal;\r\n        bool isOpen;\r\n        bool isReady;\r\n    }\r\n    mapping(uint=>DisputeProposal) public DisputeProposals;\r\n   \r\n    constructor (address[] memory _contractAdmins,uint _minApprovals, address _verifierContract, string memory _contactP2P) public {\r\n        for (uint i = 0; i < _contractAdmins.length; i++) {\r\n            ContractAdmins[_contractAdmins[i]]=true;\r\n        }\r\n        MinApprovals=_minApprovals;\r\n        deployer= msg.sender;\r\n        VerifierContract = Verifier(_verifierContract);\r\n        ContactP2P = _contactP2P;\r\n    }\r\n\r\n    modifier OnlyAdmin(){\r\n        require(ContractAdmins[msg.sender], \"Only administrators should call\");\r\n        _;\r\n    }\r\n    modifier OnlyValidGardenProposal(uint _gardenIndex){\r\n        require(GardenProposals[_gardenIndex].isOpen, \"GardenProposal should be open.\");   \r\n        _;   \r\n    }\r\n    modifier OnlyOpenDisputeProposal(uint _disputeIndex){\r\n        require(DisputeProposals[_disputeIndex].isOpen, \"DisputeProposal should be open.\"); \r\n        _;   \r\n    }\r\n    modifier OnlyDeployer(){\r\n        require(msg.sender==deployer);\r\n        _;\r\n    }\r\n    function GetGardenProposalById(uint _gardenIndex)external view returns(GardenProposal memory){\r\n        return GardenProposals[_gardenIndex];\r\n    }\r\n    function GetDisputeProposalById(uint _disputeId)external view returns(DisputeProposal memory){\r\n        return DisputeProposals[_disputeId];\r\n    }\r\n    function AddGardenManagerAddress(address _address) external OnlyDeployer() returns(address){\r\n        GManager = GardenManager(_address);\r\n        return _address;\r\n    }\r\n\r\n    function ModifyVerifierContractAddress(address _verifierContract) external OnlyDeployer(){\r\n        VerifierContract = Verifier(_verifierContract);\r\n        GManager.ModifyVerifierContract(_verifierContract);\r\n    }\r\n\r\n    function AddGarden(uint _gardenIndex, uint[2] memory _secret) public{\r\n        require(msg.sender== address(GManager));\r\n        GardenProposals[_gardenIndex] = GardenProposal(_gardenIndex,_secret,new address[](0),new address[](0),true);\r\n    }\r\n\r\n    function AcceptGarden(uint _gardenIndex,uint[2] calldata _proofA, uint[2][2] calldata _proofB,\r\n            uint[2] calldata _proofC) external OnlyAdmin() OnlyValidGardenProposal(_gardenIndex){\r\n        GardenProposal storage proposal = GardenProposals[_gardenIndex];\r\n        bool alreadyVoted =false;\r\n        for (uint i = 0; i < proposal.acceptProposal.length; i++) {\r\n            if(proposal.acceptProposal[i]==msg.sender){\r\n                alreadyVoted=true;\r\n                break;\r\n            }\r\n        }\r\n        require(!alreadyVoted, \"You should only vote once\");\r\n        require(VerifierContract.verifyTx(_proofA,_proofB,_proofC,proposal.secretHash), \"Proof of secret invalid\");\r\n        proposal.acceptProposal.push(msg.sender);\r\n        if(proposal.acceptProposal.length==MinApprovals){\r\n            GManager.AcceptGarden(_gardenIndex);\r\n            proposal.isOpen=false;\r\n        }\r\n    }\r\n\r\n    function RejectGarden(uint _gardenIndex) external OnlyAdmin() OnlyValidGardenProposal(_gardenIndex){\r\n        GardenProposal storage proposal = GardenProposals[_gardenIndex];\r\n        bool alreadyVoted =false;\r\n        for (uint i = 0; i < proposal.rejectProposal.length; i++) {\r\n            if(proposal.rejectProposal[i]==msg.sender){\r\n                alreadyVoted=true;\r\n                break;\r\n            }\r\n        }\r\n        require(!alreadyVoted, \"You should only vote once\");\r\n        proposal.rejectProposal.push(msg.sender);\r\n        if(proposal.rejectProposal.length==MinApprovals){\r\n            GManager.RejectGarden(_gardenIndex);\r\n            proposal.isOpen=false;\r\n        }\r\n    }\r\n\r\n    function AddDispute(uint _gardenIndex,uint _gardenBalance) public {\r\n        require(msg.sender== address(GManager));\r\n        DisputeProposals[disputeProposalsCount] = DisputeProposal(_gardenIndex,0,0,_gardenBalance,new address[](0),true,false);\r\n        emit newDispute(disputeProposalsCount);\r\n        disputeProposalsCount++;\r\n    }\r\n\r\n    function SetAmountForDispute(uint _disputeIndex,uint _ownerAmount, uint _tenantAmount) public OnlyDeployer() OnlyOpenDisputeProposal(_disputeIndex){\r\n        DisputeProposal storage proposal = DisputeProposals[_disputeIndex];\r\n        require(_ownerAmount+_tenantAmount==proposal.balance,\"Incorrect amounts\");\r\n        if(proposal.acceptProposal.length !=0){\r\n            delete proposal.acceptProposal;\r\n        }\r\n        proposal.ownerAmount=_ownerAmount;\r\n        proposal.tenantAmount=_tenantAmount;\r\n        proposal.isReady=true;\r\n        proposal.acceptProposal.push(msg.sender);\r\n    }\r\n\r\n    function AcceptDispute(uint _disputeIndex) external OnlyAdmin() OnlyOpenDisputeProposal(_disputeIndex){\r\n        DisputeProposal storage proposal = DisputeProposals[_disputeIndex]; \r\n        require(proposal.isReady,\"Amounts not set\"); \r\n        bool alreadyVoted =false; \r\n        for (uint i = 0; i < proposal.acceptProposal.length; i++) {\r\n            if(proposal.acceptProposal[i]==msg.sender){\r\n                alreadyVoted=true;\r\n                break;\r\n            }\r\n        }\r\n        require(!alreadyVoted, \"You should only vote once\");        \r\n        proposal.acceptProposal.push(msg.sender);\r\n        if(proposal.acceptProposal.length==MinApprovals){\r\n            GManager.CloseDispute(proposal.gardenIndex, proposal.ownerAmount,proposal.tenantAmount);\r\n            proposal.isOpen=false;\r\n        }\r\n    }\r\n}",
  "sourcePath": "C:\\Users\\aymeric.noel\\Desktop\\ZKP\\POC_ZKP\\contracts\\AdminManager.sol",
  "compiler": {
    "name": "solc",
    "version": "0.6.1+commit.e6f7d5a4.Emscripten.clang"
  },
  "schemaVersion": "3.3.4",
  "updatedAt": "2021-04-02T09:46:41.471Z",
  "networkType": "ethereum",
  "devdoc": {
    "methods": {}
  },
  "userdoc": {
    "methods": {}
  }
}