{
  "contractName": "GardenManager",
  "abi": [
    {
      "inputs": [
        {
          "internalType": "address",
          "name": "_adminContract",
          "type": "address"
        },
        {
          "internalType": "address",
          "name": "_verifierContract",
          "type": "address"
        }
      ],
      "stateMutability": "nonpayable",
      "type": "constructor"
    },
    {
      "anonymous": false,
      "inputs": [
        {
          "indexed": false,
          "internalType": "address",
          "name": "_owner",
          "type": "address"
        },
        {
          "indexed": false,
          "internalType": "uint256",
          "name": "_gardenIndex",
          "type": "uint256"
        }
      ],
      "name": "NewGarden",
      "type": "event"
    },
    {
      "inputs": [],
      "name": "AManager",
      "outputs": [
        {
          "internalType": "contract AdminManager",
          "name": "",
          "type": "address"
        }
      ],
      "stateMutability": "view",
      "type": "function",
      "constant": true
    },
    {
      "inputs": [
        {
          "internalType": "uint256",
          "name": "",
          "type": "uint256"
        }
      ],
      "name": "AllGarden",
      "outputs": [
        {
          "internalType": "address payable",
          "name": "owner",
          "type": "address"
        },
        {
          "internalType": "bool",
          "name": "multipleOwners",
          "type": "bool"
        },
        {
          "internalType": "enum GLibrary.GardenType",
          "name": "gardenType",
          "type": "uint8"
        },
        {
          "internalType": "string",
          "name": "district",
          "type": "string"
        },
        {
          "internalType": "uint32",
          "name": "area",
          "type": "uint32"
        },
        {
          "internalType": "string",
          "name": "contact",
          "type": "string"
        },
        {
          "internalType": "enum GLibrary.Status",
          "name": "status",
          "type": "uint8"
        }
      ],
      "stateMutability": "view",
      "type": "function",
      "constant": true
    },
    {
      "inputs": [],
      "name": "GardenCount",
      "outputs": [
        {
          "internalType": "uint256",
          "name": "",
          "type": "uint256"
        }
      ],
      "stateMutability": "view",
      "type": "function",
      "constant": true
    },
    {
      "inputs": [],
      "name": "VerifierContract",
      "outputs": [
        {
          "internalType": "contract Verifier",
          "name": "",
          "type": "address"
        }
      ],
      "stateMutability": "view",
      "type": "function",
      "constant": true
    },
    {
      "inputs": [
        {
          "internalType": "uint256",
          "name": "_gardenIndex",
          "type": "uint256"
        }
      ],
      "name": "getGardenById",
      "outputs": [
        {
          "internalType": "address payable",
          "name": "owner",
          "type": "address"
        },
        {
          "internalType": "bool",
          "name": "multipleOwners",
          "type": "bool"
        },
        {
          "internalType": "address payable[]",
          "name": "coOwners",
          "type": "address[]"
        },
        {
          "internalType": "enum GLibrary.GardenType",
          "name": "gardenType",
          "type": "uint8"
        },
        {
          "internalType": "string",
          "name": "district",
          "type": "string"
        },
        {
          "internalType": "uint32",
          "name": "area",
          "type": "uint32"
        },
        {
          "internalType": "uint256[2]",
          "name": "secretHash",
          "type": "uint256[2]"
        },
        {
          "internalType": "string",
          "name": "contact",
          "type": "string"
        },
        {
          "internalType": "enum GLibrary.Status",
          "name": "status",
          "type": "uint8"
        },
        {
          "internalType": "uint256",
          "name": "rentLength",
          "type": "uint256"
        }
      ],
      "stateMutability": "view",
      "type": "function",
      "constant": true
    },
    {
      "inputs": [
        {
          "internalType": "uint256",
          "name": "_gardenIndex",
          "type": "uint256"
        },
        {
          "internalType": "uint256",
          "name": "_rentId",
          "type": "uint256"
        }
      ],
      "name": "getRentByGardenAndRentId",
      "outputs": [
        {
          "internalType": "int256",
          "name": "rate",
          "type": "int256"
        },
        {
          "internalType": "uint256",
          "name": "duration",
          "type": "uint256"
        },
        {
          "internalType": "uint256",
          "name": "price",
          "type": "uint256"
        },
        {
          "internalType": "uint256",
          "name": "beginning",
          "type": "uint256"
        },
        {
          "internalType": "uint256",
          "name": "balance",
          "type": "uint256"
        },
        {
          "internalType": "address payable",
          "name": "tenant",
          "type": "address"
        },
        {
          "internalType": "bytes32",
          "name": "gardenHashCode",
          "type": "bytes32"
        }
      ],
      "stateMutability": "view",
      "type": "function",
      "constant": true
    },
    {
      "inputs": [
        {
          "internalType": "uint256",
          "name": "_gardenIndex",
          "type": "uint256"
        }
      ],
      "name": "getAccessCodeByGardenId",
      "outputs": [
        {
          "internalType": "string",
          "name": "encryptedCode",
          "type": "string"
        }
      ],
      "stateMutability": "view",
      "type": "function",
      "constant": true
    },
    {
      "inputs": [
        {
          "internalType": "address",
          "name": "_verifierContract",
          "type": "address"
        }
      ],
      "name": "modifyVerifierContract",
      "outputs": [
        {
          "internalType": "address",
          "name": "",
          "type": "address"
        }
      ],
      "stateMutability": "nonpayable",
      "type": "function"
    },
    {
      "inputs": [
        {
          "internalType": "uint256[2]",
          "name": "_secretHash",
          "type": "uint256[2]"
        },
        {
          "internalType": "string",
          "name": "_district",
          "type": "string"
        },
        {
          "internalType": "uint32",
          "name": "_area",
          "type": "uint32"
        },
        {
          "internalType": "string",
          "name": "_contact",
          "type": "string"
        },
        {
          "internalType": "enum GLibrary.GardenType",
          "name": "_gardenType",
          "type": "uint8"
        },
        {
          "internalType": "bool",
          "name": "_multipleOwners",
          "type": "bool"
        },
        {
          "internalType": "address payable[]",
          "name": "_coOwners",
          "type": "address[]"
        }
      ],
      "name": "createGarden",
      "outputs": [],
      "stateMutability": "nonpayable",
      "type": "function"
    },
    {
      "inputs": [
        {
          "internalType": "uint256",
          "name": "_gardenIndex",
          "type": "uint256"
        },
        {
          "internalType": "string",
          "name": "_contact",
          "type": "string"
        }
      ],
      "name": "updateGardenContact",
      "outputs": [],
      "stateMutability": "nonpayable",
      "type": "function"
    },
    {
      "inputs": [
        {
          "internalType": "uint256",
          "name": "_gardenIndex",
          "type": "uint256"
        },
        {
          "internalType": "uint256[2]",
          "name": "_proofA",
          "type": "uint256[2]"
        },
        {
          "internalType": "uint256[2][2]",
          "name": "_proofB",
          "type": "uint256[2][2]"
        },
        {
          "internalType": "uint256[2]",
          "name": "_proofC",
          "type": "uint256[2]"
        },
        {
          "internalType": "uint256[2]",
          "name": "_newSecretHash",
          "type": "uint256[2]"
        }
      ],
      "name": "updateGardenSecretHash",
      "outputs": [],
      "stateMutability": "nonpayable",
      "type": "function"
    },
    {
      "inputs": [
        {
          "internalType": "uint256",
          "name": "_gardenIndex",
          "type": "uint256"
        }
      ],
      "name": "acceptGarden",
      "outputs": [],
      "stateMutability": "nonpayable",
      "type": "function"
    },
    {
      "inputs": [
        {
          "internalType": "uint256",
          "name": "_gardenIndex",
          "type": "uint256"
        }
      ],
      "name": "rejectGarden",
      "outputs": [],
      "stateMutability": "nonpayable",
      "type": "function"
    },
    {
      "inputs": [
        {
          "internalType": "uint256",
          "name": "_gardenIndex",
          "type": "uint256"
        },
        {
          "internalType": "address payable",
          "name": "_tenant",
          "type": "address"
        },
        {
          "internalType": "uint256",
          "name": "_rentingDuration",
          "type": "uint256"
        },
        {
          "internalType": "uint256",
          "name": "_price",
          "type": "uint256"
        },
        {
          "internalType": "uint256[2]",
          "name": "_proofA",
          "type": "uint256[2]"
        },
        {
          "internalType": "uint256[2][2]",
          "name": "_proofB",
          "type": "uint256[2][2]"
        },
        {
          "internalType": "uint256[2]",
          "name": "_proofC",
          "type": "uint256[2]"
        }
      ],
      "name": "proposeGardenOffer",
      "outputs": [],
      "stateMutability": "nonpayable",
      "type": "function"
    },
    {
      "inputs": [
        {
          "internalType": "uint256",
          "name": "_gardenIndex",
          "type": "uint256"
        },
        {
          "internalType": "uint256[2]",
          "name": "_proofA",
          "type": "uint256[2]"
        },
        {
          "internalType": "uint256[2][2]",
          "name": "_proofB",
          "type": "uint256[2][2]"
        },
        {
          "internalType": "uint256[2]",
          "name": "_proofC",
          "type": "uint256[2]"
        }
      ],
      "name": "deleteGardenOffer",
      "outputs": [],
      "stateMutability": "nonpayable",
      "type": "function"
    },
    {
      "inputs": [
        {
          "internalType": "uint256",
          "name": "_gardenIndex",
          "type": "uint256"
        }
      ],
      "name": "acceptGardenOffer",
      "outputs": [],
      "stateMutability": "payable",
      "type": "function",
      "payable": true
    },
    {
      "inputs": [
        {
          "internalType": "uint256",
          "name": "_gardenIndex",
          "type": "uint256"
        },
        {
          "internalType": "uint256[2]",
          "name": "_proofA",
          "type": "uint256[2]"
        },
        {
          "internalType": "uint256[2][2]",
          "name": "_proofB",
          "type": "uint256[2][2]"
        },
        {
          "internalType": "uint256[2]",
          "name": "_proofC",
          "type": "uint256[2]"
        },
        {
          "internalType": "bytes32",
          "name": "_hashCode",
          "type": "bytes32"
        },
        {
          "internalType": "string",
          "name": "_encryptedCode",
          "type": "string"
        }
      ],
      "name": "addAccessCodeToGarden",
      "outputs": [],
      "stateMutability": "nonpayable",
      "type": "function"
    },
    {
      "inputs": [
        {
          "internalType": "uint256",
          "name": "_gardenIndex",
          "type": "uint256"
        }
      ],
      "name": "getRefundBeforeLocation",
      "outputs": [],
      "stateMutability": "nonpayable",
      "type": "function"
    },
    {
      "inputs": [
        {
          "internalType": "uint256",
          "name": "_gardenIndex",
          "type": "uint256"
        },
        {
          "internalType": "uint256[2]",
          "name": "_proofA",
          "type": "uint256[2]"
        },
        {
          "internalType": "uint256[2][2]",
          "name": "_proofB",
          "type": "uint256[2][2]"
        },
        {
          "internalType": "uint256[2]",
          "name": "_proofC",
          "type": "uint256[2]"
        }
      ],
      "name": "updateLocationStatusAndGetPayment",
      "outputs": [],
      "stateMutability": "nonpayable",
      "type": "function"
    },
    {
      "inputs": [
        {
          "internalType": "uint256",
          "name": "_gardenIndex",
          "type": "uint256"
        },
        {
          "internalType": "int256",
          "name": "_grade",
          "type": "int256"
        }
      ],
      "name": "addGradeToGarden",
      "outputs": [
        {
          "internalType": "bool",
          "name": "saved",
          "type": "bool"
        }
      ],
      "stateMutability": "nonpayable",
      "type": "function"
    },
    {
      "inputs": [
        {
          "internalType": "uint256",
          "name": "_gardenIndex",
          "type": "uint256"
        }
      ],
      "name": "addDispute",
      "outputs": [],
      "stateMutability": "nonpayable",
      "type": "function"
    },
    {
      "inputs": [
        {
          "internalType": "uint256",
          "name": "_gardenIndex",
          "type": "uint256"
        },
        {
          "internalType": "uint256",
          "name": "_ownerAmount",
          "type": "uint256"
        },
        {
          "internalType": "uint256",
          "name": "_tenantAmount",
          "type": "uint256"
        }
      ],
      "name": "closeDispute",
      "outputs": [],
      "stateMutability": "nonpayable",
      "type": "function"
    }
  ],
  "bytecode": "0x60806040523480156200001157600080fd5b50604051620056de380380620056de833981810160405260408110156200003757600080fd5b81019080805190602001909291908051906020019092919050505081600160006101000a81548173ffffffffffffffffffffffffffffffffffffffff021916908373ffffffffffffffffffffffffffffffffffffffff160217905550806000806101000a81548173ffffffffffffffffffffffffffffffffffffffff021916908373ffffffffffffffffffffffffffffffffffffffff16021790555050506155f980620000e56000396000f3fe6080604052600436106101355760003560e01c8063832f1c1d116100ab578063b01dff131161006f578063b01dff1314610a4c578063b9a5186114610be7578063bac7b81e14610dbf578063c5ca958f14610e19578063f625289f14610e54578063fdf7522814610eb857610135565b8063832f1c1d14610850578063850fca06146108ff5780638f205f4d1461092a5780639ac8073514610981578063a12b8bcb14610a1157610135565b80635396b8c7116100fd5780635396b8c7146105275780635eeeaa281461068b57806366d280a5146106e557806369ba8bee14610776578063726e33cf146107c5578063739175611461082257610135565b80631c34f7c21461013a57806322d03761146101ee57806330e91e9f14610229578063335018fd146104425780634501b7ed146104d0575b600080fd5b34801561014657600080fd5b506101736004803603602081101561015d57600080fd5b8101908080359060200190929190505050610ef3565b6040518080602001828103825283818151815260200191508051906020019080838360005b838110156101b3578082015181840152602081019050610198565b50505050905090810190601f1680156101e05780820380516001836020036101000a031916815260200191505b509250505060405180910390f35b3480156101fa57600080fd5b506102276004803603602081101561021157600080fd5b8101908080359060200190929190505050611160565b005b34801561023557600080fd5b506102626004803603602081101561024c57600080fd5b810190808035906020019092919050505061125e565b604051808b73ffffffffffffffffffffffffffffffffffffffff1673ffffffffffffffffffffffffffffffffffffffff1681526020018a151515158152602001806020018960018111156102b257fe5b60ff168152602001806020018863ffffffff1663ffffffff16815260200187600260200280838360005b838110156102f75780820151818401526020810190506102dc565b505050509050018060200186600681111561030e57fe5b60ff16815260200185815260200184810384528c818151815260200191508051906020019060200280838360005b8381101561035757808201518184015260208101905061033c565b5050505090500184810383528a818151815260200191508051906020019080838360005b8381101561039657808201518184015260208101905061037b565b50505050905090810190601f1680156103c35780820380516001836020036101000a031916815260200191505b50848103825287818151815260200191508051906020019080838360005b838110156103fc5780820151818401526020810190506103e1565b50505050905090810190601f1680156104295780820380516001836020036101000a031916815260200191505b509d505050505050505050505050505060405180910390f35b34801561044e57600080fd5b506104ce600480360361018081101561046657600080fd5b8101908080359060200190929190803573ffffffffffffffffffffffffffffffffffffffff16906020019092919080359060200190929190803590602001909291908060400190919291929080608001909192919290806040019091929192905050506117b1565b005b3480156104dc57600080fd5b506104e5611d18565b604051808273ffffffffffffffffffffffffffffffffffffffff1673ffffffffffffffffffffffffffffffffffffffff16815260200191505060405180910390f35b34801561053357600080fd5b50610689600480360361010081101561054b57600080fd5b81019080806040019091929192908035906020019064010000000081111561057257600080fd5b82018360208201111561058457600080fd5b803590602001918460018302840111640100000000831117156105a657600080fd5b9091929391929390803563ffffffff169060200190929190803590602001906401000000008111156105d757600080fd5b8201836020820111156105e957600080fd5b8035906020019184600183028401116401000000008311171561060b57600080fd5b9091929391929390803560ff1690602001909291908035151590602001909291908035906020019064010000000081111561064557600080fd5b82018360208201111561065757600080fd5b8035906020019184602083028401116401000000008311171561067957600080fd5b9091929391929390505050611d3e565b005b34801561069757600080fd5b506106e360048036036101208110156106af57600080fd5b8101908080359060200190929190806040019091929192908060800190919291929080604001909192919290505050611fba565b005b3480156106f157600080fd5b506107346004803603602081101561070857600080fd5b81019080803573ffffffffffffffffffffffffffffffffffffffff169060200190929190505050612a8a565b604051808273ffffffffffffffffffffffffffffffffffffffff1673ffffffffffffffffffffffffffffffffffffffff16815260200191505060405180910390f35b34801561078257600080fd5b506107c36004803603606081101561079957600080fd5b81019080803590602001909291908035906020019092919080359060200190929190505050612b97565b005b3480156107d157600080fd5b50610808600480360360408110156107e857600080fd5b810190808035906020019092919080359060200190929190505050613340565b604051808215151515815260200191505060405180910390f35b61084e6004803603602081101561083857600080fd5b8101908080359060200190929190505050613539565b005b34801561085c57600080fd5b506108936004803603604081101561087357600080fd5b81019080803590602001909291908035906020019092919050505061376d565b604051808881526020018781526020018681526020018581526020018481526020018373ffffffffffffffffffffffffffffffffffffffff1673ffffffffffffffffffffffffffffffffffffffff16815260200182815260200197505050505050505060405180910390f35b34801561090b57600080fd5b50610914613946565b6040518082815260200191505060405180910390f35b34801561093657600080fd5b5061093f61394c565b604051808273ffffffffffffffffffffffffffffffffffffffff1673ffffffffffffffffffffffffffffffffffffffff16815260200191505060405180910390f35b34801561098d57600080fd5b50610a0f600480360360408110156109a457600080fd5b8101908080359060200190929190803590602001906401000000008111156109cb57600080fd5b8201836020820111156109dd57600080fd5b803590602001918460018302840111640100000000831117156109ff57600080fd5b9091929391929390505050613971565b005b348015610a1d57600080fd5b50610a4a60048036036020811015610a3457600080fd5b8101908080359060200190929190505050613a75565b005b348015610a5857600080fd5b50610a8560048036036020811015610a6f57600080fd5b8101908080359060200190929190505050613e70565b604051808873ffffffffffffffffffffffffffffffffffffffff1673ffffffffffffffffffffffffffffffffffffffff16815260200187151515158152602001866001811115610ad157fe5b60ff168152602001806020018563ffffffff1663ffffffff16815260200180602001846006811115610aff57fe5b60ff168152602001838103835287818151815260200191508051906020019080838360005b83811015610b3f578082015181840152602081019050610b24565b50505050905090810190601f168015610b6c5780820380516001836020036101000a031916815260200191505b50838103825285818151815260200191508051906020019080838360005b83811015610ba5578082015181840152602081019050610b8a565b50505050905090810190601f168015610bd25780820380516001836020036101000a031916815260200191505b50995050505050505050505060405180910390f35b348015610bf357600080fd5b50610dbd6004803603610160811015610c0b57600080fd5b810190808035906020019092919080604001906002806020026040519081016040528092919082600260200280828437600081840152601f19601f82011690508083019250505050505091929192908060800190600280602002604051908101604052809291906000905b82821015610cca578382604002016002806020026040519081016040528092919082600260200280828437600081840152601f19601f82011690508083019250505050505081526020019060010190610c76565b50505050919291929080604001906002806020026040519081016040528092919082600260200280828437600081840152601f19601f82011690508083019250505050505091929192908035906020019092919080359060200190640100000000811115610d3757600080fd5b820183602082011115610d4957600080fd5b80359060200191846001830284011164010000000083111715610d6b57600080fd5b91908080601f016020809104026020016040519081016040528093929190818152602001838380828437600081840152601f19601f820116905080830192505050505050509192919290505050614039565b005b348015610dcb57600080fd5b50610e176004803603610120811015610de357600080fd5b8101908080359060200190929190806040019091929192908060800190919291929080604001909192919290505050614470565b005b348015610e2557600080fd5b50610e5260048036036020811015610e3c57600080fd5b81019080803590602001909291905050506149c8565b005b348015610e6057600080fd5b50610eb66004803603610160811015610e7857600080fd5b810190808035906020019092919080604001909192919290806080019091929192908060400190919291929080604001909192919290505050614ac6565b005b348015610ec457600080fd5b50610ef160048036036020811015610edb57600080fd5b8101908080359060200190929190505050614eb8565b005b6060610efd6151c6565b610f06836150d0565b6040518060e001604052908160008201548152602001600182015481526020016002820154815260200160038201548152602001600482015481526020016005820160009054906101000a900473ffffffffffffffffffffffffffffffffffffffff1673ffffffffffffffffffffffffffffffffffffffff1673ffffffffffffffffffffffffffffffffffffffff1681526020016006820160405180604001604052908160008201548152602001600182018054600181600116156101000203166002900480601f01602080910402602001604051908101604052809291908181526020018280546001816001161561010002031660029004801561104c5780601f106110215761010080835404028352916020019161104c565b820191906000526020600020905b81548152906001019060200180831161102f57829003601f168201915b5050505050815250508152505090508060a0015173ffffffffffffffffffffffffffffffffffffffff163373ffffffffffffffffffffffffffffffffffffffff1614806110fa57506003600084815260200190815260200160002060000160009054906101000a900473ffffffffffffffffffffffffffffffffffffffff1673ffffffffffffffffffffffffffffffffffffffff163373ffffffffffffffffffffffffffffffffffffffff16145b61114f576040517f08c379a000000000000000000000000000000000000000000000000000000000815260040180806020018281038252602681526020018061559e6026913960400191505060405180910390fd5b8060c0015160200151915050919050565b600160009054906101000a900473ffffffffffffffffffffffffffffffffffffffff1673ffffffffffffffffffffffffffffffffffffffff163373ffffffffffffffffffffffffffffffffffffffff1614611223576040517f08c379a000000000000000000000000000000000000000000000000000000000815260040180806020018281038252601a8152602001807f4e6f742061646d696e6973747261746f7220636f6e747261637400000000000081525060200191505060405180910390fd5b60056003600083815260200190815260200160002060080160006101000a81548160ff0219169083600681111561125657fe5b021790555050565b600080606060006060600061127161521f565b606060008061127e615241565b600360008d8152602001908152602001600020604051806101400160405290816000820160009054906101000a900473ffffffffffffffffffffffffffffffffffffffff1673ffffffffffffffffffffffffffffffffffffffff1673ffffffffffffffffffffffffffffffffffffffff1681526020016000820160149054906101000a900460ff161515151581526020016001820180548060200260200160405190810160405280929190818152602001828054801561139357602002820191906000526020600020905b8160009054906101000a900473ffffffffffffffffffffffffffffffffffffffff1673ffffffffffffffffffffffffffffffffffffffff1681526020019060010190808311611349575b505050505081526020016002820160009054906101000a900460ff1660018111156113ba57fe5b60018111156113c557fe5b8152602001600382018054600181600116156101000203166002900480601f0160208091040260200160405190810160405280929190818152602001828054600181600116156101000203166002900480156114625780601f1061143757610100808354040283529160200191611462565b820191906000526020600020905b81548152906001019060200180831161144557829003601f168201915b505050505081526020016004820160009054906101000a900463ffffffff1663ffffffff1663ffffffff168152602001600582016002806020026040519081016040528092919082600280156114cd576020028201915b8154815260200190600101908083116114b9575b50505050508152602001600782018054600181600116156101000203166002900480601f01602080910402602001604051908101604052809291908181526020018280546001816001161561010002031660029004801561156f5780601f106115445761010080835404028352916020019161156f565b820191906000526020600020905b81548152906001019060200180831161155257829003601f168201915b505050505081526020016008820160009054906101000a900460ff16600681111561159657fe5b60068111156115a157fe5b815260200160098201805480602002602001604051908101604052809291908181526020016000905b8282101561174457838290600052602060002090600802016040518060e001604052908160008201548152602001600182015481526020016002820154815260200160038201548152602001600482015481526020016005820160009054906101000a900473ffffffffffffffffffffffffffffffffffffffff1673ffffffffffffffffffffffffffffffffffffffff1673ffffffffffffffffffffffffffffffffffffffff1681526020016006820160405180604001604052908160008201548152602001600182018054600181600116156101000203166002900480601f0160208091040260200160405190810160405280929190818152602001828054600181600116156101000203166002900480156117285780601f106116fd57610100808354040283529160200191611728565b820191906000526020600020905b81548152906001019060200180831161170b57829003601f168201915b50505050508152505081525050815260200190600101906115ca565b50505050815250509050806000015181602001518260400151836060015184608001518560a001518660c001518760e00151886101000151896101200151518797508595508393508292509a509a509a509a509a509a509a509a509a509a50509193959799509193959799565b863373ffffffffffffffffffffffffffffffffffffffff166003600083815260200190815260200160002060000160009054906101000a900473ffffffffffffffffffffffffffffffffffffffff1673ffffffffffffffffffffffffffffffffffffffff1614611889576040517f08c379a00000000000000000000000000000000000000000000000000000000081526004018080602001828103825260108152602001807f4e6f742067617264656e206f776e65720000000000000000000000000000000081525060200191505060405180910390fd5b87846002806020026040519081016040528092919082600260200280828437600081840152601f19601f82011690508083019250505050505084600280602002604051908101604052809291906000905b8282101561192e578382604002016002806020026040519081016040528092919082600260200280828437600081840152601f19601f820116905080830192505050505050815260200190600101906118da565b50505050846002806020026040519081016040528092919082600260200280828437600081840152601f19601f8201169050808301925050505050506000809054906101000a900473ffffffffffffffffffffffffffffffffffffffff1673ffffffffffffffffffffffffffffffffffffffff1663621e9ec0848484600360008a81526020019081526020016000206005016040518563ffffffff1660e01b81526004018085600260200280838360005b838110156119fa5780820151818401526020810190506119df565b505050509050018460026000925b81841015611a4e5782846020020151600260200280838360005b83811015611a3d578082015181840152602081019050611a22565b505050509050019260010192611a08565b9250505083600260200280838360005b83811015611a79578082015181840152602081019050611a5e565b505050509050018260028015611aa4576020028201915b815481526020019060010190808311611a90575b505094505050505060206040518083038186803b158015611ac457600080fd5b505afa158015611ad8573d6000803e3d6000fd5b505050506040513d6020811015611aee57600080fd5b8101908080519060200190929190505050611b71576040517f08c379a00000000000000000000000000000000000000000000000000000000081526004018080602001828103825260178152602001807f50726f6f66206f662073656372657420696e76616c696400000000000000000081525060200191505060405180910390fd5b60016006811115611b7e57fe5b600360008e815260200190815260200160002060080160009054906101000a900460ff166006811115611bad57fe5b14611c20576040517f08c379a000000000000000000000000000000000000000000000000000000000815260040180806020018281038252600f8152602001807f47617264656e206e6f742066726565000000000000000000000000000000000081525060200191505060405180910390fd5b6000600360008e8152602001908152602001600020905060028160080160006101000a81548160ff02191690836006811115611c5857fe5b021790555080600901600181600181540180825580915050039060005260206000209050506000611c888e6150d0565b90508b81600101819055508a81600201819055508c8160050160006101000a81548173ffffffffffffffffffffffffffffffffffffffff021916908373ffffffffffffffffffffffffffffffffffffffff1602179055507fffffffffffffffffffffffffffffffffffffffffffffffffffffffffffffffff81600001819055505050505050505050505050505050565b600160009054906101000a900473ffffffffffffffffffffffffffffffffffffffff1681565b60026000815480929190600101919050555060006003600060025481526020019081526020016000209050878160040160006101000a81548163ffffffff021916908363ffffffff1602179055508686826007019190611d9f9291906152ce565b50848160020160006101000a81548160ff02191690836001811115611dc057fe5b02179055508a81600501906002611dd892919061534e565b508989826003019190611dec9291906152ce565b5060008160080160006101000a81548160ff02191690836006811115611e0e57fe5b0217905550338160000160006101000a81548173ffffffffffffffffffffffffffffffffffffffff021916908373ffffffffffffffffffffffffffffffffffffffff1602179055508315611e8e5760018160000160146101000a81548160ff0219169083151502179055508282826001019190611e8c92919061538e565b505b600160009054906101000a900473ffffffffffffffffffffffffffffffffffffffff1673ffffffffffffffffffffffffffffffffffffffff1663e825bf916002548d6040518363ffffffff1660e01b81526004018083815260200182600260200280828437600081840152601f19601f82011690508083019250505092505050600060405180830381600087803b158015611f2857600080fd5b505af1158015611f3c573d6000803e3d6000fd5b505050507fe202af9c58bc310261f7515d55fb81d9f6bddc7b6c989275fa404757b6e1a2e033600254604051808373ffffffffffffffffffffffffffffffffffffffff1673ffffffffffffffffffffffffffffffffffffffff1681526020018281526020019250505060405180910390a15050505050505050505050565b833373ffffffffffffffffffffffffffffffffffffffff166003600083815260200190815260200160002060000160009054906101000a900473ffffffffffffffffffffffffffffffffffffffff1673ffffffffffffffffffffffffffffffffffffffff1614612092576040517f08c379a00000000000000000000000000000000000000000000000000000000081526004018080602001828103825260108152602001807f4e6f742067617264656e206f776e65720000000000000000000000000000000081525060200191505060405180910390fd5b84846002806020026040519081016040528092919082600260200280828437600081840152601f19601f82011690508083019250505050505084600280602002604051908101604052809291906000905b82821015612137578382604002016002806020026040519081016040528092919082600260200280828437600081840152601f19601f820116905080830192505050505050815260200190600101906120e3565b50505050846002806020026040519081016040528092919082600260200280828437600081840152601f19601f8201169050808301925050505050506000809054906101000a900473ffffffffffffffffffffffffffffffffffffffff1673ffffffffffffffffffffffffffffffffffffffff1663621e9ec0848484600360008a81526020019081526020016000206005016040518563ffffffff1660e01b81526004018085600260200280838360005b838110156122035780820151818401526020810190506121e8565b505050509050018460026000925b818410156122575782846020020151600260200280838360005b8381101561224657808201518184015260208101905061222b565b505050509050019260010192612211565b9250505083600260200280838360005b83811015612282578082015181840152602081019050612267565b5050505090500182600280156122ad576020028201915b815481526020019060010190808311612299575b505094505050505060206040518083038186803b1580156122cd57600080fd5b505afa1580156122e1573d6000803e3d6000fd5b505050506040513d60208110156122f757600080fd5b810190808051906020019092919050505061237a576040517f08c379a00000000000000000000000000000000000000000000000000000000081526004018080602001828103825260178152602001807f50726f6f66206f662073656372657420696e76616c696400000000000000000081525060200191505060405180910390fd5b60006123858a6150d0565b90506000600360008c815260200190815260200160002090506006808111156123aa57fe5b8160080160009054906101000a900460ff1660068111156123c757fe5b141561243b576040517f08c379a00000000000000000000000000000000000000000000000000000000081526004018080602001828103825260128152602001807f446973707574652069732072756e6e696e67000000000000000000000000000081525060200191505060405180910390fd5b61244d82600301548360010154615124565b6124bf576040517f08c379a00000000000000000000000000000000000000000000000000000000081526004018080602001828103825260118152602001807f4c6f636174696f6e206e6f74206f76657200000000000000000000000000000081525060200191505060405180910390fd5b600082600401549050600083600401819055506000801b83600601600001819055506001600360008e815260200190815260200160002060080160006101000a81548160ff0219169083600681111561251457fe5b02179055508160000160149054906101000a900460ff1615612a105760008260010180549050828161254257fe5b049050612a0a8184604051806101400160405290816000820160009054906101000a900473ffffffffffffffffffffffffffffffffffffffff1673ffffffffffffffffffffffffffffffffffffffff1673ffffffffffffffffffffffffffffffffffffffff1681526020016000820160149054906101000a900460ff161515151581526020016001820180548060200260200160405190810160405280929190818152602001828054801561264c57602002820191906000526020600020905b8160009054906101000a900473ffffffffffffffffffffffffffffffffffffffff1673ffffffffffffffffffffffffffffffffffffffff1681526020019060010190808311612602575b505050505081526020016002820160009054906101000a900460ff16600181111561267357fe5b600181111561267e57fe5b8152602001600382018054600181600116156101000203166002900480601f01602080910402602001604051908101604052809291908181526020018280546001816001161561010002031660029004801561271b5780601f106126f05761010080835404028352916020019161271b565b820191906000526020600020905b8154815290600101906020018083116126fe57829003601f168201915b505050505081526020016004820160009054906101000a900463ffffffff1663ffffffff1663ffffffff16815260200160058201600280602002604051908101604052809291908260028015612786576020028201915b815481526020019060010190808311612772575b50505050508152602001600782018054600181600116156101000203166002900480601f0160208091040260200160405190810160405280929190818152602001828054600181600116156101000203166002900480156128285780601f106127fd57610100808354040283529160200191612828565b820191906000526020600020905b81548152906001019060200180831161280b57829003601f168201915b505050505081526020016008820160009054906101000a900460ff16600681111561284f57fe5b600681111561285a57fe5b815260200160098201805480602002602001604051908101604052809291908181526020016000905b828210156129fd57838290600052602060002090600802016040518060e001604052908160008201548152602001600182015481526020016002820154815260200160038201548152602001600482015481526020016005820160009054906101000a900473ffffffffffffffffffffffffffffffffffffffff1673ffffffffffffffffffffffffffffffffffffffff1673ffffffffffffffffffffffffffffffffffffffff1681526020016006820160405180604001604052908160008201548152602001600182018054600181600116156101000203166002900480601f0160208091040260200160405190810160405280929190818152602001828054600181600116156101000203166002900480156129e15780601f106129b6576101008083540402835291602001916129e1565b820191906000526020600020905b8154815290600101906020018083116129c457829003601f168201915b5050505050815250508152505081526020019060010190612883565b5050505081525050615143565b50612a7c565b8160000160009054906101000a900473ffffffffffffffffffffffffffffffffffffffff1673ffffffffffffffffffffffffffffffffffffffff166108fc829081150290604051600060405180830381858888f19350505050158015612a7a573d6000803e3d6000fd5b505b505050505050505050505050565b6000600160009054906101000a900473ffffffffffffffffffffffffffffffffffffffff1673ffffffffffffffffffffffffffffffffffffffff163373ffffffffffffffffffffffffffffffffffffffff1614612b4f576040517f08c379a000000000000000000000000000000000000000000000000000000000815260040180806020018281038252601a8152602001807f4e6f742061646d696e6973747261746f7220636f6e747261637400000000000081525060200191505060405180910390fd5b816000806101000a81548173ffffffffffffffffffffffffffffffffffffffff021916908373ffffffffffffffffffffffffffffffffffffffff160217905550819050919050565b600160009054906101000a900473ffffffffffffffffffffffffffffffffffffffff1673ffffffffffffffffffffffffffffffffffffffff163373ffffffffffffffffffffffffffffffffffffffff1614612c5a576040517f08c379a000000000000000000000000000000000000000000000000000000000815260040180806020018281038252601a8152602001807f4e6f742061646d696e6973747261746f7220636f6e747261637400000000000081525060200191505060405180910390fd5b6000600360008581526020019081526020016000209050600680811115612c7d57fe5b8160080160009054906101000a900460ff166006811115612c9a57fe5b14612d0d576040517f08c379a00000000000000000000000000000000000000000000000000000000081526004018080602001828103825260128152602001807f4e6f20646973707574652072756e6e696e67000000000000000000000000000081525060200191505060405180910390fd5b6000612d18856150d0565b905060008314612d8e578060050160009054906101000a900473ffffffffffffffffffffffffffffffffffffffff1673ffffffffffffffffffffffffffffffffffffffff166108fc849081150290604051600060405180830381858888f19350505050158015612d8c573d6000803e3d6000fd5b505b600084146132fa578160000160149054906101000a900460ff161561328d57600082600101805490508581612dbf57fe5b0490506132878184604051806101400160405290816000820160009054906101000a900473ffffffffffffffffffffffffffffffffffffffff1673ffffffffffffffffffffffffffffffffffffffff1673ffffffffffffffffffffffffffffffffffffffff1681526020016000820160149054906101000a900460ff1615151515815260200160018201805480602002602001604051908101604052809291908181526020018280548015612ec957602002820191906000526020600020905b8160009054906101000a900473ffffffffffffffffffffffffffffffffffffffff1673ffffffffffffffffffffffffffffffffffffffff1681526020019060010190808311612e7f575b505050505081526020016002820160009054906101000a900460ff166001811115612ef057fe5b6001811115612efb57fe5b8152602001600382018054600181600116156101000203166002900480601f016020809104026020016040519081016040528092919081815260200182805460018160011615610100020316600290048015612f985780601f10612f6d57610100808354040283529160200191612f98565b820191906000526020600020905b815481529060010190602001808311612f7b57829003601f168201915b505050505081526020016004820160009054906101000a900463ffffffff1663ffffffff1663ffffffff16815260200160058201600280602002604051908101604052809291908260028015613003576020028201915b815481526020019060010190808311612fef575b50505050508152602001600782018054600181600116156101000203166002900480601f0160208091040260200160405190810160405280929190818152602001828054600181600116156101000203166002900480156130a55780601f1061307a576101008083540402835291602001916130a5565b820191906000526020600020905b81548152906001019060200180831161308857829003601f168201915b505050505081526020016008820160009054906101000a900460ff1660068111156130cc57fe5b60068111156130d757fe5b815260200160098201805480602002602001604051908101604052809291908181526020016000905b8282101561327a57838290600052602060002090600802016040518060e001604052908160008201548152602001600182015481526020016002820154815260200160038201548152602001600482015481526020016005820160009054906101000a900473ffffffffffffffffffffffffffffffffffffffff1673ffffffffffffffffffffffffffffffffffffffff1673ffffffffffffffffffffffffffffffffffffffff1681526020016006820160405180604001604052908160008201548152602001600182018054600181600116156101000203166002900480601f01602080910402602001604051908101604052809291908181526020018280546001816001161561010002031660029004801561325e5780601f106132335761010080835404028352916020019161325e565b820191906000526020600020905b81548152906001019060200180831161324157829003601f168201915b5050505050815250508152505081526020019060010190613100565b5050505081525050615143565b506132f9565b8160000160009054906101000a900473ffffffffffffffffffffffffffffffffffffffff1673ffffffffffffffffffffffffffffffffffffffff166108fc859081150290604051600060405180830381858888f193505050501580156132f7573d6000803e3d6000fd5b505b5b600081600401819055506000801b816006016000018190555060018260080160006101000a81548160ff0219169083600681111561333457fe5b02179055505050505050565b6000600682128015613353575060008212155b6133c5576040517f08c379a00000000000000000000000000000000000000000000000000000000081526004018080602001828103825260198152602001807f4772616465206973206e6f7420696e2072616e676520302d350000000000000081525060200191505060405180910390fd5b60009050600060036000858152602001908152602001600020600901905060008090505b818054905081101561352e5781818154811061340157fe5b906000526020600020906008020160050160009054906101000a900473ffffffffffffffffffffffffffffffffffffffff1673ffffffffffffffffffffffffffffffffffffffff163373ffffffffffffffffffffffffffffffffffffffff161480156134a957507fffffffffffffffffffffffffffffffffffffffffffffffffffffffffffffffff82828154811061349557fe5b906000526020600020906008020160000154145b80156134f557506134f48282815481106134bf57fe5b9060005260206000209060080201600301548383815481106134dd57fe5b906000526020600020906008020160010154615124565b5b15613521578382828154811061350757fe5b906000526020600020906008020160000181905550600192505b80806001019150506133e9565b508191505092915050565b6000600360008381526020019081526020016000209050600061355b836150d0565b90506002600681111561356a57fe5b8260080160009054906101000a900460ff16600681111561358757fe5b146135fa576040517f08c379a00000000000000000000000000000000000000000000000000000000081526004018080602001828103825260108152602001807f4e6f206f666665722072756e6e696e670000000000000000000000000000000081525060200191505060405180910390fd5b3373ffffffffffffffffffffffffffffffffffffffff168160050160009054906101000a900473ffffffffffffffffffffffffffffffffffffffff1673ffffffffffffffffffffffffffffffffffffffff16146136bf576040517f08c379a00000000000000000000000000000000000000000000000000000000081526004018080602001828103825260168152602001807f4e6f742074686520636f72726563742074656e616e740000000000000000000081525060200191505060405180910390fd5b3481600201541115613739576040517f08c379a00000000000000000000000000000000000000000000000000000000081526004018080602001828103825260138152602001807f496e73756666696369656e7420616d6f756e740000000000000000000000000081525060200191505060405180910390fd5b34816004018190555060038260080160006101000a81548160ff0219169083600681111561376357fe5b0217905550505050565b60008060008060008060006137806151c6565b600360008b815260200190815260200160002060090189815481106137a157fe5b90600052602060002090600802016040518060e001604052908160008201548152602001600182015481526020016002820154815260200160038201548152602001600482015481526020016005820160009054906101000a900473ffffffffffffffffffffffffffffffffffffffff1673ffffffffffffffffffffffffffffffffffffffff1673ffffffffffffffffffffffffffffffffffffffff1681526020016006820160405180604001604052908160008201548152602001600182018054600181600116156101000203166002900480601f0160208091040260200160405190810160405280929190818152602001828054600181600116156101000203166002900480156138f55780601f106138ca576101008083540402835291602001916138f5565b820191906000526020600020905b8154815290600101906020018083116138d857829003601f168201915b505050505081525050815250509050806000015181602001518260400151836060015184608001518560a001518660c001516000015197509750975097509750975097505092959891949750929550565b60025481565b6000809054906101000a900473ffffffffffffffffffffffffffffffffffffffff1681565b823373ffffffffffffffffffffffffffffffffffffffff166003600083815260200190815260200160002060000160009054906101000a900473ffffffffffffffffffffffffffffffffffffffff1673ffffffffffffffffffffffffffffffffffffffff1614613a49576040517f08c379a00000000000000000000000000000000000000000000000000000000081526004018080602001828103825260108152602001807f4e6f742067617264656e206f776e65720000000000000000000000000000000081525060200191505060405180910390fd5b8282600360008781526020019081526020016000206007019190613a6e9291906152ce565b5050505050565b60046006811115613a8257fe5b6003600083815260200190815260200160002060080160009054906101000a900460ff166006811115613ab157fe5b14613b24576040517f08c379a00000000000000000000000000000000000000000000000000000000081526004018080602001828103825260138152602001807f4e6f206c6f636174696f6e2072756e6e696e670000000000000000000000000081525060200191505060405180910390fd5b613b2c6151c6565b613b35826150d0565b6040518060e001604052908160008201548152602001600182015481526020016002820154815260200160038201548152602001600482015481526020016005820160009054906101000a900473ffffffffffffffffffffffffffffffffffffffff1673ffffffffffffffffffffffffffffffffffffffff1673ffffffffffffffffffffffffffffffffffffffff1681526020016006820160405180604001604052908160008201548152602001600182018054600181600116156101000203166002900480601f016020809104026020016040519081016040528092919081815260200182805460018160011615610100020316600290048015613c7b5780601f10613c5057610100808354040283529160200191613c7b565b820191906000526020600020905b815481529060010190602001808311613c5e57829003601f168201915b5050505050815250508152505090503373ffffffffffffffffffffffffffffffffffffffff168160a0015173ffffffffffffffffffffffffffffffffffffffff161480613d2957503373ffffffffffffffffffffffffffffffffffffffff166003600084815260200190815260200160002060000160009054906101000a900473ffffffffffffffffffffffffffffffffffffffff1673ffffffffffffffffffffffffffffffffffffffff16145b613d9b576040517f08c379a000000000000000000000000000000000000000000000000000000000815260040180806020018281038252601c8152602001807f4e6f74207468652074656e616e74206e6f7220746865206f776e65720000000081525060200191505060405180910390fd5b60066003600084815260200190815260200160002060080160006101000a81548160ff02191690836006811115613dce57fe5b0217905550600160009054906101000a900473ffffffffffffffffffffffffffffffffffffffff1673ffffffffffffffffffffffffffffffffffffffff16638b86bf308383608001516040518363ffffffff1660e01b81526004018083815260200182815260200192505050600060405180830381600087803b158015613e5457600080fd5b505af1158015613e68573d6000803e3d6000fd5b505050505050565b60036020528060005260406000206000915090508060000160009054906101000a900473ffffffffffffffffffffffffffffffffffffffff16908060000160149054906101000a900460ff16908060020160009054906101000a900460ff1690806003018054600181600116156101000203166002900480601f016020809104026020016040519081016040528092919081815260200182805460018160011615610100020316600290048015613f685780601f10613f3d57610100808354040283529160200191613f68565b820191906000526020600020905b815481529060010190602001808311613f4b57829003601f168201915b5050505050908060040160009054906101000a900463ffffffff1690806007018054600181600116156101000203166002900480601f01602080910402602001604051908101604052809291908181526020018280546001816001161561010002031660029004801561401c5780601f10613ff15761010080835404028352916020019161401c565b820191906000526020600020905b815481529060010190602001808311613fff57829003601f168201915b5050505050908060080160009054906101000a900460ff16905087565b853373ffffffffffffffffffffffffffffffffffffffff166003600083815260200190815260200160002060000160009054906101000a900473ffffffffffffffffffffffffffffffffffffffff1673ffffffffffffffffffffffffffffffffffffffff1614614111576040517f08c379a00000000000000000000000000000000000000000000000000000000081526004018080602001828103825260108152602001807f4e6f742067617264656e206f776e65720000000000000000000000000000000081525060200191505060405180910390fd5b868686866000809054906101000a900473ffffffffffffffffffffffffffffffffffffffff1673ffffffffffffffffffffffffffffffffffffffff1663621e9ec0848484600360008a81526020019081526020016000206005016040518563ffffffff1660e01b81526004018085600260200280838360005b838110156141a557808201518184015260208101905061418a565b505050509050018460026000925b818410156141f95782846020020151600260200280838360005b838110156141e85780820151818401526020810190506141cd565b5050505090500192600101926141b3565b9250505083600260200280838360005b83811015614224578082015181840152602081019050614209565b50505050905001826002801561424f576020028201915b81548152602001906001019080831161423b575b505094505050505060206040518083038186803b15801561426f57600080fd5b505afa158015614283573d6000803e3d6000fd5b505050506040513d602081101561429957600080fd5b810190808051906020019092919050505061431c576040517f08c379a00000000000000000000000000000000000000000000000000000000081526004018080602001828103825260178152602001807f50726f6f66206f662073656372657420696e76616c696400000000000000000081525060200191505060405180910390fd5b6003600681111561432957fe5b600360008d815260200190815260200160002060080160009054906101000a900460ff16600681111561435857fe5b146143cb576040517f08c379a00000000000000000000000000000000000000000000000000000000081526004018080602001828103825260138152602001807f4e6f206c6f636174696f6e2072756e6e696e670000000000000000000000000081525060200191505060405180910390fd5b6000600360008d8152602001908152602001600020905060006143ed8d6150d0565b905042816003018190555060405180604001604052808a8152602001898152508160060160008201518160000155602082015181600101908051906020019061443792919061542e565b5090505060048260080160006101000a81548160ff0219169083600681111561445c57fe5b021790555050505050505050505050505050565b833373ffffffffffffffffffffffffffffffffffffffff166003600083815260200190815260200160002060000160009054906101000a900473ffffffffffffffffffffffffffffffffffffffff1673ffffffffffffffffffffffffffffffffffffffff1614614548576040517f08c379a00000000000000000000000000000000000000000000000000000000081526004018080602001828103825260108152602001807f4e6f742067617264656e206f776e65720000000000000000000000000000000081525060200191505060405180910390fd5b84846002806020026040519081016040528092919082600260200280828437600081840152601f19601f82011690508083019250505050505084600280602002604051908101604052809291906000905b828210156145ed578382604002016002806020026040519081016040528092919082600260200280828437600081840152601f19601f82011690508083019250505050505081526020019060010190614599565b50505050846002806020026040519081016040528092919082600260200280828437600081840152601f19601f8201169050808301925050505050506000809054906101000a900473ffffffffffffffffffffffffffffffffffffffff1673ffffffffffffffffffffffffffffffffffffffff1663621e9ec0848484600360008a81526020019081526020016000206005016040518563ffffffff1660e01b81526004018085600260200280838360005b838110156146b957808201518184015260208101905061469e565b505050509050018460026000925b8184101561470d5782846020020151600260200280838360005b838110156146fc5780820151818401526020810190506146e1565b5050505090500192600101926146c7565b9250505083600260200280838360005b8381101561473857808201518184015260208101905061471d565b505050509050018260028015614763576020028201915b81548152602001906001019080831161474f575b505094505050505060206040518083038186803b15801561478357600080fd5b505afa158015614797573d6000803e3d6000fd5b505050506040513d60208110156147ad57600080fd5b8101908080519060200190929190505050614830576040517f08c379a00000000000000000000000000000000000000000000000000000000081526004018080602001828103825260178152602001807f50726f6f66206f662073656372657420696e76616c696400000000000000000081525060200191505060405180910390fd5b6002600681111561483d57fe5b600360008b815260200190815260200160002060080160009054906101000a900460ff16600681111561486c57fe5b146148df576040517f08c379a00000000000000000000000000000000000000000000000000000000081526004018080602001828103825260108152602001807f4e6f206f666665722072756e6e696e670000000000000000000000000000000081525060200191505060405180910390fd5b6001600360008b815260200190815260200160002060080160006101000a81548160ff0219169083600681111561491257fe5b0217905550600360008a815260200190815260200160002060090180548061493657fe5b600190038181906000526020600020906008020160008082016000905560018201600090556002820160009055600382016000905560048201600090556005820160006101000a81549073ffffffffffffffffffffffffffffffffffffffff0219169055600682016000808201600090556001820160006149b791906154ae565b505050509055505050505050505050565b600160009054906101000a900473ffffffffffffffffffffffffffffffffffffffff1673ffffffffffffffffffffffffffffffffffffffff163373ffffffffffffffffffffffffffffffffffffffff1614614a8b576040517f08c379a000000000000000000000000000000000000000000000000000000000815260040180806020018281038252601a8152602001807f4e6f742061646d696e6973747261746f7220636f6e747261637400000000000081525060200191505060405180910390fd5b60016003600083815260200190815260200160002060080160006101000a81548160ff02191690836006811115614abe57fe5b021790555050565b843373ffffffffffffffffffffffffffffffffffffffff166003600083815260200190815260200160002060000160009054906101000a900473ffffffffffffffffffffffffffffffffffffffff1673ffffffffffffffffffffffffffffffffffffffff1614614b9e576040517f08c379a00000000000000000000000000000000000000000000000000000000081526004018080602001828103825260108152602001807f4e6f742067617264656e206f776e65720000000000000000000000000000000081525060200191505060405180910390fd5b85856002806020026040519081016040528092919082600260200280828437600081840152601f19601f82011690508083019250505050505085600280602002604051908101604052809291906000905b82821015614c43578382604002016002806020026040519081016040528092919082600260200280828437600081840152601f19601f82011690508083019250505050505081526020019060010190614bef565b50505050856002806020026040519081016040528092919082600260200280828437600081840152601f19601f8201169050808301925050505050506000809054906101000a900473ffffffffffffffffffffffffffffffffffffffff1673ffffffffffffffffffffffffffffffffffffffff1663621e9ec0848484600360008a81526020019081526020016000206005016040518563ffffffff1660e01b81526004018085600260200280838360005b83811015614d0f578082015181840152602081019050614cf4565b505050509050018460026000925b81841015614d635782846020020151600260200280838360005b83811015614d52578082015181840152602081019050614d37565b505050509050019260010192614d1d565b9250505083600260200280838360005b83811015614d8e578082015181840152602081019050614d73565b505050509050018260028015614db9576020028201915b815481526020019060010190808311614da5575b505094505050505060206040518083038186803b158015614dd957600080fd5b505afa158015614ded573d6000803e3d6000fd5b505050506040513d6020811015614e0357600080fd5b8101908080519060200190929190505050614e86576040517f08c379a00000000000000000000000000000000000000000000000000000000081526004018080602001828103825260178152602001807f50726f6f66206f662073656372657420696e76616c696400000000000000000081525060200191505060405180910390fd5b85600360008c8152602001908152602001600020600501906002614eab92919061534e565b5050505050505050505050565b60036006811115614ec557fe5b6003600083815260200190815260200160002060080160009054906101000a900460ff166006811115614ef457fe5b14614f67576040517f08c379a00000000000000000000000000000000000000000000000000000000081526004018080602001828103825260138152602001807f436f6465206973206e6f74206d697373696e670000000000000000000000000081525060200191505060405180910390fd5b6000614f72826150d0565b90503373ffffffffffffffffffffffffffffffffffffffff168160050160009054906101000a900473ffffffffffffffffffffffffffffffffffffffff1673ffffffffffffffffffffffffffffffffffffffff1614615039576040517f08c379a000000000000000000000000000000000000000000000000000000000815260040180806020018281038252600e8152602001807f4e6f74207468652074656e616e7400000000000000000000000000000000000081525060200191505060405180910390fd5b60008160040154905060016003600085815260200190815260200160002060080160006101000a81548160ff0219169083600681111561507557fe5b0217905550600082600401819055503373ffffffffffffffffffffffffffffffffffffffff166108fc829081150290604051600060405180830381858888f193505050501580156150ca573d6000803e3d6000fd5b50505050565b60006003600083815260200190815260200160002060090160016003600085815260200190815260200160002060090180549050038154811061510f57fe5b90600052602060002090600802019050919050565b60004282840111615138576001905061513d565b600090505b92915050565b60008090505b8160400151518110156151c1578160400151818151811061516657fe5b602002602001015173ffffffffffffffffffffffffffffffffffffffff166108fc849081150290604051600060405180830381858888f193505050501580156151b3573d6000803e3d6000fd5b508080600101915050615149565b505050565b6040518060e001604052806000815260200160008152602001600081526020016000815260200160008152602001600073ffffffffffffffffffffffffffffffffffffffff1681526020016152196154f6565b81525090565b6040518060400160405280600290602082028038833980820191505090505090565b604051806101400160405280600073ffffffffffffffffffffffffffffffffffffffff168152602001600015158152602001606081526020016000600181111561528757fe5b815260200160608152602001600063ffffffff1681526020016152a8615513565b815260200160608152602001600060068111156152c157fe5b8152602001606081525090565b828054600181600116156101000203166002900490600052602060002090601f016020900481019282601f1061530f57803560ff191683800117855561533d565b8280016001018555821561533d579182015b8281111561533c578235825591602001919060010190615321565b5b50905061534a9190615535565b5090565b826002810192821561537d579160200282015b8281111561537c578235825591602001919060010190615361565b5b50905061538a9190615535565b5090565b82805482825590600052602060002090810192821561541d579160200282015b8281111561541c57823573ffffffffffffffffffffffffffffffffffffffff168260006101000a81548173ffffffffffffffffffffffffffffffffffffffff021916908373ffffffffffffffffffffffffffffffffffffffff160217905550916020019190600101906153ae565b5b50905061542a919061555a565b5090565b828054600181600116156101000203166002900490600052602060002090601f016020900481019282601f1061546f57805160ff191683800117855561549d565b8280016001018555821561549d579182015b8281111561549c578251825591602001919060010190615481565b5b5090506154aa9190615535565b5090565b50805460018160011615610100020316600290046000825580601f106154d457506154f3565b601f0160209004906000526020600020908101906154f29190615535565b5b50565b604051806040016040528060008019168152602001606081525090565b6040518060400160405280600290602082028038833980820191505090505090565b61555791905b8082111561555357600081600090555060010161553b565b5090565b90565b61559a91905b8082111561559657600081816101000a81549073ffffffffffffffffffffffffffffffffffffffff021916905550600101615560565b5090565b9056fe43616c6c6572206d757374206265207468652074656e616e74206f7220746865206f776e6572a26469706673582212200040053d623505b8cdfc19eae3d10facb823c15adb9f35c5ccea19cf8abb987264736f6c63430006010033",
  "source": "// SPDX-License-Identifier: MIT\r\npragma solidity ^0.6.1;\r\nimport \"./AdminManager.sol\";\r\nimport \"./Verifier.sol\";\r\nimport {GLibrary} from \"./GLibrary.sol\";\r\n\r\n/// @title GardenManager contract\r\n/// @author Aymeric NOEL <aymeric.noel@octo.com>\r\n/// @notice this contract is used to automatically manage the rental of gardens directly between owners and tenants\r\ncontract GardenManager {\r\n    Verifier public VerifierContract;\r\n    AdminManager public AManager;\r\n    uint public GardenCount;\r\n    mapping (uint=>GLibrary.Garden) public AllGarden;\r\n\r\n    /// @dev Emitted when a new garden is created\r\n    /// @param _owner garden's owner\r\n    /// @param _gardenIndex garden index\r\n    event NewGarden(address _owner, uint _gardenIndex);\r\n    \r\n    constructor (address _adminContract, address _verifierContract) public {\r\n        AManager = AdminManager(_adminContract);\r\n        VerifierContract = Verifier(_verifierContract);\r\n    }\r\n    \r\n    modifier OnlyContractAdmin {\r\n        require(msg.sender == address(AManager), \"Not administrator contract\");\r\n        _;\r\n    }\r\n    \r\n    modifier OnlyOwner(uint gardenIndex){\r\n        require(AllGarden[gardenIndex].owner==msg.sender, \"Not garden owner\");\r\n        _;\r\n    }\r\n\r\n    modifier OnlyValidProof(uint _gardenIndex, uint[2] memory _proofA, uint[2][2] memory _proofB,\r\n            uint[2] memory _proofC){\r\n        require(VerifierContract.verifyTx(_proofA,_proofB,_proofC,AllGarden[_gardenIndex].secretHash), \"Proof of secret invalid\");\r\n        _;\r\n    }\r\n\r\n    function getGardenById(uint _gardenIndex)external view returns(address payable owner,\r\n        bool multipleOwners,\r\n        address payable[] memory coOwners,\r\n        GLibrary.GardenType gardenType,\r\n        string memory district,\r\n        uint32 area,\r\n        uint[2] memory secretHash,\r\n        string memory contact,\r\n        GLibrary.Status status,\r\n        uint rentLength){\r\n        GLibrary.Garden memory garden = AllGarden[_gardenIndex];\r\n        return (garden.owner, garden.multipleOwners, garden.coOwners, garden.gardenType,\r\n        garden.district,garden.area, garden.secretHash, garden.contact,garden.status,\r\n        garden.rents.length);\r\n    }\r\n\r\n    function getRentByGardenAndRentId(uint _gardenIndex, uint _rentId) external view returns(int rate,\r\n        uint duration, \r\n        uint price,\r\n        uint beginning,\r\n        uint balance,\r\n        address payable tenant,\r\n        bytes32 gardenHashCode){\r\n        GLibrary.Rent memory rent = AllGarden[_gardenIndex].rents[_rentId];\r\n        return(rent.rate,rent.duration,rent.price,rent.beginning,rent.balance,rent.tenant,rent.accessCode.hashCode);\r\n    }\r\n\r\n    function getAccessCodeByGardenId(uint _gardenIndex)external view returns(string memory encryptedCode){\r\n        GLibrary.Rent memory rent = getLastRentForGarden(_gardenIndex);\r\n        require(msg.sender==rent.tenant || msg.sender==AllGarden[_gardenIndex].owner,\"Caller must be the tenant or the owner\");\r\n        return(rent.accessCode.encryptedCode);\r\n    }\r\n\r\n    function modifyVerifierContract(address _verifierContract) public OnlyContractAdmin returns(address){\r\n        VerifierContract = Verifier(_verifierContract);\r\n        return _verifierContract;\r\n    }\r\n\r\n    /// @dev Use this function to add a new garden.\r\n    /// @param _secretHash hash of the user' secret; must be in decimal form int[2]\r\n    /// @param _district district of the garden\r\n    /// @param _area area of the garden\r\n    /// @param _contact contact of the owner\r\n    /// @param _gardenType gardenType of the garden\r\n    /// @param _multipleOwners boolean that represents multiple owners for a garden or not\r\n    /// @param _coOwners in case of multiple owners : all owners' addresses, could be empty\r\n    function createGarden(uint[2] calldata _secretHash, string calldata _district,uint32 _area, string calldata _contact, GLibrary.GardenType _gardenType, bool _multipleOwners, address payable[] calldata _coOwners) external{\r\n        GardenCount++;\r\n        GLibrary.Garden storage garden = AllGarden[GardenCount];\r\n        garden.area=_area;\r\n        garden.contact=_contact;\r\n        garden.gardenType=_gardenType;\r\n        garden.secretHash=_secretHash;\r\n        garden.district=_district;\r\n        garden.status=GLibrary.Status.Waiting;\r\n        garden.owner=msg.sender;\r\n        if(_multipleOwners){\r\n            garden.multipleOwners=true;\r\n            garden.coOwners=_coOwners;\r\n        }\r\n        AManager.addGarden(GardenCount, _secretHash);\r\n        emit NewGarden(msg.sender, GardenCount);        \r\n    }\r\n\r\n    /// @dev Use this function to update the contact of a garden.\r\n    /// The caller must be the garden's owner.\r\n    /// @param _gardenIndex the Id of the garden\r\n    /// @param _contact the new contact of the garden\r\n    function updateGardenContact(uint _gardenIndex, string calldata _contact) external OnlyOwner(_gardenIndex) {\r\n        AllGarden[_gardenIndex].contact =_contact;\r\n    }\r\n\r\n    /// @dev Use this function to update the secret of the secret of a garden.\r\n    /// The caller must be the garden's owner and must prove it by sending the preimage of the secret hash.\r\n    /// @param _gardenIndex the Id of the garden\r\n    /// @param _proofA the first part of the proof\r\n    /// @param _proofB the second part of the proof\r\n    /// @param _proofC the third part of the proof\r\n    /// @param _newSecretHash the new hash of the secret's garden\r\n    function updateGardenSecretHash(uint _gardenIndex, uint[2] calldata _proofA, uint[2][2] calldata _proofB,\r\n            uint[2] calldata _proofC, uint[2] calldata _newSecretHash) external OnlyOwner(_gardenIndex) OnlyValidProof(_gardenIndex,_proofA,_proofB,_proofC){\r\n        AllGarden[_gardenIndex].secretHash =_newSecretHash;\r\n    }\r\n\r\n\r\n    /// @dev Use this function to accept a new garden and open it to location.\r\n    /// The caller must be the admin contract.\r\n    /// @param _gardenIndex the Id of the garden\r\n    function acceptGarden(uint _gardenIndex) public OnlyContractAdmin {\r\n        AllGarden[_gardenIndex].status= GLibrary.Status.Free;\r\n    }\r\n\r\n    /// @dev Use this function to reject a new garden and blacklist it.\r\n    /// The caller must be the admin contract.\r\n    /// @param _gardenIndex the Id of the garden\r\n    function rejectGarden(uint _gardenIndex) public OnlyContractAdmin{\r\n        AllGarden[_gardenIndex].status= GLibrary.Status.Blacklist;\r\n    }        \r\n\r\n    function getLastRentForGarden(uint _gardenIndex) private view returns(GLibrary.Rent storage){\r\n        return AllGarden[_gardenIndex].rents[AllGarden[_gardenIndex].rents.length-1];\r\n    }\r\n\r\n    /// @dev Use this function to propose a new location offer.\r\n    /// The caller must be the owner, after agreement with the tenant offchain.\r\n    /// @param _gardenIndex the Id of the garden\r\n    /// @param _tenant tenant's garden\r\n    /// @param _rentingDuration duration of the location\r\n    /// @param _price price of the location\r\n    /// @param _proofA the first part of the proof\r\n    /// @param _proofB the second part of the proof\r\n    /// @param _proofC the third part of the proof\r\n    function proposeGardenOffer(uint _gardenIndex, address payable _tenant, \r\n    uint _rentingDuration, uint _price, uint[2] calldata _proofA, uint[2][2] calldata _proofB,\r\n            uint[2] calldata _proofC) external OnlyOwner(_gardenIndex) OnlyValidProof(_gardenIndex,_proofA,_proofB,_proofC){\r\n        require(AllGarden[_gardenIndex].status==GLibrary.Status.Free, \"Garden not free\");\r\n        GLibrary.Garden storage garden = AllGarden[_gardenIndex];        \r\n        garden.status= GLibrary.Status.Blocked;\r\n        garden.rents.push();\r\n        GLibrary.Rent storage lastRent = getLastRentForGarden(_gardenIndex);\r\n        lastRent.duration=_rentingDuration;\r\n        lastRent.price=_price;\r\n        lastRent.tenant=_tenant;\r\n        lastRent.rate=-1;\r\n    }\r\n\r\n    /// @dev Use this function to delete an offer that has not received any response.\r\n    /// Ownly the garden's owner could call and only if an offer is running.\r\n    /// @param _gardenIndex the Id of the garden\r\n    /// @param _proofA the first part of the proof\r\n    /// @param _proofB the second part of the proof\r\n    /// @param _proofC the third part of the proof\r\n    function deleteGardenOffer(uint _gardenIndex, uint[2] calldata _proofA, uint[2][2] calldata _proofB,\r\n            uint[2] calldata _proofC) external OnlyOwner(_gardenIndex) OnlyValidProof(_gardenIndex,_proofA,_proofB,_proofC){\r\n        require(AllGarden[_gardenIndex].status== GLibrary.Status.Blocked,\"No offer running\");\r\n        AllGarden[_gardenIndex].status= GLibrary.Status.Free;\r\n        AllGarden[_gardenIndex].rents.pop();\r\n    }\r\n\r\n    /// @dev Use this function to accept a location offer.\r\n    /// Caller must be the tenant.\r\n    /// @param _gardenIndex the Id of the garden\r\n    function acceptGardenOffer(uint _gardenIndex)external payable{\r\n        GLibrary.Garden storage garden = AllGarden[_gardenIndex];\r\n        GLibrary.Rent storage lastRent = getLastRentForGarden(_gardenIndex);\r\n        require(garden.status== GLibrary.Status.Blocked, \"No offer running\");\r\n        require(lastRent.tenant== msg.sender, \"Not the correct tenant\");\r\n        require(lastRent.price <= msg.value, \"Insufficient amount\");\r\n        lastRent.balance=msg.value;\r\n        garden.status=GLibrary.Status.CodeWaiting;\r\n    }\r\n\r\n    /// @dev Use this function to add access code to a garden.\r\n    /// The caller must be the garden's owner and prove it.\r\n    /// @param _gardenIndex the Id of the garden\r\n    /// @param _proofA the first part of the proof\r\n    /// @param _proofB the second part of the proof\r\n    /// @param _proofC the third part of the proof\r\n    /// @param _hashCode the hash of the access code\r\n    /// @param _encryptedCode the code encrypted with the tenant's public key\r\n    function addAccessCodeToGarden(uint _gardenIndex, uint[2] memory _proofA, uint[2][2] memory _proofB,\r\n            uint[2] memory _proofC, bytes32 _hashCode,string memory _encryptedCode) public OnlyOwner(_gardenIndex) OnlyValidProof(_gardenIndex,_proofA,_proofB,_proofC){\r\n        require(AllGarden[_gardenIndex].status==GLibrary.Status.CodeWaiting,\"No location running\");\r\n        GLibrary.Garden storage garden = AllGarden[_gardenIndex];\r\n        GLibrary.Rent storage lastRent = getLastRentForGarden(_gardenIndex);\r\n        lastRent.beginning=block.timestamp;\r\n        lastRent.accessCode=GLibrary.AccessCode(_hashCode,_encryptedCode);\r\n        garden.status=GLibrary.Status.Location;\r\n    }\r\n\r\n    /// @dev Use this function to get refund and to cancel a location only if access code is missing.\r\n    /// @param _gardenIndex the Id of the garden\r\n    function getRefundBeforeLocation(uint _gardenIndex) external {\r\n        require(AllGarden[_gardenIndex].status==GLibrary.Status.CodeWaiting,\"Code is not missing\");\r\n        GLibrary.Rent storage lastRent = getLastRentForGarden(_gardenIndex);\r\n        require(lastRent.tenant==msg.sender,\"Not the tenant\");\r\n        uint balance = lastRent.balance;\r\n        AllGarden[_gardenIndex].status=GLibrary.Status.Free;\r\n        lastRent.balance =0;\r\n        msg.sender.transfer(balance);        \r\n    }\r\n\r\n    function transferPaymentToMultipleOwners(uint _amount, GLibrary.Garden memory _garden) internal {\r\n        for (uint i = 0; i < _garden.coOwners.length; i++) {\r\n            _garden.coOwners[i].transfer(_amount);\r\n        }\r\n    }\r\n\r\n    /// @dev Use the function to update location status after location and get payment.\r\n    /// The caller must be the garden's owner.\r\n    /// @param _gardenIndex the Id of the garden\r\n    /// @param _proofA the first part of the proof\r\n    /// @param _proofB the second part of the proof\r\n    /// @param _proofC the third part of the proof\r\n    function updateLocationStatusAndGetPayment(uint _gardenIndex, uint[2] calldata _proofA, uint[2][2] calldata _proofB,\r\n            uint[2] calldata _proofC)external OnlyOwner(_gardenIndex) OnlyValidProof(_gardenIndex,_proofA,_proofB,_proofC){\r\n        GLibrary.Rent storage lastRent = getLastRentForGarden(_gardenIndex);\r\n        GLibrary.Garden storage garden = AllGarden[_gardenIndex];\r\n        require(garden.status!= GLibrary.Status.Dispute, \"Dispute is running\");\r\n        require(isRentOver(lastRent.beginning,lastRent.duration),\"Location not over\");\r\n        uint balance = lastRent.balance;\r\n        lastRent.balance=0;\r\n        lastRent.accessCode.hashCode= 0;\r\n        AllGarden[_gardenIndex].status=GLibrary.Status.Free;\r\n        if(garden.multipleOwners){\r\n            uint payroll = balance/garden.coOwners.length;\r\n            transferPaymentToMultipleOwners(payroll,garden);\r\n        }else{\r\n            garden.owner.transfer(balance);\r\n        }\r\n    }\r\n\r\n    /// @dev Tenant should use this function to add a grade to his locations between 1 and 5.\r\n    /// @param _gardenIndex the Id of the garden\r\n    /// @param _grade the given grade\r\n    /// @return saved : true if saved, false either\r\n    function addGradeToGarden(uint _gardenIndex, int _grade)external returns(bool saved){\r\n        require(_grade<6 && _grade >=0, \"Grade is not in range 0-5\");\r\n        saved=false;\r\n        GLibrary.Rent[] storage allRents = AllGarden[_gardenIndex].rents;\r\n        for (uint i = 0; i < allRents.length; i++) {\r\n            if(msg.sender== allRents[i].tenant && allRents[i].rate==int(-1) && isRentOver(allRents[i].beginning,allRents[i].duration)){\r\n                allRents[i].rate=_grade;\r\n                saved=true;\r\n            }\r\n        }\r\n        return saved;\r\n    }\r\n\r\n    /// @dev Use this function to add a dispute in case of disagreement between owner and tenant.\r\n    /// @param _gardenIndex the Id of the garden\r\n    function addDispute(uint _gardenIndex) public {\r\n        require(AllGarden[_gardenIndex].status==GLibrary.Status.Location,\"No location running\");\r\n        GLibrary.Rent memory lastRent = getLastRentForGarden(_gardenIndex);\r\n        require(lastRent.tenant==msg.sender || AllGarden[_gardenIndex].owner==msg.sender,\"Not the tenant nor the owner\");\r\n        AllGarden[_gardenIndex].status = GLibrary.Status.Dispute;\r\n        AManager.addDispute(_gardenIndex,lastRent.balance);\r\n    }\r\n\r\n    /// @dev Use this function to close a dispute and give back ether amounts to correct people.\r\n    /// Must be call by the admin contract.\r\n    /// @param _gardenIndex the Id of the garden\r\n    /// @param _ownerAmount amount for the owner\r\n    /// @param _tenantAmount amount for the tenant\r\n    function closeDispute(uint _gardenIndex, uint _ownerAmount, uint _tenantAmount) public OnlyContractAdmin{\r\n        GLibrary.Garden storage garden = AllGarden[_gardenIndex];\r\n        require(garden.status==GLibrary.Status.Dispute, \"No dispute running\");\r\n        GLibrary.Rent storage lastRent = getLastRentForGarden(_gardenIndex);\r\n        if(_tenantAmount!=0){\r\n            lastRent.tenant.transfer(_tenantAmount);\r\n        }\r\n        if(_ownerAmount!=0){\r\n            if(garden.multipleOwners){\r\n                uint payroll = _ownerAmount/garden.coOwners.length;\r\n                transferPaymentToMultipleOwners(payroll,garden);\r\n            }else{\r\n                garden.owner.transfer(_ownerAmount);\r\n            }\r\n        }\r\n        lastRent.balance=0;\r\n        lastRent.accessCode.hashCode=0;\r\n        garden.status=GLibrary.Status.Free;\r\n    }\r\n\r\n    function isRentOver(uint _beginning, uint _duration) private view returns (bool){\r\n        if(_beginning + _duration<= block.timestamp){\r\n            return true;\r\n        }\r\n        return false;\r\n    }\r\n}",
  "sourcePath": "C:\\Users\\aymeric.noel\\Desktop\\ZKP\\POC_ZKP\\contracts\\GardenManager.sol",
  "compiler": {
    "name": "solc",
    "version": "0.6.1+commit.e6f7d5a4.Emscripten.clang"
  },
  "schemaVersion": "3.3.4",
  "updatedAt": "2021-04-12T06:50:48.321Z",
  "networkType": "ethereum",
  "devdoc": {
    "author": "Aymeric NOEL <aymeric.noel@octo.com>",
    "methods": {
      "acceptGarden(uint256)": {
        "details": "Use this function to accept a new garden and open it to location. The caller must be the admin contract.",
        "params": {
          "_gardenIndex": "the Id of the garden"
        }
      },
      "acceptGardenOffer(uint256)": {
        "details": "Use this function to accept a location offer. Caller must be the tenant.",
        "params": {
          "_gardenIndex": "the Id of the garden"
        }
      },
      "addAccessCodeToGarden(uint256,uint256[2],uint256[2][2],uint256[2],bytes32,string)": {
        "details": "Use this function to add access code to a garden. The caller must be the garden's owner and prove it.",
        "params": {
          "_encryptedCode": "the code encrypted with the tenant's public key",
          "_gardenIndex": "the Id of the garden",
          "_hashCode": "the hash of the access code",
          "_proofA": "the first part of the proof",
          "_proofB": "the second part of the proof",
          "_proofC": "the third part of the proof"
        }
      },
      "addDispute(uint256)": {
        "details": "Use this function to add a dispute in case of disagreement between owner and tenant.",
        "params": {
          "_gardenIndex": "the Id of the garden"
        }
      },
      "addGradeToGarden(uint256,int256)": {
        "details": "Tenant should use this function to add a grade to his locations between 1 and 5.",
        "params": {
          "_gardenIndex": "the Id of the garden",
          "_grade": "the given grade"
        },
        "returns": {
          "saved": ": true if saved, false either"
        }
      },
      "closeDispute(uint256,uint256,uint256)": {
        "details": "Use this function to close a dispute and give back ether amounts to correct people. Must be call by the admin contract.",
        "params": {
          "_gardenIndex": "the Id of the garden",
          "_ownerAmount": "amount for the owner",
          "_tenantAmount": "amount for the tenant"
        }
      },
      "createGarden(uint256[2],string,uint32,string,uint8,bool,address[])": {
        "details": "Use this function to add a new garden.",
        "params": {
          "_area": "area of the garden",
          "_coOwners": "in case of multiple owners : all owners' addresses, could be empty",
          "_contact": "contact of the owner",
          "_district": "district of the garden",
          "_gardenType": "gardenType of the garden",
          "_multipleOwners": "boolean that represents multiple owners for a garden or not",
          "_secretHash": "hash of the user' secret; must be in decimal form int[2]"
        }
      },
      "deleteGardenOffer(uint256,uint256[2],uint256[2][2],uint256[2])": {
        "details": "Use this function to delete an offer that has not received any response. Ownly the garden's owner could call and only if an offer is running.",
        "params": {
          "_gardenIndex": "the Id of the garden",
          "_proofA": "the first part of the proof",
          "_proofB": "the second part of the proof",
          "_proofC": "the third part of the proof"
        }
      },
      "getRefundBeforeLocation(uint256)": {
        "details": "Use this function to get refund and to cancel a location only if access code is missing.",
        "params": {
          "_gardenIndex": "the Id of the garden"
        }
      },
      "proposeGardenOffer(uint256,address,uint256,uint256,uint256[2],uint256[2][2],uint256[2])": {
        "details": "Use this function to propose a new location offer. The caller must be the owner, after agreement with the tenant offchain.",
        "params": {
          "_gardenIndex": "the Id of the garden",
          "_price": "price of the location",
          "_proofA": "the first part of the proof",
          "_proofB": "the second part of the proof",
          "_proofC": "the third part of the proof",
          "_rentingDuration": "duration of the location",
          "_tenant": "tenant's garden"
        }
      },
      "rejectGarden(uint256)": {
        "details": "Use this function to reject a new garden and blacklist it. The caller must be the admin contract.",
        "params": {
          "_gardenIndex": "the Id of the garden"
        }
      },
      "updateGardenContact(uint256,string)": {
        "details": "Use this function to update the contact of a garden. The caller must be the garden's owner.",
        "params": {
          "_contact": "the new contact of the garden",
          "_gardenIndex": "the Id of the garden"
        }
      },
      "updateGardenSecretHash(uint256,uint256[2],uint256[2][2],uint256[2],uint256[2])": {
        "details": "Use this function to update the secret of the secret of a garden. The caller must be the garden's owner and must prove it by sending the preimage of the secret hash.",
        "params": {
          "_gardenIndex": "the Id of the garden",
          "_newSecretHash": "the new hash of the secret's garden",
          "_proofA": "the first part of the proof",
          "_proofB": "the second part of the proof",
          "_proofC": "the third part of the proof"
        }
      },
      "updateLocationStatusAndGetPayment(uint256,uint256[2],uint256[2][2],uint256[2])": {
        "details": "Use the function to update location status after location and get payment. The caller must be the garden's owner.",
        "params": {
          "_gardenIndex": "the Id of the garden",
          "_proofA": "the first part of the proof",
          "_proofB": "the second part of the proof",
          "_proofC": "the third part of the proof"
        }
      }
    },
    "title": "GardenManager contract"
  },
  "userdoc": {
    "methods": {},
    "notice": "this contract is used to automatically manage the rental of gardens directly between owners and tenants"
  }
}