{
  "contractName": "AdminManager",
  "abi": [
    {
      "inputs": [
        {
          "internalType": "address[]",
          "name": "_contractAdmins",
          "type": "address[]"
        },
        {
          "internalType": "uint256",
          "name": "_minApprovals",
          "type": "uint256"
        },
        {
          "internalType": "address",
          "name": "_verifierContract",
          "type": "address"
        },
        {
          "internalType": "string",
          "name": "_contactP2P",
          "type": "string"
        }
      ],
      "stateMutability": "nonpayable",
      "type": "constructor"
    },
    {
      "inputs": [],
      "name": "ContactP2P",
      "outputs": [
        {
          "internalType": "string",
          "name": "",
          "type": "string"
        }
      ],
      "stateMutability": "view",
      "type": "function"
    },
    {
      "inputs": [],
      "name": "MinApprovals",
      "outputs": [
        {
          "internalType": "uint256",
          "name": "",
          "type": "uint256"
        }
      ],
      "stateMutability": "view",
      "type": "function"
    },
    {
      "inputs": [
        {
          "internalType": "address",
          "name": "_address",
          "type": "address"
        }
      ],
      "name": "AddGardenManagerAddress",
      "outputs": [],
      "stateMutability": "nonpayable",
      "type": "function"
    },
    {
      "inputs": [
        {
          "internalType": "address",
          "name": "_verifierContract",
          "type": "address"
        }
      ],
      "name": "ModifyVerifierContractAddress",
      "outputs": [],
      "stateMutability": "nonpayable",
      "type": "function"
    },
    {
      "inputs": [
        {
          "internalType": "uint32",
          "name": "_gardenIndex",
          "type": "uint32"
        },
        {
          "internalType": "uint256[2]",
          "name": "_secret",
          "type": "uint256[2]"
        }
      ],
      "name": "AddGarden",
      "outputs": [],
      "stateMutability": "nonpayable",
      "type": "function"
    },
    {
      "inputs": [
        {
          "internalType": "uint32",
          "name": "_gardenIndex",
          "type": "uint32"
        },
        {
          "internalType": "uint256[2]",
          "name": "_proofA",
          "type": "uint256[2]"
        },
        {
          "internalType": "uint256[2][2]",
          "name": "_proofB",
          "type": "uint256[2][2]"
        },
        {
          "internalType": "uint256[2]",
          "name": "_proofC",
          "type": "uint256[2]"
        }
      ],
      "name": "AcceptGarden",
      "outputs": [],
      "stateMutability": "nonpayable",
      "type": "function"
    },
    {
      "inputs": [
        {
          "internalType": "uint32",
          "name": "_gardenIndex",
          "type": "uint32"
        }
      ],
      "name": "RejectGarden",
      "outputs": [],
      "stateMutability": "nonpayable",
      "type": "function"
    }
  ],
  "bytecode": "0x60806040523480156200001157600080fd5b50604051620015d0380380620015d0833981810160405260808110156200003757600080fd5b81019080805160405193929190846401000000008211156200005857600080fd5b838201915060208201858111156200006f57600080fd5b82518660208202830111640100000000821117156200008d57600080fd5b8083526020830192505050908051906020019060200280838360005b83811015620000c6578082015181840152602081019050620000a9565b505050509050016040526020018051906020019092919080519060200190929190805160405193929190846401000000008211156200010457600080fd5b838201915060208201858111156200011b57600080fd5b82518660018202830111640100000000821117156200013957600080fd5b8083526020830192505050908051906020019080838360005b838110156200016f57808201518184015260208101905062000152565b50505050905090810190601f1680156200019d5780820380516001836020036101000a031916815260200191505b5060405250505060008090505b845181101562000226576001151560026000878481518110620001c957fe5b602002602001015173ffffffffffffffffffffffffffffffffffffffff1673ffffffffffffffffffffffffffffffffffffffff16815260200190815260200160002060009054906101000a905050508080600101915050620001aa565b508260068190555033600360006101000a81548173ffffffffffffffffffffffffffffffffffffffff021916908373ffffffffffffffffffffffffffffffffffffffff160217905550816000806101000a81548173ffffffffffffffffffffffffffffffffffffffff021916908373ffffffffffffffffffffffffffffffffffffffff1602179055508060049080519060200190620002c7929190620002d2565b505050505062000381565b828054600181600116156101000203166002900490600052602060002090601f016020900481019282601f106200031557805160ff191683800117855562000346565b8280016001018555821562000346579182015b828111156200034557825182559160200191906001019062000328565b5b50905062000355919062000359565b5090565b6200037e91905b808211156200037a57600081600090555060010162000360565b5090565b90565b61123f80620003916000396000f3fe608060405234801561001057600080fd5b506004361061007d5760003560e01c80636eb5c3901161005b5780636eb5c39014610167578063a5d66516146101dc578063a83887a714610210578063e4d1956c146102545761007d565b806312d90106146100825780632cb6b57d146100a05780636036efa314610123575b600080fd5b61008a610384565b6040518082815260200191505060405180910390f35b6100a861038a565b6040518080602001828103825283818151815260200191508051906020019080838360005b838110156100e85780820151818401526020810190506100cd565b50505050905090810190601f1680156101155780820380516001836020036101000a031916815260200191505b509250505060405180910390f35b6101656004803603602081101561013957600080fd5b81019080803573ffffffffffffffffffffffffffffffffffffffff169060200190929190505050610428565b005b6101da6004803603606081101561017d57600080fd5b81019080803563ffffffff16906020019092919080604001906002806020026040519081016040528092919082600260200280828437600081840152601f19601f82011690508083019250505050505091929192905050506104c6565b005b61020e600480360360208110156101f257600080fd5b81019080803563ffffffff16906020019092919050505061059c565b005b6102526004803603602081101561022657600080fd5b81019080803573ffffffffffffffffffffffffffffffffffffffff1690602001909291905050506109d8565b005b610382600480360361012081101561026b57600080fd5b81019080803563ffffffff16906020019092919080604001906002806020026040519081016040528092919082600260200280828437600081840152601f19601f82011690508083019250505050505091929192908060800190600280602002604051908101604052809291906000905b82821015610330578382604002016002806020026040519081016040528092919082600260200280828437600081840152601f19601f820116905080830192505050505050815260200190600101906102dc565b50505050919291929080604001906002806020026040519081016040528092919082600260200280828437600081840152601f19601f8201169050808301925050505050509192919290505050610b52565b005b60065481565b60048054600181600116156101000203166002900480601f0160208091040260200160405190810160405280929190818152602001828054600181600116156101000203166002900480156104205780601f106103f557610100808354040283529160200191610420565b820191906000526020600020905b81548152906001019060200180831161040357829003601f168201915b505050505081565b600360009054906101000a900473ffffffffffffffffffffffffffffffffffffffff1673ffffffffffffffffffffffffffffffffffffffff163373ffffffffffffffffffffffffffffffffffffffff161461048257600080fd5b80600160006101000a81548173ffffffffffffffffffffffffffffffffffffffff021916908373ffffffffffffffffffffffffffffffffffffffff16021790555050565b600160009054906101000a900473ffffffffffffffffffffffffffffffffffffffff1673ffffffffffffffffffffffffffffffffffffffff163373ffffffffffffffffffffffffffffffffffffffff161461052057600080fd5b6000600560008463ffffffff1663ffffffff1681526020019081526020016000209050828160000160006101000a81548163ffffffff021916908363ffffffff16021790555081816001019060026105799291906111a4565b5060018160050160006101000a81548160ff021916908315150217905550505050565b600260003373ffffffffffffffffffffffffffffffffffffffff1673ffffffffffffffffffffffffffffffffffffffff16815260200190815260200160002060009054906101000a900460ff1661065b576040517f08c379a000000000000000000000000000000000000000000000000000000000815260040180806020018281038252601f8152602001807f4f6e6c792061646d696e6973747261746f72732073686f756c642063616c6c0081525060200191505060405180910390fd5b80600560008263ffffffff1663ffffffff16815260200190815260200160002060050160009054906101000a900460ff166106fe576040517f08c379a00000000000000000000000000000000000000000000000000000000081526004018080602001828103825260188152602001807f50726f706f73616c2073686f756c64206265206f70656e2e000000000000000081525060200191505060405180910390fd5b600080905060008090505b600560008563ffffffff1663ffffffff168152602001908152602001600020600401805490508110156107d7573373ffffffffffffffffffffffffffffffffffffffff16600560008663ffffffff1663ffffffff168152602001908152602001600020600401828154811061077a57fe5b9060005260206000200160009054906101000a900473ffffffffffffffffffffffffffffffffffffffff1673ffffffffffffffffffffffffffffffffffffffff1614156107ca57600191506107d7565b8080600101915050610709565b50801561084c576040517f08c379a00000000000000000000000000000000000000000000000000000000081526004018080602001828103825260198152602001807f596f752073686f756c64206f6e6c7920766f7465206f6e63650000000000000081525060200191505060405180910390fd5b600560008463ffffffff1663ffffffff168152602001908152602001600020600401339080600181540180825580915050600190039060005260206000200160009091909190916101000a81548173ffffffffffffffffffffffffffffffffffffffff021916908373ffffffffffffffffffffffffffffffffffffffff160217905550600654600560008563ffffffff1663ffffffff1681526020019081526020016000206004018054905014156109d357600160009054906101000a900473ffffffffffffffffffffffffffffffffffffffff1673ffffffffffffffffffffffffffffffffffffffff1663a5d66516846040518263ffffffff1660e01b8152600401808263ffffffff1663ffffffff168152602001915050600060405180830381600087803b15801561097f57600080fd5b505af1158015610993573d6000803e3d6000fd5b505050506000600560008563ffffffff1663ffffffff16815260200190815260200160002060050160006101000a81548160ff0219169083151502179055505b505050565b600360009054906101000a900473ffffffffffffffffffffffffffffffffffffffff1673ffffffffffffffffffffffffffffffffffffffff163373ffffffffffffffffffffffffffffffffffffffff1614610a3257600080fd5b806000806101000a81548173ffffffffffffffffffffffffffffffffffffffff021916908373ffffffffffffffffffffffffffffffffffffffff160217905550600160009054906101000a900473ffffffffffffffffffffffffffffffffffffffff1673ffffffffffffffffffffffffffffffffffffffff1663ac6bbf5a826040518263ffffffff1660e01b8152600401808273ffffffffffffffffffffffffffffffffffffffff1673ffffffffffffffffffffffffffffffffffffffff168152602001915050602060405180830381600087803b158015610b1357600080fd5b505af1158015610b27573d6000803e3d6000fd5b505050506040513d6020811015610b3d57600080fd5b81019080805190602001909291905050505050565b600260003373ffffffffffffffffffffffffffffffffffffffff1673ffffffffffffffffffffffffffffffffffffffff16815260200190815260200160002060009054906101000a900460ff16610c11576040517f08c379a000000000000000000000000000000000000000000000000000000000815260040180806020018281038252601f8152602001807f4f6e6c792061646d696e6973747261746f72732073686f756c642063616c6c0081525060200191505060405180910390fd5b83600560008263ffffffff1663ffffffff16815260200190815260200160002060050160009054906101000a900460ff16610cb4576040517f08c379a00000000000000000000000000000000000000000000000000000000081526004018080602001828103825260188152602001807f50726f706f73616c2073686f756c64206265206f70656e2e000000000000000081525060200191505060405180910390fd5b600080905060008090505b600560008863ffffffff1663ffffffff16815260200190815260200160002060040180549050811015610d8d573373ffffffffffffffffffffffffffffffffffffffff16600560008963ffffffff1663ffffffff1681526020019081526020016000206003018281548110610d3057fe5b9060005260206000200160009054906101000a900473ffffffffffffffffffffffffffffffffffffffff1673ffffffffffffffffffffffffffffffffffffffff161415610d805760019150610d8d565b8080600101915050610cbf565b508015610e02576040517f08c379a00000000000000000000000000000000000000000000000000000000081526004018080602001828103825260198152602001807f596f752073686f756c64206f6e6c7920766f7465206f6e63650000000000000081525060200191505060405180910390fd5b6000809054906101000a900473ffffffffffffffffffffffffffffffffffffffff1673ffffffffffffffffffffffffffffffffffffffff1663621e9ec0868686600560008c63ffffffff1663ffffffff1681526020019081526020016000206001016040518563ffffffff1660e01b81526004018085600260200280838360005b83811015610e9e578082015181840152602081019050610e83565b505050509050018460026000925b81841015610ef25782846020020151600260200280838360005b83811015610ee1578082015181840152602081019050610ec6565b505050509050019260010192610eac565b9250505083600260200280838360005b83811015610f1d578082015181840152602081019050610f02565b505050509050018260028015610f48576020028201915b815481526020019060010190808311610f34575b505094505050505060206040518083038186803b158015610f6857600080fd5b505afa158015610f7c573d6000803e3d6000fd5b505050506040513d6020811015610f9257600080fd5b8101908080519060200190929190505050611015576040517f08c379a000000000000000000000000000000000000000000000000000000000815260040180806020018281038252601f8152602001807f50726f6f66206f66207365637265742073686f756c642062652076616c69640081525060200191505060405180910390fd5b600560008763ffffffff1663ffffffff168152602001908152602001600020600301339080600181540180825580915050600190039060005260206000200160009091909190916101000a81548173ffffffffffffffffffffffffffffffffffffffff021916908373ffffffffffffffffffffffffffffffffffffffff160217905550600654600560008863ffffffff1663ffffffff16815260200190815260200160002060030180549050141561119c57600160009054906101000a900473ffffffffffffffffffffffffffffffffffffffff1673ffffffffffffffffffffffffffffffffffffffff166325810b82876040518263ffffffff1660e01b8152600401808263ffffffff1663ffffffff168152602001915050600060405180830381600087803b15801561114857600080fd5b505af115801561115c573d6000803e3d6000fd5b505050506000600560008863ffffffff1663ffffffff16815260200190815260200160002060050160006101000a81548160ff0219169083151502179055505b505050505050565b82600281019282156111d3579160200282015b828111156111d25782518255916020019190600101906111b7565b5b5090506111e091906111e4565b5090565b61120691905b808211156112025760008160009055506001016111ea565b5090565b9056fea26469706673582212202d3037a8b369059470b4f2ddfbabdac6dacc05e0eda78794dc16317973e5405e64736f6c63430006010033",
  "source": "// SPDX-License-Identifier: MIT\r\npragma solidity >=0.4.22 <0.9.0;\r\nimport \"./GardenManager.sol\";\r\nimport \"./Verifier.sol\";\r\n\r\ncontract AdminManager{\r\n\r\n    //import area\r\n    Verifier VerifierContract;\r\n    GardenManager GManager;\r\n\r\n    //admin area\r\n    mapping (address=>bool) ContractAdmins; \r\n    address private deployer;\r\n    string public ContactP2P;\r\n\r\n    //proposal area\r\n    struct Proposal{\r\n        uint32 gardenIndex;\r\n        uint[2] secretHash;\r\n        address[] acceptProposal;\r\n        address[] rejectProposal;\r\n        bool isOpen;\r\n    }\r\n    mapping (uint32=>Proposal) Proposals;\r\n    uint public MinApprovals;\r\n   \r\n    constructor (address[] memory _contractAdmins,uint _minApprovals, address _verifierContract, string memory _contactP2P) public {\r\n        for (uint256 index = 0; index < _contractAdmins.length; index++) {\r\n            ContractAdmins[_contractAdmins[index]]==true;\r\n        }\r\n        MinApprovals=_minApprovals;\r\n        deployer= msg.sender;\r\n        VerifierContract = Verifier(_verifierContract);\r\n        ContactP2P = _contactP2P;\r\n    }\r\n\r\n    modifier OnlyAdmin(){\r\n        require(ContractAdmins[msg.sender], \"Only administrators should call\");\r\n        _;\r\n    }\r\n    modifier OnlyValidProposal(uint32 _gardenIndex){\r\n        require(Proposals[_gardenIndex].isOpen, \"Proposal should be open.\");   \r\n        _;   \r\n    }\r\n    modifier OnlyDeployer(){\r\n        require(msg.sender==deployer);\r\n        _;\r\n    }\r\n\r\n    function AddGardenManagerAddress(address _address) public OnlyDeployer(){\r\n        GManager = GardenManager(_address);\r\n    }\r\n\r\n    function ModifyVerifierContractAddress(address _verifierContract) public OnlyDeployer(){\r\n        VerifierContract = Verifier(_verifierContract);\r\n        GManager.ModifyVerifierContract(_verifierContract);\r\n    }\r\n\r\n    function AddGarden(uint32 _gardenIndex, uint[2] memory _secret) public{\r\n        require(msg.sender== address(GManager));\r\n        Proposal storage proposal = Proposals[_gardenIndex];\r\n        proposal.gardenIndex=_gardenIndex;\r\n        proposal.secretHash=_secret;\r\n        proposal.isOpen=true;\r\n    }\r\n\r\n    function AcceptGarden(uint32 _gardenIndex,uint[2] memory _proofA, uint[2][2] memory _proofB,\r\n            uint[2] memory _proofC) public OnlyAdmin() OnlyValidProposal(_gardenIndex){\r\n        bool alreadyVoted =false;\r\n        for (uint256 i = 0; i < Proposals[_gardenIndex].rejectProposal.length; i++) {\r\n            if(Proposals[_gardenIndex].acceptProposal[i]==msg.sender){\r\n                alreadyVoted=true;\r\n                break;\r\n            }\r\n        }\r\n        require(!alreadyVoted, \"You should only vote once\");\r\n        require(VerifierContract.verifyTx(_proofA,_proofB,_proofC,Proposals[_gardenIndex].secretHash), \"Proof of secret should be valid\");\r\n        Proposals[_gardenIndex].acceptProposal.push(msg.sender);\r\n        if(Proposals[_gardenIndex].acceptProposal.length==MinApprovals){\r\n            GManager.AcceptGarden(_gardenIndex);\r\n            Proposals[_gardenIndex].isOpen=false;\r\n        }\r\n    }\r\n\r\n    function RejectGarden(uint32 _gardenIndex) public OnlyAdmin() OnlyValidProposal(_gardenIndex){\r\n        bool alreadyVoted =false;\r\n        for (uint256 i = 0; i < Proposals[_gardenIndex].rejectProposal.length; i++) {\r\n            if(Proposals[_gardenIndex].rejectProposal[i]==msg.sender){\r\n                alreadyVoted=true;\r\n                break;\r\n            }\r\n        }\r\n        require(!alreadyVoted, \"You should only vote once\");\r\n        Proposals[_gardenIndex].rejectProposal.push(msg.sender);\r\n        if(Proposals[_gardenIndex].rejectProposal.length==MinApprovals){\r\n            GManager.RejectGarden(_gardenIndex);\r\n            Proposals[_gardenIndex].isOpen=false;\r\n        }\r\n    }\r\n}",
  "sourcePath": "C:\\Users\\aymeric.noel\\Desktop\\POC_ZKP\\smart_contracts\\contracts\\AdminManager.sol",
  "compiler": {
    "name": "solc",
    "version": "0.6.1+commit.e6f7d5a4.Emscripten.clang"
  },
  "schemaVersion": "3.3.4",
  "updatedAt": "2021-03-23T13:19:15.464Z",
  "devdoc": {
    "methods": {}
  },
  "userdoc": {
    "methods": {}
  }
}