{
  "contractName": "AdminManager",
  "abi": [
    {
      "inputs": [
        {
          "internalType": "address[]",
          "name": "_contractAdmins",
          "type": "address[]"
        },
        {
          "internalType": "uint256",
          "name": "_minApprovals",
          "type": "uint256"
        },
        {
          "internalType": "address",
          "name": "_verifierContract",
          "type": "address"
        },
        {
          "internalType": "string",
          "name": "_contactP2P",
          "type": "string"
        }
      ],
      "stateMutability": "nonpayable",
      "type": "constructor"
    },
    {
      "anonymous": false,
      "inputs": [
        {
          "indexed": false,
          "internalType": "uint256",
          "name": "_disputeIndex",
          "type": "uint256"
        }
      ],
      "name": "newDispute",
      "type": "event"
    },
    {
      "inputs": [],
      "name": "ContactP2P",
      "outputs": [
        {
          "internalType": "string",
          "name": "",
          "type": "string"
        }
      ],
      "stateMutability": "view",
      "type": "function",
      "constant": true
    },
    {
      "inputs": [
        {
          "internalType": "uint256",
          "name": "",
          "type": "uint256"
        }
      ],
      "name": "DisputeProposals",
      "outputs": [
        {
          "internalType": "uint256",
          "name": "gardenIndex",
          "type": "uint256"
        },
        {
          "internalType": "uint256",
          "name": "ownerAmount",
          "type": "uint256"
        },
        {
          "internalType": "uint256",
          "name": "tenantAmount",
          "type": "uint256"
        },
        {
          "internalType": "uint256",
          "name": "balance",
          "type": "uint256"
        },
        {
          "internalType": "bool",
          "name": "isOpen",
          "type": "bool"
        }
      ],
      "stateMutability": "view",
      "type": "function",
      "constant": true
    },
    {
      "inputs": [],
      "name": "GManager",
      "outputs": [
        {
          "internalType": "contract GardenManager",
          "name": "",
          "type": "address"
        }
      ],
      "stateMutability": "view",
      "type": "function",
      "constant": true
    },
    {
      "inputs": [
        {
          "internalType": "uint256",
          "name": "",
          "type": "uint256"
        }
      ],
      "name": "GardenProposals",
      "outputs": [
        {
          "internalType": "uint256",
          "name": "gardenIndex",
          "type": "uint256"
        },
        {
          "internalType": "bool",
          "name": "isOpen",
          "type": "bool"
        }
      ],
      "stateMutability": "view",
      "type": "function",
      "constant": true
    },
    {
      "inputs": [],
      "name": "MinApprovals",
      "outputs": [
        {
          "internalType": "uint256",
          "name": "",
          "type": "uint256"
        }
      ],
      "stateMutability": "view",
      "type": "function",
      "constant": true
    },
    {
      "inputs": [],
      "name": "VerifierContract",
      "outputs": [
        {
          "internalType": "contract Verifier",
          "name": "",
          "type": "address"
        }
      ],
      "stateMutability": "view",
      "type": "function",
      "constant": true
    },
    {
      "inputs": [],
      "name": "disputeProposalsCount",
      "outputs": [
        {
          "internalType": "uint256",
          "name": "",
          "type": "uint256"
        }
      ],
      "stateMutability": "view",
      "type": "function",
      "constant": true
    },
    {
      "inputs": [
        {
          "internalType": "uint256",
          "name": "_gardenIndex",
          "type": "uint256"
        }
      ],
      "name": "GetGardenProposalById",
      "outputs": [
        {
          "components": [
            {
              "internalType": "uint256",
              "name": "gardenIndex",
              "type": "uint256"
            },
            {
              "internalType": "uint256[2]",
              "name": "secretHash",
              "type": "uint256[2]"
            },
            {
              "internalType": "address[]",
              "name": "acceptProposal",
              "type": "address[]"
            },
            {
              "internalType": "address[]",
              "name": "rejectProposal",
              "type": "address[]"
            },
            {
              "internalType": "bool",
              "name": "isOpen",
              "type": "bool"
            }
          ],
          "internalType": "struct AdminManager.GardenProposal",
          "name": "",
          "type": "tuple"
        }
      ],
      "stateMutability": "view",
      "type": "function",
      "constant": true
    },
    {
      "inputs": [
        {
          "internalType": "uint256",
          "name": "_disputeId",
          "type": "uint256"
        }
      ],
      "name": "GetDisputeProposalById",
      "outputs": [
        {
          "components": [
            {
              "internalType": "uint256",
              "name": "gardenIndex",
              "type": "uint256"
            },
            {
              "internalType": "uint256",
              "name": "ownerAmount",
              "type": "uint256"
            },
            {
              "internalType": "uint256",
              "name": "tenantAmount",
              "type": "uint256"
            },
            {
              "internalType": "uint256",
              "name": "balance",
              "type": "uint256"
            },
            {
              "internalType": "address[]",
              "name": "acceptProposal",
              "type": "address[]"
            },
            {
              "internalType": "bool",
              "name": "isOpen",
              "type": "bool"
            }
          ],
          "internalType": "struct AdminManager.DisputeProposal",
          "name": "",
          "type": "tuple"
        }
      ],
      "stateMutability": "view",
      "type": "function",
      "constant": true
    },
    {
      "inputs": [
        {
          "internalType": "address",
          "name": "_address",
          "type": "address"
        }
      ],
      "name": "AddGardenManagerAddress",
      "outputs": [
        {
          "internalType": "address",
          "name": "",
          "type": "address"
        }
      ],
      "stateMutability": "nonpayable",
      "type": "function"
    },
    {
      "inputs": [
        {
          "internalType": "address",
          "name": "_verifierContract",
          "type": "address"
        }
      ],
      "name": "ModifyVerifierContractAddress",
      "outputs": [],
      "stateMutability": "nonpayable",
      "type": "function"
    },
    {
      "inputs": [
        {
          "internalType": "uint256",
          "name": "_gardenIndex",
          "type": "uint256"
        },
        {
          "internalType": "uint256[2]",
          "name": "_secret",
          "type": "uint256[2]"
        }
      ],
      "name": "AddGarden",
      "outputs": [],
      "stateMutability": "nonpayable",
      "type": "function"
    },
    {
      "inputs": [
        {
          "internalType": "uint256",
          "name": "_gardenIndex",
          "type": "uint256"
        },
        {
          "internalType": "uint256[2]",
          "name": "_proofA",
          "type": "uint256[2]"
        },
        {
          "internalType": "uint256[2][2]",
          "name": "_proofB",
          "type": "uint256[2][2]"
        },
        {
          "internalType": "uint256[2]",
          "name": "_proofC",
          "type": "uint256[2]"
        }
      ],
      "name": "AcceptGarden",
      "outputs": [],
      "stateMutability": "nonpayable",
      "type": "function"
    },
    {
      "inputs": [
        {
          "internalType": "uint256",
          "name": "_gardenIndex",
          "type": "uint256"
        }
      ],
      "name": "RejectGarden",
      "outputs": [],
      "stateMutability": "nonpayable",
      "type": "function"
    },
    {
      "inputs": [
        {
          "internalType": "uint256",
          "name": "_gardenIndex",
          "type": "uint256"
        },
        {
          "internalType": "uint256",
          "name": "_gardenBalance",
          "type": "uint256"
        }
      ],
      "name": "AddDispute",
      "outputs": [],
      "stateMutability": "nonpayable",
      "type": "function"
    },
    {
      "inputs": [
        {
          "internalType": "uint256",
          "name": "_disputeIndex",
          "type": "uint256"
        },
        {
          "internalType": "uint256",
          "name": "_ownerAmount",
          "type": "uint256"
        },
        {
          "internalType": "uint256",
          "name": "_tenantAmount",
          "type": "uint256"
        }
      ],
      "name": "SetAmountForDispute",
      "outputs": [],
      "stateMutability": "nonpayable",
      "type": "function"
    },
    {
      "inputs": [
        {
          "internalType": "uint256",
          "name": "_disputeIndex",
          "type": "uint256"
        }
      ],
      "name": "AcceptDispute",
      "outputs": [],
      "stateMutability": "nonpayable",
      "type": "function"
    }
  ],
  "bytecode": "0x60806040523480156200001157600080fd5b5060405162002a5e38038062002a5e833981810160405262000037919081019062000333565b60008090505b8451811015620000c1576001600260008784815181106200005a57fe5b602002602001015173ffffffffffffffffffffffffffffffffffffffff1673ffffffffffffffffffffffffffffffffffffffff16815260200190815260200160002060006101000a81548160ff02191690831515021790555080806001019150506200003d565b508260058190555033600360006101000a81548173ffffffffffffffffffffffffffffffffffffffff021916908373ffffffffffffffffffffffffffffffffffffffff160217905550816000806101000a81548173ffffffffffffffffffffffffffffffffffffffff021916908373ffffffffffffffffffffffffffffffffffffffff1602179055508060049080519060200190620001629291906200016d565b5050505050620004fd565b828054600181600116156101000203166002900490600052602060002090601f016020900481019282601f10620001b057805160ff1916838001178555620001e1565b82800160010185558215620001e1579182015b82811115620001e0578251825591602001919060010190620001c3565b5b509050620001f09190620001f4565b5090565b6200021991905b8082111562000215576000816000905550600101620001fb565b5090565b90565b6000815190506200022d81620004c9565b92915050565b600082601f8301126200024557600080fd5b81516200025c6200025682620003ff565b620003d1565b915081818352602084019350602081019050838560208402820111156200028257600080fd5b60005b83811015620002b657816200029b88826200021c565b84526020840193506020830192505060018101905062000285565b5050505092915050565b600082601f830112620002d257600080fd5b8151620002e9620002e38262000428565b620003d1565b915080825260208301602083018583830111156200030657600080fd5b6200031383828462000493565b50505092915050565b6000815190506200032d81620004e3565b92915050565b600080600080608085870312156200034a57600080fd5b600085015167ffffffffffffffff8111156200036557600080fd5b620003738782880162000233565b945050602062000386878288016200031c565b935050604062000399878288016200021c565b925050606085015167ffffffffffffffff811115620003b757600080fd5b620003c587828801620002c0565b91505092959194509250565b6000604051905081810181811067ffffffffffffffff82111715620003f557600080fd5b8060405250919050565b600067ffffffffffffffff8211156200041757600080fd5b602082029050602081019050919050565b600067ffffffffffffffff8211156200044057600080fd5b601f19601f8301169050602081019050919050565b6000620004628262000469565b9050919050565b600073ffffffffffffffffffffffffffffffffffffffff82169050919050565b6000819050919050565b60005b83811015620004b357808201518184015260208101905062000496565b83811115620004c3576000848401525b50505050565b620004d48162000455565b8114620004e057600080fd5b50565b620004ee8162000489565b8114620004fa57600080fd5b50565b612551806200050d6000396000f3fe608060405234801561001057600080fd5b506004361061010b5760003560e01c806382760dce116100a2578063a26b66a211610071578063a26b66a2146102d1578063a83887a7146102ed578063b6f2a3d614610309578063c69fad6314610327578063de07de97146103435761010b565b806382760dce1461024b5780638a7d38a0146102675780638f205f4d1461028357806393033932146102a15761010b565b80634c3024f2116100de5780634c3024f21461019e5780635e8b2aae146101ba5780636036efa3146101eb5780636a812a9d1461021b5761010b565b806312d901061461011057806319ab65c71461012e5780631a700984146101625780632cb6b57d14610180575b600080fd5b61011861035f565b60405161012591906121ab565b60405180910390f35b61014860048036036101439190810190611988565b610365565b604051610159959493929190612226565b60405180910390f35b61016a6103a8565b604051610177919061204f565b60405180910390f35b6101886103ce565b6040516101959190612085565b60405180910390f35b6101b860048036036101b39190810190611a8d565b61046c565b005b6101d460048036036101cf9190810190611988565b610627565b6040516101e29291906121c6565b60405180910390f35b6102056004803603610200919081019061190d565b610658565b6040516102129190611fed565b60405180910390f35b61023560048036036102309190810190611988565b6106fd565b6040516102429190612189565b60405180910390f35b61026560048036036102609190810190611a15565b6108b0565b005b610281600480360361027c91908101906119b1565b610960565b005b61028b610d62565b604051610298919061206a565b60405180910390f35b6102bb60048036036102b69190810190611988565b610d87565b6040516102c89190612167565b60405180910390f35b6102eb60048036036102e69190810190611a51565b610e85565b005b6103076004803603610302919081019061190d565b610f77565b005b6103116110c2565b60405161031e91906121ab565b60405180910390f35b610341600480360361033c9190810190611988565b6110c8565b005b61035d60048036036103589190810190611988565b6113d5565b005b60055481565b60086020528060005260406000206000915090508060000154908060010154908060020154908060030154908060050160009054906101000a900460ff16905085565b600160009054906101000a900473ffffffffffffffffffffffffffffffffffffffff1681565b60048054600181600116156101000203166002900480601f0160208091040260200160405190810160405280929190818152602001828054600181600116156101000203166002900480156104645780601f1061043957610100808354040283529160200191610464565b820191906000526020600020905b81548152906001019060200180831161044757829003601f168201915b505050505081565b600360009054906101000a900473ffffffffffffffffffffffffffffffffffffffff1673ffffffffffffffffffffffffffffffffffffffff163373ffffffffffffffffffffffffffffffffffffffff16146104c657600080fd5b826008600082815260200190815260200160002060050160009054906101000a900460ff1661052a576040517f08c379a000000000000000000000000000000000000000000000000000000000815260040161052190612127565b60405180910390fd5b6000600860008681526020019081526020016000209050806003015483850114610589576040517f08c379a0000000000000000000000000000000000000000000000000000000008152600401610580906120e7565b60405180910390fd5b60008160040180549050146105a9578060040160006105a891906116f2565b5b83816001018190555082816002018190555080600401339080600181540180825580915050600190039060005260206000200160009091909190916101000a81548173ffffffffffffffffffffffffffffffffffffffff021916908373ffffffffffffffffffffffffffffffffffffffff1602179055505050505050565b60076020528060005260406000206000915090508060000154908060050160009054906101000a900460ff16905082565b6000600360009054906101000a900473ffffffffffffffffffffffffffffffffffffffff1673ffffffffffffffffffffffffffffffffffffffff163373ffffffffffffffffffffffffffffffffffffffff16146106b457600080fd5b81600160006101000a81548173ffffffffffffffffffffffffffffffffffffffff021916908373ffffffffffffffffffffffffffffffffffffffff160217905550819050919050565b610705611713565b600760008381526020019081526020016000206040518060a00160405290816000820154815260200160018201600280602002604051908101604052809291908260028015610769576020028201915b815481526020019060010190808311610755575b50505050508152602001600382018054806020026020016040519081016040528092919081815260200182805480156107f757602002820191906000526020600020905b8160009054906101000a900473ffffffffffffffffffffffffffffffffffffffff1673ffffffffffffffffffffffffffffffffffffffff16815260200190600101908083116107ad575b505050505081526020016004820180548060200260200160405190810160405280929190818152602001828054801561088557602002820191906000526020600020905b8160009054906101000a900473ffffffffffffffffffffffffffffffffffffffff1673ffffffffffffffffffffffffffffffffffffffff168152602001906001019080831161083b575b505050505081526020016005820160009054906101000a900460ff1615151515815250509050919050565b600160009054906101000a900473ffffffffffffffffffffffffffffffffffffffff1673ffffffffffffffffffffffffffffffffffffffff163373ffffffffffffffffffffffffffffffffffffffff161461090a57600080fd5b6000600760008481526020019081526020016000209050828160000181905550818160010190600261093d92919061174a565b5060018160050160006101000a81548160ff021916908315150217905550505050565b600260003373ffffffffffffffffffffffffffffffffffffffff1673ffffffffffffffffffffffffffffffffffffffff16815260200190815260200160002060009054906101000a900460ff166109ec576040517f08c379a00000000000000000000000000000000000000000000000000000000081526004016109e3906120a7565b60405180910390fd5b836007600082815260200190815260200160002060050160009054906101000a900460ff16610a50576040517f08c379a0000000000000000000000000000000000000000000000000000000008152600401610a4790612107565b60405180910390fd5b6000600760008781526020019081526020016000209050600080905060008090505b8260030180549050811015610b04573373ffffffffffffffffffffffffffffffffffffffff16836003018281548110610aa757fe5b9060005260206000200160009054906101000a900473ffffffffffffffffffffffffffffffffffffffff1673ffffffffffffffffffffffffffffffffffffffff161415610af75760019150610b04565b8080600101915050610a72565b508015610b46576040517f08c379a0000000000000000000000000000000000000000000000000000000008152600401610b3d906120c7565b60405180910390fd5b6000809054906101000a900473ffffffffffffffffffffffffffffffffffffffff1673ffffffffffffffffffffffffffffffffffffffff1663621e9ec0878787866001016040518563ffffffff1660e01b8152600401610ba99493929190612008565b60206040518083038186803b158015610bc157600080fd5b505afa158015610bd5573d6000803e3d6000fd5b505050506040513d601f19601f82011682018060405250610bf9919081019061195f565b610c38576040517f08c379a0000000000000000000000000000000000000000000000000000000008152600401610c2f90612147565b60405180910390fd5b81600301339080600181540180825580915050600190039060005260206000200160009091909190916101000a81548173ffffffffffffffffffffffffffffffffffffffff021916908373ffffffffffffffffffffffffffffffffffffffff16021790555060055482600301805490501415610d5957600160009054906101000a900473ffffffffffffffffffffffffffffffffffffffff1673ffffffffffffffffffffffffffffffffffffffff166385740631886040518263ffffffff1660e01b8152600401610d0991906121ab565b600060405180830381600087803b158015610d2357600080fd5b505af1158015610d37573d6000803e3d6000fd5b5050505060008260050160006101000a81548160ff0219169083151502179055505b50505050505050565b6000809054906101000a900473ffffffffffffffffffffffffffffffffffffffff1681565b610d8f61178a565b600860008381526020019081526020016000206040518060c00160405290816000820154815260200160018201548152602001600282015481526020016003820154815260200160048201805480602002602001604051908101604052809291908181526020018280548015610e5a57602002820191906000526020600020905b8160009054906101000a900473ffffffffffffffffffffffffffffffffffffffff1673ffffffffffffffffffffffffffffffffffffffff1681526020019060010190808311610e10575b505050505081526020016005820160009054906101000a900460ff1615151515815250509050919050565b600160009054906101000a900473ffffffffffffffffffffffffffffffffffffffff1673ffffffffffffffffffffffffffffffffffffffff163373ffffffffffffffffffffffffffffffffffffffff1614610edf57600080fd5b6000600860006006548152602001908152602001600020905082816000018190555081816003018190555060018160050160006101000a81548160ff0219169083151502179055507fbf3d5df24328f5a4fa009a9ac409735b0be658b17c5968c6124c0e24dce59d3b600654604051610f5891906121ab565b60405180910390a1600660008154809291906001019190505550505050565b600360009054906101000a900473ffffffffffffffffffffffffffffffffffffffff1673ffffffffffffffffffffffffffffffffffffffff163373ffffffffffffffffffffffffffffffffffffffff1614610fd157600080fd5b806000806101000a81548173ffffffffffffffffffffffffffffffffffffffff021916908373ffffffffffffffffffffffffffffffffffffffff160217905550600160009054906101000a900473ffffffffffffffffffffffffffffffffffffffff1673ffffffffffffffffffffffffffffffffffffffff1663ac6bbf5a826040518263ffffffff1660e01b815260040161106c9190611fed565b602060405180830381600087803b15801561108657600080fd5b505af115801561109a573d6000803e3d6000fd5b505050506040513d601f19601f820116820180604052506110be9190810190611936565b5050565b60065481565b600260003373ffffffffffffffffffffffffffffffffffffffff1673ffffffffffffffffffffffffffffffffffffffff16815260200190815260200160002060009054906101000a900460ff16611154576040517f08c379a000000000000000000000000000000000000000000000000000000000815260040161114b906120a7565b60405180910390fd5b806007600082815260200190815260200160002060050160009054906101000a900460ff166111b8576040517f08c379a00000000000000000000000000000000000000000000000000000000081526004016111af90612107565b60405180910390fd5b6000600760008481526020019081526020016000209050600080905060008090505b826004018054905081101561126c573373ffffffffffffffffffffffffffffffffffffffff1683600401828154811061120f57fe5b9060005260206000200160009054906101000a900473ffffffffffffffffffffffffffffffffffffffff1673ffffffffffffffffffffffffffffffffffffffff16141561125f576001915061126c565b80806001019150506111da565b5080156112ae576040517f08c379a00000000000000000000000000000000000000000000000000000000081526004016112a5906120c7565b60405180910390fd5b81600401339080600181540180825580915050600190039060005260206000200160009091909190916101000a81548173ffffffffffffffffffffffffffffffffffffffff021916908373ffffffffffffffffffffffffffffffffffffffff160217905550600554826004018054905014156113cf57600160009054906101000a900473ffffffffffffffffffffffffffffffffffffffff1673ffffffffffffffffffffffffffffffffffffffff1663c69fad63856040518263ffffffff1660e01b815260040161137f91906121ab565b600060405180830381600087803b15801561139957600080fd5b505af11580156113ad573d6000803e3d6000fd5b5050505060008260050160006101000a81548160ff0219169083151502179055505b50505050565b600260003373ffffffffffffffffffffffffffffffffffffffff1673ffffffffffffffffffffffffffffffffffffffff16815260200190815260200160002060009054906101000a900460ff16611461576040517f08c379a0000000000000000000000000000000000000000000000000000000008152600401611458906120a7565b60405180910390fd5b806008600082815260200190815260200160002060050160009054906101000a900460ff166114c5576040517f08c379a00000000000000000000000000000000000000000000000000000000081526004016114bc90612127565b60405180910390fd5b6000809050600060086000858152602001908152602001600020905060008090505b8160040180549050811015611579573373ffffffffffffffffffffffffffffffffffffffff1682600401828154811061151c57fe5b9060005260206000200160009054906101000a900473ffffffffffffffffffffffffffffffffffffffff1673ffffffffffffffffffffffffffffffffffffffff16141561156c5760019250611579565b80806001019150506114e7565b5081156115bb576040517f08c379a00000000000000000000000000000000000000000000000000000000081526004016115b2906120c7565b60405180910390fd5b80600401339080600181540180825580915050600190039060005260206000200160009091909190916101000a81548173ffffffffffffffffffffffffffffffffffffffff021916908373ffffffffffffffffffffffffffffffffffffffff160217905550600554816004018054905014156116ec57600160009054906101000a900473ffffffffffffffffffffffffffffffffffffffff1673ffffffffffffffffffffffffffffffffffffffff16633efb0c4e8260000154836001015484600201546040518463ffffffff1660e01b815260040161169c939291906121ef565b600060405180830381600087803b1580156116b657600080fd5b505af11580156116ca573d6000803e3d6000fd5b5050505060008160050160006101000a81548160ff0219169083151502179055505b50505050565b508054600082559060005260206000209081019061171091906117c2565b50565b6040518060a001604052806000815260200161172d6117e7565b815260200160608152602001606081526020016000151581525090565b8260028101928215611779579160200282015b8281111561177857825182559160200191906001019061175d565b5b50905061178691906117c2565b5090565b6040518060c0016040528060008152602001600081526020016000815260200160008152602001606081526020016000151581525090565b6117e491905b808211156117e05760008160009055506001016117c8565b5090565b90565b6040518060400160405280600290602082028038833980820191505090505090565b600081359050611818816124d6565b92915050565b60008151905061182d816124d6565b92915050565b60008190508260406002028201111561184b57600080fd5b92915050565b60008190508260206002028201111561186957600080fd5b92915050565b600082601f83011261188057600080fd5b600261189361188e826122a6565b612279565b915081838560208402820111156118a957600080fd5b60005b838110156118d957816118bf88826118f8565b8452602084019350602083019250506001810190506118ac565b5050505092915050565b6000815190506118f2816124ed565b92915050565b60008135905061190781612504565b92915050565b60006020828403121561191f57600080fd5b600061192d84828501611809565b91505092915050565b60006020828403121561194857600080fd5b60006119568482850161181e565b91505092915050565b60006020828403121561197157600080fd5b600061197f848285016118e3565b91505092915050565b60006020828403121561199a57600080fd5b60006119a8848285016118f8565b91505092915050565b60008060008061012085870312156119c857600080fd5b60006119d6878288016118f8565b94505060206119e787828801611851565b93505060606119f887828801611833565b92505060e0611a0987828801611851565b91505092959194509250565b60008060608385031215611a2857600080fd5b6000611a36858286016118f8565b9250506020611a478582860161186f565b9150509250929050565b60008060408385031215611a6457600080fd5b6000611a72858286016118f8565b9250506020611a83858286016118f8565b9150509250929050565b600080600060608486031215611aa257600080fd5b6000611ab0868287016118f8565b9350506020611ac1868287016118f8565b9250506040611ad2868287016118f8565b9150509250925092565b6000611ae88383611b24565b60208301905092915050565b6000611b008383611c0f565b60408301905092915050565b6000611b188383611fcf565b60208301905092915050565b611b2d816123b9565b82525050565b611b3c816123b9565b82525050565b6000611b4d826122f6565b611b578185612361565b9350611b62836122c8565b8060005b83811015611b93578151611b7a8882611adc565b9750611b858361232d565b925050600181019050611b66565b5085935050505092915050565b611ba981612301565b611bb38184612372565b9250611bbe826122d8565b8060005b83811015611bf757611bd482846123a4565b611bde8782611af4565b9650611be98361233a565b925050600181019050611bc2565b505050505050565b611c0b60408383612449565b5050565b611c1b60408383612449565b5050565b611c288161230c565b611c32818461237d565b9250611c3d826122e2565b8060005b83811015611c6e578151611c558782611b0c565b9650611c6083612347565b925050600181019050611c41565b505050505050565b611c7f81612317565b611c898184612388565b9250611c94826122ec565b8060005b83811015611ccc57611ca9826124a5565b611cb38782611b0c565b9650611cbe83612354565b925050600181019050611c98565b505050505050565b611cdd816123cb565b82525050565b611cec816123cb565b82525050565b611cfb81612401565b82525050565b611d0a81612425565b82525050565b6000611d1b82612322565b611d258185612393565b9350611d35818560208601612458565b611d3e816124b8565b840191505092915050565b6000611d56601f83612393565b91507f4f6e6c792061646d696e6973747261746f72732073686f756c642063616c6c006000830152602082019050919050565b6000611d96601983612393565b91507f596f752073686f756c64206f6e6c7920766f7465206f6e6365000000000000006000830152602082019050919050565b6000611dd6601183612393565b91507f496e636f727265637420616d6f756e74730000000000000000000000000000006000830152602082019050919050565b6000611e16601e83612393565b91507f47617264656e50726f706f73616c2073686f756c64206265206f70656e2e00006000830152602082019050919050565b6000611e56601f83612393565b91507f4469737075746550726f706f73616c2073686f756c64206265206f70656e2e006000830152602082019050919050565b6000611e96601783612393565b91507f50726f6f66206f662073656372657420696e76616c69640000000000000000006000830152602082019050919050565b600060c083016000830151611ee16000860182611fcf565b506020830151611ef46020860182611fcf565b506040830151611f076040860182611fcf565b506060830151611f1a6060860182611fcf565b5060808301518482036080860152611f328282611b42565b91505060a0830151611f4760a0860182611cd4565b508091505092915050565b600060c083016000830151611f6a6000860182611fcf565b506020830151611f7d6020860182611c1f565b5060408301518482036060860152611f958282611b42565b91505060608301518482036080860152611faf8282611b42565b9150506080830151611fc460a0860182611cd4565b508091505092915050565b611fd8816123f7565b82525050565b611fe7816123f7565b82525050565b60006020820190506120026000830184611b33565b92915050565b60006101408201905061201e6000830187611bff565b61202b6040830186611ba0565b61203860c0830185611bff565b612046610100830184611c76565b95945050505050565b60006020820190506120646000830184611cf2565b92915050565b600060208201905061207f6000830184611d01565b92915050565b6000602082019050818103600083015261209f8184611d10565b905092915050565b600060208201905081810360008301526120c081611d49565b9050919050565b600060208201905081810360008301526120e081611d89565b9050919050565b6000602082019050818103600083015261210081611dc9565b9050919050565b6000602082019050818103600083015261212081611e09565b9050919050565b6000602082019050818103600083015261214081611e49565b9050919050565b6000602082019050818103600083015261216081611e89565b9050919050565b600060208201905081810360008301526121818184611ec9565b905092915050565b600060208201905081810360008301526121a38184611f52565b905092915050565b60006020820190506121c06000830184611fde565b92915050565b60006040820190506121db6000830185611fde565b6121e86020830184611ce3565b9392505050565b60006060820190506122046000830186611fde565b6122116020830185611fde565b61221e6040830184611fde565b949350505050565b600060a08201905061223b6000830188611fde565b6122486020830187611fde565b6122556040830186611fde565b6122626060830185611fde565b61226f6080830184611ce3565b9695505050505050565b6000604051905081810181811067ffffffffffffffff8211171561229c57600080fd5b8060405250919050565b600067ffffffffffffffff8211156122bd57600080fd5b602082029050919050565b6000819050602082019050919050565b6000819050919050565b6000819050919050565b6000819050919050565b600081519050919050565b600060029050919050565b600060029050919050565b600060029050919050565b600081519050919050565b6000602082019050919050565b6000604082019050919050565b6000602082019050919050565b6000600182019050919050565b600082825260208201905092915050565b600081905092915050565b600081905092915050565b600081905092915050565b600082825260208201905092915050565b600082905092915050565b6000819050919050565b60006123c4826123d7565b9050919050565b60008115159050919050565b600073ffffffffffffffffffffffffffffffffffffffff82169050919050565b6000819050919050565b600061240c82612413565b9050919050565b600061241e826123d7565b9050919050565b600061243082612437565b9050919050565b6000612442826123d7565b9050919050565b82818337600083830152505050565b60005b8381101561247657808201518184015260208101905061245b565b83811115612485576000848401525b50505050565b600061249e612499836124c9565b6123af565b9050919050565b60006124b1825461248b565b9050919050565b6000601f19601f8301169050919050565b60008160001c9050919050565b6124df816123b9565b81146124ea57600080fd5b50565b6124f6816123cb565b811461250157600080fd5b50565b61250d816123f7565b811461251857600080fd5b5056fea2646970667358221220fd7b0cff56519f0c71ebaef6266bc9445c07a96d8f545f4a91c2acfb8bef9be964736f6c63430006010033",
  "source": "// SPDX-License-Identifier: MIT\r\npragma experimental ABIEncoderV2;\r\npragma solidity >=0.4.22 <0.9.0;\r\nimport \"./GardenManager.sol\";\r\nimport \"./Verifier.sol\";\r\n\r\ncontract AdminManager{\r\n    //import area\r\n    Verifier public VerifierContract;\r\n    GardenManager public GManager;\r\n    event newDispute( uint _disputeIndex);\r\n\r\n    //admin area\r\n    mapping (address=>bool) ContractAdmins; \r\n    address private deployer;\r\n    string public ContactP2P;\r\n    uint public MinApprovals;\r\n    uint public disputeProposalsCount;\r\n\r\n    //garden proposal area\r\n    struct GardenProposal{\r\n        uint gardenIndex;\r\n        uint[2] secretHash;\r\n        address[] acceptProposal;\r\n        address[] rejectProposal;\r\n        bool isOpen;\r\n    }\r\n    mapping (uint=>GardenProposal) public GardenProposals;\r\n    \r\n    //dispute proposal area\r\n    struct DisputeProposal{\r\n        uint gardenIndex;\r\n        uint ownerAmount;\r\n        uint tenantAmount;\r\n        uint balance;\r\n        address[] acceptProposal;\r\n        bool isOpen;\r\n    }\r\n    mapping(uint=>DisputeProposal) public DisputeProposals;\r\n   \r\n    constructor (address[] memory _contractAdmins,uint _minApprovals, address _verifierContract, string memory _contactP2P) public {\r\n        for (uint i = 0; i < _contractAdmins.length; i++) {\r\n            ContractAdmins[_contractAdmins[i]]=true;\r\n        }\r\n        MinApprovals=_minApprovals;\r\n        deployer= msg.sender;\r\n        VerifierContract = Verifier(_verifierContract);\r\n        ContactP2P = _contactP2P;\r\n    }\r\n\r\n    modifier OnlyAdmin(){\r\n        require(ContractAdmins[msg.sender], \"Only administrators should call\");\r\n        _;\r\n    }\r\n    modifier OnlyValidGardenProposal(uint _gardenIndex){\r\n        require(GardenProposals[_gardenIndex].isOpen, \"GardenProposal should be open.\");   \r\n        _;   \r\n    }\r\n    modifier OnlyValidDisputeProposal(uint _disputeIndex){\r\n        require(DisputeProposals[_disputeIndex].isOpen, \"DisputeProposal should be open.\");   \r\n        _;   \r\n    }\r\n    modifier OnlyDeployer(){\r\n        require(msg.sender==deployer);\r\n        _;\r\n    }\r\n    function GetGardenProposalById(uint _gardenIndex)external view returns(GardenProposal memory){\r\n        return GardenProposals[_gardenIndex];\r\n    }\r\n    function GetDisputeProposalById(uint _disputeId)external view returns(DisputeProposal memory){\r\n        return DisputeProposals[_disputeId];\r\n    }\r\n    function AddGardenManagerAddress(address _address) external OnlyDeployer() returns(address){\r\n        GManager = GardenManager(_address);\r\n        return _address;\r\n    }\r\n\r\n    function ModifyVerifierContractAddress(address _verifierContract) external OnlyDeployer(){\r\n        VerifierContract = Verifier(_verifierContract);\r\n        GManager.ModifyVerifierContract(_verifierContract);\r\n    }\r\n\r\n    function AddGarden(uint _gardenIndex, uint[2] memory _secret) public{\r\n        require(msg.sender== address(GManager));\r\n        GardenProposal storage proposal = GardenProposals[_gardenIndex];\r\n        proposal.gardenIndex=_gardenIndex;\r\n        proposal.secretHash=_secret;\r\n        proposal.isOpen=true;\r\n    }\r\n\r\n    function AcceptGarden(uint _gardenIndex,uint[2] calldata _proofA, uint[2][2] calldata _proofB,\r\n            uint[2] calldata _proofC) external OnlyAdmin() OnlyValidGardenProposal(_gardenIndex){\r\n        GardenProposal storage proposal = GardenProposals[_gardenIndex];\r\n        bool alreadyVoted =false;\r\n        for (uint256 i = 0; i < proposal.acceptProposal.length; i++) {\r\n            if(proposal.acceptProposal[i]==msg.sender){\r\n                alreadyVoted=true;\r\n                break;\r\n            }\r\n        }\r\n        require(!alreadyVoted, \"You should only vote once\");\r\n        require(VerifierContract.verifyTx(_proofA,_proofB,_proofC,proposal.secretHash), \"Proof of secret invalid\");\r\n        proposal.acceptProposal.push(msg.sender);\r\n        if(proposal.acceptProposal.length==MinApprovals){\r\n            GManager.AcceptGarden(_gardenIndex);\r\n            proposal.isOpen=false;\r\n        }\r\n    }\r\n\r\n    function RejectGarden(uint _gardenIndex) external OnlyAdmin() OnlyValidGardenProposal(_gardenIndex){\r\n        GardenProposal storage proposal = GardenProposals[_gardenIndex];\r\n        bool alreadyVoted =false;\r\n        for (uint i = 0; i < proposal.rejectProposal.length; i++) {\r\n            if(proposal.rejectProposal[i]==msg.sender){\r\n                alreadyVoted=true;\r\n                break;\r\n            }\r\n        }\r\n        require(!alreadyVoted, \"You should only vote once\");\r\n        proposal.rejectProposal.push(msg.sender);\r\n        if(proposal.rejectProposal.length==MinApprovals){\r\n            GManager.RejectGarden(_gardenIndex);\r\n            proposal.isOpen=false;\r\n        }\r\n    }\r\n\r\n    function AddDispute(uint _gardenIndex,uint _gardenBalance) public {\r\n        require(msg.sender== address(GManager));\r\n        DisputeProposal storage proposal = DisputeProposals[disputeProposalsCount];\r\n        proposal.gardenIndex=_gardenIndex;\r\n        proposal.balance=_gardenBalance;\r\n        proposal.isOpen=true;\r\n        emit newDispute(disputeProposalsCount);\r\n        disputeProposalsCount++;\r\n    }\r\n\r\n    function SetAmountForDispute(uint _disputeIndex,uint _ownerAmount, uint _tenantAmount) public OnlyDeployer() OnlyValidDisputeProposal(_disputeIndex){\r\n        DisputeProposal storage proposal = DisputeProposals[_disputeIndex];\r\n        require(_ownerAmount+_tenantAmount==proposal.balance,\"Incorrect amounts\");\r\n        if(proposal.acceptProposal.length !=0){\r\n            delete proposal.acceptProposal;\r\n        }\r\n        proposal.ownerAmount=_ownerAmount;\r\n        proposal.tenantAmount=_tenantAmount;\r\n        proposal.acceptProposal.push(msg.sender);\r\n    }\r\n\r\n    function AcceptDispute(uint _disputeIndex) external OnlyAdmin() OnlyValidDisputeProposal(_disputeIndex){\r\n        bool alreadyVoted =false;\r\n        DisputeProposal storage proposal = DisputeProposals[_disputeIndex];\r\n        for (uint i = 0; i < proposal.acceptProposal.length; i++) {\r\n            if(proposal.acceptProposal[i]==msg.sender){\r\n                alreadyVoted=true;\r\n                break;\r\n            }\r\n        }\r\n        require(!alreadyVoted, \"You should only vote once\");        \r\n        proposal.acceptProposal.push(msg.sender);\r\n        if(proposal.acceptProposal.length==MinApprovals){\r\n            GManager.CloseDispute(proposal.gardenIndex, proposal.ownerAmount,proposal.tenantAmount);\r\n            proposal.isOpen=false;\r\n        }\r\n    }\r\n}",
  "sourcePath": "C:\\Users\\aymeric.noel\\Desktop\\ZKP\\POC_ZKP\\smart_contracts\\contracts\\AdminManager.sol",
  "compiler": {
    "name": "solc",
    "version": "0.6.1+commit.e6f7d5a4.Emscripten.clang"
  },
  "schemaVersion": "3.3.4",
  "updatedAt": "2021-03-30T13:10:39.611Z",
  "networkType": "ethereum",
  "devdoc": {
    "methods": {}
  },
  "userdoc": {
    "methods": {}
  }
}