{
  "contractName": "AdminManager",
  "abi": [
    {
      "inputs": [
        {
          "internalType": "address[]",
          "name": "_contractAdmins",
          "type": "address[]"
        },
        {
          "internalType": "uint256",
          "name": "_minApprovals",
          "type": "uint256"
        },
        {
          "internalType": "address",
          "name": "_verifierContract",
          "type": "address"
        },
        {
          "internalType": "string",
          "name": "_contactP2P",
          "type": "string"
        }
      ],
      "stateMutability": "nonpayable",
      "type": "constructor"
    },
    {
      "inputs": [],
      "name": "ContactP2P",
      "outputs": [
        {
          "internalType": "string",
          "name": "",
          "type": "string"
        }
      ],
      "stateMutability": "view",
      "type": "function",
      "constant": true
    },
    {
      "inputs": [],
      "name": "MinApprovals",
      "outputs": [
        {
          "internalType": "uint256",
          "name": "",
          "type": "uint256"
        }
      ],
      "stateMutability": "view",
      "type": "function",
      "constant": true
    },
    {
      "inputs": [
        {
          "internalType": "address",
          "name": "_address",
          "type": "address"
        }
      ],
      "name": "AddGardenManagerAddress",
      "outputs": [
        {
          "internalType": "address",
          "name": "",
          "type": "address"
        }
      ],
      "stateMutability": "nonpayable",
      "type": "function"
    },
    {
      "inputs": [],
      "name": "GetGardenManagerAddress",
      "outputs": [
        {
          "internalType": "address",
          "name": "",
          "type": "address"
        }
      ],
      "stateMutability": "view",
      "type": "function",
      "constant": true
    },
    {
      "inputs": [],
      "name": "GetVerifierContractAddress",
      "outputs": [
        {
          "internalType": "address",
          "name": "",
          "type": "address"
        }
      ],
      "stateMutability": "view",
      "type": "function",
      "constant": true
    },
    {
      "inputs": [
        {
          "internalType": "address",
          "name": "_verifierContract",
          "type": "address"
        }
      ],
      "name": "ModifyVerifierContractAddress",
      "outputs": [],
      "stateMutability": "nonpayable",
      "type": "function"
    },
    {
      "inputs": [
        {
          "internalType": "uint32",
          "name": "_gardenIndex",
          "type": "uint32"
        },
        {
          "internalType": "uint256[2]",
          "name": "_secret",
          "type": "uint256[2]"
        }
      ],
      "name": "AddGarden",
      "outputs": [],
      "stateMutability": "nonpayable",
      "type": "function"
    },
    {
      "inputs": [
        {
          "internalType": "uint32",
          "name": "_gardenIndex",
          "type": "uint32"
        },
        {
          "internalType": "uint256[2]",
          "name": "_proofA",
          "type": "uint256[2]"
        },
        {
          "internalType": "uint256[2][2]",
          "name": "_proofB",
          "type": "uint256[2][2]"
        },
        {
          "internalType": "uint256[2]",
          "name": "_proofC",
          "type": "uint256[2]"
        }
      ],
      "name": "AcceptGarden",
      "outputs": [],
      "stateMutability": "nonpayable",
      "type": "function"
    },
    {
      "inputs": [
        {
          "internalType": "uint32",
          "name": "_gardenIndex",
          "type": "uint32"
        }
      ],
      "name": "RejectGarden",
      "outputs": [],
      "stateMutability": "nonpayable",
      "type": "function"
    },
    {
      "inputs": [
        {
          "internalType": "uint32",
          "name": "_gardenIndex",
          "type": "uint32"
        }
      ],
      "name": "AddDispute",
      "outputs": [],
      "stateMutability": "nonpayable",
      "type": "function"
    },
    {
      "inputs": [
        {
          "internalType": "uint32",
          "name": "_gardenIndex",
          "type": "uint32"
        },
        {
          "internalType": "uint256",
          "name": "_ownerAmount",
          "type": "uint256"
        },
        {
          "internalType": "uint256",
          "name": "_tenantAmount",
          "type": "uint256"
        }
      ],
      "name": "SetAmountForDispute",
      "outputs": [],
      "stateMutability": "nonpayable",
      "type": "function"
    },
    {
      "inputs": [
        {
          "internalType": "uint32",
          "name": "_gardenIndex",
          "type": "uint32"
        }
      ],
      "name": "AcceptDispute",
      "outputs": [],
      "stateMutability": "nonpayable",
      "type": "function"
    }
  ],
  "bytecode": "0x60806040523480156200001157600080fd5b5060405162001c2138038062001c21833981810160405260808110156200003757600080fd5b81019080805160405193929190846401000000008211156200005857600080fd5b838201915060208201858111156200006f57600080fd5b82518660208202830111640100000000821117156200008d57600080fd5b8083526020830192505050908051906020019060200280838360005b83811015620000c6578082015181840152602081019050620000a9565b505050509050016040526020018051906020019092919080519060200190929190805160405193929190846401000000008211156200010457600080fd5b838201915060208201858111156200011b57600080fd5b82518660018202830111640100000000821117156200013957600080fd5b8083526020830192505050908051906020019080838360005b838110156200016f57808201518184015260208101905062000152565b50505050905090810190601f1680156200019d5780820380516001836020036101000a031916815260200191505b5060405250505060008090505b845181101562000226576001151560026000878481518110620001c957fe5b602002602001015173ffffffffffffffffffffffffffffffffffffffff1673ffffffffffffffffffffffffffffffffffffffff16815260200190815260200160002060009054906101000a905050508080600101915050620001aa565b508260058190555033600360006101000a81548173ffffffffffffffffffffffffffffffffffffffff021916908373ffffffffffffffffffffffffffffffffffffffff160217905550816000806101000a81548173ffffffffffffffffffffffffffffffffffffffff021916908373ffffffffffffffffffffffffffffffffffffffff1602179055508060049080519060200190620002c7929190620002d2565b505050505062000381565b828054600181600116156101000203166002900490600052602060002090601f016020900481019282601f106200031557805160ff191683800117855562000346565b8280016001018555821562000346579182015b828111156200034557825182559160200191906001019062000328565b5b50905062000355919062000359565b5090565b6200037e91905b808211156200037a57600081600090555060010162000360565b5090565b90565b61189080620003916000396000f3fe608060405234801561001057600080fd5b50600436106100b45760003560e01c8063691cb8c411610071578063691cb8c4146102a45780636eb5c390146102ee5780638d341e9a14610363578063a5d6651614610397578063a83887a7146103cb578063e4d1956c1461040f576100b4565b8063100a0adb146100b957806312d90106146101035780632bf3844b146101215780632cb6b57d14610155578063383e632e146101d85780636036efa314610220575b600080fd5b6100c1610462565b604051808273ffffffffffffffffffffffffffffffffffffffff1673ffffffffffffffffffffffffffffffffffffffff16815260200191505060405180910390f35b61010b61048b565b6040518082815260200191505060405180910390f35b6101536004803603602081101561013757600080fd5b81019080803563ffffffff169060200190929190505050610491565b005b61015d610873565b6040518080602001828103825283818151815260200191508051906020019080838360005b8381101561019d578082015181840152602081019050610182565b50505050905090810190601f1680156101ca5780820380516001836020036101000a031916815260200191505b509250505060405180910390f35b61021e600480360360608110156101ee57600080fd5b81019080803563ffffffff1690602001909291908035906020019092919080359060200190929190505050610911565b005b6102626004803603602081101561023657600080fd5b81019080803573ffffffffffffffffffffffffffffffffffffffff169060200190929190505050610acf565b604051808273ffffffffffffffffffffffffffffffffffffffff1673ffffffffffffffffffffffffffffffffffffffff16815260200191505060405180910390f35b6102ac610b74565b604051808273ffffffffffffffffffffffffffffffffffffffff1673ffffffffffffffffffffffffffffffffffffffff16815260200191505060405180910390f35b6103616004803603606081101561030457600080fd5b81019080803563ffffffff16906020019092919080604001906002806020026040519081016040528092919082600260200280828437600081840152601f19601f8201169050808301925050505050509192919290505050610b9e565b005b6103956004803603602081101561037957600080fd5b81019080803563ffffffff169060200190929190505050610c74565b005b6103c9600480360360208110156103ad57600080fd5b81019080803563ffffffff169060200190929190505050610d18565b005b61040d600480360360208110156103e157600080fd5b81019080803573ffffffffffffffffffffffffffffffffffffffff1690602001909291905050506110e2565b005b610460600480360361012081101561042657600080fd5b81019080803563ffffffff16906020019092919080604001909192919290806080019091929192908060400190919291929050505061125c565b005b60008060009054906101000a900473ffffffffffffffffffffffffffffffffffffffff16905090565b60055481565b600260003373ffffffffffffffffffffffffffffffffffffffff1673ffffffffffffffffffffffffffffffffffffffff16815260200190815260200160002060009054906101000a900460ff16610550576040517f08c379a000000000000000000000000000000000000000000000000000000000815260040180806020018281038252601f8152602001807f4f6e6c792061646d696e6973747261746f72732073686f756c642063616c6c0081525060200191505060405180910390fd5b80600760008263ffffffff1663ffffffff16815260200190815260200160002060040160009054906101000a900460ff166105f3576040517f08c379a000000000000000000000000000000000000000000000000000000000815260040180806020018281038252601f8152602001807f4469737075746550726f706f73616c2073686f756c64206265206f70656e2e0081525060200191505060405180910390fd5b60008090506000600760008563ffffffff1663ffffffff168152602001908152602001600020905060008090505b81600301805490508110156106b3573373ffffffffffffffffffffffffffffffffffffffff1682600301828154811061065657fe5b9060005260206000200160009054906101000a900473ffffffffffffffffffffffffffffffffffffffff1673ffffffffffffffffffffffffffffffffffffffff1614156106a657600192506106b3565b8080600101915050610621565b508115610728576040517f08c379a00000000000000000000000000000000000000000000000000000000081526004018080602001828103825260198152602001807f596f752073686f756c64206f6e6c7920766f7465206f6e63650000000000000081525060200191505060405180910390fd5b80600301339080600181540180825580915050600190039060005260206000200160009091909190916101000a81548173ffffffffffffffffffffffffffffffffffffffff021916908373ffffffffffffffffffffffffffffffffffffffff1602179055506005548160030180549050141561086d57600160009054906101000a900473ffffffffffffffffffffffffffffffffffffffff1673ffffffffffffffffffffffffffffffffffffffff1663c1fe028e85836001015484600201546040518463ffffffff1660e01b8152600401808463ffffffff1663ffffffff1681526020018381526020018281526020019350505050600060405180830381600087803b15801561083757600080fd5b505af115801561084b573d6000803e3d6000fd5b5050505060008160040160006101000a81548160ff0219169083151502179055505b50505050565b60048054600181600116156101000203166002900480601f0160208091040260200160405190810160405280929190818152602001828054600181600116156101000203166002900480156109095780601f106108de57610100808354040283529160200191610909565b820191906000526020600020905b8154815290600101906020018083116108ec57829003601f168201915b505050505081565b600360009054906101000a900473ffffffffffffffffffffffffffffffffffffffff1673ffffffffffffffffffffffffffffffffffffffff163373ffffffffffffffffffffffffffffffffffffffff161461096b57600080fd5b82600760008263ffffffff1663ffffffff16815260200190815260200160002060040160009054906101000a900460ff16610a0e576040517f08c379a000000000000000000000000000000000000000000000000000000000815260040180806020018281038252601f8152602001807f4469737075746550726f706f73616c2073686f756c64206265206f70656e2e0081525060200191505060405180910390fd5b6000600760008663ffffffff1663ffffffff16815260200190815260200160002090506000816003018054905014610a5157806003016000610a5091906117d4565b5b83816001018190555082816002018190555080600301339080600181540180825580915050600190039060005260206000200160009091909190916101000a81548173ffffffffffffffffffffffffffffffffffffffff021916908373ffffffffffffffffffffffffffffffffffffffff1602179055505050505050565b6000600360009054906101000a900473ffffffffffffffffffffffffffffffffffffffff1673ffffffffffffffffffffffffffffffffffffffff163373ffffffffffffffffffffffffffffffffffffffff1614610b2b57600080fd5b81600160006101000a81548173ffffffffffffffffffffffffffffffffffffffff021916908373ffffffffffffffffffffffffffffffffffffffff160217905550819050919050565b6000600160009054906101000a900473ffffffffffffffffffffffffffffffffffffffff16905090565b600160009054906101000a900473ffffffffffffffffffffffffffffffffffffffff1673ffffffffffffffffffffffffffffffffffffffff163373ffffffffffffffffffffffffffffffffffffffff1614610bf857600080fd5b6000600660008463ffffffff1663ffffffff1681526020019081526020016000209050828160000160006101000a81548163ffffffff021916908363ffffffff1602179055508181600101906002610c519291906117f5565b5060018160050160006101000a81548160ff021916908315150217905550505050565b600160009054906101000a900473ffffffffffffffffffffffffffffffffffffffff1673ffffffffffffffffffffffffffffffffffffffff163373ffffffffffffffffffffffffffffffffffffffff1614610cce57600080fd5b6000600760008363ffffffff1663ffffffff1681526020019081526020016000209050818160000160006101000a81548163ffffffff021916908363ffffffff1602179055505050565b600260003373ffffffffffffffffffffffffffffffffffffffff1673ffffffffffffffffffffffffffffffffffffffff16815260200190815260200160002060009054906101000a900460ff16610dd7576040517f08c379a000000000000000000000000000000000000000000000000000000000815260040180806020018281038252601f8152602001807f4f6e6c792061646d696e6973747261746f72732073686f756c642063616c6c0081525060200191505060405180910390fd5b80600660008263ffffffff1663ffffffff16815260200190815260200160002060050160009054906101000a900460ff16610e7a576040517f08c379a000000000000000000000000000000000000000000000000000000000815260040180806020018281038252601e8152602001807f47617264656e50726f706f73616c2073686f756c64206265206f70656e2e000081525060200191505060405180910390fd5b6000600660008463ffffffff1663ffffffff1681526020019081526020016000209050600080905060008090505b8260040180549050811015610f3a573373ffffffffffffffffffffffffffffffffffffffff16836004018281548110610edd57fe5b9060005260206000200160009054906101000a900473ffffffffffffffffffffffffffffffffffffffff1673ffffffffffffffffffffffffffffffffffffffff161415610f2d5760019150610f3a565b8080600101915050610ea8565b508015610faf576040517f08c379a00000000000000000000000000000000000000000000000000000000081526004018080602001828103825260198152602001807f596f752073686f756c64206f6e6c7920766f7465206f6e63650000000000000081525060200191505060405180910390fd5b81600401339080600181540180825580915050600190039060005260206000200160009091909190916101000a81548173ffffffffffffffffffffffffffffffffffffffff021916908373ffffffffffffffffffffffffffffffffffffffff160217905550600554826004018054905014156110dc57600160009054906101000a900473ffffffffffffffffffffffffffffffffffffffff1673ffffffffffffffffffffffffffffffffffffffff1663a5d66516856040518263ffffffff1660e01b8152600401808263ffffffff1663ffffffff168152602001915050600060405180830381600087803b1580156110a657600080fd5b505af11580156110ba573d6000803e3d6000fd5b5050505060008260050160006101000a81548160ff0219169083151502179055505b50505050565b600360009054906101000a900473ffffffffffffffffffffffffffffffffffffffff1673ffffffffffffffffffffffffffffffffffffffff163373ffffffffffffffffffffffffffffffffffffffff161461113c57600080fd5b806000806101000a81548173ffffffffffffffffffffffffffffffffffffffff021916908373ffffffffffffffffffffffffffffffffffffffff160217905550600160009054906101000a900473ffffffffffffffffffffffffffffffffffffffff1673ffffffffffffffffffffffffffffffffffffffff1663ac6bbf5a826040518263ffffffff1660e01b8152600401808273ffffffffffffffffffffffffffffffffffffffff1673ffffffffffffffffffffffffffffffffffffffff168152602001915050602060405180830381600087803b15801561121d57600080fd5b505af1158015611231573d6000803e3d6000fd5b505050506040513d602081101561124757600080fd5b81019080805190602001909291905050505050565b600260003373ffffffffffffffffffffffffffffffffffffffff1673ffffffffffffffffffffffffffffffffffffffff16815260200190815260200160002060009054906101000a900460ff1661131b576040517f08c379a000000000000000000000000000000000000000000000000000000000815260040180806020018281038252601f8152602001807f4f6e6c792061646d696e6973747261746f72732073686f756c642063616c6c0081525060200191505060405180910390fd5b83600660008263ffffffff1663ffffffff16815260200190815260200160002060050160009054906101000a900460ff166113be576040517f08c379a000000000000000000000000000000000000000000000000000000000815260040180806020018281038252601e8152602001807f47617264656e50726f706f73616c2073686f756c64206265206f70656e2e000081525060200191505060405180910390fd5b6000600660008763ffffffff1663ffffffff1681526020019081526020016000209050600080905060008090505b826003018054905081101561147e573373ffffffffffffffffffffffffffffffffffffffff1683600301828154811061142157fe5b9060005260206000200160009054906101000a900473ffffffffffffffffffffffffffffffffffffffff1673ffffffffffffffffffffffffffffffffffffffff161415611471576001915061147e565b80806001019150506113ec565b5080156114f3576040517f08c379a00000000000000000000000000000000000000000000000000000000081526004018080602001828103825260198152602001807f596f752073686f756c64206f6e6c7920766f7465206f6e63650000000000000081525060200191505060405180910390fd5b6000809054906101000a900473ffffffffffffffffffffffffffffffffffffffff1673ffffffffffffffffffffffffffffffffffffffff1663621e9ec0878787866001016040518563ffffffff1660e01b81526004018085600260200280828437600081840152601f19601f82011690508083019250505084600260400280828437600081840152601f19601f82011690508083019250505083600260200280828437600081840152601f19601f82011690508083019250505082600280156115d1576020028201915b8154815260200190600101908083116115bd575b505094505050505060206040518083038186803b1580156115f157600080fd5b505afa158015611605573d6000803e3d6000fd5b505050506040513d602081101561161b57600080fd5b810190808051906020019092919050505061169e576040517f08c379a00000000000000000000000000000000000000000000000000000000081526004018080602001828103825260178152602001807f50726f6f66206f662073656372657420696e76616c696400000000000000000081525060200191505060405180910390fd5b81600301339080600181540180825580915050600190039060005260206000200160009091909190916101000a81548173ffffffffffffffffffffffffffffffffffffffff021916908373ffffffffffffffffffffffffffffffffffffffff160217905550600554826003018054905014156117cb57600160009054906101000a900473ffffffffffffffffffffffffffffffffffffffff1673ffffffffffffffffffffffffffffffffffffffff166325810b82886040518263ffffffff1660e01b8152600401808263ffffffff1663ffffffff168152602001915050600060405180830381600087803b15801561179557600080fd5b505af11580156117a9573d6000803e3d6000fd5b5050505060008260050160006101000a81548160ff0219169083151502179055505b50505050505050565b50805460008255906000526020600020908101906117f29190611835565b50565b8260028101928215611824579160200282015b82811115611823578251825591602001919060010190611808565b5b5090506118319190611835565b5090565b61185791905b8082111561185357600081600090555060010161183b565b5090565b9056fea2646970667358221220dc6335a0438972140a0097398f5d44dc602fa0bf545f6475e64c06b06ed895ed64736f6c63430006010033",
  "source": "// SPDX-License-Identifier: MIT\r\npragma solidity >=0.4.22 <0.9.0;\r\nimport \"./GardenManager.sol\";\r\nimport \"./Verifier.sol\";\r\n\r\ncontract AdminManager{\r\n\r\n    //import area\r\n    Verifier VerifierContract;\r\n    GardenManager GManager;\r\n\r\n    //admin area\r\n    mapping (address=>bool) ContractAdmins; \r\n    address private deployer;\r\n    string public ContactP2P;\r\n    uint public MinApprovals;\r\n\r\n    //garden proposal area\r\n    struct GardenProposal{\r\n        uint32 gardenIndex;\r\n        uint[2] secretHash;\r\n        address[] acceptProposal;\r\n        address[] rejectProposal;\r\n        bool isOpen;\r\n    }\r\n    mapping (uint32=>GardenProposal) GardenProposals;\r\n    \r\n    //dispute proposal area\r\n    struct DisputeProposal{\r\n        uint32 gardenIndex;\r\n        uint ownerAmount;\r\n        uint tenantAmount;\r\n        address[] acceptProposal;\r\n        bool isOpen;\r\n    }\r\n    mapping(uint32=>DisputeProposal) DisputeProposals;\r\n   \r\n    constructor (address[] memory _contractAdmins,uint _minApprovals, address _verifierContract, string memory _contactP2P) public {\r\n        for (uint256 index = 0; index < _contractAdmins.length; index++) {\r\n            ContractAdmins[_contractAdmins[index]]==true;\r\n        }\r\n        MinApprovals=_minApprovals;\r\n        deployer= msg.sender;\r\n        VerifierContract = Verifier(_verifierContract);\r\n        ContactP2P = _contactP2P;\r\n    }\r\n\r\n    modifier OnlyAdmin(){\r\n        require(ContractAdmins[msg.sender], \"Only administrators should call\");\r\n        _;\r\n    }\r\n    modifier OnlyValidGardenProposal(uint32 _gardenIndex){\r\n        require(GardenProposals[_gardenIndex].isOpen, \"GardenProposal should be open.\");   \r\n        _;   \r\n    }\r\n    modifier OnlyValidDisputeProposal(uint32 _gardenIndex){\r\n        require(DisputeProposals[_gardenIndex].isOpen, \"DisputeProposal should be open.\");   \r\n        _;   \r\n    }\r\n    modifier OnlyDeployer(){\r\n        require(msg.sender==deployer);\r\n        _;\r\n    }\r\n\r\n    function AddGardenManagerAddress(address _address) external OnlyDeployer() returns(address){\r\n        GManager = GardenManager(_address);\r\n        return _address;\r\n    }\r\n\r\n    function GetGardenManagerAddress()external view returns(address){\r\n        return address(GManager);\r\n    }\r\n\r\n    function GetVerifierContractAddress()external view returns(address){\r\n        return address(VerifierContract);\r\n    }\r\n\r\n    function ModifyVerifierContractAddress(address _verifierContract) external OnlyDeployer(){\r\n        VerifierContract = Verifier(_verifierContract);\r\n        GManager.ModifyVerifierContract(_verifierContract);\r\n    }\r\n\r\n    function AddGarden(uint32 _gardenIndex, uint[2] memory _secret) public{\r\n        require(msg.sender== address(GManager));\r\n        GardenProposal storage proposal = GardenProposals[_gardenIndex];\r\n        proposal.gardenIndex=_gardenIndex;\r\n        proposal.secretHash=_secret;\r\n        proposal.isOpen=true;\r\n    }\r\n\r\n    function AcceptGarden(uint32 _gardenIndex,uint[2] calldata _proofA, uint[2][2] calldata _proofB,\r\n            uint[2] calldata _proofC) external OnlyAdmin() OnlyValidGardenProposal(_gardenIndex){\r\n        GardenProposal storage proposal = GardenProposals[_gardenIndex];\r\n        bool alreadyVoted =false;\r\n        for (uint256 i = 0; i < proposal.acceptProposal.length; i++) {\r\n            if(proposal.acceptProposal[i]==msg.sender){\r\n                alreadyVoted=true;\r\n                break;\r\n            }\r\n        }\r\n        require(!alreadyVoted, \"You should only vote once\");\r\n        require(VerifierContract.verifyTx(_proofA,_proofB,_proofC,proposal.secretHash), \"Proof of secret invalid\");\r\n        proposal.acceptProposal.push(msg.sender);\r\n        if(proposal.acceptProposal.length==MinApprovals){\r\n            GManager.AcceptGarden(_gardenIndex);\r\n            proposal.isOpen=false;\r\n        }\r\n    }\r\n\r\n    function RejectGarden(uint32 _gardenIndex) external OnlyAdmin() OnlyValidGardenProposal(_gardenIndex){\r\n        GardenProposal storage proposal = GardenProposals[_gardenIndex];\r\n        bool alreadyVoted =false;\r\n        for (uint256 i = 0; i < proposal.rejectProposal.length; i++) {\r\n            if(proposal.rejectProposal[i]==msg.sender){\r\n                alreadyVoted=true;\r\n                break;\r\n            }\r\n        }\r\n        require(!alreadyVoted, \"You should only vote once\");\r\n        proposal.rejectProposal.push(msg.sender);\r\n        if(proposal.rejectProposal.length==MinApprovals){\r\n            GManager.RejectGarden(_gardenIndex);\r\n            proposal.isOpen=false;\r\n        }\r\n    }\r\n\r\n    function AddDispute(uint32 _gardenIndex) public {\r\n        require(msg.sender== address(GManager));\r\n        DisputeProposal storage proposal = DisputeProposals[_gardenIndex];\r\n        proposal.gardenIndex=_gardenIndex;\r\n    }\r\n\r\n    function SetAmountForDispute(uint32 _gardenIndex,uint _ownerAmount, uint _tenantAmount) public OnlyDeployer() OnlyValidDisputeProposal(_gardenIndex){\r\n        DisputeProposal storage proposal = DisputeProposals[_gardenIndex];\r\n        if(proposal.acceptProposal.length !=0){\r\n            delete proposal.acceptProposal;\r\n        }\r\n        proposal.ownerAmount=_ownerAmount;\r\n        proposal.tenantAmount=_tenantAmount;\r\n        proposal.acceptProposal.push(msg.sender);\r\n    }\r\n\r\n    function AcceptDispute(uint32 _gardenIndex) external OnlyAdmin() OnlyValidDisputeProposal(_gardenIndex){\r\n        bool alreadyVoted =false;\r\n        DisputeProposal storage proposal = DisputeProposals[_gardenIndex];\r\n        for (uint256 i = 0; i < proposal.acceptProposal.length; i++) {\r\n            if(proposal.acceptProposal[i]==msg.sender){\r\n                alreadyVoted=true;\r\n                break;\r\n            }\r\n        }\r\n        require(!alreadyVoted, \"You should only vote once\");        \r\n        proposal.acceptProposal.push(msg.sender);\r\n        if(proposal.acceptProposal.length==MinApprovals){\r\n            GManager.CloseDispute(_gardenIndex, proposal.ownerAmount,proposal.tenantAmount);\r\n            proposal.isOpen=false;\r\n        }\r\n    }\r\n}",
  "sourcePath": "C:\\Users\\aymeric.noel\\Desktop\\ZKP\\POC_ZKP\\smart_contracts\\contracts\\AdminManager.sol",
  "compiler": {
    "name": "solc",
    "version": "0.6.1+commit.e6f7d5a4.Emscripten.clang"
  },
  "schemaVersion": "3.3.4",
  "updatedAt": "2021-03-24T17:04:00.875Z",
  "networkType": "ethereum",
  "devdoc": {
    "methods": {}
  },
  "userdoc": {
    "methods": {}
  }
}