{
  "contractName": "GardenManager",
  "abi": [
    {
      "inputs": [
        {
          "internalType": "address",
          "name": "_adminContract",
          "type": "address"
        },
        {
          "internalType": "address",
          "name": "_verifierContract",
          "type": "address"
        }
      ],
      "stateMutability": "nonpayable",
      "type": "constructor"
    },
    {
      "anonymous": false,
      "inputs": [
        {
          "indexed": false,
          "internalType": "address",
          "name": "_owner",
          "type": "address"
        },
        {
          "indexed": false,
          "internalType": "uint256",
          "name": "_gardenIndex",
          "type": "uint256"
        }
      ],
      "name": "newGarden",
      "type": "event"
    },
    {
      "inputs": [
        {
          "internalType": "uint256",
          "name": "",
          "type": "uint256"
        }
      ],
      "name": "AllGarden",
      "outputs": [
        {
          "internalType": "address payable",
          "name": "owner",
          "type": "address"
        },
        {
          "internalType": "bool",
          "name": "multipleOwners",
          "type": "bool"
        },
        {
          "internalType": "enum GLibrary.GardenType",
          "name": "gardenType",
          "type": "uint8"
        },
        {
          "internalType": "string",
          "name": "district",
          "type": "string"
        },
        {
          "internalType": "uint32",
          "name": "area",
          "type": "uint32"
        },
        {
          "internalType": "string",
          "name": "contact",
          "type": "string"
        },
        {
          "internalType": "enum GLibrary.Status",
          "name": "status",
          "type": "uint8"
        }
      ],
      "stateMutability": "view",
      "type": "function",
      "constant": true
    },
    {
      "inputs": [],
      "name": "GardenCount",
      "outputs": [
        {
          "internalType": "uint256",
          "name": "",
          "type": "uint256"
        }
      ],
      "stateMutability": "view",
      "type": "function",
      "constant": true
    },
    {
      "inputs": [
        {
          "internalType": "uint256",
          "name": "_gardenIndex",
          "type": "uint256"
        }
      ],
      "name": "GetGardenById",
      "outputs": [
        {
          "components": [
            {
              "internalType": "address payable",
              "name": "owner",
              "type": "address"
            },
            {
              "internalType": "bool",
              "name": "multipleOwners",
              "type": "bool"
            },
            {
              "internalType": "address payable[]",
              "name": "coOwners",
              "type": "address[]"
            },
            {
              "internalType": "enum GLibrary.GardenType",
              "name": "gardenType",
              "type": "uint8"
            },
            {
              "internalType": "string",
              "name": "district",
              "type": "string"
            },
            {
              "internalType": "uint32",
              "name": "area",
              "type": "uint32"
            },
            {
              "internalType": "uint256[2]",
              "name": "secretHash",
              "type": "uint256[2]"
            },
            {
              "internalType": "string",
              "name": "contact",
              "type": "string"
            },
            {
              "internalType": "enum GLibrary.Status",
              "name": "status",
              "type": "uint8"
            },
            {
              "components": [
                {
                  "internalType": "int256",
                  "name": "rate",
                  "type": "int256"
                },
                {
                  "internalType": "uint256",
                  "name": "duration",
                  "type": "uint256"
                },
                {
                  "internalType": "uint256",
                  "name": "price",
                  "type": "uint256"
                },
                {
                  "internalType": "uint256",
                  "name": "beginning",
                  "type": "uint256"
                },
                {
                  "internalType": "uint256",
                  "name": "balance",
                  "type": "uint256"
                },
                {
                  "internalType": "address payable",
                  "name": "tenant",
                  "type": "address"
                },
                {
                  "components": [
                    {
                      "internalType": "string",
                      "name": "hashCode",
                      "type": "string"
                    },
                    {
                      "internalType": "string",
                      "name": "encryptedCode",
                      "type": "string"
                    }
                  ],
                  "internalType": "struct GLibrary.AccessCode",
                  "name": "accessCode",
                  "type": "tuple"
                }
              ],
              "internalType": "struct GLibrary.Rent[]",
              "name": "rents",
              "type": "tuple[]"
            }
          ],
          "internalType": "struct GLibrary.Garden",
          "name": "",
          "type": "tuple"
        }
      ],
      "stateMutability": "view",
      "type": "function",
      "constant": true
    },
    {
      "inputs": [],
      "name": "GetVerifierContractAddress",
      "outputs": [
        {
          "internalType": "address",
          "name": "",
          "type": "address"
        }
      ],
      "stateMutability": "view",
      "type": "function",
      "constant": true
    },
    {
      "inputs": [
        {
          "internalType": "address",
          "name": "_verifierContract",
          "type": "address"
        }
      ],
      "name": "ModifyVerifierContract",
      "outputs": [
        {
          "internalType": "address",
          "name": "",
          "type": "address"
        }
      ],
      "stateMutability": "nonpayable",
      "type": "function"
    },
    {
      "inputs": [
        {
          "internalType": "uint256[2]",
          "name": "_secretHash",
          "type": "uint256[2]"
        },
        {
          "internalType": "string",
          "name": "_district",
          "type": "string"
        },
        {
          "internalType": "uint32",
          "name": "_area",
          "type": "uint32"
        },
        {
          "internalType": "string",
          "name": "_contact",
          "type": "string"
        },
        {
          "internalType": "enum GLibrary.GardenType",
          "name": "_gardenType",
          "type": "uint8"
        },
        {
          "internalType": "bool",
          "name": "_multipleOwners",
          "type": "bool"
        },
        {
          "internalType": "address payable[]",
          "name": "_coOwners",
          "type": "address[]"
        }
      ],
      "name": "CreateGarden",
      "outputs": [],
      "stateMutability": "nonpayable",
      "type": "function"
    },
    {
      "inputs": [
        {
          "internalType": "uint256",
          "name": "_gardenIndex",
          "type": "uint256"
        },
        {
          "internalType": "string",
          "name": "_contact",
          "type": "string"
        }
      ],
      "name": "UpdateGardenContact",
      "outputs": [],
      "stateMutability": "nonpayable",
      "type": "function"
    },
    {
      "inputs": [
        {
          "internalType": "uint256",
          "name": "_gardenIndex",
          "type": "uint256"
        },
        {
          "internalType": "uint256[2]",
          "name": "_proofA",
          "type": "uint256[2]"
        },
        {
          "internalType": "uint256[2][2]",
          "name": "_proofB",
          "type": "uint256[2][2]"
        },
        {
          "internalType": "uint256[2]",
          "name": "_proofC",
          "type": "uint256[2]"
        },
        {
          "internalType": "uint256[2]",
          "name": "_newSecretHash",
          "type": "uint256[2]"
        }
      ],
      "name": "UpdateGardenSecretHash",
      "outputs": [],
      "stateMutability": "nonpayable",
      "type": "function"
    },
    {
      "inputs": [
        {
          "internalType": "uint256",
          "name": "_gardenIndex",
          "type": "uint256"
        }
      ],
      "name": "AcceptGarden",
      "outputs": [],
      "stateMutability": "nonpayable",
      "type": "function"
    },
    {
      "inputs": [
        {
          "internalType": "uint256",
          "name": "_gardenIndex",
          "type": "uint256"
        }
      ],
      "name": "RejectGarden",
      "outputs": [],
      "stateMutability": "nonpayable",
      "type": "function"
    },
    {
      "inputs": [
        {
          "internalType": "uint256",
          "name": "_gardenIndex",
          "type": "uint256"
        },
        {
          "internalType": "address payable",
          "name": "_tenant",
          "type": "address"
        },
        {
          "internalType": "uint256",
          "name": "_rentingDuration",
          "type": "uint256"
        },
        {
          "internalType": "uint256",
          "name": "_price",
          "type": "uint256"
        },
        {
          "internalType": "uint256[2]",
          "name": "_proofA",
          "type": "uint256[2]"
        },
        {
          "internalType": "uint256[2][2]",
          "name": "_proofB",
          "type": "uint256[2][2]"
        },
        {
          "internalType": "uint256[2]",
          "name": "_proofC",
          "type": "uint256[2]"
        }
      ],
      "name": "ProposeGardenOffer",
      "outputs": [],
      "stateMutability": "nonpayable",
      "type": "function"
    },
    {
      "inputs": [
        {
          "internalType": "uint256",
          "name": "_gardenIndex",
          "type": "uint256"
        },
        {
          "internalType": "uint256[2]",
          "name": "_proofA",
          "type": "uint256[2]"
        },
        {
          "internalType": "uint256[2][2]",
          "name": "_proofB",
          "type": "uint256[2][2]"
        },
        {
          "internalType": "uint256[2]",
          "name": "_proofC",
          "type": "uint256[2]"
        }
      ],
      "name": "DeleteGardenOffer",
      "outputs": [],
      "stateMutability": "nonpayable",
      "type": "function"
    },
    {
      "inputs": [
        {
          "internalType": "uint256",
          "name": "_gardenIndex",
          "type": "uint256"
        }
      ],
      "name": "AcceptGardenOffer",
      "outputs": [],
      "stateMutability": "payable",
      "type": "function",
      "payable": true
    },
    {
      "inputs": [
        {
          "internalType": "uint256",
          "name": "_gardenIndex",
          "type": "uint256"
        },
        {
          "internalType": "uint256[2]",
          "name": "_proofA",
          "type": "uint256[2]"
        },
        {
          "internalType": "uint256[2][2]",
          "name": "_proofB",
          "type": "uint256[2][2]"
        },
        {
          "internalType": "uint256[2]",
          "name": "_proofC",
          "type": "uint256[2]"
        },
        {
          "internalType": "string",
          "name": "_hashCode",
          "type": "string"
        },
        {
          "internalType": "string",
          "name": "_encryptedCode",
          "type": "string"
        }
      ],
      "name": "AddAccessCodeToGarden",
      "outputs": [],
      "stateMutability": "nonpayable",
      "type": "function"
    },
    {
      "inputs": [
        {
          "internalType": "uint256",
          "name": "_gardenIndex",
          "type": "uint256"
        }
      ],
      "name": "GetRefundBeforeLocation",
      "outputs": [],
      "stateMutability": "nonpayable",
      "type": "function"
    },
    {
      "inputs": [
        {
          "internalType": "uint256",
          "name": "_gardenIndex",
          "type": "uint256"
        },
        {
          "internalType": "uint256[2]",
          "name": "_proofA",
          "type": "uint256[2]"
        },
        {
          "internalType": "uint256[2][2]",
          "name": "_proofB",
          "type": "uint256[2][2]"
        },
        {
          "internalType": "uint256[2]",
          "name": "_proofC",
          "type": "uint256[2]"
        }
      ],
      "name": "UpdateLocationStatusAndGetPayment",
      "outputs": [],
      "stateMutability": "nonpayable",
      "type": "function"
    },
    {
      "inputs": [
        {
          "internalType": "uint256",
          "name": "_gardenIndex",
          "type": "uint256"
        },
        {
          "internalType": "int256",
          "name": "_grade",
          "type": "int256"
        }
      ],
      "name": "AddGradeToGarden",
      "outputs": [
        {
          "internalType": "bool",
          "name": "saved",
          "type": "bool"
        }
      ],
      "stateMutability": "nonpayable",
      "type": "function"
    },
    {
      "inputs": [
        {
          "internalType": "uint256",
          "name": "_gardenIndex",
          "type": "uint256"
        }
      ],
      "name": "AddDispute",
      "outputs": [],
      "stateMutability": "nonpayable",
      "type": "function"
    },
    {
      "inputs": [
        {
          "internalType": "uint256",
          "name": "_gardenIndex",
          "type": "uint256"
        },
        {
          "internalType": "uint256",
          "name": "_ownerAmount",
          "type": "uint256"
        },
        {
          "internalType": "uint256",
          "name": "_tenantAmount",
          "type": "uint256"
        }
      ],
      "name": "CloseDispute",
      "outputs": [],
      "stateMutability": "nonpayable",
      "type": "function"
    }
  ],
  "bytecode": "0x60806040523480156200001157600080fd5b506040516200595b3803806200595b8339818101604052620000379190810190620000d7565b81600160006101000a81548173ffffffffffffffffffffffffffffffffffffffff021916908373ffffffffffffffffffffffffffffffffffffffff160217905550806000806101000a81548173ffffffffffffffffffffffffffffffffffffffff021916908373ffffffffffffffffffffffffffffffffffffffff160217905550505062000166565b600081519050620000d1816200014c565b92915050565b60008060408385031215620000eb57600080fd5b6000620000fb85828601620000c0565b92505060206200010e85828601620000c0565b9150509250929050565b600062000125826200012c565b9050919050565b600073ffffffffffffffffffffffffffffffffffffffff82169050919050565b620001578162000118565b81146200016357600080fd5b50565b6157e580620001766000396000f3fe6080604052600436106101145760003560e01c8063850fca06116100a0578063c69fad6311610064578063c69fad63146103b1578063cd4a18a7146103da578063e3c8c91714610403578063eecfca741461042c578063fc2562701461045557610114565b8063850fca06146102a057806385740631146102cb578063a233dd37146102f4578063ac6bbf5a14610331578063b01dff131461036e57610114565b80633efb0c4e116100e75780633efb0c4e146101bf57806345fbf81b146101e857806347c47884146102115780636519156e1461023a57806372a5a5a01461027757610114565b8063077133c114610119578063100a0adb1461014257806317b161ba1461016d5780631908a68514610196575b600080fd5b34801561012557600080fd5b50610140600480360361013b9190810190614402565b610471565b005b34801561014e57600080fd5b5061015761072d565b6040516101649190614fae565b60405180910390f35b34801561017957600080fd5b50610194600480360361018f919081019061439e565b610756565b005b3480156101a257600080fd5b506101bd60048036036101b891908101906142fe565b610b4d565b005b3480156101cb57600080fd5b506101e660048036036101e191908101906145cb565b610f4b565b005b3480156101f457600080fd5b5061020f600480360361020a919081019061447b565b6116ba565b005b34801561021d57600080fd5b50610238600480360361023391908101906141b8565b61199b565b005b34801561024657600080fd5b50610261600480360361025c91908101906142d5565b611bc7565b60405161026e91906152b1565b60405180910390f35b34801561028357600080fd5b5061029e600480360361029991908101906142d5565b61213c565b005b3480156102ac57600080fd5b506102b56122e8565b6040516102c291906152d3565b60405180910390f35b3480156102d757600080fd5b506102f260048036036102ed91908101906142d5565b6122ee565b005b34801561030057600080fd5b5061031b60048036036103169190810190614537565b612331565b60405161032891906150b6565b60405180910390f35b34801561033d57600080fd5b506103586004803603610353919081019061418f565b612576565b6040516103659190614fae565b60405180910390f35b34801561037a57600080fd5b50610395600480360361039091908101906142d5565b6125c8565b6040516103a89796959493929190614fc9565b60405180910390f35b3480156103bd57600080fd5b506103d860048036036103d391908101906142d5565b612791565b005b3480156103e657600080fd5b5061040160048036036103fc91908101906142d5565b6127d4565b005b34801561040f57600080fd5b5061042a6004803603610425919081019061439e565b612bfb565b005b34801561043857600080fd5b50610453600480360361044e9190810190614573565b613660565b005b61046f600480360361046a91908101906142d5565b613731565b005b843373ffffffffffffffffffffffffffffffffffffffff166003600083815260200190815260200160002060000160009054906101000a900473ffffffffffffffffffffffffffffffffffffffff1673ffffffffffffffffffffffffffffffffffffffff1614610516576040517f08c379a000000000000000000000000000000000000000000000000000000000815260040161050d90615131565b60405180910390fd5b85856002806020026040519081016040528092919082600260200280828437600081840152601f19601f82011690508083019250505050505085600280602002604051908101604052809291906000905b828210156105bb578382604002016002806020026040519081016040528092919082600260200280828437600081840152601f19601f82011690508083019250505050505081526020019060010190610567565b50505050856002806020026040519081016040528092919082600260200280828437600081840152601f19601f8201169050808301925050505050506000809054906101000a900473ffffffffffffffffffffffffffffffffffffffff1673ffffffffffffffffffffffffffffffffffffffff1663621e9ec0848484600360008a81526020019081526020016000206005016040518563ffffffff1660e01b815260040161066c949392919061506f565b60206040518083038186803b15801561068457600080fd5b505afa158015610698573d6000803e3d6000fd5b505050506040513d601f19601f820116820180604052506106bc91908101906142ac565b6106fb576040517f08c379a00000000000000000000000000000000000000000000000000000000081526004016106f290615231565b60405180910390fd5b85600360008c8152602001908152602001600020600501906002610720929190613a35565b5050505050505050505050565b60008060009054906101000a900473ffffffffffffffffffffffffffffffffffffffff16905090565b833373ffffffffffffffffffffffffffffffffffffffff166003600083815260200190815260200160002060000160009054906101000a900473ffffffffffffffffffffffffffffffffffffffff1673ffffffffffffffffffffffffffffffffffffffff16146107fb576040517f08c379a00000000000000000000000000000000000000000000000000000000081526004016107f290615131565b60405180910390fd5b84846002806020026040519081016040528092919082600260200280828437600081840152601f19601f82011690508083019250505050505084600280602002604051908101604052809291906000905b828210156108a0578382604002016002806020026040519081016040528092919082600260200280828437600081840152601f19601f8201169050808301925050505050508152602001906001019061084c565b50505050846002806020026040519081016040528092919082600260200280828437600081840152601f19601f8201169050808301925050505050506000809054906101000a900473ffffffffffffffffffffffffffffffffffffffff1673ffffffffffffffffffffffffffffffffffffffff1663621e9ec0848484600360008a81526020019081526020016000206005016040518563ffffffff1660e01b8152600401610951949392919061506f565b60206040518083038186803b15801561096957600080fd5b505afa15801561097d573d6000803e3d6000fd5b505050506040513d601f19601f820116820180604052506109a191908101906142ac565b6109e0576040517f08c379a00000000000000000000000000000000000000000000000000000000081526004016109d790615231565b60405180910390fd5b600260068111156109ed57fe5b600360008b815260200190815260200160002060080160009054906101000a900460ff166006811115610a1c57fe5b14610a5c576040517f08c379a0000000000000000000000000000000000000000000000000000000008152600401610a53906150f1565b60405180910390fd5b6001600360008b815260200190815260200160002060080160006101000a81548160ff02191690836006811115610a8f57fe5b0217905550600360008a8152602001908152602001600020600901805480610ab357fe5b600190038181906000526020600020906008020160008082016000905560018201600090556002820160009055600382016000905560048201600090556005820160006101000a81549073ffffffffffffffffffffffffffffffffffffffff02191690556006820160008082016000610b2c9190613a75565b600182016000610b3c9190613a75565b505050509055505050505050505050565b863373ffffffffffffffffffffffffffffffffffffffff166003600083815260200190815260200160002060000160009054906101000a900473ffffffffffffffffffffffffffffffffffffffff1673ffffffffffffffffffffffffffffffffffffffff1614610bf2576040517f08c379a0000000000000000000000000000000000000000000000000000000008152600401610be990615131565b60405180910390fd5b87846002806020026040519081016040528092919082600260200280828437600081840152601f19601f82011690508083019250505050505084600280602002604051908101604052809291906000905b82821015610c97578382604002016002806020026040519081016040528092919082600260200280828437600081840152601f19601f82011690508083019250505050505081526020019060010190610c43565b50505050846002806020026040519081016040528092919082600260200280828437600081840152601f19601f8201169050808301925050505050506000809054906101000a900473ffffffffffffffffffffffffffffffffffffffff1673ffffffffffffffffffffffffffffffffffffffff1663621e9ec0848484600360008a81526020019081526020016000206005016040518563ffffffff1660e01b8152600401610d48949392919061506f565b60206040518083038186803b158015610d6057600080fd5b505afa158015610d74573d6000803e3d6000fd5b505050506040513d601f19601f82011682018060405250610d9891908101906142ac565b610dd7576040517f08c379a0000000000000000000000000000000000000000000000000000000008152600401610dce90615231565b60405180910390fd5b60016006811115610de457fe5b600360008e815260200190815260200160002060080160009054906101000a900460ff166006811115610e1357fe5b14610e53576040517f08c379a0000000000000000000000000000000000000000000000000000000008152600401610e4a90615291565b60405180910390fd5b6000600360008e8152602001908152602001600020905060028160080160006101000a81548160ff02191690836006811115610e8b57fe5b021790555080600901600181600181540180825580915050039060005260206000209050506000610ebb8e6138cc565b90508b81600101819055508a81600201819055508c8160050160006101000a81548173ffffffffffffffffffffffffffffffffffffffff021916908373ffffffffffffffffffffffffffffffffffffffff1602179055507fffffffffffffffffffffffffffffffffffffffffffffffffffffffffffffffff81600001819055505050505050505050505050505050565b610f53613920565b6000600360008581526020019081526020016000209050600680811115610f7657fe5b8160080160009054906101000a900460ff166006811115610f9357fe5b14610fd3576040517f08c379a0000000000000000000000000000000000000000000000000000000008152600401610fca90615191565b60405180910390fd5b6000610fde856138cc565b905060008314611054578060050160009054906101000a900473ffffffffffffffffffffffffffffffffffffffff1673ffffffffffffffffffffffffffffffffffffffff166108fc849081150290604051600060405180830381858888f19350505050158015611052573d6000803e3d6000fd5b505b60008414611658578160000160149054906101000a900460ff16156115eb5760008260010180549050858161108557fe5b0490506115e58184604051806101400160405290816000820160009054906101000a900473ffffffffffffffffffffffffffffffffffffffff1673ffffffffffffffffffffffffffffffffffffffff1673ffffffffffffffffffffffffffffffffffffffff1681526020016000820160149054906101000a900460ff161515151581526020016001820180548060200260200160405190810160405280929190818152602001828054801561118f57602002820191906000526020600020905b8160009054906101000a900473ffffffffffffffffffffffffffffffffffffffff1673ffffffffffffffffffffffffffffffffffffffff1681526020019060010190808311611145575b505050505081526020016002820160009054906101000a900460ff1660018111156111b657fe5b60018111156111c157fe5b8152602001600382018054600181600116156101000203166002900480601f01602080910402602001604051908101604052809291908181526020018280546001816001161561010002031660029004801561125e5780601f106112335761010080835404028352916020019161125e565b820191906000526020600020905b81548152906001019060200180831161124157829003601f168201915b505050505081526020016004820160009054906101000a900463ffffffff1663ffffffff1663ffffffff168152602001600582016002806020026040519081016040528092919082600280156112c9576020028201915b8154815260200190600101908083116112b5575b50505050508152602001600782018054600181600116156101000203166002900480601f01602080910402602001604051908101604052809291908181526020018280546001816001161561010002031660029004801561136b5780601f106113405761010080835404028352916020019161136b565b820191906000526020600020905b81548152906001019060200180831161134e57829003601f168201915b505050505081526020016008820160009054906101000a900460ff16600681111561139257fe5b600681111561139d57fe5b815260200160098201805480602002602001604051908101604052809291908181526020016000905b828210156115d857838290600052602060002090600802016040518060e001604052908160008201548152602001600182015481526020016002820154815260200160038201548152602001600482015481526020016005820160009054906101000a900473ffffffffffffffffffffffffffffffffffffffff1673ffffffffffffffffffffffffffffffffffffffff1673ffffffffffffffffffffffffffffffffffffffff16815260200160068201604051806040016040529081600082018054600181600116156101000203166002900480601f01602080910402602001604051908101604052809291908181526020018280546001816001161561010002031660029004801561151a5780601f106114ef5761010080835404028352916020019161151a565b820191906000526020600020905b8154815290600101906020018083116114fd57829003601f168201915b50505050508152602001600182018054600181600116156101000203166002900480601f0160208091040260200160405190810160405280929190818152602001828054600181600116156101000203166002900480156115bc5780601f10611591576101008083540402835291602001916115bc565b820191906000526020600020905b81548152906001019060200180831161159f57829003601f168201915b50505050508152505081525050815260200190600101906113c6565b50505050815250506139b2565b50611657565b8160000160009054906101000a900473ffffffffffffffffffffffffffffffffffffffff1673ffffffffffffffffffffffffffffffffffffffff166108fc859081150290604051600060405180830381858888f19350505050158015611655573d6000803e3d6000fd5b505b5b600081600401819055506040518060200160405280600081525081600601600001908051906020019061168c929190613abd565b5060018260080160006101000a81548160ff021916908360068111156116ae57fe5b02179055505050505050565b853373ffffffffffffffffffffffffffffffffffffffff166003600083815260200190815260200160002060000160009054906101000a900473ffffffffffffffffffffffffffffffffffffffff1673ffffffffffffffffffffffffffffffffffffffff161461175f576040517f08c379a000000000000000000000000000000000000000000000000000000000815260040161175690615131565b60405180910390fd5b868686866000809054906101000a900473ffffffffffffffffffffffffffffffffffffffff1673ffffffffffffffffffffffffffffffffffffffff1663621e9ec0848484600360008a81526020019081526020016000206005016040518563ffffffff1660e01b81526004016117d8949392919061506f565b60206040518083038186803b1580156117f057600080fd5b505afa158015611804573d6000803e3d6000fd5b505050506040513d601f19601f8201168201806040525061182891908101906142ac565b611867576040517f08c379a000000000000000000000000000000000000000000000000000000000815260040161185e90615231565b60405180910390fd5b6003600681111561187457fe5b600360008d815260200190815260200160002060080160009054906101000a900460ff1660068111156118a357fe5b146118e3576040517f08c379a00000000000000000000000000000000000000000000000000000000081526004016118da90615171565b60405180910390fd5b6000600360008d8152602001908152602001600020905060006119058d6138cc565b905042816003018190555060405180604001604052808a815260200189815250816006016000820151816000019080519060200190611945929190613b3d565b506020820151816001019080519060200190611962929190613b3d565b5090505060048260080160006101000a81548160ff0219169083600681111561198757fe5b021790555050505050505050505050505050565b60006003600060025481526020019081526020016000209050878160040160006101000a81548163ffffffff021916908363ffffffff16021790555086868260070191906119ea929190613bbd565b50848160020160006101000a81548160ff02191690836001811115611a0b57fe5b02179055508a81600501906002611a23929190613a35565b508989826003019190611a37929190613bbd565b5060008160080160006101000a81548160ff02191690836006811115611a5957fe5b0217905550338160000160006101000a81548173ffffffffffffffffffffffffffffffffffffffff021916908373ffffffffffffffffffffffffffffffffffffffff1602179055508315611ad95760018160000160146101000a81548160ff0219169083151502179055508282826001019190611ad7929190613c3d565b505b600160009054906101000a900473ffffffffffffffffffffffffffffffffffffffff1673ffffffffffffffffffffffffffffffffffffffff166382760dce6002548d6040518363ffffffff1660e01b8152600401611b389291906152ee565b600060405180830381600087803b158015611b5257600080fd5b505af1158015611b66573d6000803e3d6000fd5b505050506002600081548092919060010191905055507fb57fe914a9a5efffa3222bc1fa61c48f4e7f21c2f5ce18195ca2dbf91245de1133600160025403604051611bb2929190615046565b60405180910390a15050505050505050505050565b611bcf613cdd565b60036000838152602001908152602001600020604051806101400160405290816000820160009054906101000a900473ffffffffffffffffffffffffffffffffffffffff1673ffffffffffffffffffffffffffffffffffffffff1673ffffffffffffffffffffffffffffffffffffffff1681526020016000820160149054906101000a900460ff1615151515815260200160018201805480602002602001604051908101604052809291908181526020018280548015611ce457602002820191906000526020600020905b8160009054906101000a900473ffffffffffffffffffffffffffffffffffffffff1673ffffffffffffffffffffffffffffffffffffffff1681526020019060010190808311611c9a575b505050505081526020016002820160009054906101000a900460ff166001811115611d0b57fe5b6001811115611d1657fe5b8152602001600382018054600181600116156101000203166002900480601f016020809104026020016040519081016040528092919081815260200182805460018160011615610100020316600290048015611db35780601f10611d8857610100808354040283529160200191611db3565b820191906000526020600020905b815481529060010190602001808311611d9657829003601f168201915b505050505081526020016004820160009054906101000a900463ffffffff1663ffffffff1663ffffffff16815260200160058201600280602002604051908101604052809291908260028015611e1e576020028201915b815481526020019060010190808311611e0a575b50505050508152602001600782018054600181600116156101000203166002900480601f016020809104026020016040519081016040528092919081815260200182805460018160011615610100020316600290048015611ec05780601f10611e9557610100808354040283529160200191611ec0565b820191906000526020600020905b815481529060010190602001808311611ea357829003601f168201915b505050505081526020016008820160009054906101000a900460ff166006811115611ee757fe5b6006811115611ef257fe5b815260200160098201805480602002602001604051908101604052809291908181526020016000905b8282101561212d57838290600052602060002090600802016040518060e001604052908160008201548152602001600182015481526020016002820154815260200160038201548152602001600482015481526020016005820160009054906101000a900473ffffffffffffffffffffffffffffffffffffffff1673ffffffffffffffffffffffffffffffffffffffff1673ffffffffffffffffffffffffffffffffffffffff16815260200160068201604051806040016040529081600082018054600181600116156101000203166002900480601f01602080910402602001604051908101604052809291908181526020018280546001816001161561010002031660029004801561206f5780601f106120445761010080835404028352916020019161206f565b820191906000526020600020905b81548152906001019060200180831161205257829003601f168201915b50505050508152602001600182018054600181600116156101000203166002900480601f0160208091040260200160405190810160405280929190818152602001828054600181600116156101000203166002900480156121115780601f106120e657610100808354040283529160200191612111565b820191906000526020600020905b8154815290600101906020018083116120f457829003601f168201915b5050505050815250508152505081526020019060010190611f1b565b50505050815250509050919050565b6003600681111561214957fe5b6003600083815260200190815260200160002060080160009054906101000a900460ff16600681111561217857fe5b146121b8576040517f08c379a00000000000000000000000000000000000000000000000000000000081526004016121af90615271565b60405180910390fd5b60006121c3826138cc565b90503373ffffffffffffffffffffffffffffffffffffffff168160050160009054906101000a900473ffffffffffffffffffffffffffffffffffffffff1673ffffffffffffffffffffffffffffffffffffffff1614612257576040517f08c379a000000000000000000000000000000000000000000000000000000000815260040161224e906151b1565b60405180910390fd5b3373ffffffffffffffffffffffffffffffffffffffff166108fc82600401549081150290604051600060405180830381858888f193505050501580156122a1573d6000803e3d6000fd5b5060016003600084815260200190815260200160002060080160006101000a81548160ff021916908360068111156122d557fe5b0217905550600081600401819055505050565b60025481565b6122f6613920565b60016003600083815260200190815260200160002060080160006101000a81548160ff0219169083600681111561232957fe5b021790555050565b6000600682128015612344575060008212155b612383576040517f08c379a000000000000000000000000000000000000000000000000000000000815260040161237a90615251565b60405180910390fd5b60009050600060036000858152602001908152602001600020600901905060008090505b818054905081101561256b578181815481106123bf57fe5b906000526020600020906008020160050160009054906101000a900473ffffffffffffffffffffffffffffffffffffffff1673ffffffffffffffffffffffffffffffffffffffff163373ffffffffffffffffffffffffffffffffffffffff1614801561246757507fffffffffffffffffffffffffffffffffffffffffffffffffffffffffffffffff82828154811061245357fe5b906000526020600020906008020160000154145b8015612532575073__GLibrary______________________________63b5a1659383838154811061249457fe5b9060005260206000209060080201600301548484815481106124b257fe5b9060005260206000209060080201600101546040518363ffffffff1660e01b81526004016124e1929190615340565b60206040518083038186803b1580156124f957600080fd5b505af415801561250d573d6000803e3d6000fd5b505050506040513d601f19601f8201168201806040525061253191908101906142ac565b5b1561255e578382828154811061254457fe5b906000526020600020906008020160000181905550600192505b80806001019150506123a7565b508191505092915050565b6000612580613920565b816000806101000a81548173ffffffffffffffffffffffffffffffffffffffff021916908373ffffffffffffffffffffffffffffffffffffffff160217905550819050919050565b60036020528060005260406000206000915090508060000160009054906101000a900473ffffffffffffffffffffffffffffffffffffffff16908060000160149054906101000a900460ff16908060020160009054906101000a900460ff1690806003018054600181600116156101000203166002900480601f0160208091040260200160405190810160405280929190818152602001828054600181600116156101000203166002900480156126c05780601f10612695576101008083540402835291602001916126c0565b820191906000526020600020905b8154815290600101906020018083116126a357829003601f168201915b5050505050908060040160009054906101000a900463ffffffff1690806007018054600181600116156101000203166002900480601f0160208091040260200160405190810160405280929190818152602001828054600181600116156101000203166002900480156127745780601f1061274957610100808354040283529160200191612774565b820191906000526020600020905b81548152906001019060200180831161275757829003601f168201915b5050505050908060080160009054906101000a900460ff16905087565b612799613920565b60056003600083815260200190815260200160002060080160006101000a81548160ff021916908360068111156127cc57fe5b021790555050565b600460068111156127e157fe5b6003600083815260200190815260200160002060080160009054906101000a900460ff16600681111561281057fe5b14612850576040517f08c379a000000000000000000000000000000000000000000000000000000000815260040161284790615171565b60405180910390fd5b612858613d6a565b612861826138cc565b6040518060e001604052908160008201548152602001600182015481526020016002820154815260200160038201548152602001600482015481526020016005820160009054906101000a900473ffffffffffffffffffffffffffffffffffffffff1673ffffffffffffffffffffffffffffffffffffffff1673ffffffffffffffffffffffffffffffffffffffff16815260200160068201604051806040016040529081600082018054600181600116156101000203166002900480601f01602080910402602001604051908101604052809291908181526020018280546001816001161561010002031660029004801561299d5780601f106129725761010080835404028352916020019161299d565b820191906000526020600020905b81548152906001019060200180831161298057829003601f168201915b50505050508152602001600182018054600181600116156101000203166002900480601f016020809104026020016040519081016040528092919081815260200182805460018160011615610100020316600290048015612a3f5780601f10612a1457610100808354040283529160200191612a3f565b820191906000526020600020905b815481529060010190602001808311612a2257829003601f168201915b5050505050815250508152505090503373ffffffffffffffffffffffffffffffffffffffff168160a0015173ffffffffffffffffffffffffffffffffffffffff161480612aed57503373ffffffffffffffffffffffffffffffffffffffff166003600084815260200190815260200160002060000160009054906101000a900473ffffffffffffffffffffffffffffffffffffffff1673ffffffffffffffffffffffffffffffffffffffff16145b612b2c576040517f08c379a0000000000000000000000000000000000000000000000000000000008152600401612b2390615111565b60405180910390fd5b60066003600084815260200190815260200160002060080160006101000a81548160ff02191690836006811115612b5f57fe5b0217905550600160009054906101000a900473ffffffffffffffffffffffffffffffffffffffff1673ffffffffffffffffffffffffffffffffffffffff1663a26b66a28383608001516040518363ffffffff1660e01b8152600401612bc5929190615317565b600060405180830381600087803b158015612bdf57600080fd5b505af1158015612bf3573d6000803e3d6000fd5b505050505050565b833373ffffffffffffffffffffffffffffffffffffffff166003600083815260200190815260200160002060000160009054906101000a900473ffffffffffffffffffffffffffffffffffffffff1673ffffffffffffffffffffffffffffffffffffffff1614612ca0576040517f08c379a0000000000000000000000000000000000000000000000000000000008152600401612c9790615131565b60405180910390fd5b84846002806020026040519081016040528092919082600260200280828437600081840152601f19601f82011690508083019250505050505084600280602002604051908101604052809291906000905b82821015612d45578382604002016002806020026040519081016040528092919082600260200280828437600081840152601f19601f82011690508083019250505050505081526020019060010190612cf1565b50505050846002806020026040519081016040528092919082600260200280828437600081840152601f19601f8201169050808301925050505050506000809054906101000a900473ffffffffffffffffffffffffffffffffffffffff1673ffffffffffffffffffffffffffffffffffffffff1663621e9ec0848484600360008a81526020019081526020016000206005016040518563ffffffff1660e01b8152600401612df6949392919061506f565b60206040518083038186803b158015612e0e57600080fd5b505afa158015612e22573d6000803e3d6000fd5b505050506040513d601f19601f82011682018060405250612e4691908101906142ac565b612e85576040517f08c379a0000000000000000000000000000000000000000000000000000000008152600401612e7c90615231565b60405180910390fd5b6000612e908a6138cc565b90506000600360008c81526020019081526020016000209050600680811115612eb557fe5b8160080160009054906101000a900460ff166006811115612ed257fe5b1415612f13576040517f08c379a0000000000000000000000000000000000000000000000000000000008152600401612f0a90615151565b60405180910390fd5b73__GLibrary______________________________63b5a16593836003015484600101546040518363ffffffff1660e01b8152600401612f54929190615340565b60206040518083038186803b158015612f6c57600080fd5b505af4158015612f80573d6000803e3d6000fd5b505050506040513d601f19601f82011682018060405250612fa491908101906142ac565b612fe3576040517f08c379a0000000000000000000000000000000000000000000000000000000008152600401612fda906150d1565b60405180910390fd5b8060000160149054906101000a900460ff1615613576576000816001018054905083600401548161301057fe5b0490506135708183604051806101400160405290816000820160009054906101000a900473ffffffffffffffffffffffffffffffffffffffff1673ffffffffffffffffffffffffffffffffffffffff1673ffffffffffffffffffffffffffffffffffffffff1681526020016000820160149054906101000a900460ff161515151581526020016001820180548060200260200160405190810160405280929190818152602001828054801561311a57602002820191906000526020600020905b8160009054906101000a900473ffffffffffffffffffffffffffffffffffffffff1673ffffffffffffffffffffffffffffffffffffffff16815260200190600101908083116130d0575b505050505081526020016002820160009054906101000a900460ff16600181111561314157fe5b600181111561314c57fe5b8152602001600382018054600181600116156101000203166002900480601f0160208091040260200160405190810160405280929190818152602001828054600181600116156101000203166002900480156131e95780601f106131be576101008083540402835291602001916131e9565b820191906000526020600020905b8154815290600101906020018083116131cc57829003601f168201915b505050505081526020016004820160009054906101000a900463ffffffff1663ffffffff1663ffffffff16815260200160058201600280602002604051908101604052809291908260028015613254576020028201915b815481526020019060010190808311613240575b50505050508152602001600782018054600181600116156101000203166002900480601f0160208091040260200160405190810160405280929190818152602001828054600181600116156101000203166002900480156132f65780601f106132cb576101008083540402835291602001916132f6565b820191906000526020600020905b8154815290600101906020018083116132d957829003601f168201915b505050505081526020016008820160009054906101000a900460ff16600681111561331d57fe5b600681111561332857fe5b815260200160098201805480602002602001604051908101604052809291908181526020016000905b8282101561356357838290600052602060002090600802016040518060e001604052908160008201548152602001600182015481526020016002820154815260200160038201548152602001600482015481526020016005820160009054906101000a900473ffffffffffffffffffffffffffffffffffffffff1673ffffffffffffffffffffffffffffffffffffffff1673ffffffffffffffffffffffffffffffffffffffff16815260200160068201604051806040016040529081600082018054600181600116156101000203166002900480601f0160208091040260200160405190810160405280929190818152602001828054600181600116156101000203166002900480156134a55780601f1061347a576101008083540402835291602001916134a5565b820191906000526020600020905b81548152906001019060200180831161348857829003601f168201915b50505050508152602001600182018054600181600116156101000203166002900480601f0160208091040260200160405190810160405280929190818152602001828054600181600116156101000203166002900480156135475780601f1061351c57610100808354040283529160200191613547565b820191906000526020600020905b81548152906001019060200180831161352a57829003601f168201915b5050505050815250508152505081526020019060010190613351565b50505050815250506139b2565b506135e6565b8060000160009054906101000a900473ffffffffffffffffffffffffffffffffffffffff1673ffffffffffffffffffffffffffffffffffffffff166108fc83600401549081150290604051600060405180830381858888f193505050501580156135e4573d6000803e3d6000fd5b505b600082600401819055506040518060200160405280600081525082600601600001908051906020019061361a929190613abd565b506001600360008d815260200190815260200160002060080160006101000a81548160ff0219169083600681111561364e57fe5b02179055505050505050505050505050565b823373ffffffffffffffffffffffffffffffffffffffff166003600083815260200190815260200160002060000160009054906101000a900473ffffffffffffffffffffffffffffffffffffffff1673ffffffffffffffffffffffffffffffffffffffff1614613705576040517f08c379a00000000000000000000000000000000000000000000000000000000081526004016136fc90615131565b60405180910390fd5b828260036000878152602001908152602001600020600701919061372a929190613bbd565b5050505050565b60006003600083815260200190815260200160002090506000613753836138cc565b90506002600681111561376257fe5b8260080160009054906101000a900460ff16600681111561377f57fe5b146137bf576040517f08c379a00000000000000000000000000000000000000000000000000000000081526004016137b6906150f1565b60405180910390fd5b3373ffffffffffffffffffffffffffffffffffffffff168160050160009054906101000a900473ffffffffffffffffffffffffffffffffffffffff1673ffffffffffffffffffffffffffffffffffffffff1614613851576040517f08c379a0000000000000000000000000000000000000000000000000000000008152600401613848906151f1565b60405180910390fd5b3481600201541115613898576040517f08c379a000000000000000000000000000000000000000000000000000000000815260040161388f90615211565b60405180910390fd5b34816004018190555060038260080160006101000a81548160ff021916908360068111156138c257fe5b0217905550505050565b60006003600083815260200190815260200160002060090160016003600085815260200190815260200160002060090180549050038154811061390b57fe5b90600052602060002090600802019050919050565b600160009054906101000a900473ffffffffffffffffffffffffffffffffffffffff1673ffffffffffffffffffffffffffffffffffffffff163373ffffffffffffffffffffffffffffffffffffffff16146139b0576040517f08c379a00000000000000000000000000000000000000000000000000000000081526004016139a7906151d1565b60405180910390fd5b565b60008090505b816040015151811015613a3057816040015181815181106139d557fe5b602002602001015173ffffffffffffffffffffffffffffffffffffffff166108fc849081150290604051600060405180830381858888f19350505050158015613a22573d6000803e3d6000fd5b5080806001019150506139b8565b505050565b8260028101928215613a64579160200282015b82811115613a63578235825591602001919060010190613a48565b5b509050613a719190613dc3565b5090565b50805460018160011615610100020316600290046000825580601f10613a9b5750613aba565b601f016020900490600052602060002090810190613ab99190613dc3565b5b50565b828054600181600116156101000203166002900490600052602060002090601f016020900481019282601f10613afe57805160ff1916838001178555613b2c565b82800160010185558215613b2c579182015b82811115613b2b578251825591602001919060010190613b10565b5b509050613b399190613dc3565b5090565b828054600181600116156101000203166002900490600052602060002090601f016020900481019282601f10613b7e57805160ff1916838001178555613bac565b82800160010185558215613bac579182015b82811115613bab578251825591602001919060010190613b90565b5b509050613bb99190613dc3565b5090565b828054600181600116156101000203166002900490600052602060002090601f016020900481019282601f10613bfe57803560ff1916838001178555613c2c565b82800160010185558215613c2c579182015b82811115613c2b578235825591602001919060010190613c10565b5b509050613c399190613dc3565b5090565b828054828255906000526020600020908101928215613ccc579160200282015b82811115613ccb57823573ffffffffffffffffffffffffffffffffffffffff168260006101000a81548173ffffffffffffffffffffffffffffffffffffffff021916908373ffffffffffffffffffffffffffffffffffffffff16021790555091602001919060010190613c5d565b5b509050613cd99190613de8565b5090565b604051806101400160405280600073ffffffffffffffffffffffffffffffffffffffff1681526020016000151581526020016060815260200160006001811115613d2357fe5b815260200160608152602001600063ffffffff168152602001613d44613e2b565b81526020016060815260200160006006811115613d5d57fe5b8152602001606081525090565b6040518060e001604052806000815260200160008152602001600081526020016000815260200160008152602001600073ffffffffffffffffffffffffffffffffffffffff168152602001613dbd613e4d565b81525090565b613de591905b80821115613de1576000816000905550600101613dc9565b5090565b90565b613e2891905b80821115613e2457600081816101000a81549073ffffffffffffffffffffffffffffffffffffffff021916905550600101613dee565b5090565b90565b6040518060400160405280600290602082028038833980820191505090505090565b604051806040016040528060608152602001606081525090565b600081359050613e7681615715565b92915050565b600081359050613e8b8161572c565b92915050565b60008083601f840112613ea357600080fd5b8235905067ffffffffffffffff811115613ebc57600080fd5b602083019150836020820283011115613ed457600080fd5b9250929050565b600081905082604060020282011115613ef357600080fd5b92915050565b600082601f830112613f0a57600080fd5b6002613f1d613f1882615396565b615369565b91508183856040840282011115613f3357600080fd5b60005b83811015613f635781613f498882613f8b565b845260208401935060408301925050600181019050613f36565b5050505092915050565b600081905082602060020282011115613f8557600080fd5b92915050565b600082601f830112613f9c57600080fd5b6002613faf613faa826153b8565b615369565b91508183856020840282011115613fc557600080fd5b60005b83811015613ff55781613fdb8882614165565b845260208401935060208301925050600181019050613fc8565b5050505092915050565b600082601f83011261401057600080fd5b600261402361401e826153da565b615369565b9150818385602084028201111561403957600080fd5b60005b83811015614069578161404f8882614165565b84526020840193506020830192505060018101905061403c565b5050505092915050565b60008135905061408281615743565b92915050565b60008151905061409781615743565b92915050565b6000813590506140ac8161575a565b92915050565b6000813590506140c18161576a565b92915050565b60008083601f8401126140d957600080fd5b8235905067ffffffffffffffff8111156140f257600080fd5b60208301915083600182028301111561410a57600080fd5b9250929050565b600082601f83011261412257600080fd5b8135614135614130826153fc565b615369565b9150808252602083016020830185838301111561415157600080fd5b61415c83828461566e565b50505092915050565b60008135905061417481615781565b92915050565b60008135905061418981615798565b92915050565b6000602082840312156141a157600080fd5b60006141af84828501613e67565b91505092915050565b6000806000806000806000806000806101008b8d0312156141d857600080fd5b60006141e68d828e01613f6d565b9a505060408b013567ffffffffffffffff81111561420357600080fd5b61420f8d828e016140c7565b995099505060606142228d828e0161417a565b97505060808b013567ffffffffffffffff81111561423f57600080fd5b61424b8d828e016140c7565b965096505060a061425e8d828e0161409d565b94505060c061426f8d828e01614073565b93505060e08b013567ffffffffffffffff81111561428c57600080fd5b6142988d828e01613e91565b92509250509295989b9194979a5092959850565b6000602082840312156142be57600080fd5b60006142cc84828501614088565b91505092915050565b6000602082840312156142e757600080fd5b60006142f584828501614165565b91505092915050565b6000806000806000806000610180888a03121561431a57600080fd5b60006143288a828b01614165565b97505060206143398a828b01613e7c565b965050604061434a8a828b01614165565b955050606061435b8a828b01614165565b945050608061436c8a828b01613f6d565b93505060c061437d8a828b01613edb565b92505061014061438f8a828b01613f6d565b91505092959891949750929550565b60008060008061012085870312156143b557600080fd5b60006143c387828801614165565b94505060206143d487828801613f6d565b93505060606143e587828801613edb565b92505060e06143f687828801613f6d565b91505092959194509250565b6000806000806000610160868803121561441b57600080fd5b600061442988828901614165565b955050602061443a88828901613f6d565b945050606061444b88828901613edb565b93505060e061445c88828901613f6d565b92505061012061446e88828901613f6d565b9150509295509295909350565b600080600080600080610160878903121561449557600080fd5b60006144a389828a01614165565b96505060206144b489828a01613fff565b95505060606144c589828a01613ef9565b94505060e06144d689828a01613fff565b93505061012087013567ffffffffffffffff8111156144f457600080fd5b61450089828a01614111565b92505061014087013567ffffffffffffffff81111561451e57600080fd5b61452a89828a01614111565b9150509295509295509295565b6000806040838503121561454a57600080fd5b600061455885828601614165565b9250506020614569858286016140b2565b9150509250929050565b60008060006040848603121561458857600080fd5b600061459686828701614165565b935050602084013567ffffffffffffffff8111156145b357600080fd5b6145bf868287016140c7565b92509250509250925092565b6000806000606084860312156145e057600080fd5b60006145ee86828701614165565b93505060206145ff86828701614165565b925050604061461086828701614165565b9150509250925092565b60006146268383614685565b60208301905092915050565b600061463e8383614843565b60408301905092915050565b60006146568383614ec7565b905092915050565b600061466a8383614f63565b60208301905092915050565b61467f81615614565b82525050565b61468e8161558c565b82525050565b61469d8161558c565b82525050565b6146ac8161557a565b82525050565b60006146bd82615470565b6146c7818561550b565b93506146d283615428565b8060005b838110156147035781516146ea888261461a565b97506146f5836154bd565b9250506001810190506146d6565b5085935050505092915050565b6147198161547b565b614723818461551c565b925061472e82615438565b8060005b8381101561475f5781516147468782614632565b9650614751836154ca565b925050600181019050614732565b505050505050565b600061477282615486565b61477c8185615527565b93508360208202850161478e85615442565b8060005b858110156147ca57848403895281516147ab858261464a565b94506147b6836154d7565b925060208a01995050600181019050614792565b50829750879550505050505092915050565b6147e86040838361566e565b5050565b6147f58161549c565b6147ff8184615543565b925061480a8261545c565b8060005b8381101561483b578151614822878261465e565b965061482d836154f1565b92505060018101905061480e565b505050505050565b61484c81615491565b6148568184615538565b925061486182615452565b8060005b83811015614892578151614879878261465e565b9650614884836154e4565b925050600181019050614865565b505050505050565b6148a3816154a7565b6148ad8184615543565b92506148b882615466565b8060005b838110156148f0576148cd826156ca565b6148d7878261465e565b96506148e2836154fe565b9250506001810190506148bc565b505050505050565b6149018161559e565b82525050565b6149108161559e565b82525050565b61491f81615626565b82525050565b61492e81615626565b82525050565b61493d81615638565b82525050565b61494c81615638565b82525050565b61495b816155d0565b82525050565b600061496c826154b2565b614976818561554e565b935061498681856020860161567d565b61498f816156dd565b840191505092915050565b60006149a5826154b2565b6149af818561555f565b93506149bf81856020860161567d565b6149c8816156dd565b840191505092915050565b60006149e060118361555f565b91507f4c6f636174696f6e206e6f74206f7665720000000000000000000000000000006000830152602082019050919050565b6000614a2060108361555f565b91507f4e6f206f666665722072756e6e696e67000000000000000000000000000000006000830152602082019050919050565b6000614a60601c8361555f565b91507f4e6f74207468652074656e616e74206e6f7220746865206f776e6572000000006000830152602082019050919050565b6000614aa060108361555f565b91507f4e6f742067617264656e206f776e6572000000000000000000000000000000006000830152602082019050919050565b6000614ae060128361555f565b91507f446973707574652069732072756e6e696e6700000000000000000000000000006000830152602082019050919050565b6000614b2060138361555f565b91507f4e6f206c6f636174696f6e2072756e6e696e67000000000000000000000000006000830152602082019050919050565b6000614b6060128361555f565b91507f4e6f20646973707574652072756e6e696e6700000000000000000000000000006000830152602082019050919050565b6000614ba0600e8361555f565b91507f4e6f74207468652074656e616e740000000000000000000000000000000000006000830152602082019050919050565b6000614be0601a8361555f565b91507f4e6f742061646d696e6973747261746f7220636f6e74726163740000000000006000830152602082019050919050565b6000614c2060168361555f565b91507f4e6f742074686520636f72726563742074656e616e74000000000000000000006000830152602082019050919050565b6000614c6060138361555f565b91507f496e73756666696369656e7420616d6f756e74000000000000000000000000006000830152602082019050919050565b6000614ca060178361555f565b91507f50726f6f66206f662073656372657420696e76616c69640000000000000000006000830152602082019050919050565b6000614ce060198361555f565b91507f4772616465206973206e6f7420696e2072616e676520302d35000000000000006000830152602082019050919050565b6000614d2060138361555f565b91507f436f6465206973206e6f74206d697373696e67000000000000000000000000006000830152602082019050919050565b6000614d60600f8361555f565b91507f47617264656e206e6f74206672656500000000000000000000000000000000006000830152602082019050919050565b60006040830160008301518482036000860152614db08282614961565b91505060208301518482036020860152614dca8282614961565b9150508091505092915050565b600061016083016000830151614df06000860182614685565b506020830151614e0360208601826148f8565b5060408301518482036040860152614e1b82826146b2565b9150506060830151614e306060860182614916565b5060808301518482036080860152614e488282614961565b91505060a0830151614e5d60a0860182614f90565b5060c0830151614e7060c0860182614843565b5060e0830151848203610100860152614e898282614961565b915050610100830151614ea0610120860182614934565b50610120830151848203610140860152614eba8282614767565b9150508091505092915050565b600060e083016000830151614edf6000860182614952565b506020830151614ef26020860182614f63565b506040830151614f056040860182614f63565b506060830151614f186060860182614f63565b506080830151614f2b6080860182614f63565b5060a0830151614f3e60a0860182614685565b5060c083015184820360c0860152614f568282614d93565b9150508091505092915050565b614f6c816155fa565b82525050565b614f7b816155fa565b82525050565b614f8a816155fa565b82525050565b614f9981615604565b82525050565b614fa881615604565b82525050565b6000602082019050614fc360008301846146a3565b92915050565b600060e082019050614fde600083018a614694565b614feb6020830189614907565b614ff86040830188614925565b818103606083015261500a818761499a565b90506150196080830186614f9f565b81810360a083015261502b818561499a565b905061503a60c0830184614943565b98975050505050505050565b600060408201905061505b6000830185614676565b6150686020830184614f72565b9392505050565b60006101408201905061508560008301876147ec565b6150926040830186614710565b61509f60c08301856147ec565b6150ad61010083018461489a565b95945050505050565b60006020820190506150cb6000830184614907565b92915050565b600060208201905081810360008301526150ea816149d3565b9050919050565b6000602082019050818103600083015261510a81614a13565b9050919050565b6000602082019050818103600083015261512a81614a53565b9050919050565b6000602082019050818103600083015261514a81614a93565b9050919050565b6000602082019050818103600083015261516a81614ad3565b9050919050565b6000602082019050818103600083015261518a81614b13565b9050919050565b600060208201905081810360008301526151aa81614b53565b9050919050565b600060208201905081810360008301526151ca81614b93565b9050919050565b600060208201905081810360008301526151ea81614bd3565b9050919050565b6000602082019050818103600083015261520a81614c13565b9050919050565b6000602082019050818103600083015261522a81614c53565b9050919050565b6000602082019050818103600083015261524a81614c93565b9050919050565b6000602082019050818103600083015261526a81614cd3565b9050919050565b6000602082019050818103600083015261528a81614d13565b9050919050565b600060208201905081810360008301526152aa81614d53565b9050919050565b600060208201905081810360008301526152cb8184614dd7565b905092915050565b60006020820190506152e86000830184614f72565b92915050565b60006060820190506153036000830185614f72565b61531060208301846147dc565b9392505050565b600060408201905061532c6000830185614f72565b6153396020830184614f72565b9392505050565b60006040820190506153556000830185614f81565b6153626020830184614f81565b9392505050565b6000604051905081810181811067ffffffffffffffff8211171561538c57600080fd5b8060405250919050565b600067ffffffffffffffff8211156153ad57600080fd5b602082029050919050565b600067ffffffffffffffff8211156153cf57600080fd5b602082029050919050565b600067ffffffffffffffff8211156153f157600080fd5b602082029050919050565b600067ffffffffffffffff82111561541357600080fd5b601f19601f8301169050602081019050919050565b6000819050602082019050919050565b6000819050919050565b6000819050602082019050919050565b6000819050919050565b6000819050919050565b6000819050919050565b600081519050919050565b600060029050919050565b600081519050919050565b600060029050919050565b600060029050919050565b600060029050919050565b600081519050919050565b6000602082019050919050565b6000602082019050919050565b6000602082019050919050565b6000602082019050919050565b6000602082019050919050565b6000600182019050919050565b600082825260208201905092915050565b600081905092915050565b600082825260208201905092915050565b600081905092915050565b600081905092915050565b600082825260208201905092915050565b600082825260208201905092915050565b6000819050919050565b6000615585826155da565b9050919050565b6000615597826155da565b9050919050565b60008115159050919050565b60008190506155b8826156fb565b919050565b60008190506155cb82615708565b919050565b6000819050919050565b600073ffffffffffffffffffffffffffffffffffffffff82169050919050565b6000819050919050565b600063ffffffff82169050919050565b600061561f8261564a565b9050919050565b6000615631826155aa565b9050919050565b6000615643826155bd565b9050919050565b60006156558261565c565b9050919050565b6000615667826155da565b9050919050565b82818337600083830152505050565b60005b8381101561569b578082015181840152602081019050615680565b838111156156aa576000848401525b50505050565b60006156c36156be836156ee565b615570565b9050919050565b60006156d682546156b0565b9050919050565b6000601f19601f8301169050919050565b60008160001c9050919050565b6002811061570557fe5b50565b6007811061571257fe5b50565b61571e8161557a565b811461572957600080fd5b50565b6157358161558c565b811461574057600080fd5b50565b61574c8161559e565b811461575757600080fd5b50565b6002811061576757600080fd5b50565b615773816155d0565b811461577e57600080fd5b50565b61578a816155fa565b811461579557600080fd5b50565b6157a181615604565b81146157ac57600080fd5b5056fea264697066735822122003fa18c00e682374463120a7ebeca66a66f6a969e0970175bef7f29e1d42967e64736f6c63430006010033",
  "source": "// SPDX-License-Identifier: MIT\r\npragma experimental ABIEncoderV2; //voir si c'est necessaire //linter solidity\r\npragma solidity >=0.4.22 <0.8.0;\r\nimport \"./AdminManager.sol\";\r\nimport \"./Verifier.sol\";\r\nimport {GLibrary} from \"./GLibrary.sol\";\r\n\r\ncontract GardenManager {\r\n    Verifier VerifierContract;\r\n    AdminManager AManager;\r\n    uint public GardenCount;\r\n    mapping (uint=>GLibrary.Garden) public AllGarden;\r\n    event newGarden(address _owner, uint _gardenIndex);\r\n    \r\n    constructor (address _adminContract, address _verifierContract) public {\r\n        AManager = AdminManager(_adminContract);\r\n        VerifierContract = Verifier(_verifierContract);\r\n    }\r\n    \r\n    function OnlyContractAdmin()private view{\r\n        require(msg.sender == address(AManager), \"Not administrator contract\");\r\n    }\r\n    \r\n    modifier OnlyOwner(uint gardenIndex){\r\n        require(AllGarden[gardenIndex].owner==msg.sender, \"Not garden owner\");\r\n        _;\r\n    }\r\n    modifier OnlyValidProof(uint _gardenIndex, uint[2] memory _proofA, uint[2][2] memory _proofB,\r\n            uint[2] memory _proofC){\r\n        require(VerifierContract.verifyTx(_proofA,_proofB,_proofC,AllGarden[_gardenIndex].secretHash), \"Proof of secret invalid\");\r\n        _;\r\n    }\r\n\r\n    function GetGardenById(uint _gardenIndex)external view returns(GLibrary.Garden memory){\r\n        return AllGarden[_gardenIndex];\r\n    }\r\n    \r\n    function GetVerifierContractAddress()external view returns(address){\r\n        return address(VerifierContract);\r\n    }\r\n    \r\n    function ModifyVerifierContract(address _verifierContract) public  returns(address){\r\n        OnlyContractAdmin();\r\n        VerifierContract = Verifier(_verifierContract);\r\n        return _verifierContract;\r\n    }\r\n\r\n    function CreateGarden(uint[2] calldata _secretHash, string calldata _district,uint32 _area, string calldata _contact, GLibrary.GardenType _gardenType, bool _multipleOwners, address payable[] calldata _coOwners) external{\r\n        GLibrary.Garden storage garden = AllGarden[GardenCount];\r\n        garden.area=_area;\r\n        garden.contact=_contact;\r\n        garden.gardenType=_gardenType;\r\n        garden.secretHash=_secretHash;\r\n        garden.district=_district;\r\n        garden.status=GLibrary.Status.Waiting;\r\n        garden.owner=msg.sender;\r\n        if(_multipleOwners){\r\n            garden.multipleOwners=true;\r\n            garden.coOwners=_coOwners;\r\n        }\r\n        AManager.AddGarden(GardenCount,_secretHash);\r\n        GardenCount++;\r\n        emit newGarden(msg.sender,GardenCount-1);\r\n    }\r\n\r\n    function UpdateGardenContact(uint _gardenIndex, string calldata _contact) external OnlyOwner(_gardenIndex) {\r\n        AllGarden[_gardenIndex].contact =_contact;\r\n    }\r\n\r\n    function UpdateGardenSecretHash(uint _gardenIndex, uint[2] calldata _proofA, uint[2][2] calldata _proofB,\r\n            uint[2] calldata _proofC, uint[2] calldata _newSecretHash) external OnlyOwner(_gardenIndex) OnlyValidProof(_gardenIndex,_proofA,_proofB,_proofC){\r\n        AllGarden[_gardenIndex].secretHash =_newSecretHash;\r\n    }\r\n\r\n    function AcceptGarden(uint _gardenIndex) public  {\r\n        OnlyContractAdmin();\r\n        AllGarden[_gardenIndex].status= GLibrary.Status.Free;\r\n    }\r\n\r\n    function RejectGarden(uint _gardenIndex) public  {\r\n        OnlyContractAdmin();\r\n        AllGarden[_gardenIndex].status= GLibrary.Status.Blacklist;\r\n    }        \r\n\r\n    function GetLastRentForGarden(uint _gardenIndex) private view returns(GLibrary.Rent storage){\r\n        return AllGarden[_gardenIndex].rents[AllGarden[_gardenIndex].rents.length-1];\r\n    }\r\n\r\n    function ProposeGardenOffer(uint _gardenIndex, address payable _tenant, \r\n    uint _rentingDuration, uint _price, uint[2] calldata _proofA, uint[2][2] calldata _proofB,\r\n            uint[2] calldata _proofC) external OnlyOwner(_gardenIndex) OnlyValidProof(_gardenIndex,_proofA,_proofB,_proofC){\r\n        require(AllGarden[_gardenIndex].status==GLibrary.Status.Free, \"Garden not free\");\r\n        GLibrary.Garden storage garden = AllGarden[_gardenIndex];        \r\n        garden.status= GLibrary.Status.Blocked;\r\n        garden.rents.push();\r\n        GLibrary.Rent storage lastRent = GetLastRentForGarden(_gardenIndex);\r\n        lastRent.duration=_rentingDuration;\r\n        lastRent.price=_price;\r\n        lastRent.tenant=_tenant;\r\n        lastRent.rate=-1;\r\n    }\r\n\r\n    function DeleteGardenOffer(uint _gardenIndex, uint[2] calldata _proofA, uint[2][2] calldata _proofB,\r\n            uint[2] calldata _proofC) external OnlyOwner(_gardenIndex) OnlyValidProof(_gardenIndex,_proofA,_proofB,_proofC){\r\n        require(AllGarden[_gardenIndex].status== GLibrary.Status.Blocked,\"No offer running\");\r\n        AllGarden[_gardenIndex].status= GLibrary.Status.Free;\r\n        AllGarden[_gardenIndex].rents.pop();\r\n    }\r\n\r\n    function AcceptGardenOffer(uint _gardenIndex)external payable{\r\n        GLibrary.Garden storage garden = AllGarden[_gardenIndex];\r\n        GLibrary.Rent storage lastRent = GetLastRentForGarden(_gardenIndex);\r\n        require(garden.status== GLibrary.Status.Blocked, \"No offer running\");\r\n        require(lastRent.tenant== msg.sender, \"Not the correct tenant\");\r\n        require(lastRent.price <= msg.value, \"Insufficient amount\");\r\n        lastRent.balance=msg.value;\r\n        garden.status=GLibrary.Status.CodeWaiting;\r\n    }\r\n\r\n    function AddAccessCodeToGarden(uint _gardenIndex, uint[2] memory _proofA, uint[2][2] memory _proofB,\r\n            uint[2] memory _proofC, string memory _hashCode,string memory _encryptedCode) public OnlyOwner(_gardenIndex) OnlyValidProof(_gardenIndex,_proofA,_proofB,_proofC){\r\n        require(AllGarden[_gardenIndex].status==GLibrary.Status.CodeWaiting,\"No location running\");\r\n        GLibrary.Garden storage garden = AllGarden[_gardenIndex];\r\n        GLibrary.Rent storage lastRent = GetLastRentForGarden(_gardenIndex);\r\n        lastRent.beginning=block.timestamp;\r\n        lastRent.accessCode=GLibrary.AccessCode(_hashCode,_encryptedCode);\r\n        garden.status=GLibrary.Status.Location;\r\n    }\r\n\r\n    function GetRefundBeforeLocation(uint _gardenIndex) external {\r\n        require(AllGarden[_gardenIndex].status==GLibrary.Status.CodeWaiting,\"Code is not missing\");\r\n        GLibrary.Rent storage lastRent = GetLastRentForGarden(_gardenIndex);\r\n        require(lastRent.tenant==msg.sender,\"Not the tenant\");\r\n        msg.sender.transfer(lastRent.balance);\r\n        AllGarden[_gardenIndex].status=GLibrary.Status.Free;\r\n        lastRent.balance =0;\r\n    }\r\n    function TransferPaymentToMultipleOwners(uint _amount, GLibrary.Garden memory _garden) internal {\r\n        for (uint i = 0; i < _garden.coOwners.length; i++) {\r\n            _garden.coOwners[i].transfer(_amount);\r\n        }\r\n    }\r\n\r\n    function UpdateLocationStatusAndGetPayment(uint _gardenIndex, uint[2] calldata _proofA, uint[2][2] calldata _proofB,\r\n            uint[2] calldata _proofC)external OnlyOwner(_gardenIndex) OnlyValidProof(_gardenIndex,_proofA,_proofB,_proofC){\r\n        GLibrary.Rent storage lastRent = GetLastRentForGarden(_gardenIndex);\r\n        GLibrary.Garden storage garden = AllGarden[_gardenIndex];\r\n        require(garden.status!= GLibrary.Status.Dispute, \"Dispute is running\");\r\n        require(GLibrary.IsRentOver(lastRent.beginning,lastRent.duration),\"Location not over\");\r\n        if(garden.multipleOwners){\r\n            uint payroll = lastRent.balance/garden.coOwners.length;\r\n            TransferPaymentToMultipleOwners(payroll,garden);    \r\n        }else{\r\n            garden.owner.transfer(lastRent.balance);\r\n        }\r\n        lastRent.balance=0;\r\n        lastRent.accessCode.hashCode=\"\";\r\n        AllGarden[_gardenIndex].status=GLibrary.Status.Free;\r\n    }\r\n\r\n    function AddGradeToGarden(uint _gardenIndex,int _grade)external returns(bool saved){\r\n        require(_grade<6 && _grade >=0, \"Grade is not in range 0-5\");\r\n        saved=false;\r\n        GLibrary.Rent[] storage allRents = AllGarden[_gardenIndex].rents;\r\n        for (uint i = 0; i < allRents.length; i++) {\r\n            if(msg.sender== allRents[i].tenant && allRents[i].rate==int(-1) && GLibrary.IsRentOver(allRents[i].beginning,allRents[i].duration)){\r\n                allRents[i].rate=_grade;\r\n                saved=true;\r\n            }\r\n        }\r\n        return saved;\r\n    }\r\n\r\n    function AddDispute(uint _gardenIndex) public {\r\n        require(AllGarden[_gardenIndex].status==GLibrary.Status.Location,\"No location running\");\r\n        GLibrary.Rent memory lastRent = GetLastRentForGarden(_gardenIndex);\r\n        require(lastRent.tenant==msg.sender || AllGarden[_gardenIndex].owner==msg.sender,\"Not the tenant nor the owner\");\r\n        AllGarden[_gardenIndex].status = GLibrary.Status.Dispute;\r\n        AManager.AddDispute(_gardenIndex,lastRent.balance);\r\n    }\r\n\r\n    function CloseDispute(uint _gardenIndex, uint _ownerAmount, uint _tenantAmount) public {\r\n        OnlyContractAdmin();\r\n        GLibrary.Garden storage garden = AllGarden[_gardenIndex];\r\n        require(garden.status==GLibrary.Status.Dispute, \"No dispute running\");\r\n        GLibrary.Rent storage lastRent = GetLastRentForGarden(_gardenIndex);\r\n        if(_tenantAmount!=0){\r\n            lastRent.tenant.transfer(_tenantAmount);\r\n        }\r\n        if(_ownerAmount!=0){\r\n                if(garden.multipleOwners){\r\n                uint payroll = _ownerAmount/garden.coOwners.length;\r\n                TransferPaymentToMultipleOwners(payroll,garden);\r\n            }else{\r\n                garden.owner.transfer(_ownerAmount);\r\n            }\r\n        }\r\n        lastRent.balance=0;\r\n        lastRent.accessCode.hashCode=\"\";\r\n        garden.status=GLibrary.Status.Free;\r\n    }\r\n}",
  "sourcePath": "C:\\Users\\aymeric.noel\\Desktop\\ZKP\\POC_ZKP\\smart_contracts\\contracts\\GardenManager.sol",
  "compiler": {
    "name": "solc",
    "version": "0.6.1+commit.e6f7d5a4.Emscripten.clang"
  },
  "schemaVersion": "3.3.4",
  "updatedAt": "2021-03-30T13:10:41.463Z",
  "networkType": "ethereum",
  "devdoc": {
    "methods": {}
  },
  "userdoc": {
    "methods": {}
  }
}