{
  "contractName": "GardenManager",
  "abi": [
    {
      "inputs": [
        {
          "internalType": "address",
          "name": "_adminContract",
          "type": "address"
        },
        {
          "internalType": "address",
          "name": "_verifierContract",
          "type": "address"
        }
      ],
      "stateMutability": "nonpayable",
      "type": "constructor"
    },
    {
      "inputs": [
        {
          "internalType": "uint32",
          "name": "",
          "type": "uint32"
        }
      ],
      "name": "AllGarden",
      "outputs": [
        {
          "internalType": "address payable",
          "name": "owner",
          "type": "address"
        },
        {
          "internalType": "bool",
          "name": "multipleOwners",
          "type": "bool"
        },
        {
          "internalType": "enum GardenManager.GardenType",
          "name": "gardenType",
          "type": "uint8"
        },
        {
          "internalType": "string",
          "name": "district",
          "type": "string"
        },
        {
          "internalType": "uint32",
          "name": "area",
          "type": "uint32"
        },
        {
          "internalType": "string",
          "name": "contact",
          "type": "string"
        },
        {
          "internalType": "enum GardenManager.Status",
          "name": "status",
          "type": "uint8"
        }
      ],
      "stateMutability": "view",
      "type": "function",
      "constant": true
    },
    {
      "inputs": [],
      "name": "GardenCount",
      "outputs": [
        {
          "internalType": "uint32",
          "name": "",
          "type": "uint32"
        }
      ],
      "stateMutability": "view",
      "type": "function",
      "constant": true
    },
    {
      "inputs": [],
      "name": "GetVerifierContractAddress",
      "outputs": [
        {
          "internalType": "address",
          "name": "",
          "type": "address"
        }
      ],
      "stateMutability": "view",
      "type": "function",
      "constant": true
    },
    {
      "inputs": [
        {
          "internalType": "address",
          "name": "_verifierContract",
          "type": "address"
        }
      ],
      "name": "ModifyVerifierContract",
      "outputs": [
        {
          "internalType": "address",
          "name": "",
          "type": "address"
        }
      ],
      "stateMutability": "nonpayable",
      "type": "function"
    },
    {
      "inputs": [
        {
          "internalType": "uint256[2]",
          "name": "_secretHash",
          "type": "uint256[2]"
        },
        {
          "internalType": "string",
          "name": "_district",
          "type": "string"
        },
        {
          "internalType": "uint32",
          "name": "_area",
          "type": "uint32"
        },
        {
          "internalType": "string",
          "name": "_contact",
          "type": "string"
        },
        {
          "internalType": "enum GardenManager.GardenType",
          "name": "_gardenType",
          "type": "uint8"
        },
        {
          "internalType": "bool",
          "name": "_multipleOwners",
          "type": "bool"
        },
        {
          "internalType": "address payable[]",
          "name": "_coOwners",
          "type": "address[]"
        }
      ],
      "name": "CreateGarden",
      "outputs": [
        {
          "internalType": "uint32",
          "name": "index",
          "type": "uint32"
        }
      ],
      "stateMutability": "nonpayable",
      "type": "function"
    },
    {
      "inputs": [
        {
          "internalType": "uint32",
          "name": "_gardenIndex",
          "type": "uint32"
        },
        {
          "internalType": "string",
          "name": "_contact",
          "type": "string"
        }
      ],
      "name": "UpdateGardenContact",
      "outputs": [],
      "stateMutability": "nonpayable",
      "type": "function"
    },
    {
      "inputs": [
        {
          "internalType": "uint32",
          "name": "_gardenIndex",
          "type": "uint32"
        },
        {
          "internalType": "uint256[2]",
          "name": "_proofA",
          "type": "uint256[2]"
        },
        {
          "internalType": "uint256[2][2]",
          "name": "_proofB",
          "type": "uint256[2][2]"
        },
        {
          "internalType": "uint256[2]",
          "name": "_proofC",
          "type": "uint256[2]"
        },
        {
          "internalType": "uint256[2]",
          "name": "_newSecretHash",
          "type": "uint256[2]"
        }
      ],
      "name": "UpdateGardenSecretHash",
      "outputs": [],
      "stateMutability": "nonpayable",
      "type": "function"
    },
    {
      "inputs": [
        {
          "internalType": "uint32",
          "name": "_gardenIndex",
          "type": "uint32"
        }
      ],
      "name": "AcceptGarden",
      "outputs": [],
      "stateMutability": "nonpayable",
      "type": "function"
    },
    {
      "inputs": [
        {
          "internalType": "uint32",
          "name": "_gardenIndex",
          "type": "uint32"
        }
      ],
      "name": "RejectGarden",
      "outputs": [],
      "stateMutability": "nonpayable",
      "type": "function"
    },
    {
      "inputs": [
        {
          "internalType": "uint32",
          "name": "_gardenIndex",
          "type": "uint32"
        },
        {
          "internalType": "address payable",
          "name": "_tenant",
          "type": "address"
        },
        {
          "internalType": "uint256",
          "name": "_rentingDuration",
          "type": "uint256"
        },
        {
          "internalType": "uint256",
          "name": "_price",
          "type": "uint256"
        },
        {
          "internalType": "uint256[2]",
          "name": "_proofA",
          "type": "uint256[2]"
        },
        {
          "internalType": "uint256[2][2]",
          "name": "_proofB",
          "type": "uint256[2][2]"
        },
        {
          "internalType": "uint256[2]",
          "name": "_proofC",
          "type": "uint256[2]"
        }
      ],
      "name": "ProposeGardenOffer",
      "outputs": [],
      "stateMutability": "nonpayable",
      "type": "function"
    },
    {
      "inputs": [
        {
          "internalType": "uint32",
          "name": "_gardenIndex",
          "type": "uint32"
        },
        {
          "internalType": "uint256[2]",
          "name": "_proofA",
          "type": "uint256[2]"
        },
        {
          "internalType": "uint256[2][2]",
          "name": "_proofB",
          "type": "uint256[2][2]"
        },
        {
          "internalType": "uint256[2]",
          "name": "_proofC",
          "type": "uint256[2]"
        }
      ],
      "name": "DeleteGardenOffer",
      "outputs": [],
      "stateMutability": "nonpayable",
      "type": "function"
    },
    {
      "inputs": [
        {
          "internalType": "uint32",
          "name": "_gardenIndex",
          "type": "uint32"
        }
      ],
      "name": "AcceptGardenOffer",
      "outputs": [],
      "stateMutability": "payable",
      "type": "function",
      "payable": true
    },
    {
      "inputs": [
        {
          "internalType": "uint32",
          "name": "_gardenIndex",
          "type": "uint32"
        },
        {
          "internalType": "uint256[2]",
          "name": "_proofA",
          "type": "uint256[2]"
        },
        {
          "internalType": "uint256[2][2]",
          "name": "_proofB",
          "type": "uint256[2][2]"
        },
        {
          "internalType": "uint256[2]",
          "name": "_proofC",
          "type": "uint256[2]"
        },
        {
          "internalType": "string",
          "name": "_hashCode",
          "type": "string"
        },
        {
          "internalType": "string",
          "name": "_encryptedCode",
          "type": "string"
        }
      ],
      "name": "AddAccessCodeToGarden",
      "outputs": [],
      "stateMutability": "nonpayable",
      "type": "function"
    },
    {
      "inputs": [
        {
          "internalType": "uint32",
          "name": "_gardenIndex",
          "type": "uint32"
        }
      ],
      "name": "GetRefundBeforeLocation",
      "outputs": [],
      "stateMutability": "nonpayable",
      "type": "function"
    },
    {
      "inputs": [
        {
          "internalType": "uint32",
          "name": "_gardenIndex",
          "type": "uint32"
        },
        {
          "internalType": "uint256[2]",
          "name": "_proofA",
          "type": "uint256[2]"
        },
        {
          "internalType": "uint256[2][2]",
          "name": "_proofB",
          "type": "uint256[2][2]"
        },
        {
          "internalType": "uint256[2]",
          "name": "_proofC",
          "type": "uint256[2]"
        }
      ],
      "name": "UpdateLocationStatusAndGetPayment",
      "outputs": [],
      "stateMutability": "nonpayable",
      "type": "function"
    },
    {
      "inputs": [
        {
          "internalType": "uint32",
          "name": "_gardenIndex",
          "type": "uint32"
        },
        {
          "internalType": "int256",
          "name": "_grade",
          "type": "int256"
        }
      ],
      "name": "AddGradeToGarden",
      "outputs": [
        {
          "internalType": "bool",
          "name": "saved",
          "type": "bool"
        }
      ],
      "stateMutability": "nonpayable",
      "type": "function"
    },
    {
      "inputs": [
        {
          "internalType": "uint32",
          "name": "_gardenIndex",
          "type": "uint32"
        }
      ],
      "name": "GetEncryptedAccessCodeForGarden",
      "outputs": [
        {
          "internalType": "string",
          "name": "",
          "type": "string"
        }
      ],
      "stateMutability": "view",
      "type": "function",
      "constant": true
    },
    {
      "inputs": [
        {
          "internalType": "uint32",
          "name": "_gardenIndex",
          "type": "uint32"
        }
      ],
      "name": "AddDispute",
      "outputs": [],
      "stateMutability": "nonpayable",
      "type": "function"
    },
    {
      "inputs": [
        {
          "internalType": "uint32",
          "name": "_gardenIndex",
          "type": "uint32"
        },
        {
          "internalType": "uint256",
          "name": "_ownerAmount",
          "type": "uint256"
        },
        {
          "internalType": "uint256",
          "name": "_tenantAmount",
          "type": "uint256"
        }
      ],
      "name": "CloseDispute",
      "outputs": [],
      "stateMutability": "nonpayable",
      "type": "function"
    }
  ],
  "bytecode": "0x60806040526000600160146101000a81548163ffffffff021916908363ffffffff1602179055503480156200003357600080fd5b50604051620058a1380380620058a18339818101604052620000599190810190620000f9565b81600160006101000a81548173ffffffffffffffffffffffffffffffffffffffff021916908373ffffffffffffffffffffffffffffffffffffffff160217905550806000806101000a81548173ffffffffffffffffffffffffffffffffffffffff021916908373ffffffffffffffffffffffffffffffffffffffff160217905550505062000188565b600081519050620000f3816200016e565b92915050565b600080604083850312156200010d57600080fd5b60006200011d85828601620000e2565b92505060206200013085828601620000e2565b9150509250929050565b600062000147826200014e565b9050919050565b600073ffffffffffffffffffffffffffffffffffffffff82169050919050565b62000179816200013a565b81146200018557600080fd5b50565b61570980620001986000396000f3fe6080604052600436106101145760003560e01c80638d341e9a116100a0578063c36461e511610064578063c36461e5146103c5578063cb0fe05f146103ee578063d04def9e1461040a578063d507192e14610433578063edb630b91461045c57610114565b80638d341e9a146102e45780639cbc1ea61461030d578063a5d6651614610336578063ac6bbf5a1461035f578063c1fe028e1461039c57610114565b80631c4e9245116100e75780631c4e9245146101d957806325810b821461021657806333f1e62f1461023f57806347c478841461027c578063850fca06146102b957610114565b80630160982d14610119578063052411cf1461014257806308d75a531461016b578063100a0adb146101ae575b600080fd5b34801561012557600080fd5b50610140600480360361013b91908101906147a5565b610485565b005b34801561014e57600080fd5b5061016960048036036101649190810190614916565b610765565b005b34801561017757600080fd5b50610192600480360361018d9190810190614678565b61084e565b6040516101a59796959493929190615016565b60405180910390f35b3480156101ba57600080fd5b506101c3610a17565b6040516101d09190614ffb565b60405180910390f35b3480156101e557600080fd5b5061020060048036036101fb91908101906148da565b610a40565b60405161020d91906150da565b60405180910390f35b34801561022257600080fd5b5061023d60048036036102389190810190614678565b610e02565b005b34801561024b57600080fd5b5061026660048036036102619190810190614678565b610e51565b60405161027391906150f5565b60405180910390f35b34801561028857600080fd5b506102a3600480360361029e919081019061455b565b6110fb565b6040516102b091906152f7565b60405180910390f35b3480156102c557600080fd5b506102ce611358565b6040516102db91906152f7565b60405180910390f35b3480156102f057600080fd5b5061030b60048036036103069190810190614678565b61136e565b005b34801561031957600080fd5b50610334600480360361032f9190810190614741565b611752565b005b34801561034257600080fd5b5061035d60048036036103589190810190614678565b611b9c565b005b34801561036b57600080fd5b5061038660048036036103819190810190614532565b611beb565b6040516103939190614ffb565b60405180910390f35b3480156103a857600080fd5b506103c360048036036103be919081019061496e565b611c3d565b005b3480156103d157600080fd5b506103ec60048036036103e79190810190614741565b6125c9565b005b61040860048036036104039190810190614678565b61320f565b005b34801561041657600080fd5b50610431600480360361042c9190810190614678565b6133b6565b005b34801561043f57600080fd5b5061045a600480360361045591908101906146a1565b613570565b005b34801561046857600080fd5b50610483600480360361047e919081019061481e565b6139c1565b005b843373ffffffffffffffffffffffffffffffffffffffff16600260008363ffffffff1663ffffffff16815260200190815260200160002060000160009054906101000a900473ffffffffffffffffffffffffffffffffffffffff1673ffffffffffffffffffffffffffffffffffffffff1614610536576040517f08c379a000000000000000000000000000000000000000000000000000000000815260040161052d90615177565b60405180910390fd5b85856002806020026040519081016040528092919082600260200280828437600081840152601f19601f82011690508083019250505050505085600280602002604051908101604052809291906000905b828210156105db578382604002016002806020026040519081016040528092919082600260200280828437600081840152601f19601f82011690508083019250505050505081526020019060010190610587565b50505050856002806020026040519081016040528092919082600260200280828437600081840152601f19601f8201169050808301925050505050506000809054906101000a900473ffffffffffffffffffffffffffffffffffffffff1673ffffffffffffffffffffffffffffffffffffffff1663621e9ec0848484600260008a63ffffffff1663ffffffff1681526020019081526020016000206005016040518563ffffffff1660e01b81526004016106989493929190615093565b60206040518083038186803b1580156106b057600080fd5b505afa1580156106c4573d6000803e3d6000fd5b505050506040513d601f19601f820116820180604052506106e8919081019061464f565b610727576040517f08c379a000000000000000000000000000000000000000000000000000000000815260040161071e90615277565b60405180910390fd5b85600260008c63ffffffff1663ffffffff168152602001908152602001600020600501906002610758929190613e79565b5050505050505050505050565b823373ffffffffffffffffffffffffffffffffffffffff16600260008363ffffffff1663ffffffff16815260200190815260200160002060000160009054906101000a900473ffffffffffffffffffffffffffffffffffffffff1673ffffffffffffffffffffffffffffffffffffffff1614610816576040517f08c379a000000000000000000000000000000000000000000000000000000000815260040161080d90615177565b60405180910390fd5b8282600260008763ffffffff1663ffffffff1681526020019081526020016000206007019190610847929190613eb9565b5050505050565b60026020528060005260406000206000915090508060000160009054906101000a900473ffffffffffffffffffffffffffffffffffffffff16908060000160149054906101000a900460ff16908060020160009054906101000a900460ff1690806003018054600181600116156101000203166002900480601f0160208091040260200160405190810160405280929190818152602001828054600181600116156101000203166002900480156109465780601f1061091b57610100808354040283529160200191610946565b820191906000526020600020905b81548152906001019060200180831161092957829003601f168201915b5050505050908060040160009054906101000a900463ffffffff1690806007018054600181600116156101000203166002900480601f0160208091040260200160405190810160405280929190818152602001828054600181600116156101000203166002900480156109fa5780601f106109cf576101008083540402835291602001916109fa565b820191906000526020600020905b8154815290600101906020018083116109dd57829003601f168201915b5050505050908060080160009054906101000a900460ff16905087565b60008060009054906101000a900473ffffffffffffffffffffffffffffffffffffffff16905090565b6000600682128015610a53575060008212155b610a92576040517f08c379a0000000000000000000000000000000000000000000000000000000008152600401610a8990615297565b60405180910390fd5b600090506000600260008563ffffffff1663ffffffff168152602001908152602001600020600901905060008090505b8180549050811015610df757818181548110610ada57fe5b906000526020600020906009020160060160009054906101000a900473ffffffffffffffffffffffffffffffffffffffff1673ffffffffffffffffffffffffffffffffffffffff163373ffffffffffffffffffffffffffffffffffffffff16148015610b8257507fffffffffffffffffffffffffffffffffffffffffffffffffffffffffffffffff828281548110610b6e57fe5b906000526020600020906009020160000154145b8015610dbe5750610dbd828281548110610b9857fe5b906000526020600020906009020160405180610100016040529081600082015481526020016001820160009054906101000a900463ffffffff1663ffffffff1663ffffffff168152602001600282015481526020016003820154815260200160048201548152602001600582015481526020016006820160009054906101000a900473ffffffffffffffffffffffffffffffffffffffff1673ffffffffffffffffffffffffffffffffffffffff1673ffffffffffffffffffffffffffffffffffffffff16815260200160078201604051806040016040529081600082018054600181600116156101000203166002900480601f016020809104026020016040519081016040528092919081815260200182805460018160011615610100020316600290048015610d095780601f10610cde57610100808354040283529160200191610d09565b820191906000526020600020905b815481529060010190602001808311610cec57829003601f168201915b50505050508152602001600182018054600181600116156101000203166002900480601f016020809104026020016040519081016040528092919081815260200182805460018160011615610100020316600290048015610dab5780601f10610d8057610100808354040283529160200191610dab565b820191906000526020600020905b815481529060010190602001808311610d8e57829003601f168201915b50505050508152505081525050613cd2565b5b15610dea5783828281548110610dd057fe5b906000526020600020906009020160000181905550600192505b8080600101915050610ac2565b508191505092915050565b610e0a613cf8565b6001600260008363ffffffff1663ffffffff16815260200190815260200160002060080160006101000a81548160ff02191690836006811115610e4957fe5b021790555050565b6060610e5b613f39565b610e6483613d8a565b60405180610100016040529081600082015481526020016001820160009054906101000a900463ffffffff1663ffffffff1663ffffffff168152602001600282015481526020016003820154815260200160048201548152602001600582015481526020016006820160009054906101000a900473ffffffffffffffffffffffffffffffffffffffff1673ffffffffffffffffffffffffffffffffffffffff1673ffffffffffffffffffffffffffffffffffffffff16815260200160078201604051806040016040529081600082018054600181600116156101000203166002900480601f016020809104026020016040519081016040528092919081815260200182805460018160011615610100020316600290048015610fc75780601f10610f9c57610100808354040283529160200191610fc7565b820191906000526020600020905b815481529060010190602001808311610faa57829003601f168201915b50505050508152602001600182018054600181600116156101000203166002900480601f0160208091040260200160405190810160405280929190818152602001828054600181600116156101000203166002900480156110695780601f1061103e57610100808354040283529160200191611069565b820191906000526020600020905b81548152906001019060200180831161104c57829003601f168201915b5050505050815250508152505090503373ffffffffffffffffffffffffffffffffffffffff168160c0015173ffffffffffffffffffffffffffffffffffffffff16146110ea576040517f08c379a00000000000000000000000000000000000000000000000000000000081526004016110e1906151f7565b60405180910390fd5b8060e0015160200151915050919050565b60008060026000600160149054906101000a900463ffffffff1663ffffffff1663ffffffff1681526020019081526020016000209050888160040160006101000a81548163ffffffff021916908363ffffffff1602179055508787826007019190611167929190613eb9565b50858160020160006101000a81548160ff0219169083600181111561118857fe5b02179055508b816005019060026111a0929190613e79565b508a8a8260030191906111b4929190613eb9565b5060008160080160006101000a81548160ff021916908360068111156111d657fe5b0217905550338160000160006101000a81548173ffffffffffffffffffffffffffffffffffffffff021916908373ffffffffffffffffffffffffffffffffffffffff16021790555084156112565760018160000160146101000a81548160ff0219169083151502179055508383826001019190611254929190613fa0565b505b600160009054906101000a900473ffffffffffffffffffffffffffffffffffffffff1673ffffffffffffffffffffffffffffffffffffffff16636eb5c390600160149054906101000a900463ffffffff168e6040518363ffffffff1660e01b81526004016112c5929190615312565b600060405180830381600087803b1580156112df57600080fd5b505af11580156112f3573d6000803e3d6000fd5b505050506001601481819054906101000a900463ffffffff168092919060010191906101000a81548163ffffffff021916908363ffffffff1602179055505060018060149054906101000a900463ffffffff16039150509a9950505050505050505050565b600160149054906101000a900463ffffffff1681565b611376613f39565b61137f82613d8a565b60405180610100016040529081600082015481526020016001820160009054906101000a900463ffffffff1663ffffffff1663ffffffff168152602001600282015481526020016003820154815260200160048201548152602001600582015481526020016006820160009054906101000a900473ffffffffffffffffffffffffffffffffffffffff1673ffffffffffffffffffffffffffffffffffffffff1673ffffffffffffffffffffffffffffffffffffffff16815260200160078201604051806040016040529081600082018054600181600116156101000203166002900480601f0160208091040260200160405190810160405280929190818152602001828054600181600116156101000203166002900480156114e25780601f106114b7576101008083540402835291602001916114e2565b820191906000526020600020905b8154815290600101906020018083116114c557829003601f168201915b50505050508152602001600182018054600181600116156101000203166002900480601f0160208091040260200160405190810160405280929190818152602001828054600181600116156101000203166002900480156115845780601f1061155957610100808354040283529160200191611584565b820191906000526020600020905b81548152906001019060200180831161156757829003601f168201915b5050505050815250508152505090503373ffffffffffffffffffffffffffffffffffffffff168160c0015173ffffffffffffffffffffffffffffffffffffffff16148061163e57503373ffffffffffffffffffffffffffffffffffffffff16600260008463ffffffff1663ffffffff16815260200190815260200160002060000160009054906101000a900473ffffffffffffffffffffffffffffffffffffffff1673ffffffffffffffffffffffffffffffffffffffff16145b61167d576040517f08c379a000000000000000000000000000000000000000000000000000000000815260040161167490615157565b60405180910390fd5b6006600260008463ffffffff1663ffffffff16815260200190815260200160002060080160006101000a81548160ff021916908360068111156116bc57fe5b0217905550600160009054906101000a900473ffffffffffffffffffffffffffffffffffffffff1673ffffffffffffffffffffffffffffffffffffffff16638d341e9a836040518263ffffffff1660e01b815260040161171c91906152f7565b600060405180830381600087803b15801561173657600080fd5b505af115801561174a573d6000803e3d6000fd5b505050505050565b833373ffffffffffffffffffffffffffffffffffffffff16600260008363ffffffff1663ffffffff16815260200190815260200160002060000160009054906101000a900473ffffffffffffffffffffffffffffffffffffffff1673ffffffffffffffffffffffffffffffffffffffff1614611803576040517f08c379a00000000000000000000000000000000000000000000000000000000081526004016117fa90615177565b60405180910390fd5b84846002806020026040519081016040528092919082600260200280828437600081840152601f19601f82011690508083019250505050505084600280602002604051908101604052809291906000905b828210156118a8578382604002016002806020026040519081016040528092919082600260200280828437600081840152601f19601f82011690508083019250505050505081526020019060010190611854565b50505050846002806020026040519081016040528092919082600260200280828437600081840152601f19601f8201169050808301925050505050506000809054906101000a900473ffffffffffffffffffffffffffffffffffffffff1673ffffffffffffffffffffffffffffffffffffffff1663621e9ec0848484600260008a63ffffffff1663ffffffff1681526020019081526020016000206005016040518563ffffffff1660e01b81526004016119659493929190615093565b60206040518083038186803b15801561197d57600080fd5b505afa158015611991573d6000803e3d6000fd5b505050506040513d601f19601f820116820180604052506119b5919081019061464f565b6119f4576040517f08c379a00000000000000000000000000000000000000000000000000000000081526004016119eb90615277565b60405180910390fd5b60026006811115611a0157fe5b600260008b63ffffffff1663ffffffff16815260200190815260200160002060080160009054906101000a900460ff166006811115611a3c57fe5b14611a7c576040517f08c379a0000000000000000000000000000000000000000000000000000000008152600401611a7390615137565b60405180910390fd5b6001600260008b63ffffffff1663ffffffff16815260200190815260200160002060080160006101000a81548160ff02191690836006811115611abb57fe5b0217905550600260008a63ffffffff1663ffffffff168152602001908152602001600020600901805480611aeb57fe5b60019003818190600052602060002090600902016000808201600090556001820160006101000a81549063ffffffff021916905560028201600090556003820160009055600482016000905560058201600090556006820160006101000a81549073ffffffffffffffffffffffffffffffffffffffff02191690556007820160008082016000611b7b9190614040565b600182016000611b8b9190614040565b505050509055505050505050505050565b611ba4613cf8565b6005600260008363ffffffff1663ffffffff16815260200190815260200160002060080160006101000a81548160ff02191690836006811115611be357fe5b021790555050565b6000611bf5613cf8565b816000806101000a81548173ffffffffffffffffffffffffffffffffffffffff021916908373ffffffffffffffffffffffffffffffffffffffff160217905550819050919050565b611c45613cf8565b6000600260008563ffffffff1663ffffffff1681526020019081526020016000209050600680811115611c7457fe5b8160080160009054906101000a900460ff166006811115611c9157fe5b14611cd1576040517f08c379a0000000000000000000000000000000000000000000000000000000008152600401611cc8906151d7565b60405180910390fd5b611cd9613f39565b611ce285613d8a565b60405180610100016040529081600082015481526020016001820160009054906101000a900463ffffffff1663ffffffff1663ffffffff168152602001600282015481526020016003820154815260200160048201548152602001600582015481526020016006820160009054906101000a900473ffffffffffffffffffffffffffffffffffffffff1673ffffffffffffffffffffffffffffffffffffffff1673ffffffffffffffffffffffffffffffffffffffff16815260200160078201604051806040016040529081600082018054600181600116156101000203166002900480601f016020809104026020016040519081016040528092919081815260200182805460018160011615610100020316600290048015611e455780601f10611e1a57610100808354040283529160200191611e45565b820191906000526020600020905b815481529060010190602001808311611e2857829003601f168201915b50505050508152602001600182018054600181600116156101000203166002900480601f016020809104026020016040519081016040528092919081815260200182805460018160011615610100020316600290048015611ee75780601f10611ebc57610100808354040283529160200191611ee7565b820191906000526020600020905b815481529060010190602001808311611eca57829003601f168201915b50505050508152505081525050905060008314611f4a578060c0015173ffffffffffffffffffffffffffffffffffffffff166108fc849081150290604051600060405180830381858888f19350505050158015611f48573d6000803e3d6000fd5b505b60008414612575578160000160149054906101000a900460ff161561250857600082600101805490508581611f7b57fe5b0490506125028184604051806101400160405290816000820160009054906101000a900473ffffffffffffffffffffffffffffffffffffffff1673ffffffffffffffffffffffffffffffffffffffff1673ffffffffffffffffffffffffffffffffffffffff1681526020016000820160149054906101000a900460ff161515151581526020016001820180548060200260200160405190810160405280929190818152602001828054801561208557602002820191906000526020600020905b8160009054906101000a900473ffffffffffffffffffffffffffffffffffffffff1673ffffffffffffffffffffffffffffffffffffffff168152602001906001019080831161203b575b505050505081526020016002820160009054906101000a900460ff1660018111156120ac57fe5b60018111156120b757fe5b8152602001600382018054600181600116156101000203166002900480601f0160208091040260200160405190810160405280929190818152602001828054600181600116156101000203166002900480156121545780601f1061212957610100808354040283529160200191612154565b820191906000526020600020905b81548152906001019060200180831161213757829003601f168201915b505050505081526020016004820160009054906101000a900463ffffffff1663ffffffff1663ffffffff168152602001600582016002806020026040519081016040528092919082600280156121bf576020028201915b8154815260200190600101908083116121ab575b50505050508152602001600782018054600181600116156101000203166002900480601f0160208091040260200160405190810160405280929190818152602001828054600181600116156101000203166002900480156122615780601f1061223657610100808354040283529160200191612261565b820191906000526020600020905b81548152906001019060200180831161224457829003601f168201915b505050505081526020016008820160009054906101000a900460ff16600681111561228857fe5b600681111561229357fe5b815260200160098201805480602002602001604051908101604052809291908181526020016000905b828210156124f5578382906000526020600020906009020160405180610100016040529081600082015481526020016001820160009054906101000a900463ffffffff1663ffffffff1663ffffffff168152602001600282015481526020016003820154815260200160048201548152602001600582015481526020016006820160009054906101000a900473ffffffffffffffffffffffffffffffffffffffff1673ffffffffffffffffffffffffffffffffffffffff1673ffffffffffffffffffffffffffffffffffffffff16815260200160078201604051806040016040529081600082018054600181600116156101000203166002900480601f0160208091040260200160405190810160405280929190818152602001828054600181600116156101000203166002900480156124375780601f1061240c57610100808354040283529160200191612437565b820191906000526020600020905b81548152906001019060200180831161241a57829003601f168201915b50505050508152602001600182018054600181600116156101000203166002900480601f0160208091040260200160405190810160405280929190818152602001828054600181600116156101000203166002900480156124d95780601f106124ae576101008083540402835291602001916124d9565b820191906000526020600020905b8154815290600101906020018083116124bc57829003601f168201915b50505050508152505081525050815260200190600101906122bc565b5050505081525050613df6565b50612574565b8160000160009054906101000a900473ffffffffffffffffffffffffffffffffffffffff1673ffffffffffffffffffffffffffffffffffffffff166108fc859081150290604051600060405180830381858888f19350505050158015612572573d6000803e3d6000fd5b505b5b60008160a0018181525050604051806020016040528060008152508160e001516000018190525060018260080160006101000a81548160ff021916908360068111156125bd57fe5b02179055505050505050565b833373ffffffffffffffffffffffffffffffffffffffff16600260008363ffffffff1663ffffffff16815260200190815260200160002060000160009054906101000a900473ffffffffffffffffffffffffffffffffffffffff1673ffffffffffffffffffffffffffffffffffffffff161461267a576040517f08c379a000000000000000000000000000000000000000000000000000000000815260040161267190615177565b60405180910390fd5b84846002806020026040519081016040528092919082600260200280828437600081840152601f19601f82011690508083019250505050505084600280602002604051908101604052809291906000905b8282101561271f578382604002016002806020026040519081016040528092919082600260200280828437600081840152601f19601f820116905080830192505050505050815260200190600101906126cb565b50505050846002806020026040519081016040528092919082600260200280828437600081840152601f19601f8201169050808301925050505050506000809054906101000a900473ffffffffffffffffffffffffffffffffffffffff1673ffffffffffffffffffffffffffffffffffffffff1663621e9ec0848484600260008a63ffffffff1663ffffffff1681526020019081526020016000206005016040518563ffffffff1660e01b81526004016127dc9493929190615093565b60206040518083038186803b1580156127f457600080fd5b505afa158015612808573d6000803e3d6000fd5b505050506040513d601f19601f8201168201806040525061282c919081019061464f565b61286b576040517f08c379a000000000000000000000000000000000000000000000000000000000815260040161286290615277565b60405180910390fd5b60006128768a613d8a565b90506000600260008c63ffffffff1663ffffffff16815260200190815260200160002090506006808111156128a757fe5b8160080160009054906101000a900460ff1660068111156128c457fe5b1415612905576040517f08c379a00000000000000000000000000000000000000000000000000000000081526004016128fc90615197565b60405180910390fd5b612b208260405180610100016040529081600082015481526020016001820160009054906101000a900463ffffffff1663ffffffff1663ffffffff168152602001600282015481526020016003820154815260200160048201548152602001600582015481526020016006820160009054906101000a900473ffffffffffffffffffffffffffffffffffffffff1673ffffffffffffffffffffffffffffffffffffffff1673ffffffffffffffffffffffffffffffffffffffff16815260200160078201604051806040016040529081600082018054600181600116156101000203166002900480601f016020809104026020016040519081016040528092919081815260200182805460018160011615610100020316600290048015612a6c5780601f10612a4157610100808354040283529160200191612a6c565b820191906000526020600020905b815481529060010190602001808311612a4f57829003601f168201915b50505050508152602001600182018054600181600116156101000203166002900480601f016020809104026020016040519081016040528092919081815260200182805460018160011615610100020316600290048015612b0e5780601f10612ae357610100808354040283529160200191612b0e565b820191906000526020600020905b815481529060010190602001808311612af157829003601f168201915b50505050508152505081525050613cd2565b612b5f576040517f08c379a0000000000000000000000000000000000000000000000000000000008152600401612b5690615117565b60405180910390fd5b8060000160149054906101000a900460ff16156131195760008160010180549050836005015481612b8c57fe5b0490506131138183604051806101400160405290816000820160009054906101000a900473ffffffffffffffffffffffffffffffffffffffff1673ffffffffffffffffffffffffffffffffffffffff1673ffffffffffffffffffffffffffffffffffffffff1681526020016000820160149054906101000a900460ff1615151515815260200160018201805480602002602001604051908101604052809291908181526020018280548015612c9657602002820191906000526020600020905b8160009054906101000a900473ffffffffffffffffffffffffffffffffffffffff1673ffffffffffffffffffffffffffffffffffffffff1681526020019060010190808311612c4c575b505050505081526020016002820160009054906101000a900460ff166001811115612cbd57fe5b6001811115612cc857fe5b8152602001600382018054600181600116156101000203166002900480601f016020809104026020016040519081016040528092919081815260200182805460018160011615610100020316600290048015612d655780601f10612d3a57610100808354040283529160200191612d65565b820191906000526020600020905b815481529060010190602001808311612d4857829003601f168201915b505050505081526020016004820160009054906101000a900463ffffffff1663ffffffff1663ffffffff16815260200160058201600280602002604051908101604052809291908260028015612dd0576020028201915b815481526020019060010190808311612dbc575b50505050508152602001600782018054600181600116156101000203166002900480601f016020809104026020016040519081016040528092919081815260200182805460018160011615610100020316600290048015612e725780601f10612e4757610100808354040283529160200191612e72565b820191906000526020600020905b815481529060010190602001808311612e5557829003601f168201915b505050505081526020016008820160009054906101000a900460ff166006811115612e9957fe5b6006811115612ea457fe5b815260200160098201805480602002602001604051908101604052809291908181526020016000905b82821015613106578382906000526020600020906009020160405180610100016040529081600082015481526020016001820160009054906101000a900463ffffffff1663ffffffff1663ffffffff168152602001600282015481526020016003820154815260200160048201548152602001600582015481526020016006820160009054906101000a900473ffffffffffffffffffffffffffffffffffffffff1673ffffffffffffffffffffffffffffffffffffffff1673ffffffffffffffffffffffffffffffffffffffff16815260200160078201604051806040016040529081600082018054600181600116156101000203166002900480601f0160208091040260200160405190810160405280929190818152602001828054600181600116156101000203166002900480156130485780601f1061301d57610100808354040283529160200191613048565b820191906000526020600020905b81548152906001019060200180831161302b57829003601f168201915b50505050508152602001600182018054600181600116156101000203166002900480601f0160208091040260200160405190810160405280929190818152602001828054600181600116156101000203166002900480156130ea5780601f106130bf576101008083540402835291602001916130ea565b820191906000526020600020905b8154815290600101906020018083116130cd57829003601f168201915b5050505050815250508152505081526020019060010190612ecd565b5050505081525050613df6565b50613189565b8060000160009054906101000a900473ffffffffffffffffffffffffffffffffffffffff1673ffffffffffffffffffffffffffffffffffffffff166108fc83600501549081150290604051600060405180830381858888f19350505050158015613187573d6000803e3d6000fd5b505b60008260050181905550604051806020016040528060008152508260070160000190805190602001906131bd929190614088565b506001600260008d63ffffffff1663ffffffff16815260200190815260200160002060080160006101000a81548160ff021916908360068111156131fd57fe5b02179055505050505050505050505050565b6000600260008363ffffffff1663ffffffff1681526020019081526020016000209050600061323d83613d8a565b90506002600681111561324c57fe5b8260080160009054906101000a900460ff16600681111561326957fe5b146132a9576040517f08c379a00000000000000000000000000000000000000000000000000000000081526004016132a090615137565b60405180910390fd5b3373ffffffffffffffffffffffffffffffffffffffff168160060160009054906101000a900473ffffffffffffffffffffffffffffffffffffffff1673ffffffffffffffffffffffffffffffffffffffff161461333b576040517f08c379a000000000000000000000000000000000000000000000000000000000815260040161333290615237565b60405180910390fd5b3481600301541115613382576040517f08c379a000000000000000000000000000000000000000000000000000000000815260040161337990615257565b60405180910390fd5b34816005018190555060038260080160006101000a81548160ff021916908360068111156133ac57fe5b0217905550505050565b600360068111156133c357fe5b600260008363ffffffff1663ffffffff16815260200190815260200160002060080160009054906101000a900460ff1660068111156133fe57fe5b1461343e576040517f08c379a0000000000000000000000000000000000000000000000000000000008152600401613435906152b7565b60405180910390fd5b600061344982613d8a565b90503373ffffffffffffffffffffffffffffffffffffffff168160060160009054906101000a900473ffffffffffffffffffffffffffffffffffffffff1673ffffffffffffffffffffffffffffffffffffffff16146134dd576040517f08c379a00000000000000000000000000000000000000000000000000000000081526004016134d4906151f7565b60405180910390fd5b3373ffffffffffffffffffffffffffffffffffffffff166108fc82600501549081150290604051600060405180830381858888f19350505050158015613527573d6000803e3d6000fd5b506001600260008463ffffffff1663ffffffff16815260200190815260200160002060080160006101000a81548160ff0219169083600681111561356757fe5b02179055505050565b863373ffffffffffffffffffffffffffffffffffffffff16600260008363ffffffff1663ffffffff16815260200190815260200160002060000160009054906101000a900473ffffffffffffffffffffffffffffffffffffffff1673ffffffffffffffffffffffffffffffffffffffff1614613621576040517f08c379a000000000000000000000000000000000000000000000000000000000815260040161361890615177565b60405180910390fd5b87846002806020026040519081016040528092919082600260200280828437600081840152601f19601f82011690508083019250505050505084600280602002604051908101604052809291906000905b828210156136c6578382604002016002806020026040519081016040528092919082600260200280828437600081840152601f19601f82011690508083019250505050505081526020019060010190613672565b50505050846002806020026040519081016040528092919082600260200280828437600081840152601f19601f8201169050808301925050505050506000809054906101000a900473ffffffffffffffffffffffffffffffffffffffff1673ffffffffffffffffffffffffffffffffffffffff1663621e9ec0848484600260008a63ffffffff1663ffffffff1681526020019081526020016000206005016040518563ffffffff1660e01b81526004016137839493929190615093565b60206040518083038186803b15801561379b57600080fd5b505afa1580156137af573d6000803e3d6000fd5b505050506040513d601f19601f820116820180604052506137d3919081019061464f565b613812576040517f08c379a000000000000000000000000000000000000000000000000000000000815260040161380990615277565b60405180910390fd5b6001600681111561381f57fe5b600260008e63ffffffff1663ffffffff16815260200190815260200160002060080160009054906101000a900460ff16600681111561385a57fe5b1461389a576040517f08c379a0000000000000000000000000000000000000000000000000000000008152600401613891906152d7565b60405180910390fd5b6000600260008e63ffffffff1663ffffffff168152602001908152602001600020905060028160080160006101000a81548160ff021916908360068111156138de57fe5b02179055508060090160018160018154018082558091505003906000526020600020905050600061390e8e613d8a565b90508d8160010160006101000a81548163ffffffff021916908363ffffffff1602179055508b81600201819055508a81600301819055508c8160060160006101000a81548173ffffffffffffffffffffffffffffffffffffffff021916908373ffffffffffffffffffffffffffffffffffffffff1602179055507fffffffffffffffffffffffffffffffffffffffffffffffffffffffffffffffff81600001819055505050505050505050505050505050565b853373ffffffffffffffffffffffffffffffffffffffff16600260008363ffffffff1663ffffffff16815260200190815260200160002060000160009054906101000a900473ffffffffffffffffffffffffffffffffffffffff1673ffffffffffffffffffffffffffffffffffffffff1614613a72576040517f08c379a0000000000000000000000000000000000000000000000000000000008152600401613a6990615177565b60405180910390fd5b868686866000809054906101000a900473ffffffffffffffffffffffffffffffffffffffff1673ffffffffffffffffffffffffffffffffffffffff1663621e9ec0848484600260008a63ffffffff1663ffffffff1681526020019081526020016000206005016040518563ffffffff1660e01b8152600401613af79493929190615093565b60206040518083038186803b158015613b0f57600080fd5b505afa158015613b23573d6000803e3d6000fd5b505050506040513d601f19601f82011682018060405250613b47919081019061464f565b613b86576040517f08c379a0000000000000000000000000000000000000000000000000000000008152600401613b7d90615277565b60405180910390fd5b60036006811115613b9357fe5b600260008d63ffffffff1663ffffffff16815260200190815260200160002060080160009054906101000a900460ff166006811115613bce57fe5b14613c0e576040517f08c379a0000000000000000000000000000000000000000000000000000000008152600401613c05906151b7565b60405180910390fd5b6000600260008d63ffffffff1663ffffffff16815260200190815260200160002090506000613c3c8d613d8a565b905042816004018190555060405180604001604052808a815260200189815250816007016000820151816000019080519060200190613c7c929190614108565b506020820151816001019080519060200190613c99929190614108565b5090505060048260080160006101000a81548160ff02191690836006811115613cbe57fe5b021790555050505050505050505050505050565b600042826040015183608001510111613cee5760019050613cf3565b600090505b919050565b600160009054906101000a900473ffffffffffffffffffffffffffffffffffffffff1673ffffffffffffffffffffffffffffffffffffffff163373ffffffffffffffffffffffffffffffffffffffff1614613d88576040517f08c379a0000000000000000000000000000000000000000000000000000000008152600401613d7f90615217565b60405180910390fd5b565b6000600260008363ffffffff1663ffffffff1681526020019081526020016000206009016001600260008563ffffffff1663ffffffff168152602001908152602001600020600901805490500381548110613de157fe5b90600052602060002090600902019050919050565b60008090505b816040015151811015613e745781604001518181518110613e1957fe5b602002602001015173ffffffffffffffffffffffffffffffffffffffff166108fc849081150290604051600060405180830381858888f19350505050158015613e66573d6000803e3d6000fd5b508080600101915050613dfc565b505050565b8260028101928215613ea8579160200282015b82811115613ea7578235825591602001919060010190613e8c565b5b509050613eb59190614188565b5090565b828054600181600116156101000203166002900490600052602060002090601f016020900481019282601f10613efa57803560ff1916838001178555613f28565b82800160010185558215613f28579182015b82811115613f27578235825591602001919060010190613f0c565b5b509050613f359190614188565b5090565b60405180610100016040528060008152602001600063ffffffff16815260200160008152602001600081526020016000815260200160008152602001600073ffffffffffffffffffffffffffffffffffffffff168152602001613f9a6141ad565b81525090565b82805482825590600052602060002090810192821561402f579160200282015b8281111561402e57823573ffffffffffffffffffffffffffffffffffffffff168260006101000a81548173ffffffffffffffffffffffffffffffffffffffff021916908373ffffffffffffffffffffffffffffffffffffffff16021790555091602001919060010190613fc0565b5b50905061403c91906141c7565b5090565b50805460018160011615610100020316600290046000825580601f106140665750614085565b601f0160209004906000526020600020908101906140849190614188565b5b50565b828054600181600116156101000203166002900490600052602060002090601f016020900481019282601f106140c957805160ff19168380011785556140f7565b828001600101855582156140f7579182015b828111156140f65782518255916020019190600101906140db565b5b5090506141049190614188565b5090565b828054600181600116156101000203166002900490600052602060002090601f016020900481019282601f1061414957805160ff1916838001178555614177565b82800160010185558215614177579182015b8281111561417657825182559160200191906001019061415b565b5b5090506141849190614188565b5090565b6141aa91905b808211156141a657600081600090555060010161418e565b5090565b90565b604051806040016040528060608152602001606081525090565b61420791905b8082111561420357600081816101000a81549073ffffffffffffffffffffffffffffffffffffffff0219169055506001016141cd565b5090565b90565b60008135905061421981615639565b92915050565b60008135905061422e81615650565b92915050565b60008083601f84011261424657600080fd5b8235905067ffffffffffffffff81111561425f57600080fd5b60208301915083602082028301111561427757600080fd5b9250929050565b60008190508260406002028201111561429657600080fd5b92915050565b600082601f8301126142ad57600080fd5b60026142c06142bb82615368565b61533b565b915081838560408402820111156142d657600080fd5b60005b8381101561430657816142ec888261432e565b8452602084019350604083019250506001810190506142d9565b5050505092915050565b60008190508260206002028201111561432857600080fd5b92915050565b600082601f83011261433f57600080fd5b600261435261434d8261538a565b61533b565b9150818385602084028201111561436857600080fd5b60005b83811015614398578161437e8882614508565b84526020840193506020830192505060018101905061436b565b5050505092915050565b600082601f8301126143b357600080fd5b60026143c66143c1826153ac565b61533b565b915081838560208402820111156143dc57600080fd5b60005b8381101561440c57816143f28882614508565b8452602084019350602083019250506001810190506143df565b5050505092915050565b60008135905061442581615667565b92915050565b60008151905061443a81615667565b92915050565b60008135905061444f8161567e565b92915050565b6000813590506144648161568e565b92915050565b60008083601f84011261447c57600080fd5b8235905067ffffffffffffffff81111561449557600080fd5b6020830191508360018202830111156144ad57600080fd5b9250929050565b600082601f8301126144c557600080fd5b81356144d86144d3826153ce565b61533b565b915080825260208301602083018583830111156144f457600080fd5b6144ff838284615592565b50505092915050565b600081359050614517816156a5565b92915050565b60008135905061452c816156bc565b92915050565b60006020828403121561454457600080fd5b60006145528482850161420a565b91505092915050565b6000806000806000806000806000806101008b8d03121561457b57600080fd5b60006145898d828e01614310565b9a505060408b013567ffffffffffffffff8111156145a657600080fd5b6145b28d828e0161446a565b995099505060606145c58d828e0161451d565b97505060808b013567ffffffffffffffff8111156145e257600080fd5b6145ee8d828e0161446a565b965096505060a06146018d828e01614440565b94505060c06146128d828e01614416565b93505060e08b013567ffffffffffffffff81111561462f57600080fd5b61463b8d828e01614234565b92509250509295989b9194979a5092959850565b60006020828403121561466157600080fd5b600061466f8482850161442b565b91505092915050565b60006020828403121561468a57600080fd5b60006146988482850161451d565b91505092915050565b6000806000806000806000610180888a0312156146bd57600080fd5b60006146cb8a828b0161451d565b97505060206146dc8a828b0161421f565b96505060406146ed8a828b01614508565b95505060606146fe8a828b01614508565b945050608061470f8a828b01614310565b93505060c06147208a828b0161427e565b9250506101406147328a828b01614310565b91505092959891949750929550565b600080600080610120858703121561475857600080fd5b60006147668782880161451d565b945050602061477787828801614310565b93505060606147888782880161427e565b92505060e061479987828801614310565b91505092959194509250565b600080600080600061016086880312156147be57600080fd5b60006147cc8882890161451d565b95505060206147dd88828901614310565b94505060606147ee8882890161427e565b93505060e06147ff88828901614310565b92505061012061481188828901614310565b9150509295509295909350565b600080600080600080610160878903121561483857600080fd5b600061484689828a0161451d565b965050602061485789828a016143a2565b955050606061486889828a0161429c565b94505060e061487989828a016143a2565b93505061012087013567ffffffffffffffff81111561489757600080fd5b6148a389828a016144b4565b92505061014087013567ffffffffffffffff8111156148c157600080fd5b6148cd89828a016144b4565b9150509295509295509295565b600080604083850312156148ed57600080fd5b60006148fb8582860161451d565b925050602061490c85828601614455565b9150509250929050565b60008060006040848603121561492b57600080fd5b60006149398682870161451d565b935050602084013567ffffffffffffffff81111561495657600080fd5b6149628682870161446a565b92509250509250925092565b60008060006060848603121561498357600080fd5b60006149918682870161451d565b93505060206149a286828701614508565b92505060406149b386828701614508565b9150509250925092565b60006149c98383614ac9565b60408301905092915050565b60006149e18383614fdd565b60208301905092915050565b6149f6816154e6565b82525050565b614a05816154d4565b82525050565b614a1481615422565b614a1e8184615498565b9250614a29826153fa565b8060005b83811015614a5a578151614a4187826149bd565b9650614a4c83615464565b925050600181019050614a2d565b505050505050565b614a6e60408383615592565b5050565b614a7b81615438565b614a8581846154ae565b9250614a908261540e565b8060005b83811015614ac1578151614aa887826149d5565b9650614ab38361547e565b925050600181019050614a94565b505050505050565b614ad28161542d565b614adc81846154a3565b9250614ae782615404565b8060005b83811015614b18578151614aff87826149d5565b9650614b0a83615471565b925050600181019050614aeb565b505050505050565b614b2981615443565b614b3381846154ae565b9250614b3e82615418565b8060005b83811015614b7657614b53826155ee565b614b5d87826149d5565b9650614b688361548b565b925050600181019050614b42565b505050505050565b614b87816154f8565b82525050565b614b968161556e565b82525050565b614ba581615580565b82525050565b6000614bb682615459565b614bc081856154b9565b9350614bd08185602086016155a1565b614bd981615601565b840191505092915050565b6000614bef8261544e565b614bf981856154b9565b9350614c098185602086016155a1565b614c1281615601565b840191505092915050565b6000614c2a6011836154b9565b91507f4c6f636174696f6e206e6f74206f7665720000000000000000000000000000006000830152602082019050919050565b6000614c6a6010836154b9565b91507f4e6f206f666665722072756e6e696e67000000000000000000000000000000006000830152602082019050919050565b6000614caa601c836154b9565b91507f4e6f74207468652074656e616e74206e6f7220746865206f776e6572000000006000830152602082019050919050565b6000614cea6010836154b9565b91507f4e6f742067617264656e206f776e6572000000000000000000000000000000006000830152602082019050919050565b6000614d2a6012836154b9565b91507f446973707574652069732072756e6e696e6700000000000000000000000000006000830152602082019050919050565b6000614d6a6013836154b9565b91507f4e6f206c6f636174696f6e2072756e6e696e67000000000000000000000000006000830152602082019050919050565b6000614daa6012836154b9565b91507f4e6f20646973707574652072756e6e696e6700000000000000000000000000006000830152602082019050919050565b6000614dea600e836154b9565b91507f4e6f74207468652074656e616e740000000000000000000000000000000000006000830152602082019050919050565b6000614e2a601a836154b9565b91507f4e6f742061646d696e6973747261746f7220636f6e74726163740000000000006000830152602082019050919050565b6000614e6a6016836154b9565b91507f4e6f742074686520636f72726563742074656e616e74000000000000000000006000830152602082019050919050565b6000614eaa6013836154b9565b91507f496e73756666696369656e7420616d6f756e74000000000000000000000000006000830152602082019050919050565b6000614eea6017836154b9565b91507f50726f6f66206f662073656372657420696e76616c69640000000000000000006000830152602082019050919050565b6000614f2a6019836154b9565b91507f4772616465206973206e6f7420696e2072616e676520302d35000000000000006000830152602082019050919050565b6000614f6a6013836154b9565b91507f436f6465206973206e6f74206d697373696e67000000000000000000000000006000830152602082019050919050565b6000614faa600f836154b9565b91507f47617264656e206e6f74206672656500000000000000000000000000000000006000830152602082019050919050565b614fe681615554565b82525050565b614ff58161555e565b82525050565b600060208201905061501060008301846149fc565b92915050565b600060e08201905061502b600083018a6149ed565b6150386020830189614b7e565b6150456040830188614b8d565b81810360608301526150578187614be4565b90506150666080830186614fec565b81810360a08301526150788185614be4565b905061508760c0830184614b9c565b98975050505050505050565b6000610140820190506150a96000830187614a72565b6150b66040830186614a0b565b6150c360c0830185614a72565b6150d1610100830184614b20565b95945050505050565b60006020820190506150ef6000830184614b7e565b92915050565b6000602082019050818103600083015261510f8184614bab565b905092915050565b6000602082019050818103600083015261513081614c1d565b9050919050565b6000602082019050818103600083015261515081614c5d565b9050919050565b6000602082019050818103600083015261517081614c9d565b9050919050565b6000602082019050818103600083015261519081614cdd565b9050919050565b600060208201905081810360008301526151b081614d1d565b9050919050565b600060208201905081810360008301526151d081614d5d565b9050919050565b600060208201905081810360008301526151f081614d9d565b9050919050565b6000602082019050818103600083015261521081614ddd565b9050919050565b6000602082019050818103600083015261523081614e1d565b9050919050565b6000602082019050818103600083015261525081614e5d565b9050919050565b6000602082019050818103600083015261527081614e9d565b9050919050565b6000602082019050818103600083015261529081614edd565b9050919050565b600060208201905081810360008301526152b081614f1d565b9050919050565b600060208201905081810360008301526152d081614f5d565b9050919050565b600060208201905081810360008301526152f081614f9d565b9050919050565b600060208201905061530c6000830184614fec565b92915050565b60006060820190506153276000830185614fec565b6153346020830184614a62565b9392505050565b6000604051905081810181811067ffffffffffffffff8211171561535e57600080fd5b8060405250919050565b600067ffffffffffffffff82111561537f57600080fd5b602082029050919050565b600067ffffffffffffffff8211156153a157600080fd5b602082029050919050565b600067ffffffffffffffff8211156153c357600080fd5b602082029050919050565b600067ffffffffffffffff8211156153e557600080fd5b601f19601f8301169050602081019050919050565b6000819050919050565b6000819050919050565b6000819050919050565b6000819050919050565b600060029050919050565b600060029050919050565b600060029050919050565b600060029050919050565b600081519050919050565b600081519050919050565b6000602082019050919050565b6000602082019050919050565b6000602082019050919050565b6000600182019050919050565b600081905092915050565b600081905092915050565b600081905092915050565b600082825260208201905092915050565b6000819050919050565b60006154df82615534565b9050919050565b60006154f182615534565b9050919050565b60008115159050919050565b60008190506155128261561f565b919050565b60008190506155258261562c565b919050565b6000819050919050565b600073ffffffffffffffffffffffffffffffffffffffff82169050919050565b6000819050919050565b600063ffffffff82169050919050565b600061557982615504565b9050919050565b600061558b82615517565b9050919050565b82818337600083830152505050565b60005b838110156155bf5780820151818401526020810190506155a4565b838111156155ce576000848401525b50505050565b60006155e76155e283615612565b6154ca565b9050919050565b60006155fa82546155d4565b9050919050565b6000601f19601f8301169050919050565b60008160001c9050919050565b6002811061562957fe5b50565b6007811061563657fe5b50565b615642816154d4565b811461564d57600080fd5b50565b615659816154e6565b811461566457600080fd5b50565b615670816154f8565b811461567b57600080fd5b50565b6002811061568b57600080fd5b50565b6156978161552a565b81146156a257600080fd5b50565b6156ae81615554565b81146156b957600080fd5b50565b6156c58161555e565b81146156d057600080fd5b5056fea26469706673582212209302217ad41e289d9801d2a74f76a5cc94717fcc8251ae461e602650d567763364736f6c63430006010033",
  "source": "// SPDX-License-Identifier: MIT\r\npragma experimental ABIEncoderV2;\r\npragma solidity >=0.4.22 <0.8.0;\r\nimport \"./AdminManager.sol\";\r\nimport \"./Verifier.sol\";\r\n\r\ncontract GardenManager {\r\n    Verifier VerifierContract;\r\n    AdminManager AManager;   \r\n     uint32 public GardenCount=0;\r\n\r\n    //garden declaration\r\n    mapping (uint32=>Garden) public AllGarden;\r\n    enum GardenType{Vegetable, Hobby}\r\n    enum Status{Waiting,Free,Blocked,CodeWaiting,Location,Blacklist,Dispute}\r\n    struct Garden{\r\n        address payable owner;\r\n        bool multipleOwners;\r\n        address payable[] coOwners;\r\n        GardenType gardenType;\r\n        string district;\r\n        uint32 area;\r\n        uint[2] secretHash;\r\n        string contact;\r\n        Status status; \r\n        Rent[] rents;\r\n    }\r\n    struct Rent{\r\n        int rate;\r\n        uint32 gardenIndex;\r\n        uint256 duration; \r\n        uint256 price;\r\n        uint256 beginning;\r\n        uint256 balance;\r\n        address payable tenant;\r\n        AccessCode accessCode;\r\n    }\r\n    struct AccessCode{\r\n        string hashCode;\r\n        string encryptedCode;\r\n    }\r\n    constructor (address _adminContract, address _verifierContract) public {\r\n        AManager = AdminManager(_adminContract);\r\n        VerifierContract = Verifier(_verifierContract);\r\n    }\r\n    \r\n    function OnlyContractAdmin()private{\r\n        require(msg.sender == address(AManager), \"Not administrator contract\");\r\n    }\r\n    \r\n    modifier OnlyOwner(uint32 gardenIndex){\r\n        require(AllGarden[gardenIndex].owner==msg.sender, \"Not garden owner\");\r\n        _;\r\n    }\r\n    modifier OnlyValidProof(uint32 _gardenIndex, uint[2] memory _proofA, uint[2][2] memory _proofB,\r\n            uint[2] memory _proofC){\r\n        require(VerifierContract.verifyTx(_proofA,_proofB,_proofC,AllGarden[_gardenIndex].secretHash), \"Proof of secret invalid\");\r\n        _;\r\n    }\r\n\r\n    function GetVerifierContractAddress()external view returns(address){\r\n        return address(VerifierContract);\r\n    }\r\n    \r\n    function ModifyVerifierContract(address _verifierContract) public  returns(address){\r\n        OnlyContractAdmin();\r\n        VerifierContract = Verifier(_verifierContract);\r\n        return _verifierContract;\r\n    }\r\n\r\n    function CreateGarden(uint[2] calldata _secretHash, string calldata _district,uint32 _area, string calldata _contact, GardenType _gardenType, bool _multipleOwners, address payable[] calldata _coOwners) external returns(uint32 index){\r\n        Garden storage garden = AllGarden[GardenCount];\r\n        garden.area=_area;\r\n        garden.contact=_contact;\r\n        garden.gardenType=_gardenType;\r\n        garden.secretHash=_secretHash;\r\n        garden.district=_district;\r\n        garden.status=Status.Waiting;\r\n        garden.owner=msg.sender;\r\n        if(_multipleOwners){\r\n            garden.multipleOwners=true;\r\n            garden.coOwners=_coOwners;\r\n        }\r\n        AManager.AddGarden(GardenCount,_secretHash);\r\n        GardenCount++;\r\n        return (GardenCount-1);\r\n    }\r\n\r\n    function UpdateGardenContact(uint32 _gardenIndex, string calldata _contact) external OnlyOwner(_gardenIndex) {\r\n        AllGarden[_gardenIndex].contact =_contact;\r\n    }\r\n\r\n    function UpdateGardenSecretHash(uint32 _gardenIndex, uint[2] calldata _proofA, uint[2][2] calldata _proofB,\r\n            uint[2] calldata _proofC, uint[2] calldata _newSecretHash) external OnlyOwner(_gardenIndex) OnlyValidProof(_gardenIndex,_proofA,_proofB,_proofC){\r\n        AllGarden[_gardenIndex].secretHash =_newSecretHash;\r\n    }\r\n\r\n    function AcceptGarden(uint32 _gardenIndex) public  {\r\n        OnlyContractAdmin();\r\n        AllGarden[_gardenIndex].status= Status.Free;\r\n    }\r\n\r\n    function RejectGarden(uint32 _gardenIndex) public  {\r\n        OnlyContractAdmin();\r\n        AllGarden[_gardenIndex].status= Status.Blacklist;\r\n    }        \r\n\r\n    function GetLastRentForGarden(uint32 _gardenIndex) private view returns(Rent storage){\r\n        return AllGarden[_gardenIndex].rents[AllGarden[_gardenIndex].rents.length-1];\r\n    }\r\n\r\n    function ProposeGardenOffer(uint32 _gardenIndex, address payable _tenant, \r\n    uint256 _rentingDuration, uint _price, uint[2] calldata _proofA, uint[2][2] calldata _proofB,\r\n            uint[2] calldata _proofC) external OnlyOwner(_gardenIndex) OnlyValidProof(_gardenIndex,_proofA,_proofB,_proofC){\r\n        require(AllGarden[_gardenIndex].status==Status.Free, \"Garden not free\");\r\n        Garden storage garden = AllGarden[_gardenIndex];        \r\n        garden.status= Status.Blocked;\r\n        garden.rents.push();\r\n        Rent storage lastRent = GetLastRentForGarden(_gardenIndex);\r\n        lastRent.gardenIndex=_gardenIndex;\r\n        lastRent.duration=_rentingDuration;\r\n        lastRent.price=_price;\r\n        lastRent.tenant=_tenant;\r\n        lastRent.rate=-1;\r\n    }\r\n\r\n    function DeleteGardenOffer(uint32 _gardenIndex, uint[2] calldata _proofA, uint[2][2] calldata _proofB,\r\n            uint[2] calldata _proofC) external OnlyOwner(_gardenIndex) OnlyValidProof(_gardenIndex,_proofA,_proofB,_proofC){\r\n        require(AllGarden[_gardenIndex].status== Status.Blocked,\"No offer running\");\r\n        AllGarden[_gardenIndex].status= Status.Free;\r\n        AllGarden[_gardenIndex].rents.pop(); //can be very costly, have to be tested\r\n    }\r\n\r\n    function AcceptGardenOffer(uint32 _gardenIndex)external payable{\r\n        Garden storage garden = AllGarden[_gardenIndex];\r\n        Rent storage lastRent = GetLastRentForGarden(_gardenIndex);\r\n        require(garden.status== Status.Blocked, \"No offer running\");\r\n        require(lastRent.tenant== msg.sender, \"Not the correct tenant\");\r\n        require(lastRent.price <= msg.value, \"Insufficient amount\");\r\n        lastRent.balance=msg.value;\r\n        garden.status=Status.CodeWaiting;\r\n    }\r\n\r\n    function AddAccessCodeToGarden(uint32 _gardenIndex, uint[2] memory _proofA, uint[2][2] memory _proofB,\r\n            uint[2] memory _proofC, string memory _hashCode,string memory _encryptedCode) public OnlyOwner(_gardenIndex) OnlyValidProof(_gardenIndex,_proofA,_proofB,_proofC){\r\n        require(AllGarden[_gardenIndex].status==Status.CodeWaiting,\"No location running\");\r\n        Garden storage garden = AllGarden[_gardenIndex];\r\n        Rent storage lastRent = GetLastRentForGarden(_gardenIndex);\r\n        lastRent.beginning=block.timestamp;        \r\n        lastRent.accessCode=AccessCode(_hashCode,_encryptedCode);\r\n        garden.status=Status.Location;\r\n    }\r\n\r\n    function GetRefundBeforeLocation(uint32 _gardenIndex) external {\r\n        require(AllGarden[_gardenIndex].status==Status.CodeWaiting,\"Code is not missing\");\r\n        Rent storage lastRent = GetLastRentForGarden(_gardenIndex);\r\n        require(lastRent.tenant==msg.sender,\"Not the tenant\");\r\n        msg.sender.transfer(lastRent.balance);\r\n        AllGarden[_gardenIndex].status=Status.Free;\r\n    }\r\n    function TransferPaymentToMultipleOwners(uint _amount, Garden memory _garden) internal {\r\n        for (uint256 i = 0; i < _garden.coOwners.length; i++) {\r\n            _garden.coOwners[i].transfer(_amount);\r\n        }\r\n    }\r\n    function IsRentOver(Rent memory _rent) internal view returns (bool){\r\n        if(_rent.beginning + _rent.duration<= block.timestamp){\r\n            return true;\r\n        }\r\n        return false;\r\n    }\r\n    function UpdateLocationStatusAndGetPayment(uint32 _gardenIndex, uint[2] calldata _proofA, uint[2][2] calldata _proofB,\r\n            uint[2] calldata _proofC)external OnlyOwner(_gardenIndex) OnlyValidProof(_gardenIndex,_proofA,_proofB,_proofC){\r\n        Rent storage lastRent = GetLastRentForGarden(_gardenIndex);\r\n        Garden storage garden = AllGarden[_gardenIndex];\r\n        require(garden.status!= Status.Dispute, \"Dispute is running\");\r\n        require(IsRentOver(lastRent),\"Location not over\");\r\n        if(garden.multipleOwners){\r\n            uint256 payroll = lastRent.balance/garden.coOwners.length;\r\n            TransferPaymentToMultipleOwners(payroll,garden);    \r\n        }else{\r\n            garden.owner.transfer(lastRent.balance);\r\n        }\r\n        lastRent.balance=0;\r\n        lastRent.accessCode.hashCode=\"\";\r\n        AllGarden[_gardenIndex].status=Status.Free;\r\n    }    \r\n\r\n    function AddGradeToGarden(uint32 _gardenIndex,int _grade)external returns(bool saved){\r\n        require(_grade<6 && _grade >=0, \"Grade is not in range 0-5\");\r\n        saved=false;\r\n        Rent[] storage allRents = AllGarden[_gardenIndex].rents;\r\n        for (uint256 i = 0; i < allRents.length; i++) {\r\n            if(msg.sender== allRents[i].tenant && allRents[i].rate==int(-1) && IsRentOver(allRents[i])){\r\n                allRents[i].rate=_grade;\r\n                saved=true;\r\n            }\r\n        }\r\n        return saved;\r\n    }\r\n\r\n    function GetEncryptedAccessCodeForGarden(uint32 _gardenIndex)external view returns(string memory) {\r\n        Rent memory lastRent = GetLastRentForGarden(_gardenIndex);\r\n        require(lastRent.tenant==msg.sender,\"Not the tenant\");\r\n        return lastRent.accessCode.encryptedCode;\r\n    }\r\n\r\n    function AddDispute(uint32 _gardenIndex) public {\r\n        Rent memory lastRent = GetLastRentForGarden(_gardenIndex);\r\n        require(lastRent.tenant==msg.sender || AllGarden[_gardenIndex].owner==msg.sender,\"Not the tenant nor the owner\");\r\n        AllGarden[_gardenIndex].status = Status.Dispute;\r\n        AManager.AddDispute(_gardenIndex);\r\n    }\r\n\r\n    function CloseDispute(uint32 _gardenIndex, uint _ownerAmount, uint _tenantAmount) public {\r\n        OnlyContractAdmin();\r\n        Garden storage garden = AllGarden[_gardenIndex];    \r\n        require(garden.status==Status.Dispute, \"No dispute running\"); \r\n        Rent memory lastRent = GetLastRentForGarden(_gardenIndex);   \r\n        if(_tenantAmount!=0){\r\n            lastRent.tenant.transfer(_tenantAmount);\r\n        }\r\n        if(_ownerAmount!=0){\r\n                if(garden.multipleOwners){\r\n                uint256 payroll = _ownerAmount/garden.coOwners.length;\r\n                TransferPaymentToMultipleOwners(payroll,garden);   \r\n            }else{\r\n                garden.owner.transfer(_ownerAmount);\r\n            }\r\n        }        \r\n        lastRent.balance=0;\r\n        lastRent.accessCode.hashCode=\"\";\r\n        garden.status=Status.Free;\r\n    }\r\n}",
  "sourcePath": "C:\\Users\\aymeric.noel\\Desktop\\ZKP\\POC_ZKP\\smart_contracts\\contracts\\GardenManager.sol",
  "compiler": {
    "name": "solc",
    "version": "0.6.1+commit.e6f7d5a4.Emscripten.clang"
  },
  "schemaVersion": "3.3.4",
  "updatedAt": "2021-03-24T17:04:02.386Z",
  "networkType": "ethereum",
  "devdoc": {
    "methods": {}
  },
  "userdoc": {
    "methods": {}
  }
}