{
  "contractName": "GardenManager",
  "abi": [
    {
      "inputs": [
        {
          "internalType": "address",
          "name": "_adminContract",
          "type": "address"
        },
        {
          "internalType": "address",
          "name": "_verifierContract",
          "type": "address"
        }
      ],
      "stateMutability": "nonpayable",
      "type": "constructor"
    },
    {
      "inputs": [],
      "name": "GardenCount",
      "outputs": [
        {
          "internalType": "uint32",
          "name": "",
          "type": "uint32"
        }
      ],
      "stateMutability": "view",
      "type": "function"
    },
    {
      "inputs": [
        {
          "internalType": "address",
          "name": "_verifierContract",
          "type": "address"
        }
      ],
      "name": "ModifyVerifierContract",
      "outputs": [
        {
          "internalType": "address",
          "name": "",
          "type": "address"
        }
      ],
      "stateMutability": "nonpayable",
      "type": "function"
    },
    {
      "inputs": [
        {
          "internalType": "uint256[2]",
          "name": "_secretHash",
          "type": "uint256[2]"
        },
        {
          "internalType": "string",
          "name": "_district",
          "type": "string"
        },
        {
          "internalType": "uint32",
          "name": "_area",
          "type": "uint32"
        },
        {
          "internalType": "string",
          "name": "_contact",
          "type": "string"
        },
        {
          "internalType": "enum GardenManager.GardenType",
          "name": "_gardenType",
          "type": "uint8"
        },
        {
          "internalType": "bool",
          "name": "_multipleOwners",
          "type": "bool"
        },
        {
          "internalType": "address payable[]",
          "name": "_coOwners",
          "type": "address[]"
        }
      ],
      "name": "CreateGarden",
      "outputs": [
        {
          "internalType": "uint32",
          "name": "index",
          "type": "uint32"
        }
      ],
      "stateMutability": "nonpayable",
      "type": "function"
    },
    {
      "inputs": [
        {
          "internalType": "uint32",
          "name": "_gardenIndex",
          "type": "uint32"
        },
        {
          "internalType": "string",
          "name": "_contact",
          "type": "string"
        }
      ],
      "name": "UpdateGardenContact",
      "outputs": [],
      "stateMutability": "nonpayable",
      "type": "function"
    },
    {
      "inputs": [
        {
          "internalType": "uint32",
          "name": "_gardenIndex",
          "type": "uint32"
        },
        {
          "internalType": "uint256[2]",
          "name": "_proofA",
          "type": "uint256[2]"
        },
        {
          "internalType": "uint256[2][2]",
          "name": "_proofB",
          "type": "uint256[2][2]"
        },
        {
          "internalType": "uint256[2]",
          "name": "_proofC",
          "type": "uint256[2]"
        },
        {
          "internalType": "uint256[2]",
          "name": "_newSecretHash",
          "type": "uint256[2]"
        }
      ],
      "name": "UpdateGardenSecretHash",
      "outputs": [],
      "stateMutability": "nonpayable",
      "type": "function"
    },
    {
      "inputs": [
        {
          "internalType": "uint32",
          "name": "_gardenIndex",
          "type": "uint32"
        }
      ],
      "name": "AcceptGarden",
      "outputs": [],
      "stateMutability": "nonpayable",
      "type": "function"
    },
    {
      "inputs": [
        {
          "internalType": "uint32",
          "name": "_gardenIndex",
          "type": "uint32"
        }
      ],
      "name": "RejectGarden",
      "outputs": [],
      "stateMutability": "nonpayable",
      "type": "function"
    },
    {
      "inputs": [
        {
          "internalType": "uint32",
          "name": "_gardenIndex",
          "type": "uint32"
        },
        {
          "internalType": "address payable",
          "name": "_tenant",
          "type": "address"
        },
        {
          "internalType": "uint256",
          "name": "_rentingDuration",
          "type": "uint256"
        },
        {
          "internalType": "uint256",
          "name": "_price",
          "type": "uint256"
        },
        {
          "internalType": "uint256[2]",
          "name": "_proofA",
          "type": "uint256[2]"
        },
        {
          "internalType": "uint256[2][2]",
          "name": "_proofB",
          "type": "uint256[2][2]"
        },
        {
          "internalType": "uint256[2]",
          "name": "_proofC",
          "type": "uint256[2]"
        }
      ],
      "name": "ProposeGardenOffer",
      "outputs": [],
      "stateMutability": "nonpayable",
      "type": "function"
    },
    {
      "inputs": [
        {
          "internalType": "uint32",
          "name": "_gardenIndex",
          "type": "uint32"
        },
        {
          "internalType": "uint256[2]",
          "name": "_proofA",
          "type": "uint256[2]"
        },
        {
          "internalType": "uint256[2][2]",
          "name": "_proofB",
          "type": "uint256[2][2]"
        },
        {
          "internalType": "uint256[2]",
          "name": "_proofC",
          "type": "uint256[2]"
        }
      ],
      "name": "DeleteGardenOffer",
      "outputs": [],
      "stateMutability": "nonpayable",
      "type": "function"
    },
    {
      "inputs": [
        {
          "internalType": "uint32",
          "name": "_gardenIndex",
          "type": "uint32"
        }
      ],
      "name": "AcceptGardenOffer",
      "outputs": [],
      "stateMutability": "payable",
      "type": "function"
    },
    {
      "inputs": [
        {
          "internalType": "uint32",
          "name": "_gardenIndex",
          "type": "uint32"
        },
        {
          "internalType": "uint256[2]",
          "name": "_proofA",
          "type": "uint256[2]"
        },
        {
          "internalType": "uint256[2][2]",
          "name": "_proofB",
          "type": "uint256[2][2]"
        },
        {
          "internalType": "uint256[2]",
          "name": "_proofC",
          "type": "uint256[2]"
        },
        {
          "internalType": "string",
          "name": "_hashCode",
          "type": "string"
        },
        {
          "internalType": "string",
          "name": "_encryptedCode",
          "type": "string"
        }
      ],
      "name": "AddAccessCodeToGarden",
      "outputs": [],
      "stateMutability": "nonpayable",
      "type": "function"
    },
    {
      "inputs": [
        {
          "internalType": "uint32",
          "name": "_gardenIndex",
          "type": "uint32"
        }
      ],
      "name": "GetRefundBeforeLocation",
      "outputs": [],
      "stateMutability": "nonpayable",
      "type": "function"
    },
    {
      "inputs": [
        {
          "internalType": "uint32",
          "name": "_gardenIndex",
          "type": "uint32"
        },
        {
          "internalType": "uint256[2]",
          "name": "_proofA",
          "type": "uint256[2]"
        },
        {
          "internalType": "uint256[2][2]",
          "name": "_proofB",
          "type": "uint256[2][2]"
        },
        {
          "internalType": "uint256[2]",
          "name": "_proofC",
          "type": "uint256[2]"
        }
      ],
      "name": "UpdateLocationStatusAndGetPayment",
      "outputs": [],
      "stateMutability": "nonpayable",
      "type": "function"
    },
    {
      "inputs": [
        {
          "internalType": "uint32",
          "name": "_gardenIndex",
          "type": "uint32"
        },
        {
          "internalType": "int256",
          "name": "_grade",
          "type": "int256"
        }
      ],
      "name": "AddGradeToGarden",
      "outputs": [
        {
          "internalType": "bool",
          "name": "saved",
          "type": "bool"
        }
      ],
      "stateMutability": "nonpayable",
      "type": "function"
    },
    {
      "inputs": [
        {
          "internalType": "uint32",
          "name": "_gardenIndex",
          "type": "uint32"
        }
      ],
      "name": "GetGardenById",
      "outputs": [
        {
          "internalType": "address payable",
          "name": "",
          "type": "address"
        },
        {
          "internalType": "bool",
          "name": "",
          "type": "bool"
        },
        {
          "internalType": "address payable[]",
          "name": "",
          "type": "address[]"
        },
        {
          "internalType": "enum GardenManager.GardenType",
          "name": "",
          "type": "uint8"
        },
        {
          "internalType": "string",
          "name": "",
          "type": "string"
        },
        {
          "internalType": "uint32",
          "name": "",
          "type": "uint32"
        },
        {
          "internalType": "string",
          "name": "",
          "type": "string"
        },
        {
          "internalType": "enum GardenManager.Status",
          "name": "",
          "type": "uint8"
        },
        {
          "components": [
            {
              "internalType": "int256",
              "name": "rate",
              "type": "int256"
            },
            {
              "internalType": "uint32",
              "name": "gardenIndex",
              "type": "uint32"
            },
            {
              "internalType": "uint256",
              "name": "duration",
              "type": "uint256"
            },
            {
              "internalType": "uint256",
              "name": "price",
              "type": "uint256"
            },
            {
              "internalType": "uint256",
              "name": "beginning",
              "type": "uint256"
            },
            {
              "internalType": "uint256",
              "name": "balance",
              "type": "uint256"
            },
            {
              "internalType": "address payable",
              "name": "tenant",
              "type": "address"
            },
            {
              "components": [
                {
                  "internalType": "string",
                  "name": "hashCode",
                  "type": "string"
                },
                {
                  "internalType": "string",
                  "name": "encryptedCode",
                  "type": "string"
                }
              ],
              "internalType": "struct GardenManager.AccessCode",
              "name": "accessCode",
              "type": "tuple"
            }
          ],
          "internalType": "struct GardenManager.Rent[]",
          "name": "",
          "type": "tuple[]"
        }
      ],
      "stateMutability": "view",
      "type": "function"
    },
    {
      "inputs": [
        {
          "internalType": "uint32",
          "name": "_gardenIndex",
          "type": "uint32"
        }
      ],
      "name": "GetEncryptedAccessCodeForGarden",
      "outputs": [
        {
          "internalType": "string",
          "name": "",
          "type": "string"
        }
      ],
      "stateMutability": "view",
      "type": "function"
    }
  ],
  "bytecode": "0x60806040526000600160146101000a81548163ffffffff021916908363ffffffff1602179055503480156200003357600080fd5b506040516200492f3803806200492f8339818101604052620000599190810190620000f9565b81600160006101000a81548173ffffffffffffffffffffffffffffffffffffffff021916908373ffffffffffffffffffffffffffffffffffffffff160217905550806000806101000a81548173ffffffffffffffffffffffffffffffffffffffff021916908373ffffffffffffffffffffffffffffffffffffffff160217905550505062000188565b600081519050620000f3816200016e565b92915050565b600080604083850312156200010d57600080fd5b60006200011d85828601620000e2565b92505060206200013085828601620000e2565b9150509250929050565b600062000147826200014e565b9050919050565b600073ffffffffffffffffffffffffffffffffffffffff82169050919050565b62000179816200013a565b81146200018557600080fd5b50565b61479780620001986000396000f3fe6080604052600436106100f35760003560e01c80639cbc1ea61161008a578063cb0fe05f11610059578063cb0fe05f14610352578063d04def9e1461036e578063d507192e14610397578063edb630b9146103c0576100f3565b80639cbc1ea61461029a578063a5d66516146102c3578063ac6bbf5a146102ec578063c36461e514610329576100f3565b806333f1e62f116100c657806333f1e62f146101b057806344d2713e146101ed57806347c4788414610232578063850fca061461026f576100f3565b80630160982d146100f8578063052411cf146101215780631c4e92451461014a57806325810b8214610187575b600080fd5b34801561010457600080fd5b5061011f600480360361011a9190810190613541565b6103e9565b005b34801561012d57600080fd5b50610148600480360361014391908101906136b2565b6105ec565b005b34801561015657600080fd5b50610171600480360361016c9190810190613676565b6106d9565b60405161017e91906140dd565b60405180910390f35b34801561019357600080fd5b506101ae60048036036101a99190810190613414565b610a9b565b005b3480156101bc57600080fd5b506101d760048036036101d29190810190613414565b610b72565b6040516101e491906140f8565b60405180910390f35b3480156101f957600080fd5b50610214600480360361020f9190810190613414565b610e1c565b60405161022999989796959493929190613fed565b60405180910390f35b34801561023e57600080fd5b5061025960048036036102549190810190613304565b61142b565b60405161026691906142da565b60405180910390f35b34801561027b57600080fd5b50610284611694565b60405161029191906142da565b60405180910390f35b3480156102a657600080fd5b506102c160048036036102bc91908101906134dd565b6116aa565b005b3480156102cf57600080fd5b506102ea60048036036102e59190810190613414565b611a17565b005b3480156102f857600080fd5b50610313600480360361030e91908101906132db565b611aee565b6040516103209190613fd2565b60405180910390f35b34801561033557600080fd5b50610350600480360361034b91908101906134dd565b611bc8565b005b61036c60048036036103679190810190613414565b6121dc565b005b34801561037a57600080fd5b5061039560048036036103909190810190613414565b612383565b005b3480156103a357600080fd5b506103be60048036036103b9919081019061343d565b61253d565b005b3480156103cc57600080fd5b506103e760048036036103e291908101906135ba565b6128b3565b005b843373ffffffffffffffffffffffffffffffffffffffff16600260008363ffffffff1663ffffffff16815260200190815260200160002060000160009054906101000a900473ffffffffffffffffffffffffffffffffffffffff1673ffffffffffffffffffffffffffffffffffffffff161461049a576040517f08c379a00000000000000000000000000000000000000000000000000000000081526004016104919061419a565b60405180910390fd5b858585856000809054906101000a900473ffffffffffffffffffffffffffffffffffffffff1673ffffffffffffffffffffffffffffffffffffffff1663621e9ec0848484600260008a63ffffffff1663ffffffff1681526020019081526020016000206005016040518563ffffffff1660e01b815260040161051f9493929190614096565b60206040518083038186803b15801561053757600080fd5b505afa15801561054b573d6000803e3d6000fd5b505050506040513d601f19601f8201168201806040525061056f91908101906133eb565b6105ae576040517f08c379a00000000000000000000000000000000000000000000000000000000081526004016105a59061417a565b60405180910390fd5b85600260008c63ffffffff1663ffffffff1681526020019081526020016000206005019060026105df929190612c56565b5050505050505050505050565b813373ffffffffffffffffffffffffffffffffffffffff16600260008363ffffffff1663ffffffff16815260200190815260200160002060000160009054906101000a900473ffffffffffffffffffffffffffffffffffffffff1673ffffffffffffffffffffffffffffffffffffffff161461069d576040517f08c379a00000000000000000000000000000000000000000000000000000000081526004016106949061419a565b60405180910390fd5b81600260008563ffffffff1663ffffffff16815260200190815260200160002060070190805190602001906106d3929190612c96565b50505050565b60006006821280156106ec575060008212155b61072b576040517f08c379a00000000000000000000000000000000000000000000000000000000081526004016107229061427a565b60405180910390fd5b600090506000600260008563ffffffff1663ffffffff168152602001908152602001600020600901905060008090505b8180549050811015610a905781818154811061077357fe5b906000526020600020906009020160060160009054906101000a900473ffffffffffffffffffffffffffffffffffffffff1673ffffffffffffffffffffffffffffffffffffffff163373ffffffffffffffffffffffffffffffffffffffff1614801561081b57507fffffffffffffffffffffffffffffffffffffffffffffffffffffffffffffffff82828154811061080757fe5b906000526020600020906009020160000154145b8015610a575750610a5682828154811061083157fe5b906000526020600020906009020160405180610100016040529081600082015481526020016001820160009054906101000a900463ffffffff1663ffffffff1663ffffffff168152602001600282015481526020016003820154815260200160048201548152602001600582015481526020016006820160009054906101000a900473ffffffffffffffffffffffffffffffffffffffff1673ffffffffffffffffffffffffffffffffffffffff1673ffffffffffffffffffffffffffffffffffffffff16815260200160078201604051806040016040529081600082018054600181600116156101000203166002900480601f0160208091040260200160405190810160405280929190818152602001828054600181600116156101000203166002900480156109a25780601f10610977576101008083540402835291602001916109a2565b820191906000526020600020905b81548152906001019060200180831161098557829003601f168201915b50505050508152602001600182018054600181600116156101000203166002900480601f016020809104026020016040519081016040528092919081815260200182805460018160011615610100020316600290048015610a445780601f10610a1957610100808354040283529160200191610a44565b820191906000526020600020905b815481529060010190602001808311610a2757829003601f168201915b50505050508152505081525050612bc4565b5b15610a835783828281548110610a6957fe5b906000526020600020906009020160000181905550600192505b808060010191505061075b565b508191505092915050565b600160009054906101000a900473ffffffffffffffffffffffffffffffffffffffff1673ffffffffffffffffffffffffffffffffffffffff163373ffffffffffffffffffffffffffffffffffffffff1614610b2b576040517f08c379a0000000000000000000000000000000000000000000000000000000008152600401610b229061425a565b60405180910390fd5b6001600260008363ffffffff1663ffffffff16815260200190815260200160002060080160006101000a81548160ff02191690836005811115610b6a57fe5b021790555050565b6060610b7c612d16565b610b8583612bea565b60405180610100016040529081600082015481526020016001820160009054906101000a900463ffffffff1663ffffffff1663ffffffff168152602001600282015481526020016003820154815260200160048201548152602001600582015481526020016006820160009054906101000a900473ffffffffffffffffffffffffffffffffffffffff1673ffffffffffffffffffffffffffffffffffffffff1673ffffffffffffffffffffffffffffffffffffffff16815260200160078201604051806040016040529081600082018054600181600116156101000203166002900480601f016020809104026020016040519081016040528092919081815260200182805460018160011615610100020316600290048015610ce85780601f10610cbd57610100808354040283529160200191610ce8565b820191906000526020600020905b815481529060010190602001808311610ccb57829003601f168201915b50505050508152602001600182018054600181600116156101000203166002900480601f016020809104026020016040519081016040528092919081815260200182805460018160011615610100020316600290048015610d8a5780601f10610d5f57610100808354040283529160200191610d8a565b820191906000526020600020905b815481529060010190602001808311610d6d57829003601f168201915b5050505050815250508152505090503373ffffffffffffffffffffffffffffffffffffffff168160c0015173ffffffffffffffffffffffffffffffffffffffff1614610e0b576040517f08c379a0000000000000000000000000000000000000000000000000000000008152600401610e029061411a565b60405180910390fd5b8060e0015160200151915050919050565b6000806060600060606000606060006060610e35612d7d565b600260008c63ffffffff1663ffffffff168152602001908152602001600020604051806101400160405290816000820160009054906101000a900473ffffffffffffffffffffffffffffffffffffffff1673ffffffffffffffffffffffffffffffffffffffff1673ffffffffffffffffffffffffffffffffffffffff1681526020016000820160149054906101000a900460ff1615151515815260200160018201805480602002602001604051908101604052809291908181526020018280548015610f5657602002820191906000526020600020905b8160009054906101000a900473ffffffffffffffffffffffffffffffffffffffff1673ffffffffffffffffffffffffffffffffffffffff1681526020019060010190808311610f0c575b505050505081526020016002820160009054906101000a900460ff166001811115610f7d57fe5b6001811115610f8857fe5b8152602001600382018054600181600116156101000203166002900480601f0160208091040260200160405190810160405280929190818152602001828054600181600116156101000203166002900480156110255780601f10610ffa57610100808354040283529160200191611025565b820191906000526020600020905b81548152906001019060200180831161100857829003601f168201915b505050505081526020016004820160009054906101000a900463ffffffff1663ffffffff1663ffffffff16815260200160058201600280602002604051908101604052809291908260028015611090576020028201915b81548152602001906001019080831161107c575b50505050508152602001600782018054600181600116156101000203166002900480601f0160208091040260200160405190810160405280929190818152602001828054600181600116156101000203166002900480156111325780601f1061110757610100808354040283529160200191611132565b820191906000526020600020905b81548152906001019060200180831161111557829003601f168201915b505050505081526020016008820160009054906101000a900460ff16600581111561115957fe5b600581111561116457fe5b815260200160098201805480602002602001604051908101604052809291908181526020016000905b828210156113c6578382906000526020600020906009020160405180610100016040529081600082015481526020016001820160009054906101000a900463ffffffff1663ffffffff1663ffffffff168152602001600282015481526020016003820154815260200160048201548152602001600582015481526020016006820160009054906101000a900473ffffffffffffffffffffffffffffffffffffffff1673ffffffffffffffffffffffffffffffffffffffff1673ffffffffffffffffffffffffffffffffffffffff16815260200160078201604051806040016040529081600082018054600181600116156101000203166002900480601f0160208091040260200160405190810160405280929190818152602001828054600181600116156101000203166002900480156113085780601f106112dd57610100808354040283529160200191611308565b820191906000526020600020905b8154815290600101906020018083116112eb57829003601f168201915b50505050508152602001600182018054600181600116156101000203166002900480601f0160208091040260200160405190810160405280929190818152602001828054600181600116156101000203166002900480156113aa5780601f1061137f576101008083540402835291602001916113aa565b820191906000526020600020905b81548152906001019060200180831161138d57829003601f168201915b505050505081525050815250508152602001906001019061118d565b50505050815250509050806000015181602001518260400151836060015184608001518560a001518660e00151876101000151886101200151869650849450829250809050995099509950995099509950995099509950509193959799909294969850565b60008060026000600160149054906101000a900463ffffffff1663ffffffff1663ffffffff1681526020019081526020016000209050868160040160006101000a81548163ffffffff021916908363ffffffff1602179055508581600701908051906020019061149c929190612c96565b50848160020160006101000a81548160ff021916908360018111156114bd57fe5b021790555088816005019060026114d5929190612c56565b50878160030190805190602001906114ee929190612c96565b5060008160080160006101000a81548160ff0219169083600581111561151057fe5b0217905550338160000160006101000a81548173ffffffffffffffffffffffffffffffffffffffff021916908373ffffffffffffffffffffffffffffffffffffffff16021790555083156115955760018160000160146101000a81548160ff02191690831515021790555082816001019080519060200190611593929190612e0a565b505b600160009054906101000a900473ffffffffffffffffffffffffffffffffffffffff1673ffffffffffffffffffffffffffffffffffffffff16636eb5c390600160149054906101000a900463ffffffff168b6040518363ffffffff1660e01b81526004016116049291906142f5565b600060405180830381600087803b15801561161e57600080fd5b505af1158015611632573d6000803e3d6000fd5b505050506001601481819054906101000a900463ffffffff168092919060010191906101000a81548163ffffffff021916908363ffffffff1602179055505060018060149054906101000a900463ffffffff1603915050979650505050505050565b600160149054906101000a900463ffffffff1681565b833373ffffffffffffffffffffffffffffffffffffffff16600260008363ffffffff1663ffffffff16815260200190815260200160002060000160009054906101000a900473ffffffffffffffffffffffffffffffffffffffff1673ffffffffffffffffffffffffffffffffffffffff161461175b576040517f08c379a00000000000000000000000000000000000000000000000000000000081526004016117529061419a565b60405180910390fd5b848484846000809054906101000a900473ffffffffffffffffffffffffffffffffffffffff1673ffffffffffffffffffffffffffffffffffffffff1663621e9ec0848484600260008a63ffffffff1663ffffffff1681526020019081526020016000206005016040518563ffffffff1660e01b81526004016117e09493929190614096565b60206040518083038186803b1580156117f857600080fd5b505afa15801561180c573d6000803e3d6000fd5b505050506040513d601f19601f8201168201806040525061183091908101906133eb565b61186f576040517f08c379a00000000000000000000000000000000000000000000000000000000081526004016118669061417a565b60405180910390fd5b6002600581111561187c57fe5b600260008b63ffffffff1663ffffffff16815260200190815260200160002060080160009054906101000a900460ff1660058111156118b757fe5b146118f7576040517f08c379a00000000000000000000000000000000000000000000000000000000081526004016118ee9061421a565b60405180910390fd5b6001600260008b63ffffffff1663ffffffff16815260200190815260200160002060080160006101000a81548160ff0219169083600581111561193657fe5b0217905550600260008a63ffffffff1663ffffffff16815260200190815260200160002060090180548061196657fe5b60019003818190600052602060002090600902016000808201600090556001820160006101000a81549063ffffffff021916905560028201600090556003820160009055600482016000905560058201600090556006820160006101000a81549073ffffffffffffffffffffffffffffffffffffffff021916905560078201600080820160006119f69190612e94565b600182016000611a069190612e94565b505050509055505050505050505050565b600160009054906101000a900473ffffffffffffffffffffffffffffffffffffffff1673ffffffffffffffffffffffffffffffffffffffff163373ffffffffffffffffffffffffffffffffffffffff1614611aa7576040517f08c379a0000000000000000000000000000000000000000000000000000000008152600401611a9e9061425a565b60405180910390fd5b6005600260008363ffffffff1663ffffffff16815260200190815260200160002060080160006101000a81548160ff02191690836005811115611ae657fe5b021790555050565b6000600160009054906101000a900473ffffffffffffffffffffffffffffffffffffffff1673ffffffffffffffffffffffffffffffffffffffff163373ffffffffffffffffffffffffffffffffffffffff1614611b80576040517f08c379a0000000000000000000000000000000000000000000000000000000008152600401611b779061425a565b60405180910390fd5b816000806101000a81548173ffffffffffffffffffffffffffffffffffffffff021916908373ffffffffffffffffffffffffffffffffffffffff160217905550819050919050565b833373ffffffffffffffffffffffffffffffffffffffff16600260008363ffffffff1663ffffffff16815260200190815260200160002060000160009054906101000a900473ffffffffffffffffffffffffffffffffffffffff1673ffffffffffffffffffffffffffffffffffffffff1614611c79576040517f08c379a0000000000000000000000000000000000000000000000000000000008152600401611c709061419a565b60405180910390fd5b848484846000809054906101000a900473ffffffffffffffffffffffffffffffffffffffff1673ffffffffffffffffffffffffffffffffffffffff1663621e9ec0848484600260008a63ffffffff1663ffffffff1681526020019081526020016000206005016040518563ffffffff1660e01b8152600401611cfe9493929190614096565b60206040518083038186803b158015611d1657600080fd5b505afa158015611d2a573d6000803e3d6000fd5b505050506040513d601f19601f82011682018060405250611d4e91908101906133eb565b611d8d576040517f08c379a0000000000000000000000000000000000000000000000000000000008152600401611d849061417a565b60405180910390fd5b6000611d988a612bea565b90506000600260008c63ffffffff1663ffffffff1681526020019081526020016000209050611fd88260405180610100016040529081600082015481526020016001820160009054906101000a900463ffffffff1663ffffffff1663ffffffff168152602001600282015481526020016003820154815260200160048201548152602001600582015481526020016006820160009054906101000a900473ffffffffffffffffffffffffffffffffffffffff1673ffffffffffffffffffffffffffffffffffffffff1673ffffffffffffffffffffffffffffffffffffffff16815260200160078201604051806040016040529081600082018054600181600116156101000203166002900480601f016020809104026020016040519081016040528092919081815260200182805460018160011615610100020316600290048015611f245780601f10611ef957610100808354040283529160200191611f24565b820191906000526020600020905b815481529060010190602001808311611f0757829003601f168201915b50505050508152602001600182018054600181600116156101000203166002900480601f016020809104026020016040519081016040528092919081815260200182805460018160011615610100020316600290048015611fc65780601f10611f9b57610100808354040283529160200191611fc6565b820191906000526020600020905b815481529060010190602001808311611fa957829003601f168201915b50505050508152505081525050612bc4565b612017576040517f08c379a000000000000000000000000000000000000000000000000000000000815260040161200e906141fa565b60405180910390fd5b8060000160149054906101000a900460ff16156120f0576000816001018054905083600501548161204457fe5b04905060008090505b82600101805490508110156120e95782600101818154811061206b57fe5b9060005260206000200160009054906101000a900473ffffffffffffffffffffffffffffffffffffffff1673ffffffffffffffffffffffffffffffffffffffff166108fc839081150290604051600060405180830381858888f193505050501580156120db573d6000803e3d6000fd5b50808060010191505061204d565b5050612160565b8060000160009054906101000a900473ffffffffffffffffffffffffffffffffffffffff1673ffffffffffffffffffffffffffffffffffffffff166108fc83600501549081150290604051600060405180830381858888f1935050505015801561215e573d6000803e3d6000fd5b505b6040518060200160405280600081525082600701600001908051906020019061218a929190612c96565b506001600260008d63ffffffff1663ffffffff16815260200190815260200160002060080160006101000a81548160ff021916908360058111156121ca57fe5b02179055505050505050505050505050565b6000600260008363ffffffff1663ffffffff1681526020019081526020016000209050600061220a83612bea565b90506002600581111561221957fe5b8260080160009054906101000a900460ff16600581111561223657fe5b14612276576040517f08c379a000000000000000000000000000000000000000000000000000000000815260040161226d906141da565b60405180910390fd5b3373ffffffffffffffffffffffffffffffffffffffff168160060160009054906101000a900473ffffffffffffffffffffffffffffffffffffffff1673ffffffffffffffffffffffffffffffffffffffff1614612308576040517f08c379a00000000000000000000000000000000000000000000000000000000081526004016122ff906141ba565b60405180910390fd5b348160030154111561234f576040517f08c379a00000000000000000000000000000000000000000000000000000000081526004016123469061413a565b60405180910390fd5b34816005018190555060038260080160006101000a81548160ff0219169083600581111561237957fe5b0217905550505050565b6003600581111561239057fe5b600260008363ffffffff1663ffffffff16815260200190815260200160002060080160009054906101000a900460ff1660058111156123cb57fe5b1461240b576040517f08c379a00000000000000000000000000000000000000000000000000000000081526004016124029061429a565b60405180910390fd5b600061241682612bea565b90503373ffffffffffffffffffffffffffffffffffffffff168160060160009054906101000a900473ffffffffffffffffffffffffffffffffffffffff1673ffffffffffffffffffffffffffffffffffffffff16146124aa576040517f08c379a00000000000000000000000000000000000000000000000000000000081526004016124a19061415a565b60405180910390fd5b3373ffffffffffffffffffffffffffffffffffffffff166108fc82600501549081150290604051600060405180830381858888f193505050501580156124f4573d6000803e3d6000fd5b506001600260008463ffffffff1663ffffffff16815260200190815260200160002060080160006101000a81548160ff0219169083600581111561253457fe5b02179055505050565b866001600581111561254b57fe5b600260008363ffffffff1663ffffffff16815260200190815260200160002060080160009054906101000a900460ff16600581111561258657fe5b146125c6576040517f08c379a00000000000000000000000000000000000000000000000000000000081526004016125bd906142ba565b60405180910390fd5b873373ffffffffffffffffffffffffffffffffffffffff16600260008363ffffffff1663ffffffff16815260200190815260200160002060000160009054906101000a900473ffffffffffffffffffffffffffffffffffffffff1673ffffffffffffffffffffffffffffffffffffffff1614612677576040517f08c379a000000000000000000000000000000000000000000000000000000000815260040161266e9061419a565b60405180910390fd5b888585856000809054906101000a900473ffffffffffffffffffffffffffffffffffffffff1673ffffffffffffffffffffffffffffffffffffffff1663621e9ec0848484600260008a63ffffffff1663ffffffff1681526020019081526020016000206005016040518563ffffffff1660e01b81526004016126fc9493929190614096565b60206040518083038186803b15801561271457600080fd5b505afa158015612728573d6000803e3d6000fd5b505050506040513d601f19601f8201168201806040525061274c91908101906133eb565b61278b576040517f08c379a00000000000000000000000000000000000000000000000000000000081526004016127829061417a565b60405180910390fd5b6000600260008f63ffffffff1663ffffffff168152602001908152602001600020905060028160080160006101000a81548160ff021916908360058111156127cf57fe5b0217905550806009016001816001815401808255809150500390600052602060002090505060006127ff8f612bea565b90508e8160010160006101000a81548163ffffffff021916908363ffffffff1602179055508c81600201819055508b81600301819055508d8160060160006101000a81548173ffffffffffffffffffffffffffffffffffffffff021916908373ffffffffffffffffffffffffffffffffffffffff1602179055507fffffffffffffffffffffffffffffffffffffffffffffffffffffffffffffffff8160000181905550505050505050505050505050505050565b853373ffffffffffffffffffffffffffffffffffffffff16600260008363ffffffff1663ffffffff16815260200190815260200160002060000160009054906101000a900473ffffffffffffffffffffffffffffffffffffffff1673ffffffffffffffffffffffffffffffffffffffff1614612964576040517f08c379a000000000000000000000000000000000000000000000000000000000815260040161295b9061419a565b60405180910390fd5b868686866000809054906101000a900473ffffffffffffffffffffffffffffffffffffffff1673ffffffffffffffffffffffffffffffffffffffff1663621e9ec0848484600260008a63ffffffff1663ffffffff1681526020019081526020016000206005016040518563ffffffff1660e01b81526004016129e99493929190614096565b60206040518083038186803b158015612a0157600080fd5b505afa158015612a15573d6000803e3d6000fd5b505050506040513d601f19601f82011682018060405250612a3991908101906133eb565b612a78576040517f08c379a0000000000000000000000000000000000000000000000000000000008152600401612a6f9061417a565b60405180910390fd5b60036005811115612a8557fe5b600260008d63ffffffff1663ffffffff16815260200190815260200160002060080160009054906101000a900460ff166005811115612ac057fe5b14612b00576040517f08c379a0000000000000000000000000000000000000000000000000000000008152600401612af79061423a565b60405180910390fd5b6000600260008d63ffffffff1663ffffffff16815260200190815260200160002090506000612b2e8d612bea565b905042816004018190555060405180604001604052808a815260200189815250816007016000820151816000019080519060200190612b6e929190612edc565b506020820151816001019080519060200190612b8b929190612edc565b5090505060048260080160006101000a81548160ff02191690836005811115612bb057fe5b021790555050505050505050505050505050565b600042826040015183608001510111612be05760019050612be5565b600090505b919050565b6000600260008363ffffffff1663ffffffff1681526020019081526020016000206009016001600260008563ffffffff1663ffffffff168152602001908152602001600020600901805490500381548110612c4157fe5b90600052602060002090600902019050919050565b8260028101928215612c85579160200282015b82811115612c84578251825591602001919060010190612c69565b5b509050612c929190612f5c565b5090565b828054600181600116156101000203166002900490600052602060002090601f016020900481019282601f10612cd757805160ff1916838001178555612d05565b82800160010185558215612d05579182015b82811115612d04578251825591602001919060010190612ce9565b5b509050612d129190612f5c565b5090565b60405180610100016040528060008152602001600063ffffffff16815260200160008152602001600081526020016000815260200160008152602001600073ffffffffffffffffffffffffffffffffffffffff168152602001612d77612f81565b81525090565b604051806101400160405280600073ffffffffffffffffffffffffffffffffffffffff1681526020016000151581526020016060815260200160006001811115612dc357fe5b815260200160608152602001600063ffffffff168152602001612de4612f9b565b81526020016060815260200160006005811115612dfd57fe5b8152602001606081525090565b828054828255906000526020600020908101928215612e83579160200282015b82811115612e825782518260006101000a81548173ffffffffffffffffffffffffffffffffffffffff021916908373ffffffffffffffffffffffffffffffffffffffff16021790555091602001919060010190612e2a565b5b509050612e909190612fbd565b5090565b50805460018160011615610100020316600290046000825580601f10612eba5750612ed9565b601f016020900490600052602060002090810190612ed89190612f5c565b5b50565b828054600181600116156101000203166002900490600052602060002090601f016020900481019282601f10612f1d57805160ff1916838001178555612f4b565b82800160010185558215612f4b579182015b82811115612f4a578251825591602001919060010190612f2f565b5b509050612f589190612f5c565b5090565b612f7e91905b80821115612f7a576000816000905550600101612f62565b5090565b90565b604051806040016040528060608152602001606081525090565b6040518060400160405280600290602082028038833980820191505090505090565b612ffd91905b80821115612ff957600081816101000a81549073ffffffffffffffffffffffffffffffffffffffff021916905550600101612fc3565b5090565b90565b60008135905061300f816146c7565b92915050565b600081359050613024816146de565b92915050565b600082601f83011261303b57600080fd5b813561304e6130498261434b565b61431e565b9150818183526020840193506020810190508385602084028201111561307357600080fd5b60005b838110156130a357816130898882613015565b845260208401935060208301925050600181019050613076565b5050505092915050565b600082601f8301126130be57600080fd5b60026130d16130cc82614373565b61431e565b915081838560408402820111156130e757600080fd5b60005b8381101561311757816130fd8882613121565b8452602084019350604083019250506001810190506130ea565b5050505092915050565b600082601f83011261313257600080fd5b600261314561314082614395565b61431e565b9150818385602084028201111561315b57600080fd5b60005b8381101561318b578161317188826132b1565b84526020840193506020830192505060018101905061315e565b5050505092915050565b600082601f8301126131a657600080fd5b60026131b96131b4826143b7565b61431e565b915081838560208402820111156131cf57600080fd5b60005b838110156131ff57816131e588826132b1565b8452602084019350602083019250506001810190506131d2565b5050505092915050565b600081359050613218816146f5565b92915050565b60008151905061322d816146f5565b92915050565b6000813590506132428161470c565b92915050565b6000813590506132578161471c565b92915050565b600082601f83011261326e57600080fd5b813561328161327c826143d9565b61431e565b9150808252602083016020830185838301111561329d57600080fd5b6132a8838284614620565b50505092915050565b6000813590506132c081614733565b92915050565b6000813590506132d58161474a565b92915050565b6000602082840312156132ed57600080fd5b60006132fb84828501613000565b91505092915050565b6000806000806000806000610100888a03121561332057600080fd5b600061332e8a828b01613195565b975050604088013567ffffffffffffffff81111561334b57600080fd5b6133578a828b0161325d565b96505060606133688a828b016132c6565b955050608088013567ffffffffffffffff81111561338557600080fd5b6133918a828b0161325d565b94505060a06133a28a828b01613233565b93505060c06133b38a828b01613209565b92505060e088013567ffffffffffffffff8111156133d057600080fd5b6133dc8a828b0161302a565b91505092959891949750929550565b6000602082840312156133fd57600080fd5b600061340b8482850161321e565b91505092915050565b60006020828403121561342657600080fd5b6000613434848285016132c6565b91505092915050565b6000806000806000806000610180888a03121561345957600080fd5b60006134678a828b016132c6565b97505060206134788a828b01613015565b96505060406134898a828b016132b1565b955050606061349a8a828b016132b1565b94505060806134ab8a828b01613195565b93505060c06134bc8a828b016130ad565b9250506101406134ce8a828b01613195565b91505092959891949750929550565b60008060008061012085870312156134f457600080fd5b6000613502878288016132c6565b945050602061351387828801613195565b9350506060613524878288016130ad565b92505060e061353587828801613195565b91505092959194509250565b6000806000806000610160868803121561355a57600080fd5b6000613568888289016132c6565b955050602061357988828901613195565b945050606061358a888289016130ad565b93505060e061359b88828901613195565b9250506101206135ad88828901613195565b9150509295509295909350565b60008060008060008061016087890312156135d457600080fd5b60006135e289828a016132c6565b96505060206135f389828a01613195565b955050606061360489828a016130ad565b94505060e061361589828a01613195565b93505061012087013567ffffffffffffffff81111561363357600080fd5b61363f89828a0161325d565b92505061014087013567ffffffffffffffff81111561365d57600080fd5b61366989828a0161325d565b9150509295509295509295565b6000806040838503121561368957600080fd5b6000613697858286016132c6565b92505060206136a885828601613248565b9150509250929050565b600080604083850312156136c557600080fd5b60006136d3858286016132c6565b925050602083013567ffffffffffffffff8111156136f057600080fd5b6136fc8582860161325d565b9150509250929050565b60006137128383613762565b60208301905092915050565b600061372a8383613910565b60408301905092915050565b60006137428383613ef5565b905092915050565b60006137568383613fa5565b60208301905092915050565b61376b81614574565b82525050565b61377a81614574565b82525050565b61378981614562565b82525050565b600061379a8261444d565b6137a481856144f3565b93506137af83614405565b8060005b838110156137e05781516137c78882613706565b97506137d2836144a5565b9250506001810190506137b3565b5085935050505092915050565b6137f681614458565b6138008184614504565b925061380b82614415565b8060005b8381101561383c578151613823878261371e565b965061382e836144b2565b92505060018101905061380f565b505050505050565b600061384f82614463565b613859818561450f565b93508360208202850161386b8561441f565b8060005b858110156138a757848403895281516138888582613736565b9450613893836144bf565b925060208a0199505060018101905061386f565b50829750879550505050505092915050565b6138c281614479565b6138cc818461452b565b92506138d782614439565b8060005b838110156139085781516138ef878261374a565b96506138fa836144d9565b9250506001810190506138db565b505050505050565b6139198161446e565b6139238184614520565b925061392e8261442f565b8060005b8381101561395f578151613946878261374a565b9650613951836144cc565b925050600181019050613932565b505050505050565b61397081614484565b61397a818461452b565b925061398582614443565b8060005b838110156139bd5761399a8261467c565b6139a4878261374a565b96506139af836144e6565b925050600181019050613989565b505050505050565b6139ce81614586565b82525050565b6139dd816145fc565b82525050565b6139ec8161460e565b82525050565b6139fb816145b8565b82525050565b6000613a0c8261449a565b613a168185614547565b9350613a2681856020860161462f565b613a2f8161468f565b840191505092915050565b6000613a458261448f565b613a4f8185614536565b9350613a5f81856020860161462f565b613a688161468f565b840191505092915050565b6000613a80602d83614547565b91507f43616e27742061636365737320746f20636f646520696620796f75277265206e60008301527f6f74207468652074656e616e74000000000000000000000000000000000000006020830152604082019050919050565b6000613ae6601d83614547565b91507f416d6f756e7420666f722072656e747320696e73756666696369656e740000006000830152602082019050919050565b6000613b26602583614547565b91507f43616e277420726566756e6420696620796f75277265206e6f7420746865207460008301527f656e616e740000000000000000000000000000000000000000000000000000006020830152604082019050919050565b6000613b8c601f83614547565b91507f50726f6f66206f66207365637265742073686f756c642062652076616c6964006000830152602082019050919050565b6000613bcc601d83614547565b91507f4f6e6c792067617264656e206f776e65722073686f756c642063616c6c0000006000830152602082019050919050565b6000613c0c602783614547565b91507f53686f756c642062652074686520636f72726563742074656e616e742070756260008301527f6c6963206b6579000000000000000000000000000000000000000000000000006020830152604082019050919050565b6000613c72601f83614547565b91507f47617264656e2073686f756c6420626520626c6f636b20666f722075736572006000830152602082019050919050565b6000613cb2602f83614547565b91507f43616e2774207769746864726177206574686572206265666f7265207468652060008301527f656e64206f66206c6f636174696f6e00000000000000000000000000000000006020830152604082019050919050565b6000613d18601983614547565b91507f5468657265206973206e6f206f666665722072756e6e696e67000000000000006000830152602082019050919050565b6000613d58601d83614547565b91507f43616e27742061646420636f6465206966206e6f206c6f636174696f6e0000006000830152602082019050919050565b6000613d98602883614547565b91507f4f6e6c792061646d696e6973747261746f7220636f6e74726163742073686f7560008301527f6c642063616c6c2e0000000000000000000000000000000000000000000000006020830152604082019050919050565b6000613dfe601983614547565b91507f4772616465206973206e6f7420696e2072616e676520302d35000000000000006000830152602082019050919050565b6000613e3e601383614547565b91507f436f6465206973206e6f74206d697373696e67000000000000000000000000006000830152602082019050919050565b6000613e7e601683614547565b91507f47617264656e2073686f756c6420626520667265652e000000000000000000006000830152602082019050919050565b60006040830160008301518482036000860152613ece8282613a3a565b91505060208301518482036020860152613ee88282613a3a565b9150508091505092915050565b600061010083016000830151613f0e60008601826139f2565b506020830151613f216020860182613fb4565b506040830151613f346040860182613fa5565b506060830151613f476060860182613fa5565b506080830151613f5a6080860182613fa5565b5060a0830151613f6d60a0860182613fa5565b5060c0830151613f8060c0860182613762565b5060e083015184820360e0860152613f988282613eb1565b9150508091505092915050565b613fae816145e2565b82525050565b613fbd816145ec565b82525050565b613fcc816145ec565b82525050565b6000602082019050613fe76000830184613780565b92915050565b600061012082019050614003600083018c613771565b614010602083018b6139c5565b8181036040830152614022818a61378f565b905061403160608301896139d4565b81810360808301526140438188613a01565b905061405260a0830187613fc3565b81810360c08301526140648186613a01565b905061407360e08301856139e3565b8181036101008301526140868184613844565b90509a9950505050505050505050565b6000610140820190506140ac60008301876138b9565b6140b960408301866137ed565b6140c660c08301856138b9565b6140d4610100830184613967565b95945050505050565b60006020820190506140f260008301846139c5565b92915050565b600060208201905081810360008301526141128184613a01565b905092915050565b6000602082019050818103600083015261413381613a73565b9050919050565b6000602082019050818103600083015261415381613ad9565b9050919050565b6000602082019050818103600083015261417381613b19565b9050919050565b6000602082019050818103600083015261419381613b7f565b9050919050565b600060208201905081810360008301526141b381613bbf565b9050919050565b600060208201905081810360008301526141d381613bff565b9050919050565b600060208201905081810360008301526141f381613c65565b9050919050565b6000602082019050818103600083015261421381613ca5565b9050919050565b6000602082019050818103600083015261423381613d0b565b9050919050565b6000602082019050818103600083015261425381613d4b565b9050919050565b6000602082019050818103600083015261427381613d8b565b9050919050565b6000602082019050818103600083015261429381613df1565b9050919050565b600060208201905081810360008301526142b381613e31565b9050919050565b600060208201905081810360008301526142d381613e71565b9050919050565b60006020820190506142ef6000830184613fc3565b92915050565b600060608201905061430a6000830185613fc3565b61431760208301846138b9565b9392505050565b6000604051905081810181811067ffffffffffffffff8211171561434157600080fd5b8060405250919050565b600067ffffffffffffffff82111561436257600080fd5b602082029050602081019050919050565b600067ffffffffffffffff82111561438a57600080fd5b602082029050919050565b600067ffffffffffffffff8211156143ac57600080fd5b602082029050919050565b600067ffffffffffffffff8211156143ce57600080fd5b602082029050919050565b600067ffffffffffffffff8211156143f057600080fd5b601f19601f8301169050602081019050919050565b6000819050602082019050919050565b6000819050919050565b6000819050602082019050919050565b6000819050919050565b6000819050919050565b6000819050919050565b600081519050919050565b600060029050919050565b600081519050919050565b600060029050919050565b600060029050919050565b600060029050919050565b600081519050919050565b600081519050919050565b6000602082019050919050565b6000602082019050919050565b6000602082019050919050565b6000602082019050919050565b6000602082019050919050565b6000600182019050919050565b600082825260208201905092915050565b600081905092915050565b600082825260208201905092915050565b600081905092915050565b600081905092915050565b600082825260208201905092915050565b600082825260208201905092915050565b6000819050919050565b600061456d826145c2565b9050919050565b600061457f826145c2565b9050919050565b60008115159050919050565b60008190506145a0826146ad565b919050565b60008190506145b3826146ba565b919050565b6000819050919050565b600073ffffffffffffffffffffffffffffffffffffffff82169050919050565b6000819050919050565b600063ffffffff82169050919050565b600061460782614592565b9050919050565b6000614619826145a5565b9050919050565b82818337600083830152505050565b60005b8381101561464d578082015181840152602081019050614632565b8381111561465c576000848401525b50505050565b6000614675614670836146a0565b614558565b9050919050565b60006146888254614662565b9050919050565b6000601f19601f8301169050919050565b60008160001c9050919050565b600281106146b757fe5b50565b600681106146c457fe5b50565b6146d081614562565b81146146db57600080fd5b50565b6146e781614574565b81146146f257600080fd5b50565b6146fe81614586565b811461470957600080fd5b50565b6002811061471957600080fd5b50565b614725816145b8565b811461473057600080fd5b50565b61473c816145e2565b811461474757600080fd5b50565b614753816145ec565b811461475e57600080fd5b5056fea2646970667358221220405d63c3622a140a881c49d26ababb270b771d159ab9e247d0c4b1c56726377564736f6c63430006010033",
  "source": "// SPDX-License-Identifier: MIT\r\npragma experimental ABIEncoderV2;\r\npragma solidity >=0.4.22 <0.8.0;\r\nimport \"./AdminManager.sol\";\r\nimport \"./Verifier.sol\";\r\n\r\ncontract GardenManager {\r\n\r\n    Verifier VerifierContract;\r\n    AdminManager AManager;    \r\n    uint32 public GardenCount=0;\r\n\r\n    //garden declaration\r\n    mapping (uint32=>Garden) private AllGarden;\r\n    enum GardenType{Vegetable, Hobby}\r\n    enum Status{Waiting,Free,Blocked,CodeWaiting,Location,Blacklist}\r\n    struct Garden{\r\n        address payable owner;\r\n        bool multipleOwners;\r\n        address payable[] coOwners;\r\n        GardenType gardenType;\r\n        string district;\r\n        uint32 area;\r\n        uint[2] secretHash;\r\n        string contact;\r\n        Status status; \r\n        Rent[] rents;\r\n    }\r\n    struct Rent{\r\n        int rate;\r\n        uint32 gardenIndex;\r\n        uint256 duration; \r\n        uint256 price;\r\n        uint256 beginning;\r\n        uint256 balance;\r\n        address payable tenant;\r\n        AccessCode accessCode;\r\n    }\r\n    struct AccessCode{\r\n        string hashCode;\r\n        string encryptedCode;\r\n    }\r\n    constructor (address _adminContract, address _verifierContract) public {\r\n        AManager = AdminManager(_adminContract);\r\n        VerifierContract = Verifier(_verifierContract);\r\n    }\r\n\r\n    modifier OnlyContractAdmin(){\r\n        require(msg.sender == address(AManager), \"Only administrator contract should call.\");\r\n        _;\r\n    }\r\n    modifier OnlyFreeGarden(uint32 gardenIndex){\r\n        require(AllGarden[gardenIndex].status==Status.Free, \"Garden should be free.\");\r\n        _;\r\n    }\r\n    modifier OnlyOwner(uint32 gardenIndex){\r\n        require(AllGarden[gardenIndex].owner==msg.sender, \"Only garden owner should call\");\r\n        _;\r\n    }\r\n    modifier OnlyValidProof(uint32 _gardenIndex, uint[2] memory _proofA, uint[2][2] memory _proofB,\r\n            uint[2] memory _proofC){\r\n                require(VerifierContract.verifyTx(_proofA,_proofB,_proofC,AllGarden[_gardenIndex].secretHash), \"Proof of secret should be valid\");\r\n                _;\r\n            }\r\n\r\n    function ModifyVerifierContract(address _verifierContract) public OnlyContractAdmin() returns(address){\r\n        VerifierContract = Verifier(_verifierContract);\r\n        return _verifierContract;\r\n    }\r\n\r\n    function CreateGarden(uint[2] memory _secretHash, string memory _district,uint32 _area, string memory _contact, GardenType _gardenType, bool _multipleOwners, address payable[] memory _coOwners) public returns(uint32 index){\r\n        Garden storage garden = AllGarden[GardenCount];\r\n        garden.area=_area;\r\n        garden.contact=_contact;\r\n        garden.gardenType=_gardenType;\r\n        garden.secretHash=_secretHash;\r\n        garden.district=_district;\r\n        garden.status=Status.Waiting;\r\n        garden.owner=msg.sender;\r\n        if(_multipleOwners){\r\n            garden.multipleOwners=true;\r\n            garden.coOwners=_coOwners;\r\n        }\r\n        AManager.AddGarden(GardenCount,_secretHash);\r\n        GardenCount++;\r\n        return (GardenCount-1);\r\n    }\r\n\r\n    function UpdateGardenContact(uint32 _gardenIndex, string memory _contact) public OnlyOwner(_gardenIndex) {\r\n        AllGarden[_gardenIndex].contact =_contact;\r\n    }\r\n\r\n    function UpdateGardenSecretHash(uint32 _gardenIndex, uint[2] memory _proofA, uint[2][2] memory _proofB,\r\n            uint[2] memory _proofC, uint[2] memory _newSecretHash) public OnlyOwner(_gardenIndex) OnlyValidProof(_gardenIndex,_proofA,_proofB,_proofC){\r\n        AllGarden[_gardenIndex].secretHash =_newSecretHash;\r\n    }\r\n\r\n    function AcceptGarden(uint32 _gardenIndex) public OnlyContractAdmin() {\r\n        AllGarden[_gardenIndex].status= Status.Free;\r\n    }\r\n\r\n    function RejectGarden(uint32 _gardenIndex) public OnlyContractAdmin() {\r\n        AllGarden[_gardenIndex].status= Status.Blacklist;\r\n    }    \r\n\r\n    function IsRentOver(Rent memory _rent) private view returns (bool){\r\n        if(_rent.beginning + _rent.duration<= block.timestamp){\r\n            return true;\r\n        }\r\n        return false;\r\n    }\r\n\r\n    function GetLastRentForGarden(uint32 _gardenIndex) private view returns(Rent storage){\r\n        return AllGarden[_gardenIndex].rents[AllGarden[_gardenIndex].rents.length-1];\r\n    }\r\n\r\n    function ProposeGardenOffer(uint32 _gardenIndex, address payable _tenant, \r\n    uint256 _rentingDuration, uint _price, uint[2] memory _proofA, uint[2][2] memory _proofB,\r\n            uint[2] memory _proofC) public OnlyFreeGarden(_gardenIndex) OnlyOwner(_gardenIndex) OnlyValidProof(_gardenIndex,_proofA,_proofB,_proofC){\r\n        Garden storage garden = AllGarden[_gardenIndex];        \r\n        garden.status= Status.Blocked;\r\n        garden.rents.push();\r\n        Rent storage lastRent = GetLastRentForGarden(_gardenIndex);\r\n        lastRent.gardenIndex=_gardenIndex;\r\n        lastRent.duration=_rentingDuration;\r\n        lastRent.price=_price;\r\n        lastRent.tenant=_tenant;\r\n        lastRent.rate=-1;\r\n    }\r\n\r\n    function DeleteGardenOffer(uint32 _gardenIndex, uint[2] memory _proofA, uint[2][2] memory _proofB,\r\n            uint[2] memory _proofC) public OnlyOwner(_gardenIndex) OnlyValidProof(_gardenIndex,_proofA,_proofB,_proofC){\r\n        require(AllGarden[_gardenIndex].status== Status.Blocked,\"There is no offer running\");\r\n        AllGarden[_gardenIndex].status= Status.Free;\r\n        AllGarden[_gardenIndex].rents.pop(); //can be very costly, have to be tested\r\n    }\r\n\r\n    function AcceptGardenOffer(uint32 _gardenIndex)public payable{\r\n        Garden storage garden = AllGarden[_gardenIndex];\r\n        Rent storage lastRent = GetLastRentForGarden(_gardenIndex);\r\n        require(garden.status== Status.Blocked, \"Garden should be block for user\");\r\n        require(lastRent.tenant== msg.sender, \"Should be the correct tenant public key\");\r\n        require(lastRent.price <= msg.value, \"Amount for rents insufficient\");\r\n        lastRent.balance=msg.value;\r\n        garden.status=Status.CodeWaiting;\r\n    }\r\n\r\n    function AddAccessCodeToGarden(uint32 _gardenIndex, uint[2] memory _proofA, uint[2][2] memory _proofB,\r\n            uint[2] memory _proofC, string memory _hashCode,string memory _encryptedCode) public OnlyOwner(_gardenIndex) OnlyValidProof(_gardenIndex,_proofA,_proofB,_proofC){\r\n        require(AllGarden[_gardenIndex].status==Status.CodeWaiting,\"Can't add code if no location\");\r\n        Garden storage garden = AllGarden[_gardenIndex];\r\n        Rent storage lastRent = GetLastRentForGarden(_gardenIndex);\r\n        lastRent.beginning=block.timestamp;        \r\n        lastRent.accessCode=AccessCode(_hashCode,_encryptedCode);\r\n        garden.status=Status.Location;\r\n    }\r\n\r\n    function GetRefundBeforeLocation(uint32 _gardenIndex) public {\r\n        require(AllGarden[_gardenIndex].status==Status.CodeWaiting,\"Code is not missing\");\r\n        Rent storage lastRent = GetLastRentForGarden(_gardenIndex);\r\n        require(lastRent.tenant==msg.sender,\"Can't refund if you're not the tenant\");\r\n        msg.sender.transfer(lastRent.balance);\r\n        AllGarden[_gardenIndex].status=Status.Free;\r\n    }\r\n\r\n    function UpdateLocationStatusAndGetPayment(uint32 _gardenIndex, uint[2] memory _proofA, uint[2][2] memory _proofB,\r\n            uint[2] memory _proofC)public OnlyOwner(_gardenIndex) OnlyValidProof(_gardenIndex,_proofA,_proofB,_proofC){\r\n        Rent storage lastRent = GetLastRentForGarden(_gardenIndex);\r\n        Garden storage garden = AllGarden[_gardenIndex];\r\n        require(IsRentOver(lastRent),\"Can't withdraw ether before the end of location\");\r\n        if(garden.multipleOwners){\r\n            uint payroll = lastRent.balance/garden.coOwners.length;\r\n            for (uint256 i = 0; i < garden.coOwners.length; i++) {\r\n                garden.coOwners[i].transfer(payroll);\r\n            }\r\n        }else{\r\n            garden.owner.transfer(lastRent.balance);\r\n        }\r\n        lastRent.accessCode.hashCode=\"\";\r\n        AllGarden[_gardenIndex].status=Status.Free;\r\n    }\r\n\r\n    function AddGradeToGarden(uint32 _gardenIndex,int _grade)public returns(bool saved){\r\n        require(_grade<6 && _grade >=0, \"Grade is not in range 0-5\");\r\n        saved=false;\r\n        Rent[] storage allRents = AllGarden[_gardenIndex].rents;\r\n        for (uint256 i = 0; i < allRents.length; i++) {\r\n            if(msg.sender== allRents[i].tenant && allRents[i].rate==int(-1) && IsRentOver(allRents[i])){\r\n                allRents[i].rate=_grade;\r\n                saved=true;\r\n            }\r\n        }\r\n        return saved;\r\n    }\r\n\r\n    function GetGardenById(uint32 _gardenIndex)external view returns(address payable,bool, address payable[] memory, GardenType,string memory, uint32 , string memory, Status, Rent[] memory){\r\n        Garden memory garden = AllGarden[_gardenIndex];\r\n        return(\r\n            garden.owner,\r\n            garden.multipleOwners,\r\n            garden.coOwners,\r\n            garden.gardenType,\r\n            garden.district,\r\n            garden.area,\r\n            garden.contact,\r\n            garden.status,\r\n            garden.rents\r\n        );\r\n    }\r\n\r\n    function GetEncryptedAccessCodeForGarden(uint32 _gardenIndex)external view returns(string memory) {\r\n        Rent memory lastRent = GetLastRentForGarden(_gardenIndex);\r\n        require(lastRent.tenant==msg.sender,\"Can't access to code if you're not the tenant\");\r\n        return(lastRent.accessCode.encryptedCode);\r\n    }\r\n}\r\n//ouverture litige :\r\n//une fonction pour bloquer export eth, une pour redonner les ethers aux bonnes personnes et/ou modifier duree loc",
  "sourcePath": "C:\\Users\\aymeric.noel\\Desktop\\POC_ZKP\\smart_contracts\\contracts\\GardenManager.sol",
  "compiler": {
    "name": "solc",
    "version": "0.6.1+commit.e6f7d5a4.Emscripten.clang"
  },
  "schemaVersion": "3.3.4",
  "updatedAt": "2021-03-23T13:19:15.480Z",
  "devdoc": {
    "methods": {}
  },
  "userdoc": {
    "methods": {}
  }
}