{
  "contractName": "GLibrary",
  "abi": [
    {
      "inputs": [
        {
          "internalType": "uint256",
          "name": "_beginning",
          "type": "uint256"
        },
        {
          "internalType": "uint256",
          "name": "_duration",
          "type": "uint256"
        }
      ],
      "name": "IsRentOver",
      "outputs": [
        {
          "internalType": "bool",
          "name": "",
          "type": "bool"
        }
      ],
      "stateMutability": "view",
      "type": "function",
      "constant": true
    }
  ],
  "bytecode": "0x60d8610025600b82828239805160001a60731461001857fe5b30600052607381538281f3fe730000000000000000000000000000000000000000301460806040526004361060335760003560e01c8063b5a16593146038575b600080fd5b606b60048036036040811015604c57600080fd5b8101908080359060200190929190803590602001909291905050506085565b604051808215151515815260200191505060405180910390f35b6000428284011160975760019050609c565b600090505b9291505056fea264697066735822122020a8087cb83e7eaf4b12c67015928fa234128d237abb4c473269f32d965e886d64736f6c63430006010033",
  "source": "// SPDX-License-Identifier: MIT\r\npragma solidity >=0.4.22 <0.8.0;\r\nlibrary GLibrary{\r\n    enum GardenType{Vegetable, Hobby}\r\n    enum Status{Waiting,Free,Blocked,CodeWaiting,Location,Blacklist,Dispute}\r\n    struct Garden{\r\n        address payable owner;\r\n        bool multipleOwners;\r\n        address payable[] coOwners;\r\n        GardenType gardenType;\r\n        string district;\r\n        uint32 area;\r\n        uint[2] secretHash;\r\n        string contact;\r\n        Status status; \r\n        Rent[] rents;\r\n    }\r\n    struct Rent{\r\n        int rate;\r\n        uint duration; \r\n        uint price;\r\n        uint beginning;\r\n        uint balance;\r\n        address payable tenant;\r\n        AccessCode accessCode;\r\n    }\r\n    struct AccessCode{\r\n        string hashCode;\r\n        string encryptedCode;\r\n    }\r\n\r\n    function IsRentOver(uint _beginning, uint _duration) public view returns (bool){\r\n        if(_beginning + _duration<= block.timestamp){\r\n            return true;\r\n        }\r\n        return false;\r\n    }\r\n}",
  "sourcePath": "C:\\Users\\aymeric.noel\\Desktop\\ZKP\\POC_ZKP\\smart_contracts\\contracts\\GLibrary.sol",
  "compiler": {
    "name": "solc",
    "version": "0.6.1+commit.e6f7d5a4.Emscripten.clang"
  },
  "schemaVersion": "3.3.4",
  "updatedAt": "2021-03-30T15:56:18.965Z",
  "networkType": "ethereum",
  "devdoc": {
    "methods": {}
  },
  "userdoc": {
    "methods": {}
  }
}